{
	"contracts/MultiSigWallet.sol": {
		"MultiSigWallet": {
			"abi": [
				{
					"inputs": [
						{
							"internalType": "address[]",
							"name": "_owners",
							"type": "address[]"
						},
						{
							"internalType": "uint256",
							"name": "_required",
							"type": "uint256"
						}
					],
					"stateMutability": "nonpayable",
					"type": "constructor"
				},
				{
					"inputs": [
						{
							"internalType": "uint256",
							"name": "_transactionId",
							"type": "uint256"
						}
					],
					"name": "confirmTransaction",
					"outputs": [],
					"stateMutability": "nonpayable",
					"type": "function"
				},
				{
					"inputs": [
						{
							"internalType": "uint256",
							"name": "",
							"type": "uint256"
						},
						{
							"internalType": "address",
							"name": "",
							"type": "address"
						}
					],
					"name": "confirmations",
					"outputs": [
						{
							"internalType": "bool",
							"name": "",
							"type": "bool"
						}
					],
					"stateMutability": "view",
					"type": "function"
				},
				{
					"inputs": [
						{
							"internalType": "uint256",
							"name": "_transactionId",
							"type": "uint256"
						}
					],
					"name": "executeTransaction",
					"outputs": [],
					"stateMutability": "nonpayable",
					"type": "function"
				},
				{
					"inputs": [
						{
							"internalType": "address",
							"name": "",
							"type": "address"
						}
					],
					"name": "isOwner",
					"outputs": [
						{
							"internalType": "bool",
							"name": "",
							"type": "bool"
						}
					],
					"stateMutability": "view",
					"type": "function"
				},
				{
					"inputs": [
						{
							"internalType": "uint256",
							"name": "",
							"type": "uint256"
						}
					],
					"name": "owners",
					"outputs": [
						{
							"internalType": "address",
							"name": "",
							"type": "address"
						}
					],
					"stateMutability": "view",
					"type": "function"
				},
				{
					"inputs": [],
					"name": "required",
					"outputs": [
						{
							"internalType": "uint256",
							"name": "",
							"type": "uint256"
						}
					],
					"stateMutability": "view",
					"type": "function"
				},
				{
					"inputs": [
						{
							"internalType": "address payable",
							"name": "_destination",
							"type": "address"
						},
						{
							"internalType": "uint256",
							"name": "_value",
							"type": "uint256"
						}
					],
					"name": "submitTransaction",
					"outputs": [],
					"stateMutability": "nonpayable",
					"type": "function"
				},
				{
					"inputs": [],
					"name": "transactionId",
					"outputs": [
						{
							"internalType": "uint256",
							"name": "",
							"type": "uint256"
						}
					],
					"stateMutability": "view",
					"type": "function"
				},
				{
					"inputs": [
						{
							"internalType": "uint256",
							"name": "",
							"type": "uint256"
						}
					],
					"name": "transactions",
					"outputs": [
						{
							"internalType": "address payable",
							"name": "destination",
							"type": "address"
						},
						{
							"internalType": "uint256",
							"name": "value",
							"type": "uint256"
						},
						{
							"internalType": "bool",
							"name": "executed",
							"type": "bool"
						}
					],
					"stateMutability": "view",
					"type": "function"
				}
			],
			"devdoc": {
				"kind": "dev",
				"methods": {},
				"version": 1
			},
			"evm": {
				"assembly": "    /* \"contracts/MultiSigWallet.sol\":57:2008  contract MultiSigWallet {... */\n  mstore(0x40, 0x80)\n    /* \"contracts/MultiSigWallet.sol\":585:923  constructor(address[] memory _owners, uint _required) {... */\n  callvalue\n  dup1\n  iszero\n  tag_1\n  jumpi\n  0x00\n  dup1\n  revert\ntag_1:\n  pop\n  mload(0x40)\n  sub(codesize, bytecodeSize)\n  dup1\n  bytecodeSize\n  dup4\n  codecopy\n  dup2\n  dup2\n  add\n  0x40\n  mstore\n  dup2\n  add\n  swap1\n  tag_2\n  swap2\n  swap1\n  tag_3\n  jump\t// in\ntag_2:\n    /* \"contracts/MultiSigWallet.sol\":675:684  _required */\n  dup1\n    /* \"contracts/MultiSigWallet.sol\":657:664  _owners */\n  dup3\n    /* \"contracts/MultiSigWallet.sol\":657:671  _owners.length */\n  mload\n    /* \"contracts/MultiSigWallet.sol\":657:684  _owners.length >= _required */\n  lt\n  iszero\n    /* \"contracts/MultiSigWallet.sol\":657:701  _owners.length >= _required && _required > 0 */\n  dup1\n  iszero\n  tag_6\n  jumpi\n  pop\n    /* \"contracts/MultiSigWallet.sol\":700:701  0 */\n  0x00\n    /* \"contracts/MultiSigWallet.sol\":688:697  _required */\n  dup2\n    /* \"contracts/MultiSigWallet.sol\":688:701  _required > 0 */\n  gt\n    /* \"contracts/MultiSigWallet.sol\":657:701  _owners.length >= _required && _required > 0 */\ntag_6:\n    /* \"contracts/MultiSigWallet.sol\":649:753  require(_owners.length >= _required && _required > 0, \"Invalid number of owners/required confirmations\") */\n  tag_7\n  jumpi\n  mload(0x40)\n  0x08c379a000000000000000000000000000000000000000000000000000000000\n  dup2\n  mstore\n  0x04\n  add\n  tag_8\n  swap1\n  tag_9\n  jump\t// in\ntag_8:\n  mload(0x40)\n  dup1\n  swap2\n  sub\n  swap1\n  revert\ntag_7:\n    /* \"contracts/MultiSigWallet.sol\":769:778  uint256 i */\n  0x00\n    /* \"contracts/MultiSigWallet.sol\":764:860  for (uint256 i = 0; i < _owners.length; i++) {... */\ntag_10:\n    /* \"contracts/MultiSigWallet.sol\":788:795  _owners */\n  dup3\n    /* \"contracts/MultiSigWallet.sol\":788:802  _owners.length */\n  mload\n    /* \"contracts/MultiSigWallet.sol\":784:785  i */\n  dup2\n    /* \"contracts/MultiSigWallet.sol\":784:802  i < _owners.length */\n  lt\n    /* \"contracts/MultiSigWallet.sol\":764:860  for (uint256 i = 0; i < _owners.length; i++) {... */\n  iszero\n  tag_11\n  jumpi\n    /* \"contracts/MultiSigWallet.sol\":845:849  true */\n  0x01\n    /* \"contracts/MultiSigWallet.sol\":823:830  isOwner */\n  0x00\n    /* \"contracts/MultiSigWallet.sol\":823:842  isOwner[_owners[i]] */\n  dup1\n    /* \"contracts/MultiSigWallet.sol\":831:838  _owners */\n  dup6\n    /* \"contracts/MultiSigWallet.sol\":839:840  i */\n  dup5\n    /* \"contracts/MultiSigWallet.sol\":831:841  _owners[i] */\n  dup2\n  mload\n  dup2\n  lt\n  tag_13\n  jumpi\n  tag_14\n  tag_15\n  jump\t// in\ntag_14:\ntag_13:\n  0x20\n  mul\n  0x20\n  add\n  add\n  mload\n    /* \"contracts/MultiSigWallet.sol\":823:842  isOwner[_owners[i]] */\n  0xffffffffffffffffffffffffffffffffffffffff\n  and\n  0xffffffffffffffffffffffffffffffffffffffff\n  and\n  dup2\n  mstore\n  0x20\n  add\n  swap1\n  dup2\n  mstore\n  0x20\n  add\n  0x00\n  keccak256\n  0x00\n    /* \"contracts/MultiSigWallet.sol\":823:849  isOwner[_owners[i]] = true */\n  0x0100\n  exp\n  dup2\n  sload\n  dup2\n  0xff\n  mul\n  not\n  and\n  swap1\n  dup4\n  iszero\n  iszero\n  mul\n  or\n  swap1\n  sstore\n  pop\n    /* \"contracts/MultiSigWallet.sol\":804:807  i++ */\n  dup1\n  dup1\n  tag_16\n  swap1\n  tag_17\n  jump\t// in\ntag_16:\n  swap2\n  pop\n  pop\n    /* \"contracts/MultiSigWallet.sol\":764:860  for (uint256 i = 0; i < _owners.length; i++) {... */\n  jump(tag_10)\ntag_11:\n  pop\n    /* \"contracts/MultiSigWallet.sol\":879:886  _owners */\n  dup2\n    /* \"contracts/MultiSigWallet.sol\":870:876  owners */\n  0x03\n    /* \"contracts/MultiSigWallet.sol\":870:886  owners = _owners */\n  swap1\n  dup1\n  mload\n  swap1\n  0x20\n  add\n  swap1\n  tag_18\n  swap3\n  swap2\n  swap1\n  tag_19\n  jump\t// in\ntag_18:\n  pop\n    /* \"contracts/MultiSigWallet.sol\":907:916  _required */\n  dup1\n    /* \"contracts/MultiSigWallet.sol\":896:904  required */\n  0x04\n    /* \"contracts/MultiSigWallet.sol\":896:916  required = _required */\n  dup2\n  swap1\n  sstore\n  pop\n    /* \"contracts/MultiSigWallet.sol\":585:923  constructor(address[] memory _owners, uint _required) {... */\n  pop\n  pop\n    /* \"contracts/MultiSigWallet.sol\":57:2008  contract MultiSigWallet {... */\n  jump(tag_20)\ntag_19:\n  dup3\n  dup1\n  sload\n  dup3\n  dup3\n  sstore\n  swap1\n  0x00\n  mstore\n  keccak256(0x00, 0x20)\n  swap1\n  dup2\n  add\n  swap3\n  dup3\n  iszero\n  tag_21\n  jumpi\n  swap2\n  0x20\n  mul\n  dup3\n  add\ntag_22:\n  dup3\n  dup2\n  gt\n  iszero\n  tag_23\n  jumpi\n  dup3\n  mload\n  dup3\n  exp(0x0100, 0x00)\n  dup2\n  sload\n  dup2\n  0xffffffffffffffffffffffffffffffffffffffff\n  mul\n  not\n  and\n  swap1\n  dup4\n  0xffffffffffffffffffffffffffffffffffffffff\n  and\n  mul\n  or\n  swap1\n  sstore\n  pop\n  swap2\n  0x20\n  add\n  swap2\n  swap1\n  0x01\n  add\n  swap1\n  jump(tag_22)\ntag_23:\ntag_21:\n  pop\n  swap1\n  pop\n  tag_24\n  swap2\n  swap1\n  tag_25\n  jump\t// in\ntag_24:\n  pop\n  swap1\n  jump\t// out\ntag_25:\ntag_26:\n  dup1\n  dup3\n  gt\n  iszero\n  tag_27\n  jumpi\n  0x00\n  dup2\n  0x00\n  swap1\n  sstore\n  pop\n  0x01\n  add\n  jump(tag_26)\ntag_27:\n  pop\n  swap1\n  jump\t// out\n    /* \"#utility.yul\":7:82   */\ntag_28:\n    /* \"#utility.yul\":40:46   */\n  0x00\n    /* \"#utility.yul\":73:75   */\n  0x40\n    /* \"#utility.yul\":67:76   */\n  mload\n    /* \"#utility.yul\":57:76   */\n  swap1\n  pop\n    /* \"#utility.yul\":7:82   */\n  swap1\n  jump\t// out\n    /* \"#utility.yul\":88:205   */\ntag_29:\n    /* \"#utility.yul\":197:198   */\n  0x00\n    /* \"#utility.yul\":194:195   */\n  dup1\n    /* \"#utility.yul\":187:199   */\n  revert\n    /* \"#utility.yul\":211:328   */\ntag_30:\n    /* \"#utility.yul\":320:321   */\n  0x00\n    /* \"#utility.yul\":317:318   */\n  dup1\n    /* \"#utility.yul\":310:322   */\n  revert\n    /* \"#utility.yul\":334:451   */\ntag_31:\n    /* \"#utility.yul\":443:444   */\n  0x00\n    /* \"#utility.yul\":440:441   */\n  dup1\n    /* \"#utility.yul\":433:445   */\n  revert\n    /* \"#utility.yul\":457:559   */\ntag_32:\n    /* \"#utility.yul\":498:504   */\n  0x00\n    /* \"#utility.yul\":549:551   */\n  0x1f\n    /* \"#utility.yul\":545:552   */\n  not\n    /* \"#utility.yul\":540:542   */\n  0x1f\n    /* \"#utility.yul\":533:538   */\n  dup4\n    /* \"#utility.yul\":529:543   */\n  add\n    /* \"#utility.yul\":525:553   */\n  and\n    /* \"#utility.yul\":515:553   */\n  swap1\n  pop\n    /* \"#utility.yul\":457:559   */\n  swap2\n  swap1\n  pop\n  jump\t// out\n    /* \"#utility.yul\":565:745   */\ntag_33:\n    /* \"#utility.yul\":613:690   */\n  0x4e487b7100000000000000000000000000000000000000000000000000000000\n    /* \"#utility.yul\":610:611   */\n  0x00\n    /* \"#utility.yul\":603:691   */\n  mstore\n    /* \"#utility.yul\":710:714   */\n  0x41\n    /* \"#utility.yul\":707:708   */\n  0x04\n    /* \"#utility.yul\":700:715   */\n  mstore\n    /* \"#utility.yul\":734:738   */\n  0x24\n    /* \"#utility.yul\":731:732   */\n  0x00\n    /* \"#utility.yul\":724:739   */\n  revert\n    /* \"#utility.yul\":751:1032   */\ntag_34:\n    /* \"#utility.yul\":834:861   */\n  tag_59\n    /* \"#utility.yul\":856:860   */\n  dup3\n    /* \"#utility.yul\":834:861   */\n  tag_32\n  jump\t// in\ntag_59:\n    /* \"#utility.yul\":826:832   */\n  dup2\n    /* \"#utility.yul\":822:862   */\n  add\n    /* \"#utility.yul\":964:970   */\n  dup2\n    /* \"#utility.yul\":952:962   */\n  dup2\n    /* \"#utility.yul\":949:971   */\n  lt\n    /* \"#utility.yul\":928:946   */\n  0xffffffffffffffff\n    /* \"#utility.yul\":916:926   */\n  dup3\n    /* \"#utility.yul\":913:947   */\n  gt\n    /* \"#utility.yul\":910:972   */\n  or\n    /* \"#utility.yul\":907:995   */\n  iszero\n  tag_60\n  jumpi\n    /* \"#utility.yul\":975:993   */\n  tag_61\n  tag_33\n  jump\t// in\ntag_61:\n    /* \"#utility.yul\":907:995   */\ntag_60:\n    /* \"#utility.yul\":1015:1025   */\n  dup1\n    /* \"#utility.yul\":1011:1013   */\n  0x40\n    /* \"#utility.yul\":1004:1026   */\n  mstore\n    /* \"#utility.yul\":794:1032   */\n  pop\n    /* \"#utility.yul\":751:1032   */\n  pop\n  pop\n  jump\t// out\n    /* \"#utility.yul\":1038:1167   */\ntag_35:\n    /* \"#utility.yul\":1072:1078   */\n  0x00\n    /* \"#utility.yul\":1099:1119   */\n  tag_63\n  tag_28\n  jump\t// in\ntag_63:\n    /* \"#utility.yul\":1089:1119   */\n  swap1\n  pop\n    /* \"#utility.yul\":1128:1161   */\n  tag_64\n    /* \"#utility.yul\":1156:1160   */\n  dup3\n    /* \"#utility.yul\":1148:1154   */\n  dup3\n    /* \"#utility.yul\":1128:1161   */\n  tag_34\n  jump\t// in\ntag_64:\n    /* \"#utility.yul\":1038:1167   */\n  swap2\n  swap1\n  pop\n  jump\t// out\n    /* \"#utility.yul\":1173:1484   */\ntag_36:\n    /* \"#utility.yul\":1250:1254   */\n  0x00\n    /* \"#utility.yul\":1340:1358   */\n  0xffffffffffffffff\n    /* \"#utility.yul\":1332:1338   */\n  dup3\n    /* \"#utility.yul\":1329:1359   */\n  gt\n    /* \"#utility.yul\":1326:1382   */\n  iszero\n  tag_66\n  jumpi\n    /* \"#utility.yul\":1362:1380   */\n  tag_67\n  tag_33\n  jump\t// in\ntag_67:\n    /* \"#utility.yul\":1326:1382   */\ntag_66:\n    /* \"#utility.yul\":1412:1416   */\n  0x20\n    /* \"#utility.yul\":1404:1410   */\n  dup3\n    /* \"#utility.yul\":1400:1417   */\n  mul\n    /* \"#utility.yul\":1392:1417   */\n  swap1\n  pop\n    /* \"#utility.yul\":1472:1476   */\n  0x20\n    /* \"#utility.yul\":1466:1470   */\n  dup2\n    /* \"#utility.yul\":1462:1477   */\n  add\n    /* \"#utility.yul\":1454:1477   */\n  swap1\n  pop\n    /* \"#utility.yul\":1173:1484   */\n  swap2\n  swap1\n  pop\n  jump\t// out\n    /* \"#utility.yul\":1490:1607   */\ntag_37:\n    /* \"#utility.yul\":1599:1600   */\n  0x00\n    /* \"#utility.yul\":1596:1597   */\n  dup1\n    /* \"#utility.yul\":1589:1601   */\n  revert\n    /* \"#utility.yul\":1613:1739   */\ntag_38:\n    /* \"#utility.yul\":1650:1657   */\n  0x00\n    /* \"#utility.yul\":1690:1732   */\n  0xffffffffffffffffffffffffffffffffffffffff\n    /* \"#utility.yul\":1683:1688   */\n  dup3\n    /* \"#utility.yul\":1679:1733   */\n  and\n    /* \"#utility.yul\":1668:1733   */\n  swap1\n  pop\n    /* \"#utility.yul\":1613:1739   */\n  swap2\n  swap1\n  pop\n  jump\t// out\n    /* \"#utility.yul\":1745:1841   */\ntag_39:\n    /* \"#utility.yul\":1782:1789   */\n  0x00\n    /* \"#utility.yul\":1811:1835   */\n  tag_71\n    /* \"#utility.yul\":1829:1834   */\n  dup3\n    /* \"#utility.yul\":1811:1835   */\n  tag_38\n  jump\t// in\ntag_71:\n    /* \"#utility.yul\":1800:1835   */\n  swap1\n  pop\n    /* \"#utility.yul\":1745:1841   */\n  swap2\n  swap1\n  pop\n  jump\t// out\n    /* \"#utility.yul\":1847:1969   */\ntag_40:\n    /* \"#utility.yul\":1920:1944   */\n  tag_73\n    /* \"#utility.yul\":1938:1943   */\n  dup2\n    /* \"#utility.yul\":1920:1944   */\n  tag_39\n  jump\t// in\ntag_73:\n    /* \"#utility.yul\":1913:1918   */\n  dup2\n    /* \"#utility.yul\":1910:1945   */\n  eq\n    /* \"#utility.yul\":1900:1963   */\n  tag_74\n  jumpi\n    /* \"#utility.yul\":1959:1960   */\n  0x00\n    /* \"#utility.yul\":1956:1957   */\n  dup1\n    /* \"#utility.yul\":1949:1961   */\n  revert\n    /* \"#utility.yul\":1900:1963   */\ntag_74:\n    /* \"#utility.yul\":1847:1969   */\n  pop\n  jump\t// out\n    /* \"#utility.yul\":1975:2118   */\ntag_41:\n    /* \"#utility.yul\":2032:2037   */\n  0x00\n    /* \"#utility.yul\":2063:2069   */\n  dup2\n    /* \"#utility.yul\":2057:2070   */\n  mload\n    /* \"#utility.yul\":2048:2070   */\n  swap1\n  pop\n    /* \"#utility.yul\":2079:2112   */\n  tag_76\n    /* \"#utility.yul\":2106:2111   */\n  dup2\n    /* \"#utility.yul\":2079:2112   */\n  tag_40\n  jump\t// in\ntag_76:\n    /* \"#utility.yul\":1975:2118   */\n  swap3\n  swap2\n  pop\n  pop\n  jump\t// out\n    /* \"#utility.yul\":2141:2873   */\ntag_42:\n    /* \"#utility.yul\":2248:2253   */\n  0x00\n    /* \"#utility.yul\":2273:2354   */\n  tag_78\n    /* \"#utility.yul\":2289:2353   */\n  tag_79\n    /* \"#utility.yul\":2346:2352   */\n  dup5\n    /* \"#utility.yul\":2289:2353   */\n  tag_36\n  jump\t// in\ntag_79:\n    /* \"#utility.yul\":2273:2354   */\n  tag_35\n  jump\t// in\ntag_78:\n    /* \"#utility.yul\":2264:2354   */\n  swap1\n  pop\n    /* \"#utility.yul\":2374:2379   */\n  dup1\n    /* \"#utility.yul\":2403:2409   */\n  dup4\n    /* \"#utility.yul\":2396:2401   */\n  dup3\n    /* \"#utility.yul\":2389:2410   */\n  mstore\n    /* \"#utility.yul\":2437:2441   */\n  0x20\n    /* \"#utility.yul\":2430:2435   */\n  dup3\n    /* \"#utility.yul\":2426:2442   */\n  add\n    /* \"#utility.yul\":2419:2442   */\n  swap1\n  pop\n    /* \"#utility.yul\":2490:2494   */\n  0x20\n    /* \"#utility.yul\":2482:2488   */\n  dup5\n    /* \"#utility.yul\":2478:2495   */\n  mul\n    /* \"#utility.yul\":2470:2476   */\n  dup4\n    /* \"#utility.yul\":2466:2496   */\n  add\n    /* \"#utility.yul\":2519:2522   */\n  dup6\n    /* \"#utility.yul\":2511:2517   */\n  dup2\n    /* \"#utility.yul\":2508:2523   */\n  gt\n    /* \"#utility.yul\":2505:2627   */\n  iszero\n  tag_80\n  jumpi\n    /* \"#utility.yul\":2538:2617   */\n  tag_81\n  tag_37\n  jump\t// in\ntag_81:\n    /* \"#utility.yul\":2505:2627   */\ntag_80:\n    /* \"#utility.yul\":2653:2659   */\n  dup4\n    /* \"#utility.yul\":2636:2867   */\ntag_82:\n    /* \"#utility.yul\":2670:2676   */\n  dup2\n    /* \"#utility.yul\":2665:2668   */\n  dup2\n    /* \"#utility.yul\":2662:2677   */\n  lt\n    /* \"#utility.yul\":2636:2867   */\n  iszero\n  tag_84\n  jumpi\n    /* \"#utility.yul\":2745:2748   */\n  dup1\n    /* \"#utility.yul\":2774:2822   */\n  tag_85\n    /* \"#utility.yul\":2818:2821   */\n  dup9\n    /* \"#utility.yul\":2806:2816   */\n  dup3\n    /* \"#utility.yul\":2774:2822   */\n  tag_41\n  jump\t// in\ntag_85:\n    /* \"#utility.yul\":2769:2772   */\n  dup5\n    /* \"#utility.yul\":2762:2823   */\n  mstore\n    /* \"#utility.yul\":2852:2856   */\n  0x20\n    /* \"#utility.yul\":2847:2850   */\n  dup5\n    /* \"#utility.yul\":2843:2857   */\n  add\n    /* \"#utility.yul\":2836:2857   */\n  swap4\n  pop\n    /* \"#utility.yul\":2712:2867   */\n  pop\n    /* \"#utility.yul\":2696:2700   */\n  0x20\n    /* \"#utility.yul\":2691:2694   */\n  dup2\n    /* \"#utility.yul\":2687:2701   */\n  add\n    /* \"#utility.yul\":2680:2701   */\n  swap1\n  pop\n    /* \"#utility.yul\":2636:2867   */\n  jump(tag_82)\ntag_84:\n    /* \"#utility.yul\":2640:2661   */\n  pop\n    /* \"#utility.yul\":2254:2873   */\n  pop\n  pop\n    /* \"#utility.yul\":2141:2873   */\n  swap4\n  swap3\n  pop\n  pop\n  pop\n  jump\t// out\n    /* \"#utility.yul\":2896:3281   */\ntag_43:\n    /* \"#utility.yul\":2978:2983   */\n  0x00\n    /* \"#utility.yul\":3027:3030   */\n  dup3\n    /* \"#utility.yul\":3020:3024   */\n  0x1f\n    /* \"#utility.yul\":3012:3018   */\n  dup4\n    /* \"#utility.yul\":3008:3025   */\n  add\n    /* \"#utility.yul\":3004:3031   */\n  slt\n    /* \"#utility.yul\":2994:3116   */\n  tag_87\n  jumpi\n    /* \"#utility.yul\":3035:3114   */\n  tag_88\n  tag_31\n  jump\t// in\ntag_88:\n    /* \"#utility.yul\":2994:3116   */\ntag_87:\n    /* \"#utility.yul\":3145:3151   */\n  dup2\n    /* \"#utility.yul\":3139:3152   */\n  mload\n    /* \"#utility.yul\":3170:3275   */\n  tag_89\n    /* \"#utility.yul\":3271:3274   */\n  dup5\n    /* \"#utility.yul\":3263:3269   */\n  dup3\n    /* \"#utility.yul\":3256:3260   */\n  0x20\n    /* \"#utility.yul\":3248:3254   */\n  dup7\n    /* \"#utility.yul\":3244:3261   */\n  add\n    /* \"#utility.yul\":3170:3275   */\n  tag_42\n  jump\t// in\ntag_89:\n    /* \"#utility.yul\":3161:3275   */\n  swap2\n  pop\n    /* \"#utility.yul\":2984:3281   */\n  pop\n    /* \"#utility.yul\":2896:3281   */\n  swap3\n  swap2\n  pop\n  pop\n  jump\t// out\n    /* \"#utility.yul\":3287:3364   */\ntag_44:\n    /* \"#utility.yul\":3324:3331   */\n  0x00\n    /* \"#utility.yul\":3353:3358   */\n  dup2\n    /* \"#utility.yul\":3342:3358   */\n  swap1\n  pop\n    /* \"#utility.yul\":3287:3364   */\n  swap2\n  swap1\n  pop\n  jump\t// out\n    /* \"#utility.yul\":3370:3492   */\ntag_45:\n    /* \"#utility.yul\":3443:3467   */\n  tag_92\n    /* \"#utility.yul\":3461:3466   */\n  dup2\n    /* \"#utility.yul\":3443:3467   */\n  tag_44\n  jump\t// in\ntag_92:\n    /* \"#utility.yul\":3436:3441   */\n  dup2\n    /* \"#utility.yul\":3433:3468   */\n  eq\n    /* \"#utility.yul\":3423:3486   */\n  tag_93\n  jumpi\n    /* \"#utility.yul\":3482:3483   */\n  0x00\n    /* \"#utility.yul\":3479:3480   */\n  dup1\n    /* \"#utility.yul\":3472:3484   */\n  revert\n    /* \"#utility.yul\":3423:3486   */\ntag_93:\n    /* \"#utility.yul\":3370:3492   */\n  pop\n  jump\t// out\n    /* \"#utility.yul\":3498:3641   */\ntag_46:\n    /* \"#utility.yul\":3555:3560   */\n  0x00\n    /* \"#utility.yul\":3586:3592   */\n  dup2\n    /* \"#utility.yul\":3580:3593   */\n  mload\n    /* \"#utility.yul\":3571:3593   */\n  swap1\n  pop\n    /* \"#utility.yul\":3602:3635   */\n  tag_95\n    /* \"#utility.yul\":3629:3634   */\n  dup2\n    /* \"#utility.yul\":3602:3635   */\n  tag_45\n  jump\t// in\ntag_95:\n    /* \"#utility.yul\":3498:3641   */\n  swap3\n  swap2\n  pop\n  pop\n  jump\t// out\n    /* \"#utility.yul\":3647:4357   */\ntag_3:\n    /* \"#utility.yul\":3751:3757   */\n  0x00\n    /* \"#utility.yul\":3759:3765   */\n  dup1\n    /* \"#utility.yul\":3808:3810   */\n  0x40\n    /* \"#utility.yul\":3796:3805   */\n  dup4\n    /* \"#utility.yul\":3787:3794   */\n  dup6\n    /* \"#utility.yul\":3783:3806   */\n  sub\n    /* \"#utility.yul\":3779:3811   */\n  slt\n    /* \"#utility.yul\":3776:3895   */\n  iszero\n  tag_97\n  jumpi\n    /* \"#utility.yul\":3814:3893   */\n  tag_98\n  tag_29\n  jump\t// in\ntag_98:\n    /* \"#utility.yul\":3776:3895   */\ntag_97:\n    /* \"#utility.yul\":3955:3956   */\n  0x00\n    /* \"#utility.yul\":3944:3953   */\n  dup4\n    /* \"#utility.yul\":3940:3957   */\n  add\n    /* \"#utility.yul\":3934:3958   */\n  mload\n    /* \"#utility.yul\":3985:4003   */\n  0xffffffffffffffff\n    /* \"#utility.yul\":3977:3983   */\n  dup2\n    /* \"#utility.yul\":3974:4004   */\n  gt\n    /* \"#utility.yul\":3971:4088   */\n  iszero\n  tag_99\n  jumpi\n    /* \"#utility.yul\":4007:4086   */\n  tag_100\n  tag_30\n  jump\t// in\ntag_100:\n    /* \"#utility.yul\":3971:4088   */\ntag_99:\n    /* \"#utility.yul\":4112:4201   */\n  tag_101\n    /* \"#utility.yul\":4193:4200   */\n  dup6\n    /* \"#utility.yul\":4184:4190   */\n  dup3\n    /* \"#utility.yul\":4173:4182   */\n  dup7\n    /* \"#utility.yul\":4169:4191   */\n  add\n    /* \"#utility.yul\":4112:4201   */\n  tag_43\n  jump\t// in\ntag_101:\n    /* \"#utility.yul\":4102:4201   */\n  swap3\n  pop\n    /* \"#utility.yul\":3905:4211   */\n  pop\n    /* \"#utility.yul\":4250:4252   */\n  0x20\n    /* \"#utility.yul\":4276:4340   */\n  tag_102\n    /* \"#utility.yul\":4332:4339   */\n  dup6\n    /* \"#utility.yul\":4323:4329   */\n  dup3\n    /* \"#utility.yul\":4312:4321   */\n  dup7\n    /* \"#utility.yul\":4308:4330   */\n  add\n    /* \"#utility.yul\":4276:4340   */\n  tag_46\n  jump\t// in\ntag_102:\n    /* \"#utility.yul\":4266:4340   */\n  swap2\n  pop\n    /* \"#utility.yul\":4221:4350   */\n  pop\n    /* \"#utility.yul\":3647:4357   */\n  swap3\n  pop\n  swap3\n  swap1\n  pop\n  jump\t// out\n    /* \"#utility.yul\":4363:4532   */\ntag_47:\n    /* \"#utility.yul\":4447:4458   */\n  0x00\n    /* \"#utility.yul\":4481:4487   */\n  dup3\n    /* \"#utility.yul\":4476:4479   */\n  dup3\n    /* \"#utility.yul\":4469:4488   */\n  mstore\n    /* \"#utility.yul\":4521:4525   */\n  0x20\n    /* \"#utility.yul\":4516:4519   */\n  dup3\n    /* \"#utility.yul\":4512:4526   */\n  add\n    /* \"#utility.yul\":4497:4526   */\n  swap1\n  pop\n    /* \"#utility.yul\":4363:4532   */\n  swap3\n  swap2\n  pop\n  pop\n  jump\t// out\n    /* \"#utility.yul\":4538:4772   */\ntag_48:\n    /* \"#utility.yul\":4678:4712   */\n  0x496e76616c6964206e756d626572206f66206f776e6572732f72657175697265\n    /* \"#utility.yul\":4674:4675   */\n  0x00\n    /* \"#utility.yul\":4666:4672   */\n  dup3\n    /* \"#utility.yul\":4662:4676   */\n  add\n    /* \"#utility.yul\":4655:4713   */\n  mstore\n    /* \"#utility.yul\":4747:4764   */\n  0x6420636f6e6669726d6174696f6e730000000000000000000000000000000000\n    /* \"#utility.yul\":4742:4744   */\n  0x20\n    /* \"#utility.yul\":4734:4740   */\n  dup3\n    /* \"#utility.yul\":4730:4745   */\n  add\n    /* \"#utility.yul\":4723:4765   */\n  mstore\n    /* \"#utility.yul\":4538:4772   */\n  pop\n  jump\t// out\n    /* \"#utility.yul\":4778:5144   */\ntag_49:\n    /* \"#utility.yul\":4920:4923   */\n  0x00\n    /* \"#utility.yul\":4941:5008   */\n  tag_106\n    /* \"#utility.yul\":5005:5007   */\n  0x2f\n    /* \"#utility.yul\":5000:5003   */\n  dup4\n    /* \"#utility.yul\":4941:5008   */\n  tag_47\n  jump\t// in\ntag_106:\n    /* \"#utility.yul\":4934:5008   */\n  swap2\n  pop\n    /* \"#utility.yul\":5017:5110   */\n  tag_107\n    /* \"#utility.yul\":5106:5109   */\n  dup3\n    /* \"#utility.yul\":5017:5110   */\n  tag_48\n  jump\t// in\ntag_107:\n    /* \"#utility.yul\":5135:5137   */\n  0x40\n    /* \"#utility.yul\":5130:5133   */\n  dup3\n    /* \"#utility.yul\":5126:5138   */\n  add\n    /* \"#utility.yul\":5119:5138   */\n  swap1\n  pop\n    /* \"#utility.yul\":4778:5144   */\n  swap2\n  swap1\n  pop\n  jump\t// out\n    /* \"#utility.yul\":5150:5569   */\ntag_9:\n    /* \"#utility.yul\":5316:5320   */\n  0x00\n    /* \"#utility.yul\":5354:5356   */\n  0x20\n    /* \"#utility.yul\":5343:5352   */\n  dup3\n    /* \"#utility.yul\":5339:5357   */\n  add\n    /* \"#utility.yul\":5331:5357   */\n  swap1\n  pop\n    /* \"#utility.yul\":5403:5412   */\n  dup2\n    /* \"#utility.yul\":5397:5401   */\n  dup2\n    /* \"#utility.yul\":5393:5413   */\n  sub\n    /* \"#utility.yul\":5389:5390   */\n  0x00\n    /* \"#utility.yul\":5378:5387   */\n  dup4\n    /* \"#utility.yul\":5374:5391   */\n  add\n    /* \"#utility.yul\":5367:5414   */\n  mstore\n    /* \"#utility.yul\":5431:5562   */\n  tag_109\n    /* \"#utility.yul\":5557:5561   */\n  dup2\n    /* \"#utility.yul\":5431:5562   */\n  tag_49\n  jump\t// in\ntag_109:\n    /* \"#utility.yul\":5423:5562   */\n  swap1\n  pop\n    /* \"#utility.yul\":5150:5569   */\n  swap2\n  swap1\n  pop\n  jump\t// out\n    /* \"#utility.yul\":5575:5755   */\ntag_15:\n    /* \"#utility.yul\":5623:5700   */\n  0x4e487b7100000000000000000000000000000000000000000000000000000000\n    /* \"#utility.yul\":5620:5621   */\n  0x00\n    /* \"#utility.yul\":5613:5701   */\n  mstore\n    /* \"#utility.yul\":5720:5724   */\n  0x32\n    /* \"#utility.yul\":5717:5718   */\n  0x04\n    /* \"#utility.yul\":5710:5725   */\n  mstore\n    /* \"#utility.yul\":5744:5748   */\n  0x24\n    /* \"#utility.yul\":5741:5742   */\n  0x00\n    /* \"#utility.yul\":5734:5749   */\n  revert\n    /* \"#utility.yul\":5761:5941   */\ntag_50:\n    /* \"#utility.yul\":5809:5886   */\n  0x4e487b7100000000000000000000000000000000000000000000000000000000\n    /* \"#utility.yul\":5806:5807   */\n  0x00\n    /* \"#utility.yul\":5799:5887   */\n  mstore\n    /* \"#utility.yul\":5906:5910   */\n  0x11\n    /* \"#utility.yul\":5903:5904   */\n  0x04\n    /* \"#utility.yul\":5896:5911   */\n  mstore\n    /* \"#utility.yul\":5930:5934   */\n  0x24\n    /* \"#utility.yul\":5927:5928   */\n  0x00\n    /* \"#utility.yul\":5920:5935   */\n  revert\n    /* \"#utility.yul\":5947:6180   */\ntag_17:\n    /* \"#utility.yul\":5986:5989   */\n  0x00\n    /* \"#utility.yul\":6009:6033   */\n  tag_113\n    /* \"#utility.yul\":6027:6032   */\n  dup3\n    /* \"#utility.yul\":6009:6033   */\n  tag_44\n  jump\t// in\ntag_113:\n    /* \"#utility.yul\":6000:6033   */\n  swap2\n  pop\n    /* \"#utility.yul\":6055:6121   */\n  0xffffffffffffffffffffffffffffffffffffffffffffffffffffffffffffffff\n    /* \"#utility.yul\":6048:6053   */\n  dup3\n    /* \"#utility.yul\":6045:6122   */\n  sub\n    /* \"#utility.yul\":6042:6145   */\n  tag_114\n  jumpi\n    /* \"#utility.yul\":6125:6143   */\n  tag_115\n  tag_50\n  jump\t// in\ntag_115:\n    /* \"#utility.yul\":6042:6145   */\ntag_114:\n    /* \"#utility.yul\":6172:6173   */\n  0x01\n    /* \"#utility.yul\":6165:6170   */\n  dup3\n    /* \"#utility.yul\":6161:6174   */\n  add\n    /* \"#utility.yul\":6154:6174   */\n  swap1\n  pop\n    /* \"#utility.yul\":5947:6180   */\n  swap2\n  swap1\n  pop\n  jump\t// out\n    /* \"contracts/MultiSigWallet.sol\":57:2008  contract MultiSigWallet {... */\ntag_20:\n  dataSize(sub_0)\n  dup1\n  dataOffset(sub_0)\n  0x00\n  codecopy\n  0x00\n  return\nstop\n\nsub_0: assembly {\n        /* \"contracts/MultiSigWallet.sol\":57:2008  contract MultiSigWallet {... */\n      mstore(0x40, 0x80)\n      callvalue\n      dup1\n      iszero\n      tag_1\n      jumpi\n      0x00\n      dup1\n      revert\n    tag_1:\n      pop\n      jumpi(tag_2, lt(calldatasize, 0x04))\n      shr(0xe0, calldataload(0x00))\n      dup1\n      0x7e2f42e7\n      gt\n      tag_12\n      jumpi\n      dup1\n      0x7e2f42e7\n      eq\n      tag_7\n      jumpi\n      dup1\n      0x9ace38c2\n      eq\n      tag_8\n      jumpi\n      dup1\n      0xc01a8c84\n      eq\n      tag_9\n      jumpi\n      dup1\n      0xdc8452cd\n      eq\n      tag_10\n      jumpi\n      dup1\n      0xee22610b\n      eq\n      tag_11\n      jumpi\n      jump(tag_2)\n    tag_12:\n      dup1\n      0x025e7c27\n      eq\n      tag_3\n      jumpi\n      dup1\n      0x1d43b653\n      eq\n      tag_4\n      jumpi\n      dup1\n      0x2f54bf6e\n      eq\n      tag_5\n      jumpi\n      dup1\n      0x3411c81c\n      eq\n      tag_6\n      jumpi\n    tag_2:\n      0x00\n      dup1\n      revert\n        /* \"contracts/MultiSigWallet.sol\":260:283  address[] public owners */\n    tag_3:\n      tag_13\n      0x04\n      dup1\n      calldatasize\n      sub\n      dup2\n      add\n      swap1\n      tag_14\n      swap2\n      swap1\n      tag_15\n      jump\t// in\n    tag_14:\n      tag_16\n      jump\t// in\n    tag_13:\n      mload(0x40)\n      tag_17\n      swap2\n      swap1\n      tag_18\n      jump\t// in\n    tag_17:\n      mload(0x40)\n      dup1\n      swap2\n      sub\n      swap1\n      return\n        /* \"contracts/MultiSigWallet.sol\":929:1187  function submitTransaction(address payable _destination, uint _value) external onlyOwner {... */\n    tag_4:\n      tag_19\n      0x04\n      dup1\n      calldatasize\n      sub\n      dup2\n      add\n      swap1\n      tag_20\n      swap2\n      swap1\n      tag_21\n      jump\t// in\n    tag_20:\n      tag_22\n      jump\t// in\n    tag_19:\n      stop\n        /* \"contracts/MultiSigWallet.sol\":92:131  mapping(address => bool) public isOwner */\n    tag_5:\n      tag_23\n      0x04\n      dup1\n      calldatasize\n      sub\n      dup2\n      add\n      swap1\n      tag_24\n      swap2\n      swap1\n      tag_25\n      jump\t// in\n    tag_24:\n      tag_26\n      jump\t// in\n    tag_23:\n      mload(0x40)\n      tag_27\n      swap2\n      swap1\n      tag_28\n      jump\t// in\n    tag_27:\n      mload(0x40)\n      dup1\n      swap2\n      sub\n      swap1\n      return\n        /* \"contracts/MultiSigWallet.sol\":191:253  mapping(uint => mapping(address => bool)) public confirmations */\n    tag_6:\n      tag_29\n      0x04\n      dup1\n      calldatasize\n      sub\n      dup2\n      add\n      swap1\n      tag_30\n      swap2\n      swap1\n      tag_31\n      jump\t// in\n    tag_30:\n      tag_32\n      jump\t// in\n    tag_29:\n      mload(0x40)\n      tag_33\n      swap2\n      swap1\n      tag_28\n      jump\t// in\n    tag_33:\n      mload(0x40)\n      dup1\n      swap2\n      sub\n      swap1\n      return\n        /* \"contracts/MultiSigWallet.sol\":318:343  uint public transactionId */\n    tag_7:\n      tag_34\n      tag_35\n      jump\t// in\n    tag_34:\n      mload(0x40)\n      tag_36\n      swap2\n      swap1\n      tag_37\n      jump\t// in\n    tag_36:\n      mload(0x40)\n      dup1\n      swap2\n      sub\n      swap1\n      return\n        /* \"contracts/MultiSigWallet.sol\":137:185  mapping(uint => Transaction) public transactions */\n    tag_8:\n      tag_38\n      0x04\n      dup1\n      calldatasize\n      sub\n      dup2\n      add\n      swap1\n      tag_39\n      swap2\n      swap1\n      tag_15\n      jump\t// in\n    tag_39:\n      tag_40\n      jump\t// in\n    tag_38:\n      mload(0x40)\n      tag_41\n      swap4\n      swap3\n      swap2\n      swap1\n      tag_42\n      jump\t// in\n    tag_41:\n      mload(0x40)\n      dup1\n      swap2\n      sub\n      swap1\n      return\n        /* \"contracts/MultiSigWallet.sol\":1193:1415  function confirmTransaction(uint _transactionId) external onlyOwner {... */\n    tag_9:\n      tag_43\n      0x04\n      dup1\n      calldatasize\n      sub\n      dup2\n      add\n      swap1\n      tag_44\n      swap2\n      swap1\n      tag_15\n      jump\t// in\n    tag_44:\n      tag_45\n      jump\t// in\n    tag_43:\n      stop\n        /* \"contracts/MultiSigWallet.sol\":289:312  uint256 public required */\n    tag_10:\n      tag_46\n      tag_47\n      jump\t// in\n    tag_46:\n      mload(0x40)\n      tag_48\n      swap2\n      swap1\n      tag_37\n      jump\t// in\n    tag_48:\n      mload(0x40)\n      dup1\n      swap2\n      sub\n      swap1\n      return\n        /* \"contracts/MultiSigWallet.sol\":1421:2006  function executeTransaction(uint _transactionId) external onlyOwner {... */\n    tag_11:\n      tag_49\n      0x04\n      dup1\n      calldatasize\n      sub\n      dup2\n      add\n      swap1\n      tag_50\n      swap2\n      swap1\n      tag_15\n      jump\t// in\n    tag_50:\n      tag_51\n      jump\t// in\n    tag_49:\n      stop\n        /* \"contracts/MultiSigWallet.sol\":260:283  address[] public owners */\n    tag_16:\n      0x03\n      dup2\n      dup2\n      sload\n      dup2\n      lt\n      tag_52\n      jumpi\n      0x00\n      dup1\n      revert\n    tag_52:\n      swap1\n      0x00\n      mstore\n      keccak256(0x00, 0x20)\n      add\n      0x00\n      swap2\n      pop\n      sload\n      swap1\n      0x0100\n      exp\n      swap1\n      div\n      0xffffffffffffffffffffffffffffffffffffffff\n      and\n      dup2\n      jump\t// out\n        /* \"contracts/MultiSigWallet.sol\":929:1187  function submitTransaction(address payable _destination, uint _value) external onlyOwner {... */\n    tag_22:\n        /* \"contracts/MultiSigWallet.sol\":499:506  isOwner */\n      0x00\n        /* \"contracts/MultiSigWallet.sol\":499:518  isOwner[msg.sender] */\n      dup1\n        /* \"contracts/MultiSigWallet.sol\":507:517  msg.sender */\n      caller\n        /* \"contracts/MultiSigWallet.sol\":499:518  isOwner[msg.sender] */\n      0xffffffffffffffffffffffffffffffffffffffff\n      and\n      0xffffffffffffffffffffffffffffffffffffffff\n      and\n      dup2\n      mstore\n      0x20\n      add\n      swap1\n      dup2\n      mstore\n      0x20\n      add\n      0x00\n      keccak256\n      0x00\n      swap1\n      sload\n      swap1\n      0x0100\n      exp\n      swap1\n      div\n      0xff\n      and\n        /* \"contracts/MultiSigWallet.sol\":491:561  require(isOwner[msg.sender], \"Only owners can execute this operation\") */\n      tag_55\n      jumpi\n      mload(0x40)\n      0x08c379a000000000000000000000000000000000000000000000000000000000\n      dup2\n      mstore\n      0x04\n      add\n      tag_56\n      swap1\n      tag_57\n      jump\t// in\n    tag_56:\n      mload(0x40)\n      dup1\n      swap2\n      sub\n      swap1\n      revert\n    tag_55:\n        /* \"contracts/MultiSigWallet.sol\":1028:1041  transactionId */\n      0x05\n      0x00\n        /* \"contracts/MultiSigWallet.sol\":1028:1043  transactionId++ */\n      dup2\n      sload\n      dup1\n      swap3\n      swap2\n      swap1\n      tag_59\n      swap1\n      tag_60\n      jump\t// in\n    tag_59:\n      swap2\n      swap1\n      pop\n      sstore\n      pop\n        /* \"contracts/MultiSigWallet.sol\":1083:1123  Transaction(_destination, _value, false) */\n      mload(0x40)\n      dup1\n      0x60\n      add\n      0x40\n      mstore\n      dup1\n        /* \"contracts/MultiSigWallet.sol\":1095:1107  _destination */\n      dup4\n        /* \"contracts/MultiSigWallet.sol\":1083:1123  Transaction(_destination, _value, false) */\n      0xffffffffffffffffffffffffffffffffffffffff\n      and\n      dup2\n      mstore\n      0x20\n      add\n        /* \"contracts/MultiSigWallet.sol\":1109:1115  _value */\n      dup3\n        /* \"contracts/MultiSigWallet.sol\":1083:1123  Transaction(_destination, _value, false) */\n      dup2\n      mstore\n      0x20\n      add\n        /* \"contracts/MultiSigWallet.sol\":1117:1122  false */\n      0x00\n        /* \"contracts/MultiSigWallet.sol\":1083:1123  Transaction(_destination, _value, false) */\n      iszero\n      iszero\n      dup2\n      mstore\n      pop\n        /* \"contracts/MultiSigWallet.sol\":1053:1065  transactions */\n      0x01\n        /* \"contracts/MultiSigWallet.sol\":1053:1080  transactions[transactionId] */\n      0x00\n        /* \"contracts/MultiSigWallet.sol\":1066:1079  transactionId */\n      sload(0x05)\n        /* \"contracts/MultiSigWallet.sol\":1053:1080  transactions[transactionId] */\n      dup2\n      mstore\n      0x20\n      add\n      swap1\n      dup2\n      mstore\n      0x20\n      add\n      0x00\n      keccak256\n        /* \"contracts/MultiSigWallet.sol\":1053:1123  transactions[transactionId] = Transaction(_destination, _value, false) */\n      0x00\n      dup3\n      add\n      mload\n      dup2\n      0x00\n      add\n      exp(0x0100, 0x00)\n      dup2\n      sload\n      dup2\n      0xffffffffffffffffffffffffffffffffffffffff\n      mul\n      not\n      and\n      swap1\n      dup4\n      0xffffffffffffffffffffffffffffffffffffffff\n      and\n      mul\n      or\n      swap1\n      sstore\n      pop\n      0x20\n      dup3\n      add\n      mload\n      dup2\n      0x01\n      add\n      sstore\n      0x40\n      dup3\n      add\n      mload\n      dup2\n      0x02\n      add\n      exp(0x0100, 0x00)\n      dup2\n      sload\n      dup2\n      0xff\n      mul\n      not\n      and\n      swap1\n      dup4\n      iszero\n      iszero\n      mul\n      or\n      swap1\n      sstore\n      pop\n      swap1\n      pop\n      pop\n        /* \"contracts/MultiSigWallet.sol\":1176:1180  true */\n      0x01\n        /* \"contracts/MultiSigWallet.sol\":1133:1146  confirmations */\n      0x02\n        /* \"contracts/MultiSigWallet.sol\":1133:1161  confirmations[transactionId] */\n      0x00\n        /* \"contracts/MultiSigWallet.sol\":1147:1160  transactionId */\n      sload(0x05)\n        /* \"contracts/MultiSigWallet.sol\":1133:1161  confirmations[transactionId] */\n      dup2\n      mstore\n      0x20\n      add\n      swap1\n      dup2\n      mstore\n      0x20\n      add\n      0x00\n      keccak256\n        /* \"contracts/MultiSigWallet.sol\":1133:1173  confirmations[transactionId][msg.sender] */\n      0x00\n        /* \"contracts/MultiSigWallet.sol\":1162:1172  msg.sender */\n      caller\n        /* \"contracts/MultiSigWallet.sol\":1133:1173  confirmations[transactionId][msg.sender] */\n      0xffffffffffffffffffffffffffffffffffffffff\n      and\n      0xffffffffffffffffffffffffffffffffffffffff\n      and\n      dup2\n      mstore\n      0x20\n      add\n      swap1\n      dup2\n      mstore\n      0x20\n      add\n      0x00\n      keccak256\n      0x00\n        /* \"contracts/MultiSigWallet.sol\":1133:1180  confirmations[transactionId][msg.sender] = true */\n      0x0100\n      exp\n      dup2\n      sload\n      dup2\n      0xff\n      mul\n      not\n      and\n      swap1\n      dup4\n      iszero\n      iszero\n      mul\n      or\n      swap1\n      sstore\n      pop\n        /* \"contracts/MultiSigWallet.sol\":929:1187  function submitTransaction(address payable _destination, uint _value) external onlyOwner {... */\n      pop\n      pop\n      jump\t// out\n        /* \"contracts/MultiSigWallet.sol\":92:131  mapping(address => bool) public isOwner */\n    tag_26:\n      mstore(0x20, 0x00)\n      dup1\n      0x00\n      mstore\n      keccak256(0x00, 0x40)\n      0x00\n      swap2\n      pop\n      sload\n      swap1\n      0x0100\n      exp\n      swap1\n      div\n      0xff\n      and\n      dup2\n      jump\t// out\n        /* \"contracts/MultiSigWallet.sol\":191:253  mapping(uint => mapping(address => bool)) public confirmations */\n    tag_32:\n      mstore(0x20, 0x02)\n      dup2\n      0x00\n      mstore\n      mstore(0x20, keccak256(0x00, 0x40))\n      dup1\n      0x00\n      mstore\n      keccak256(0x00, 0x40)\n      0x00\n      swap2\n      pop\n      swap2\n      pop\n      swap1\n      sload\n      swap1\n      0x0100\n      exp\n      swap1\n      div\n      0xff\n      and\n      dup2\n      jump\t// out\n        /* \"contracts/MultiSigWallet.sol\":318:343  uint public transactionId */\n    tag_35:\n      sload(0x05)\n      dup2\n      jump\t// out\n        /* \"contracts/MultiSigWallet.sol\":137:185  mapping(uint => Transaction) public transactions */\n    tag_40:\n      mstore(0x20, 0x01)\n      dup1\n      0x00\n      mstore\n      keccak256(0x00, 0x40)\n      0x00\n      swap2\n      pop\n      swap1\n      pop\n      dup1\n      0x00\n      add\n      0x00\n      swap1\n      sload\n      swap1\n      0x0100\n      exp\n      swap1\n      div\n      0xffffffffffffffffffffffffffffffffffffffff\n      and\n      swap1\n      dup1\n      0x01\n      add\n      sload\n      swap1\n      dup1\n      0x02\n      add\n      0x00\n      swap1\n      sload\n      swap1\n      0x0100\n      exp\n      swap1\n      div\n      0xff\n      and\n      swap1\n      pop\n      dup4\n      jump\t// out\n        /* \"contracts/MultiSigWallet.sol\":1193:1415  function confirmTransaction(uint _transactionId) external onlyOwner {... */\n    tag_45:\n        /* \"contracts/MultiSigWallet.sol\":499:506  isOwner */\n      0x00\n        /* \"contracts/MultiSigWallet.sol\":499:518  isOwner[msg.sender] */\n      dup1\n        /* \"contracts/MultiSigWallet.sol\":507:517  msg.sender */\n      caller\n        /* \"contracts/MultiSigWallet.sol\":499:518  isOwner[msg.sender] */\n      0xffffffffffffffffffffffffffffffffffffffff\n      and\n      0xffffffffffffffffffffffffffffffffffffffff\n      and\n      dup2\n      mstore\n      0x20\n      add\n      swap1\n      dup2\n      mstore\n      0x20\n      add\n      0x00\n      keccak256\n      0x00\n      swap1\n      sload\n      swap1\n      0x0100\n      exp\n      swap1\n      div\n      0xff\n      and\n        /* \"contracts/MultiSigWallet.sol\":491:561  require(isOwner[msg.sender], \"Only owners can execute this operation\") */\n      tag_62\n      jumpi\n      mload(0x40)\n      0x08c379a000000000000000000000000000000000000000000000000000000000\n      dup2\n      mstore\n      0x04\n      add\n      tag_63\n      swap1\n      tag_57\n      jump\t// in\n    tag_63:\n      mload(0x40)\n      dup1\n      swap2\n      sub\n      swap1\n      revert\n    tag_62:\n        /* \"contracts/MultiSigWallet.sol\":1280:1292  transactions */\n      0x01\n        /* \"contracts/MultiSigWallet.sol\":1280:1308  transactions[_transactionId] */\n      0x00\n        /* \"contracts/MultiSigWallet.sol\":1293:1307  _transactionId */\n      dup3\n        /* \"contracts/MultiSigWallet.sol\":1280:1308  transactions[_transactionId] */\n      dup2\n      mstore\n      0x20\n      add\n      swap1\n      dup2\n      mstore\n      0x20\n      add\n      0x00\n      keccak256\n        /* \"contracts/MultiSigWallet.sol\":1280:1317  transactions[_transactionId].executed */\n      0x02\n      add\n      0x00\n      swap1\n      sload\n      swap1\n      0x0100\n      exp\n      swap1\n      div\n      0xff\n      and\n        /* \"contracts/MultiSigWallet.sol\":1279:1317  !transactions[_transactionId].executed */\n      iszero\n        /* \"contracts/MultiSigWallet.sol\":1271:1350  require(!transactions[_transactionId].executed, \"Transaction already executed\") */\n      tag_65\n      jumpi\n      mload(0x40)\n      0x08c379a000000000000000000000000000000000000000000000000000000000\n      dup2\n      mstore\n      0x04\n      add\n      tag_66\n      swap1\n      tag_67\n      jump\t// in\n    tag_66:\n      mload(0x40)\n      dup1\n      swap2\n      sub\n      swap1\n      revert\n    tag_65:\n        /* \"contracts/MultiSigWallet.sol\":1404:1408  true */\n      0x01\n        /* \"contracts/MultiSigWallet.sol\":1360:1373  confirmations */\n      0x02\n        /* \"contracts/MultiSigWallet.sol\":1360:1389  confirmations[_transactionId] */\n      0x00\n        /* \"contracts/MultiSigWallet.sol\":1374:1388  _transactionId */\n      dup4\n        /* \"contracts/MultiSigWallet.sol\":1360:1389  confirmations[_transactionId] */\n      dup2\n      mstore\n      0x20\n      add\n      swap1\n      dup2\n      mstore\n      0x20\n      add\n      0x00\n      keccak256\n        /* \"contracts/MultiSigWallet.sol\":1360:1401  confirmations[_transactionId][msg.sender] */\n      0x00\n        /* \"contracts/MultiSigWallet.sol\":1390:1400  msg.sender */\n      caller\n        /* \"contracts/MultiSigWallet.sol\":1360:1401  confirmations[_transactionId][msg.sender] */\n      0xffffffffffffffffffffffffffffffffffffffff\n      and\n      0xffffffffffffffffffffffffffffffffffffffff\n      and\n      dup2\n      mstore\n      0x20\n      add\n      swap1\n      dup2\n      mstore\n      0x20\n      add\n      0x00\n      keccak256\n      0x00\n        /* \"contracts/MultiSigWallet.sol\":1360:1408  confirmations[_transactionId][msg.sender] = true */\n      0x0100\n      exp\n      dup2\n      sload\n      dup2\n      0xff\n      mul\n      not\n      and\n      swap1\n      dup4\n      iszero\n      iszero\n      mul\n      or\n      swap1\n      sstore\n      pop\n        /* \"contracts/MultiSigWallet.sol\":1193:1415  function confirmTransaction(uint _transactionId) external onlyOwner {... */\n      pop\n      jump\t// out\n        /* \"contracts/MultiSigWallet.sol\":289:312  uint256 public required */\n    tag_47:\n      sload(0x04)\n      dup2\n      jump\t// out\n        /* \"contracts/MultiSigWallet.sol\":1421:2006  function executeTransaction(uint _transactionId) external onlyOwner {... */\n    tag_51:\n        /* \"contracts/MultiSigWallet.sol\":499:506  isOwner */\n      0x00\n        /* \"contracts/MultiSigWallet.sol\":499:518  isOwner[msg.sender] */\n      dup1\n        /* \"contracts/MultiSigWallet.sol\":507:517  msg.sender */\n      caller\n        /* \"contracts/MultiSigWallet.sol\":499:518  isOwner[msg.sender] */\n      0xffffffffffffffffffffffffffffffffffffffff\n      and\n      0xffffffffffffffffffffffffffffffffffffffff\n      and\n      dup2\n      mstore\n      0x20\n      add\n      swap1\n      dup2\n      mstore\n      0x20\n      add\n      0x00\n      keccak256\n      0x00\n      swap1\n      sload\n      swap1\n      0x0100\n      exp\n      swap1\n      div\n      0xff\n      and\n        /* \"contracts/MultiSigWallet.sol\":491:561  require(isOwner[msg.sender], \"Only owners can execute this operation\") */\n      tag_69\n      jumpi\n      mload(0x40)\n      0x08c379a000000000000000000000000000000000000000000000000000000000\n      dup2\n      mstore\n      0x04\n      add\n      tag_70\n      swap1\n      tag_57\n      jump\t// in\n    tag_70:\n      mload(0x40)\n      dup1\n      swap2\n      sub\n      swap1\n      revert\n    tag_69:\n        /* \"contracts/MultiSigWallet.sol\":1508:1520  transactions */\n      0x01\n        /* \"contracts/MultiSigWallet.sol\":1508:1536  transactions[_transactionId] */\n      0x00\n        /* \"contracts/MultiSigWallet.sol\":1521:1535  _transactionId */\n      dup3\n        /* \"contracts/MultiSigWallet.sol\":1508:1536  transactions[_transactionId] */\n      dup2\n      mstore\n      0x20\n      add\n      swap1\n      dup2\n      mstore\n      0x20\n      add\n      0x00\n      keccak256\n        /* \"contracts/MultiSigWallet.sol\":1508:1545  transactions[_transactionId].executed */\n      0x02\n      add\n      0x00\n      swap1\n      sload\n      swap1\n      0x0100\n      exp\n      swap1\n      div\n      0xff\n      and\n        /* \"contracts/MultiSigWallet.sol\":1507:1545  !transactions[_transactionId].executed */\n      iszero\n        /* \"contracts/MultiSigWallet.sol\":1499:1578  require(!transactions[_transactionId].executed, \"Transaction already executed\") */\n      tag_72\n      jumpi\n      mload(0x40)\n      0x08c379a000000000000000000000000000000000000000000000000000000000\n      dup2\n      mstore\n      0x04\n      add\n      tag_73\n      swap1\n      tag_67\n      jump\t// in\n    tag_73:\n      mload(0x40)\n      dup1\n      swap2\n      sub\n      swap1\n      revert\n    tag_72:\n        /* \"contracts/MultiSigWallet.sol\":1589:1611  uint confirmationCount */\n      0x00\n        /* \"contracts/MultiSigWallet.sol\":1626:1632  uint i */\n      dup1\n        /* \"contracts/MultiSigWallet.sol\":1635:1636  0 */\n      0x00\n        /* \"contracts/MultiSigWallet.sol\":1626:1636  uint i = 0 */\n      swap1\n      pop\n        /* \"contracts/MultiSigWallet.sol\":1621:1784  for (uint i = 0; i < owners.length; i++) {... */\n    tag_74:\n        /* \"contracts/MultiSigWallet.sol\":1642:1648  owners */\n      0x03\n        /* \"contracts/MultiSigWallet.sol\":1642:1655  owners.length */\n      dup1\n      sload\n      swap1\n      pop\n        /* \"contracts/MultiSigWallet.sol\":1638:1639  i */\n      dup2\n        /* \"contracts/MultiSigWallet.sol\":1638:1655  i < owners.length */\n      lt\n        /* \"contracts/MultiSigWallet.sol\":1621:1784  for (uint i = 0; i < owners.length; i++) {... */\n      iszero\n      tag_75\n      jumpi\n        /* \"contracts/MultiSigWallet.sol\":1680:1693  confirmations */\n      0x02\n        /* \"contracts/MultiSigWallet.sol\":1680:1709  confirmations[_transactionId] */\n      0x00\n        /* \"contracts/MultiSigWallet.sol\":1694:1708  _transactionId */\n      dup5\n        /* \"contracts/MultiSigWallet.sol\":1680:1709  confirmations[_transactionId] */\n      dup2\n      mstore\n      0x20\n      add\n      swap1\n      dup2\n      mstore\n      0x20\n      add\n      0x00\n      keccak256\n        /* \"contracts/MultiSigWallet.sol\":1680:1720  confirmations[_transactionId][owners[i]] */\n      0x00\n        /* \"contracts/MultiSigWallet.sol\":1710:1716  owners */\n      0x03\n        /* \"contracts/MultiSigWallet.sol\":1717:1718  i */\n      dup4\n        /* \"contracts/MultiSigWallet.sol\":1710:1719  owners[i] */\n      dup2\n      sload\n      dup2\n      lt\n      tag_77\n      jumpi\n      tag_78\n      tag_79\n      jump\t// in\n    tag_78:\n    tag_77:\n      swap1\n      0x00\n      mstore\n      keccak256(0x00, 0x20)\n      add\n      0x00\n      swap1\n      sload\n      swap1\n      0x0100\n      exp\n      swap1\n      div\n      0xffffffffffffffffffffffffffffffffffffffff\n      and\n        /* \"contracts/MultiSigWallet.sol\":1680:1720  confirmations[_transactionId][owners[i]] */\n      0xffffffffffffffffffffffffffffffffffffffff\n      and\n      0xffffffffffffffffffffffffffffffffffffffff\n      and\n      dup2\n      mstore\n      0x20\n      add\n      swap1\n      dup2\n      mstore\n      0x20\n      add\n      0x00\n      keccak256\n      0x00\n      swap1\n      sload\n      swap1\n      0x0100\n      exp\n      swap1\n      div\n      0xff\n      and\n        /* \"contracts/MultiSigWallet.sol\":1676:1774  if (confirmations[_transactionId][owners[i]]) {... */\n      iszero\n      tag_81\n      jumpi\n        /* \"contracts/MultiSigWallet.sol\":1740:1759  confirmationCount++ */\n      dup2\n      dup1\n      tag_82\n      swap1\n      tag_60\n      jump\t// in\n    tag_82:\n      swap3\n      pop\n      pop\n        /* \"contracts/MultiSigWallet.sol\":1676:1774  if (confirmations[_transactionId][owners[i]]) {... */\n    tag_81:\n        /* \"contracts/MultiSigWallet.sol\":1657:1660  i++ */\n      dup1\n      dup1\n      tag_83\n      swap1\n      tag_60\n      jump\t// in\n    tag_83:\n      swap2\n      pop\n      pop\n        /* \"contracts/MultiSigWallet.sol\":1621:1784  for (uint i = 0; i < owners.length; i++) {... */\n      jump(tag_74)\n    tag_75:\n      pop\n        /* \"contracts/MultiSigWallet.sol\":1823:1831  required */\n      sload(0x04)\n        /* \"contracts/MultiSigWallet.sol\":1802:1819  confirmationCount */\n      dup2\n        /* \"contracts/MultiSigWallet.sol\":1802:1831  confirmationCount >= required */\n      lt\n      iszero\n        /* \"contracts/MultiSigWallet.sol\":1794:1860  require(confirmationCount >= required, \"Not enough confirmations\") */\n      tag_84\n      jumpi\n      mload(0x40)\n      0x08c379a000000000000000000000000000000000000000000000000000000000\n      dup2\n      mstore\n      0x04\n      add\n      tag_85\n      swap1\n      tag_86\n      jump\t// in\n    tag_85:\n      mload(0x40)\n      dup1\n      swap2\n      sub\n      swap1\n      revert\n    tag_84:\n        /* \"contracts/MultiSigWallet.sol\":1871:1894  Transaction storage txn */\n      0x00\n        /* \"contracts/MultiSigWallet.sol\":1897:1909  transactions */\n      0x01\n        /* \"contracts/MultiSigWallet.sol\":1897:1925  transactions[_transactionId] */\n      0x00\n        /* \"contracts/MultiSigWallet.sol\":1910:1924  _transactionId */\n      dup5\n        /* \"contracts/MultiSigWallet.sol\":1897:1925  transactions[_transactionId] */\n      dup2\n      mstore\n      0x20\n      add\n      swap1\n      dup2\n      mstore\n      0x20\n      add\n      0x00\n      keccak256\n        /* \"contracts/MultiSigWallet.sol\":1871:1925  Transaction storage txn = transactions[_transactionId] */\n      swap1\n      pop\n        /* \"contracts/MultiSigWallet.sol\":1950:1954  true */\n      0x01\n        /* \"contracts/MultiSigWallet.sol\":1935:1938  txn */\n      dup2\n        /* \"contracts/MultiSigWallet.sol\":1935:1947  txn.executed */\n      0x02\n      add\n      0x00\n        /* \"contracts/MultiSigWallet.sol\":1935:1954  txn.executed = true */\n      0x0100\n      exp\n      dup2\n      sload\n      dup2\n      0xff\n      mul\n      not\n      and\n      swap1\n      dup4\n      iszero\n      iszero\n      mul\n      or\n      swap1\n      sstore\n      pop\n        /* \"contracts/MultiSigWallet.sol\":1964:1967  txn */\n      dup1\n        /* \"contracts/MultiSigWallet.sol\":1964:1979  txn.destination */\n      0x00\n      add\n      0x00\n      swap1\n      sload\n      swap1\n      0x0100\n      exp\n      swap1\n      div\n      0xffffffffffffffffffffffffffffffffffffffff\n      and\n        /* \"contracts/MultiSigWallet.sol\":1964:1988  txn.destination.transfer */\n      0xffffffffffffffffffffffffffffffffffffffff\n      and\n        /* \"contracts/MultiSigWallet.sol\":1964:1999  txn.destination.transfer(txn.value) */\n      0x08fc\n        /* \"contracts/MultiSigWallet.sol\":1989:1992  txn */\n      dup3\n        /* \"contracts/MultiSigWallet.sol\":1989:1998  txn.value */\n      0x01\n      add\n      sload\n        /* \"contracts/MultiSigWallet.sol\":1964:1999  txn.destination.transfer(txn.value) */\n      swap1\n      dup2\n      iszero\n      mul\n      swap1\n      mload(0x40)\n      0x00\n      mload(0x40)\n      dup1\n      dup4\n      sub\n      dup2\n      dup6\n      dup9\n      dup9\n      call\n      swap4\n      pop\n      pop\n      pop\n      pop\n      iszero\n      dup1\n      iszero\n      tag_88\n      jumpi\n      returndatasize\n      0x00\n      dup1\n      returndatacopy\n      revert(0x00, returndatasize)\n    tag_88:\n      pop\n        /* \"contracts/MultiSigWallet.sol\":1489:2006  {... */\n      pop\n      pop\n        /* \"contracts/MultiSigWallet.sol\":1421:2006  function executeTransaction(uint _transactionId) external onlyOwner {... */\n      pop\n      jump\t// out\n        /* \"#utility.yul\":88:205   */\n    tag_90:\n        /* \"#utility.yul\":197:198   */\n      0x00\n        /* \"#utility.yul\":194:195   */\n      dup1\n        /* \"#utility.yul\":187:199   */\n      revert\n        /* \"#utility.yul\":334:411   */\n    tag_92:\n        /* \"#utility.yul\":371:378   */\n      0x00\n        /* \"#utility.yul\":400:405   */\n      dup2\n        /* \"#utility.yul\":389:405   */\n      swap1\n      pop\n        /* \"#utility.yul\":334:411   */\n      swap2\n      swap1\n      pop\n      jump\t// out\n        /* \"#utility.yul\":417:539   */\n    tag_93:\n        /* \"#utility.yul\":490:514   */\n      tag_121\n        /* \"#utility.yul\":508:513   */\n      dup2\n        /* \"#utility.yul\":490:514   */\n      tag_92\n      jump\t// in\n    tag_121:\n        /* \"#utility.yul\":483:488   */\n      dup2\n        /* \"#utility.yul\":480:515   */\n      eq\n        /* \"#utility.yul\":470:533   */\n      tag_122\n      jumpi\n        /* \"#utility.yul\":529:530   */\n      0x00\n        /* \"#utility.yul\":526:527   */\n      dup1\n        /* \"#utility.yul\":519:531   */\n      revert\n        /* \"#utility.yul\":470:533   */\n    tag_122:\n        /* \"#utility.yul\":417:539   */\n      pop\n      jump\t// out\n        /* \"#utility.yul\":545:684   */\n    tag_94:\n        /* \"#utility.yul\":591:596   */\n      0x00\n        /* \"#utility.yul\":629:635   */\n      dup2\n        /* \"#utility.yul\":616:636   */\n      calldataload\n        /* \"#utility.yul\":607:636   */\n      swap1\n      pop\n        /* \"#utility.yul\":645:678   */\n      tag_124\n        /* \"#utility.yul\":672:677   */\n      dup2\n        /* \"#utility.yul\":645:678   */\n      tag_93\n      jump\t// in\n    tag_124:\n        /* \"#utility.yul\":545:684   */\n      swap3\n      swap2\n      pop\n      pop\n      jump\t// out\n        /* \"#utility.yul\":690:1019   */\n    tag_15:\n        /* \"#utility.yul\":749:755   */\n      0x00\n        /* \"#utility.yul\":798:800   */\n      0x20\n        /* \"#utility.yul\":786:795   */\n      dup3\n        /* \"#utility.yul\":777:784   */\n      dup5\n        /* \"#utility.yul\":773:796   */\n      sub\n        /* \"#utility.yul\":769:801   */\n      slt\n        /* \"#utility.yul\":766:885   */\n      iszero\n      tag_126\n      jumpi\n        /* \"#utility.yul\":804:883   */\n      tag_127\n      tag_90\n      jump\t// in\n    tag_127:\n        /* \"#utility.yul\":766:885   */\n    tag_126:\n        /* \"#utility.yul\":924:925   */\n      0x00\n        /* \"#utility.yul\":949:1002   */\n      tag_128\n        /* \"#utility.yul\":994:1001   */\n      dup5\n        /* \"#utility.yul\":985:991   */\n      dup3\n        /* \"#utility.yul\":974:983   */\n      dup6\n        /* \"#utility.yul\":970:992   */\n      add\n        /* \"#utility.yul\":949:1002   */\n      tag_94\n      jump\t// in\n    tag_128:\n        /* \"#utility.yul\":939:1002   */\n      swap2\n      pop\n        /* \"#utility.yul\":895:1012   */\n      pop\n        /* \"#utility.yul\":690:1019   */\n      swap3\n      swap2\n      pop\n      pop\n      jump\t// out\n        /* \"#utility.yul\":1025:1151   */\n    tag_95:\n        /* \"#utility.yul\":1062:1069   */\n      0x00\n        /* \"#utility.yul\":1102:1144   */\n      0xffffffffffffffffffffffffffffffffffffffff\n        /* \"#utility.yul\":1095:1100   */\n      dup3\n        /* \"#utility.yul\":1091:1145   */\n      and\n        /* \"#utility.yul\":1080:1145   */\n      swap1\n      pop\n        /* \"#utility.yul\":1025:1151   */\n      swap2\n      swap1\n      pop\n      jump\t// out\n        /* \"#utility.yul\":1157:1253   */\n    tag_96:\n        /* \"#utility.yul\":1194:1201   */\n      0x00\n        /* \"#utility.yul\":1223:1247   */\n      tag_131\n        /* \"#utility.yul\":1241:1246   */\n      dup3\n        /* \"#utility.yul\":1223:1247   */\n      tag_95\n      jump\t// in\n    tag_131:\n        /* \"#utility.yul\":1212:1247   */\n      swap1\n      pop\n        /* \"#utility.yul\":1157:1253   */\n      swap2\n      swap1\n      pop\n      jump\t// out\n        /* \"#utility.yul\":1259:1377   */\n    tag_97:\n        /* \"#utility.yul\":1346:1370   */\n      tag_133\n        /* \"#utility.yul\":1364:1369   */\n      dup2\n        /* \"#utility.yul\":1346:1370   */\n      tag_96\n      jump\t// in\n    tag_133:\n        /* \"#utility.yul\":1341:1344   */\n      dup3\n        /* \"#utility.yul\":1334:1371   */\n      mstore\n        /* \"#utility.yul\":1259:1377   */\n      pop\n      pop\n      jump\t// out\n        /* \"#utility.yul\":1383:1605   */\n    tag_18:\n        /* \"#utility.yul\":1476:1480   */\n      0x00\n        /* \"#utility.yul\":1514:1516   */\n      0x20\n        /* \"#utility.yul\":1503:1512   */\n      dup3\n        /* \"#utility.yul\":1499:1517   */\n      add\n        /* \"#utility.yul\":1491:1517   */\n      swap1\n      pop\n        /* \"#utility.yul\":1527:1598   */\n      tag_135\n        /* \"#utility.yul\":1595:1596   */\n      0x00\n        /* \"#utility.yul\":1584:1593   */\n      dup4\n        /* \"#utility.yul\":1580:1597   */\n      add\n        /* \"#utility.yul\":1571:1577   */\n      dup5\n        /* \"#utility.yul\":1527:1598   */\n      tag_97\n      jump\t// in\n    tag_135:\n        /* \"#utility.yul\":1383:1605   */\n      swap3\n      swap2\n      pop\n      pop\n      jump\t// out\n        /* \"#utility.yul\":1611:1715   */\n    tag_98:\n        /* \"#utility.yul\":1656:1663   */\n      0x00\n        /* \"#utility.yul\":1685:1709   */\n      tag_137\n        /* \"#utility.yul\":1703:1708   */\n      dup3\n        /* \"#utility.yul\":1685:1709   */\n      tag_95\n      jump\t// in\n    tag_137:\n        /* \"#utility.yul\":1674:1709   */\n      swap1\n      pop\n        /* \"#utility.yul\":1611:1715   */\n      swap2\n      swap1\n      pop\n      jump\t// out\n        /* \"#utility.yul\":1721:1859   */\n    tag_99:\n        /* \"#utility.yul\":1802:1834   */\n      tag_139\n        /* \"#utility.yul\":1828:1833   */\n      dup2\n        /* \"#utility.yul\":1802:1834   */\n      tag_98\n      jump\t// in\n    tag_139:\n        /* \"#utility.yul\":1795:1800   */\n      dup2\n        /* \"#utility.yul\":1792:1835   */\n      eq\n        /* \"#utility.yul\":1782:1853   */\n      tag_140\n      jumpi\n        /* \"#utility.yul\":1849:1850   */\n      0x00\n        /* \"#utility.yul\":1846:1847   */\n      dup1\n        /* \"#utility.yul\":1839:1851   */\n      revert\n        /* \"#utility.yul\":1782:1853   */\n    tag_140:\n        /* \"#utility.yul\":1721:1859   */\n      pop\n      jump\t// out\n        /* \"#utility.yul\":1865:2020   */\n    tag_100:\n        /* \"#utility.yul\":1919:1924   */\n      0x00\n        /* \"#utility.yul\":1957:1963   */\n      dup2\n        /* \"#utility.yul\":1944:1964   */\n      calldataload\n        /* \"#utility.yul\":1935:1964   */\n      swap1\n      pop\n        /* \"#utility.yul\":1973:2014   */\n      tag_142\n        /* \"#utility.yul\":2008:2013   */\n      dup2\n        /* \"#utility.yul\":1973:2014   */\n      tag_99\n      jump\t// in\n    tag_142:\n        /* \"#utility.yul\":1865:2020   */\n      swap3\n      swap2\n      pop\n      pop\n      jump\t// out\n        /* \"#utility.yul\":2026:2516   */\n    tag_21:\n        /* \"#utility.yul\":2102:2108   */\n      0x00\n        /* \"#utility.yul\":2110:2116   */\n      dup1\n        /* \"#utility.yul\":2159:2161   */\n      0x40\n        /* \"#utility.yul\":2147:2156   */\n      dup4\n        /* \"#utility.yul\":2138:2145   */\n      dup6\n        /* \"#utility.yul\":2134:2157   */\n      sub\n        /* \"#utility.yul\":2130:2162   */\n      slt\n        /* \"#utility.yul\":2127:2246   */\n      iszero\n      tag_144\n      jumpi\n        /* \"#utility.yul\":2165:2244   */\n      tag_145\n      tag_90\n      jump\t// in\n    tag_145:\n        /* \"#utility.yul\":2127:2246   */\n    tag_144:\n        /* \"#utility.yul\":2285:2286   */\n      0x00\n        /* \"#utility.yul\":2310:2371   */\n      tag_146\n        /* \"#utility.yul\":2363:2370   */\n      dup6\n        /* \"#utility.yul\":2354:2360   */\n      dup3\n        /* \"#utility.yul\":2343:2352   */\n      dup7\n        /* \"#utility.yul\":2339:2361   */\n      add\n        /* \"#utility.yul\":2310:2371   */\n      tag_100\n      jump\t// in\n    tag_146:\n        /* \"#utility.yul\":2300:2371   */\n      swap3\n      pop\n        /* \"#utility.yul\":2256:2381   */\n      pop\n        /* \"#utility.yul\":2420:2422   */\n      0x20\n        /* \"#utility.yul\":2446:2499   */\n      tag_147\n        /* \"#utility.yul\":2491:2498   */\n      dup6\n        /* \"#utility.yul\":2482:2488   */\n      dup3\n        /* \"#utility.yul\":2471:2480   */\n      dup7\n        /* \"#utility.yul\":2467:2489   */\n      add\n        /* \"#utility.yul\":2446:2499   */\n      tag_94\n      jump\t// in\n    tag_147:\n        /* \"#utility.yul\":2436:2499   */\n      swap2\n      pop\n        /* \"#utility.yul\":2391:2509   */\n      pop\n        /* \"#utility.yul\":2026:2516   */\n      swap3\n      pop\n      swap3\n      swap1\n      pop\n      jump\t// out\n        /* \"#utility.yul\":2522:2644   */\n    tag_101:\n        /* \"#utility.yul\":2595:2619   */\n      tag_149\n        /* \"#utility.yul\":2613:2618   */\n      dup2\n        /* \"#utility.yul\":2595:2619   */\n      tag_96\n      jump\t// in\n    tag_149:\n        /* \"#utility.yul\":2588:2593   */\n      dup2\n        /* \"#utility.yul\":2585:2620   */\n      eq\n        /* \"#utility.yul\":2575:2638   */\n      tag_150\n      jumpi\n        /* \"#utility.yul\":2634:2635   */\n      0x00\n        /* \"#utility.yul\":2631:2632   */\n      dup1\n        /* \"#utility.yul\":2624:2636   */\n      revert\n        /* \"#utility.yul\":2575:2638   */\n    tag_150:\n        /* \"#utility.yul\":2522:2644   */\n      pop\n      jump\t// out\n        /* \"#utility.yul\":2650:2789   */\n    tag_102:\n        /* \"#utility.yul\":2696:2701   */\n      0x00\n        /* \"#utility.yul\":2734:2740   */\n      dup2\n        /* \"#utility.yul\":2721:2741   */\n      calldataload\n        /* \"#utility.yul\":2712:2741   */\n      swap1\n      pop\n        /* \"#utility.yul\":2750:2783   */\n      tag_152\n        /* \"#utility.yul\":2777:2782   */\n      dup2\n        /* \"#utility.yul\":2750:2783   */\n      tag_101\n      jump\t// in\n    tag_152:\n        /* \"#utility.yul\":2650:2789   */\n      swap3\n      swap2\n      pop\n      pop\n      jump\t// out\n        /* \"#utility.yul\":2795:3124   */\n    tag_25:\n        /* \"#utility.yul\":2854:2860   */\n      0x00\n        /* \"#utility.yul\":2903:2905   */\n      0x20\n        /* \"#utility.yul\":2891:2900   */\n      dup3\n        /* \"#utility.yul\":2882:2889   */\n      dup5\n        /* \"#utility.yul\":2878:2901   */\n      sub\n        /* \"#utility.yul\":2874:2906   */\n      slt\n        /* \"#utility.yul\":2871:2990   */\n      iszero\n      tag_154\n      jumpi\n        /* \"#utility.yul\":2909:2988   */\n      tag_155\n      tag_90\n      jump\t// in\n    tag_155:\n        /* \"#utility.yul\":2871:2990   */\n    tag_154:\n        /* \"#utility.yul\":3029:3030   */\n      0x00\n        /* \"#utility.yul\":3054:3107   */\n      tag_156\n        /* \"#utility.yul\":3099:3106   */\n      dup5\n        /* \"#utility.yul\":3090:3096   */\n      dup3\n        /* \"#utility.yul\":3079:3088   */\n      dup6\n        /* \"#utility.yul\":3075:3097   */\n      add\n        /* \"#utility.yul\":3054:3107   */\n      tag_102\n      jump\t// in\n    tag_156:\n        /* \"#utility.yul\":3044:3107   */\n      swap2\n      pop\n        /* \"#utility.yul\":3000:3117   */\n      pop\n        /* \"#utility.yul\":2795:3124   */\n      swap3\n      swap2\n      pop\n      pop\n      jump\t// out\n        /* \"#utility.yul\":3130:3220   */\n    tag_103:\n        /* \"#utility.yul\":3164:3171   */\n      0x00\n        /* \"#utility.yul\":3207:3212   */\n      dup2\n        /* \"#utility.yul\":3200:3213   */\n      iszero\n        /* \"#utility.yul\":3193:3214   */\n      iszero\n        /* \"#utility.yul\":3182:3214   */\n      swap1\n      pop\n        /* \"#utility.yul\":3130:3220   */\n      swap2\n      swap1\n      pop\n      jump\t// out\n        /* \"#utility.yul\":3226:3335   */\n    tag_104:\n        /* \"#utility.yul\":3307:3328   */\n      tag_159\n        /* \"#utility.yul\":3322:3327   */\n      dup2\n        /* \"#utility.yul\":3307:3328   */\n      tag_103\n      jump\t// in\n    tag_159:\n        /* \"#utility.yul\":3302:3305   */\n      dup3\n        /* \"#utility.yul\":3295:3329   */\n      mstore\n        /* \"#utility.yul\":3226:3335   */\n      pop\n      pop\n      jump\t// out\n        /* \"#utility.yul\":3341:3551   */\n    tag_28:\n        /* \"#utility.yul\":3428:3432   */\n      0x00\n        /* \"#utility.yul\":3466:3468   */\n      0x20\n        /* \"#utility.yul\":3455:3464   */\n      dup3\n        /* \"#utility.yul\":3451:3469   */\n      add\n        /* \"#utility.yul\":3443:3469   */\n      swap1\n      pop\n        /* \"#utility.yul\":3479:3544   */\n      tag_161\n        /* \"#utility.yul\":3541:3542   */\n      0x00\n        /* \"#utility.yul\":3530:3539   */\n      dup4\n        /* \"#utility.yul\":3526:3543   */\n      add\n        /* \"#utility.yul\":3517:3523   */\n      dup5\n        /* \"#utility.yul\":3479:3544   */\n      tag_104\n      jump\t// in\n    tag_161:\n        /* \"#utility.yul\":3341:3551   */\n      swap3\n      swap2\n      pop\n      pop\n      jump\t// out\n        /* \"#utility.yul\":3557:4031   */\n    tag_31:\n        /* \"#utility.yul\":3625:3631   */\n      0x00\n        /* \"#utility.yul\":3633:3639   */\n      dup1\n        /* \"#utility.yul\":3682:3684   */\n      0x40\n        /* \"#utility.yul\":3670:3679   */\n      dup4\n        /* \"#utility.yul\":3661:3668   */\n      dup6\n        /* \"#utility.yul\":3657:3680   */\n      sub\n        /* \"#utility.yul\":3653:3685   */\n      slt\n        /* \"#utility.yul\":3650:3769   */\n      iszero\n      tag_163\n      jumpi\n        /* \"#utility.yul\":3688:3767   */\n      tag_164\n      tag_90\n      jump\t// in\n    tag_164:\n        /* \"#utility.yul\":3650:3769   */\n    tag_163:\n        /* \"#utility.yul\":3808:3809   */\n      0x00\n        /* \"#utility.yul\":3833:3886   */\n      tag_165\n        /* \"#utility.yul\":3878:3885   */\n      dup6\n        /* \"#utility.yul\":3869:3875   */\n      dup3\n        /* \"#utility.yul\":3858:3867   */\n      dup7\n        /* \"#utility.yul\":3854:3876   */\n      add\n        /* \"#utility.yul\":3833:3886   */\n      tag_94\n      jump\t// in\n    tag_165:\n        /* \"#utility.yul\":3823:3886   */\n      swap3\n      pop\n        /* \"#utility.yul\":3779:3896   */\n      pop\n        /* \"#utility.yul\":3935:3937   */\n      0x20\n        /* \"#utility.yul\":3961:4014   */\n      tag_166\n        /* \"#utility.yul\":4006:4013   */\n      dup6\n        /* \"#utility.yul\":3997:4003   */\n      dup3\n        /* \"#utility.yul\":3986:3995   */\n      dup7\n        /* \"#utility.yul\":3982:4004   */\n      add\n        /* \"#utility.yul\":3961:4014   */\n      tag_102\n      jump\t// in\n    tag_166:\n        /* \"#utility.yul\":3951:4014   */\n      swap2\n      pop\n        /* \"#utility.yul\":3906:4024   */\n      pop\n        /* \"#utility.yul\":3557:4031   */\n      swap3\n      pop\n      swap3\n      swap1\n      pop\n      jump\t// out\n        /* \"#utility.yul\":4037:4155   */\n    tag_105:\n        /* \"#utility.yul\":4124:4148   */\n      tag_168\n        /* \"#utility.yul\":4142:4147   */\n      dup2\n        /* \"#utility.yul\":4124:4148   */\n      tag_92\n      jump\t// in\n    tag_168:\n        /* \"#utility.yul\":4119:4122   */\n      dup3\n        /* \"#utility.yul\":4112:4149   */\n      mstore\n        /* \"#utility.yul\":4037:4155   */\n      pop\n      pop\n      jump\t// out\n        /* \"#utility.yul\":4161:4383   */\n    tag_37:\n        /* \"#utility.yul\":4254:4258   */\n      0x00\n        /* \"#utility.yul\":4292:4294   */\n      0x20\n        /* \"#utility.yul\":4281:4290   */\n      dup3\n        /* \"#utility.yul\":4277:4295   */\n      add\n        /* \"#utility.yul\":4269:4295   */\n      swap1\n      pop\n        /* \"#utility.yul\":4305:4376   */\n      tag_170\n        /* \"#utility.yul\":4373:4374   */\n      0x00\n        /* \"#utility.yul\":4362:4371   */\n      dup4\n        /* \"#utility.yul\":4358:4375   */\n      add\n        /* \"#utility.yul\":4349:4355   */\n      dup5\n        /* \"#utility.yul\":4305:4376   */\n      tag_105\n      jump\t// in\n    tag_170:\n        /* \"#utility.yul\":4161:4383   */\n      swap3\n      swap2\n      pop\n      pop\n      jump\t// out\n        /* \"#utility.yul\":4389:4531   */\n    tag_106:\n        /* \"#utility.yul\":4492:4524   */\n      tag_172\n        /* \"#utility.yul\":4518:4523   */\n      dup2\n        /* \"#utility.yul\":4492:4524   */\n      tag_98\n      jump\t// in\n    tag_172:\n        /* \"#utility.yul\":4487:4490   */\n      dup3\n        /* \"#utility.yul\":4480:4525   */\n      mstore\n        /* \"#utility.yul\":4389:4531   */\n      pop\n      pop\n      jump\t// out\n        /* \"#utility.yul\":4537:4999   */\n    tag_42:\n        /* \"#utility.yul\":4696:4700   */\n      0x00\n        /* \"#utility.yul\":4734:4736   */\n      0x60\n        /* \"#utility.yul\":4723:4732   */\n      dup3\n        /* \"#utility.yul\":4719:4737   */\n      add\n        /* \"#utility.yul\":4711:4737   */\n      swap1\n      pop\n        /* \"#utility.yul\":4747:4834   */\n      tag_174\n        /* \"#utility.yul\":4831:4832   */\n      0x00\n        /* \"#utility.yul\":4820:4829   */\n      dup4\n        /* \"#utility.yul\":4816:4833   */\n      add\n        /* \"#utility.yul\":4807:4813   */\n      dup7\n        /* \"#utility.yul\":4747:4834   */\n      tag_106\n      jump\t// in\n    tag_174:\n        /* \"#utility.yul\":4844:4916   */\n      tag_175\n        /* \"#utility.yul\":4912:4914   */\n      0x20\n        /* \"#utility.yul\":4901:4910   */\n      dup4\n        /* \"#utility.yul\":4897:4915   */\n      add\n        /* \"#utility.yul\":4888:4894   */\n      dup6\n        /* \"#utility.yul\":4844:4916   */\n      tag_105\n      jump\t// in\n    tag_175:\n        /* \"#utility.yul\":4926:4992   */\n      tag_176\n        /* \"#utility.yul\":4988:4990   */\n      0x40\n        /* \"#utility.yul\":4977:4986   */\n      dup4\n        /* \"#utility.yul\":4973:4991   */\n      add\n        /* \"#utility.yul\":4964:4970   */\n      dup5\n        /* \"#utility.yul\":4926:4992   */\n      tag_104\n      jump\t// in\n    tag_176:\n        /* \"#utility.yul\":4537:4999   */\n      swap5\n      swap4\n      pop\n      pop\n      pop\n      pop\n      jump\t// out\n        /* \"#utility.yul\":5005:5174   */\n    tag_107:\n        /* \"#utility.yul\":5089:5100   */\n      0x00\n        /* \"#utility.yul\":5123:5129   */\n      dup3\n        /* \"#utility.yul\":5118:5121   */\n      dup3\n        /* \"#utility.yul\":5111:5130   */\n      mstore\n        /* \"#utility.yul\":5163:5167   */\n      0x20\n        /* \"#utility.yul\":5158:5161   */\n      dup3\n        /* \"#utility.yul\":5154:5168   */\n      add\n        /* \"#utility.yul\":5139:5168   */\n      swap1\n      pop\n        /* \"#utility.yul\":5005:5174   */\n      swap3\n      swap2\n      pop\n      pop\n      jump\t// out\n        /* \"#utility.yul\":5180:5405   */\n    tag_108:\n        /* \"#utility.yul\":5320:5354   */\n      0x4f6e6c79206f776e6572732063616e20657865637574652074686973206f7065\n        /* \"#utility.yul\":5316:5317   */\n      0x00\n        /* \"#utility.yul\":5308:5314   */\n      dup3\n        /* \"#utility.yul\":5304:5318   */\n      add\n        /* \"#utility.yul\":5297:5355   */\n      mstore\n        /* \"#utility.yul\":5389:5397   */\n      0x726174696f6e0000000000000000000000000000000000000000000000000000\n        /* \"#utility.yul\":5384:5386   */\n      0x20\n        /* \"#utility.yul\":5376:5382   */\n      dup3\n        /* \"#utility.yul\":5372:5387   */\n      add\n        /* \"#utility.yul\":5365:5398   */\n      mstore\n        /* \"#utility.yul\":5180:5405   */\n      pop\n      jump\t// out\n        /* \"#utility.yul\":5411:5777   */\n    tag_109:\n        /* \"#utility.yul\":5553:5556   */\n      0x00\n        /* \"#utility.yul\":5574:5641   */\n      tag_180\n        /* \"#utility.yul\":5638:5640   */\n      0x26\n        /* \"#utility.yul\":5633:5636   */\n      dup4\n        /* \"#utility.yul\":5574:5641   */\n      tag_107\n      jump\t// in\n    tag_180:\n        /* \"#utility.yul\":5567:5641   */\n      swap2\n      pop\n        /* \"#utility.yul\":5650:5743   */\n      tag_181\n        /* \"#utility.yul\":5739:5742   */\n      dup3\n        /* \"#utility.yul\":5650:5743   */\n      tag_108\n      jump\t// in\n    tag_181:\n        /* \"#utility.yul\":5768:5770   */\n      0x40\n        /* \"#utility.yul\":5763:5766   */\n      dup3\n        /* \"#utility.yul\":5759:5771   */\n      add\n        /* \"#utility.yul\":5752:5771   */\n      swap1\n      pop\n        /* \"#utility.yul\":5411:5777   */\n      swap2\n      swap1\n      pop\n      jump\t// out\n        /* \"#utility.yul\":5783:6202   */\n    tag_57:\n        /* \"#utility.yul\":5949:5953   */\n      0x00\n        /* \"#utility.yul\":5987:5989   */\n      0x20\n        /* \"#utility.yul\":5976:5985   */\n      dup3\n        /* \"#utility.yul\":5972:5990   */\n      add\n        /* \"#utility.yul\":5964:5990   */\n      swap1\n      pop\n        /* \"#utility.yul\":6036:6045   */\n      dup2\n        /* \"#utility.yul\":6030:6034   */\n      dup2\n        /* \"#utility.yul\":6026:6046   */\n      sub\n        /* \"#utility.yul\":6022:6023   */\n      0x00\n        /* \"#utility.yul\":6011:6020   */\n      dup4\n        /* \"#utility.yul\":6007:6024   */\n      add\n        /* \"#utility.yul\":6000:6047   */\n      mstore\n        /* \"#utility.yul\":6064:6195   */\n      tag_183\n        /* \"#utility.yul\":6190:6194   */\n      dup2\n        /* \"#utility.yul\":6064:6195   */\n      tag_109\n      jump\t// in\n    tag_183:\n        /* \"#utility.yul\":6056:6195   */\n      swap1\n      pop\n        /* \"#utility.yul\":5783:6202   */\n      swap2\n      swap1\n      pop\n      jump\t// out\n        /* \"#utility.yul\":6208:6388   */\n    tag_110:\n        /* \"#utility.yul\":6256:6333   */\n      0x4e487b7100000000000000000000000000000000000000000000000000000000\n        /* \"#utility.yul\":6253:6254   */\n      0x00\n        /* \"#utility.yul\":6246:6334   */\n      mstore\n        /* \"#utility.yul\":6353:6357   */\n      0x11\n        /* \"#utility.yul\":6350:6351   */\n      0x04\n        /* \"#utility.yul\":6343:6358   */\n      mstore\n        /* \"#utility.yul\":6377:6381   */\n      0x24\n        /* \"#utility.yul\":6374:6375   */\n      0x00\n        /* \"#utility.yul\":6367:6382   */\n      revert\n        /* \"#utility.yul\":6394:6627   */\n    tag_60:\n        /* \"#utility.yul\":6433:6436   */\n      0x00\n        /* \"#utility.yul\":6456:6480   */\n      tag_186\n        /* \"#utility.yul\":6474:6479   */\n      dup3\n        /* \"#utility.yul\":6456:6480   */\n      tag_92\n      jump\t// in\n    tag_186:\n        /* \"#utility.yul\":6447:6480   */\n      swap2\n      pop\n        /* \"#utility.yul\":6502:6568   */\n      0xffffffffffffffffffffffffffffffffffffffffffffffffffffffffffffffff\n        /* \"#utility.yul\":6495:6500   */\n      dup3\n        /* \"#utility.yul\":6492:6569   */\n      sub\n        /* \"#utility.yul\":6489:6592   */\n      tag_187\n      jumpi\n        /* \"#utility.yul\":6572:6590   */\n      tag_188\n      tag_110\n      jump\t// in\n    tag_188:\n        /* \"#utility.yul\":6489:6592   */\n    tag_187:\n        /* \"#utility.yul\":6619:6620   */\n      0x01\n        /* \"#utility.yul\":6612:6617   */\n      dup3\n        /* \"#utility.yul\":6608:6621   */\n      add\n        /* \"#utility.yul\":6601:6621   */\n      swap1\n      pop\n        /* \"#utility.yul\":6394:6627   */\n      swap2\n      swap1\n      pop\n      jump\t// out\n        /* \"#utility.yul\":6633:6811   */\n    tag_111:\n        /* \"#utility.yul\":6773:6803   */\n      0x5472616e73616374696f6e20616c726561647920657865637574656400000000\n        /* \"#utility.yul\":6769:6770   */\n      0x00\n        /* \"#utility.yul\":6761:6767   */\n      dup3\n        /* \"#utility.yul\":6757:6771   */\n      add\n        /* \"#utility.yul\":6750:6804   */\n      mstore\n        /* \"#utility.yul\":6633:6811   */\n      pop\n      jump\t// out\n        /* \"#utility.yul\":6817:7183   */\n    tag_112:\n        /* \"#utility.yul\":6959:6962   */\n      0x00\n        /* \"#utility.yul\":6980:7047   */\n      tag_191\n        /* \"#utility.yul\":7044:7046   */\n      0x1c\n        /* \"#utility.yul\":7039:7042   */\n      dup4\n        /* \"#utility.yul\":6980:7047   */\n      tag_107\n      jump\t// in\n    tag_191:\n        /* \"#utility.yul\":6973:7047   */\n      swap2\n      pop\n        /* \"#utility.yul\":7056:7149   */\n      tag_192\n        /* \"#utility.yul\":7145:7148   */\n      dup3\n        /* \"#utility.yul\":7056:7149   */\n      tag_111\n      jump\t// in\n    tag_192:\n        /* \"#utility.yul\":7174:7176   */\n      0x20\n        /* \"#utility.yul\":7169:7172   */\n      dup3\n        /* \"#utility.yul\":7165:7177   */\n      add\n        /* \"#utility.yul\":7158:7177   */\n      swap1\n      pop\n        /* \"#utility.yul\":6817:7183   */\n      swap2\n      swap1\n      pop\n      jump\t// out\n        /* \"#utility.yul\":7189:7608   */\n    tag_67:\n        /* \"#utility.yul\":7355:7359   */\n      0x00\n        /* \"#utility.yul\":7393:7395   */\n      0x20\n        /* \"#utility.yul\":7382:7391   */\n      dup3\n        /* \"#utility.yul\":7378:7396   */\n      add\n        /* \"#utility.yul\":7370:7396   */\n      swap1\n      pop\n        /* \"#utility.yul\":7442:7451   */\n      dup2\n        /* \"#utility.yul\":7436:7440   */\n      dup2\n        /* \"#utility.yul\":7432:7452   */\n      sub\n        /* \"#utility.yul\":7428:7429   */\n      0x00\n        /* \"#utility.yul\":7417:7426   */\n      dup4\n        /* \"#utility.yul\":7413:7430   */\n      add\n        /* \"#utility.yul\":7406:7453   */\n      mstore\n        /* \"#utility.yul\":7470:7601   */\n      tag_194\n        /* \"#utility.yul\":7596:7600   */\n      dup2\n        /* \"#utility.yul\":7470:7601   */\n      tag_112\n      jump\t// in\n    tag_194:\n        /* \"#utility.yul\":7462:7601   */\n      swap1\n      pop\n        /* \"#utility.yul\":7189:7608   */\n      swap2\n      swap1\n      pop\n      jump\t// out\n        /* \"#utility.yul\":7614:7794   */\n    tag_79:\n        /* \"#utility.yul\":7662:7739   */\n      0x4e487b7100000000000000000000000000000000000000000000000000000000\n        /* \"#utility.yul\":7659:7660   */\n      0x00\n        /* \"#utility.yul\":7652:7740   */\n      mstore\n        /* \"#utility.yul\":7759:7763   */\n      0x32\n        /* \"#utility.yul\":7756:7757   */\n      0x04\n        /* \"#utility.yul\":7749:7764   */\n      mstore\n        /* \"#utility.yul\":7783:7787   */\n      0x24\n        /* \"#utility.yul\":7780:7781   */\n      0x00\n        /* \"#utility.yul\":7773:7788   */\n      revert\n        /* \"#utility.yul\":7800:7974   */\n    tag_113:\n        /* \"#utility.yul\":7940:7966   */\n      0x4e6f7420656e6f75676820636f6e6669726d6174696f6e730000000000000000\n        /* \"#utility.yul\":7936:7937   */\n      0x00\n        /* \"#utility.yul\":7928:7934   */\n      dup3\n        /* \"#utility.yul\":7924:7938   */\n      add\n        /* \"#utility.yul\":7917:7967   */\n      mstore\n        /* \"#utility.yul\":7800:7974   */\n      pop\n      jump\t// out\n        /* \"#utility.yul\":7980:8346   */\n    tag_114:\n        /* \"#utility.yul\":8122:8125   */\n      0x00\n        /* \"#utility.yul\":8143:8210   */\n      tag_198\n        /* \"#utility.yul\":8207:8209   */\n      0x18\n        /* \"#utility.yul\":8202:8205   */\n      dup4\n        /* \"#utility.yul\":8143:8210   */\n      tag_107\n      jump\t// in\n    tag_198:\n        /* \"#utility.yul\":8136:8210   */\n      swap2\n      pop\n        /* \"#utility.yul\":8219:8312   */\n      tag_199\n        /* \"#utility.yul\":8308:8311   */\n      dup3\n        /* \"#utility.yul\":8219:8312   */\n      tag_113\n      jump\t// in\n    tag_199:\n        /* \"#utility.yul\":8337:8339   */\n      0x20\n        /* \"#utility.yul\":8332:8335   */\n      dup3\n        /* \"#utility.yul\":8328:8340   */\n      add\n        /* \"#utility.yul\":8321:8340   */\n      swap1\n      pop\n        /* \"#utility.yul\":7980:8346   */\n      swap2\n      swap1\n      pop\n      jump\t// out\n        /* \"#utility.yul\":8352:8771   */\n    tag_86:\n        /* \"#utility.yul\":8518:8522   */\n      0x00\n        /* \"#utility.yul\":8556:8558   */\n      0x20\n        /* \"#utility.yul\":8545:8554   */\n      dup3\n        /* \"#utility.yul\":8541:8559   */\n      add\n        /* \"#utility.yul\":8533:8559   */\n      swap1\n      pop\n        /* \"#utility.yul\":8605:8614   */\n      dup2\n        /* \"#utility.yul\":8599:8603   */\n      dup2\n        /* \"#utility.yul\":8595:8615   */\n      sub\n        /* \"#utility.yul\":8591:8592   */\n      0x00\n        /* \"#utility.yul\":8580:8589   */\n      dup4\n        /* \"#utility.yul\":8576:8593   */\n      add\n        /* \"#utility.yul\":8569:8616   */\n      mstore\n        /* \"#utility.yul\":8633:8764   */\n      tag_201\n        /* \"#utility.yul\":8759:8763   */\n      dup2\n        /* \"#utility.yul\":8633:8764   */\n      tag_114\n      jump\t// in\n    tag_201:\n        /* \"#utility.yul\":8625:8764   */\n      swap1\n      pop\n        /* \"#utility.yul\":8352:8771   */\n      swap2\n      swap1\n      pop\n      jump\t// out\n\n    auxdata: 0xa264697066735822122004cac39cfb37a4a73c0d63b1be580cd044400247f1464bcb6defa3cec913b90064736f6c63430008120033\n}\n",
				"bytecode": {
					"linkReferences": {},
					"object": "60806040523480156200001157600080fd5b506040516200137e3803806200137e833981810160405281019062000037919062000422565b80825110158015620000495750600081115b6200008b576040517f08c379a000000000000000000000000000000000000000000000000000000000815260040162000082906200050f565b60405180910390fd5b60005b825181101562000122576001600080858481518110620000b357620000b262000531565b5b602002602001015173ffffffffffffffffffffffffffffffffffffffff1673ffffffffffffffffffffffffffffffffffffffff16815260200190815260200160002060006101000a81548160ff021916908315150217905550808062000119906200058f565b9150506200008e565b5081600390805190602001906200013b9291906200014b565b50806004819055505050620005dc565b828054828255906000526020600020908101928215620001c7579160200282015b82811115620001c65782518260006101000a81548173ffffffffffffffffffffffffffffffffffffffff021916908373ffffffffffffffffffffffffffffffffffffffff160217905550916020019190600101906200016c565b5b509050620001d69190620001da565b5090565b5b80821115620001f5576000816000905550600101620001db565b5090565b6000604051905090565b600080fd5b600080fd5b600080fd5b6000601f19601f8301169050919050565b7f4e487b7100000000000000000000000000000000000000000000000000000000600052604160045260246000fd5b6200025d8262000212565b810181811067ffffffffffffffff821117156200027f576200027e62000223565b5b80604052505050565b600062000294620001f9565b9050620002a2828262000252565b919050565b600067ffffffffffffffff821115620002c557620002c462000223565b5b602082029050602081019050919050565b600080fd5b600073ffffffffffffffffffffffffffffffffffffffff82169050919050565b60006200030882620002db565b9050919050565b6200031a81620002fb565b81146200032657600080fd5b50565b6000815190506200033a816200030f565b92915050565b6000620003576200035184620002a7565b62000288565b905080838252602082019050602084028301858111156200037d576200037c620002d6565b5b835b81811015620003aa578062000395888262000329565b8452602084019350506020810190506200037f565b5050509392505050565b600082601f830112620003cc57620003cb6200020d565b5b8151620003de84826020860162000340565b91505092915050565b6000819050919050565b620003fc81620003e7565b81146200040857600080fd5b50565b6000815190506200041c81620003f1565b92915050565b600080604083850312156200043c576200043b62000203565b5b600083015167ffffffffffffffff8111156200045d576200045c62000208565b5b6200046b85828601620003b4565b92505060206200047e858286016200040b565b9150509250929050565b600082825260208201905092915050565b7f496e76616c6964206e756d626572206f66206f776e6572732f7265717569726560008201527f6420636f6e6669726d6174696f6e730000000000000000000000000000000000602082015250565b6000620004f7602f8362000488565b9150620005048262000499565b604082019050919050565b600060208201905081810360008301526200052a81620004e8565b9050919050565b7f4e487b7100000000000000000000000000000000000000000000000000000000600052603260045260246000fd5b7f4e487b7100000000000000000000000000000000000000000000000000000000600052601160045260246000fd5b60006200059c82620003e7565b91507fffffffffffffffffffffffffffffffffffffffffffffffffffffffffffffffff8203620005d157620005d062000560565b5b600182019050919050565b610d9280620005ec6000396000f3fe608060405234801561001057600080fd5b50600436106100935760003560e01c80637e2f42e7116100665780637e2f42e7146101445780639ace38c214610162578063c01a8c8414610194578063dc8452cd146101b0578063ee22610b146101ce57610093565b8063025e7c27146100985780631d43b653146100c85780632f54bf6e146100e45780633411c81c14610114575b600080fd5b6100b260048036038101906100ad91906108f5565b6101ea565b6040516100bf9190610963565b60405180910390f35b6100e260048036038101906100dd91906109bc565b610229565b005b6100fe60048036038101906100f99190610a28565b6103f8565b60405161010b9190610a70565b60405180910390f35b61012e60048036038101906101299190610a8b565b610418565b60405161013b9190610a70565b60405180910390f35b61014c610447565b6040516101599190610ada565b60405180910390f35b61017c600480360381019061017791906108f5565b61044d565b60405161018b93929190610b04565b60405180910390f35b6101ae60048036038101906101a991906108f5565b6104a4565b005b6101b86105ff565b6040516101c59190610ada565b60405180910390f35b6101e860048036038101906101e391906108f5565b610605565b005b600381815481106101fa57600080fd5b906000526020600020016000915054906101000a900473ffffffffffffffffffffffffffffffffffffffff1681565b6000803373ffffffffffffffffffffffffffffffffffffffff1673ffffffffffffffffffffffffffffffffffffffff16815260200190815260200160002060009054906101000a900460ff166102b4576040517f08c379a00000000000000000000000000000000000000000000000000000000081526004016102ab90610bbe565b60405180910390fd5b600560008154809291906102c790610c0d565b919050555060405180606001604052808373ffffffffffffffffffffffffffffffffffffffff1681526020018281526020016000151581525060016000600554815260200190815260200160002060008201518160000160006101000a81548173ffffffffffffffffffffffffffffffffffffffff021916908373ffffffffffffffffffffffffffffffffffffffff1602179055506020820151816001015560408201518160020160006101000a81548160ff021916908315150217905550905050600160026000600554815260200190815260200160002060003373ffffffffffffffffffffffffffffffffffffffff1673ffffffffffffffffffffffffffffffffffffffff16815260200190815260200160002060006101000a81548160ff0219169083151502179055505050565b60006020528060005260406000206000915054906101000a900460ff1681565b60026020528160005260406000206020528060005260406000206000915091509054906101000a900460ff1681565b60055481565b60016020528060005260406000206000915090508060000160009054906101000a900473ffffffffffffffffffffffffffffffffffffffff16908060010154908060020160009054906101000a900460ff16905083565b6000803373ffffffffffffffffffffffffffffffffffffffff1673ffffffffffffffffffffffffffffffffffffffff16815260200190815260200160002060009054906101000a900460ff1661052f576040517f08c379a000000000000000000000000000000000000000000000000000000000815260040161052690610bbe565b60405180910390fd5b6001600082815260200190815260200160002060020160009054906101000a900460ff1615610593576040517f08c379a000000000000000000000000000000000000000000000000000000000815260040161058a90610ca1565b60405180910390fd5b60016002600083815260200190815260200160002060003373ffffffffffffffffffffffffffffffffffffffff1673ffffffffffffffffffffffffffffffffffffffff16815260200190815260200160002060006101000a81548160ff02191690831515021790555050565b60045481565b6000803373ffffffffffffffffffffffffffffffffffffffff1673ffffffffffffffffffffffffffffffffffffffff16815260200190815260200160002060009054906101000a900460ff16610690576040517f08c379a000000000000000000000000000000000000000000000000000000000815260040161068790610bbe565b60405180910390fd5b6001600082815260200190815260200160002060020160009054906101000a900460ff16156106f4576040517f08c379a00000000000000000000000000000000000000000000000000000000081526004016106eb90610ca1565b60405180910390fd5b600080600090505b6003805490508110156107cc576002600084815260200190815260200160002060006003838154811061073257610731610cc1565b5b9060005260206000200160009054906101000a900473ffffffffffffffffffffffffffffffffffffffff1673ffffffffffffffffffffffffffffffffffffffff1673ffffffffffffffffffffffffffffffffffffffff16815260200190815260200160002060009054906101000a900460ff16156107b95781806107b590610c0d565b9250505b80806107c490610c0d565b9150506106fc565b50600454811015610812576040517f08c379a000000000000000000000000000000000000000000000000000000000815260040161080990610d3c565b60405180910390fd5b600060016000848152602001908152602001600020905060018160020160006101000a81548160ff0219169083151502179055508060000160009054906101000a900473ffffffffffffffffffffffffffffffffffffffff1673ffffffffffffffffffffffffffffffffffffffff166108fc82600101549081150290604051600060405180830381858888f193505050501580156108b4573d6000803e3d6000fd5b50505050565b600080fd5b6000819050919050565b6108d2816108bf565b81146108dd57600080fd5b50565b6000813590506108ef816108c9565b92915050565b60006020828403121561090b5761090a6108ba565b5b6000610919848285016108e0565b91505092915050565b600073ffffffffffffffffffffffffffffffffffffffff82169050919050565b600061094d82610922565b9050919050565b61095d81610942565b82525050565b60006020820190506109786000830184610954565b92915050565b600061098982610922565b9050919050565b6109998161097e565b81146109a457600080fd5b50565b6000813590506109b681610990565b92915050565b600080604083850312156109d3576109d26108ba565b5b60006109e1858286016109a7565b92505060206109f2858286016108e0565b9150509250929050565b610a0581610942565b8114610a1057600080fd5b50565b600081359050610a22816109fc565b92915050565b600060208284031215610a3e57610a3d6108ba565b5b6000610a4c84828501610a13565b91505092915050565b60008115159050919050565b610a6a81610a55565b82525050565b6000602082019050610a856000830184610a61565b92915050565b60008060408385031215610aa257610aa16108ba565b5b6000610ab0858286016108e0565b9250506020610ac185828601610a13565b9150509250929050565b610ad4816108bf565b82525050565b6000602082019050610aef6000830184610acb565b92915050565b610afe8161097e565b82525050565b6000606082019050610b196000830186610af5565b610b266020830185610acb565b610b336040830184610a61565b949350505050565b600082825260208201905092915050565b7f4f6e6c79206f776e6572732063616e20657865637574652074686973206f706560008201527f726174696f6e0000000000000000000000000000000000000000000000000000602082015250565b6000610ba8602683610b3b565b9150610bb382610b4c565b604082019050919050565b60006020820190508181036000830152610bd781610b9b565b9050919050565b7f4e487b7100000000000000000000000000000000000000000000000000000000600052601160045260246000fd5b6000610c18826108bf565b91507fffffffffffffffffffffffffffffffffffffffffffffffffffffffffffffffff8203610c4a57610c49610bde565b5b600182019050919050565b7f5472616e73616374696f6e20616c726561647920657865637574656400000000600082015250565b6000610c8b601c83610b3b565b9150610c9682610c55565b602082019050919050565b60006020820190508181036000830152610cba81610c7e565b9050919050565b7f4e487b7100000000000000000000000000000000000000000000000000000000600052603260045260246000fd5b7f4e6f7420656e6f75676820636f6e6669726d6174696f6e730000000000000000600082015250565b6000610d26601883610b3b565b9150610d3182610cf0565b602082019050919050565b60006020820190508181036000830152610d5581610d19565b905091905056fea264697066735822122004cac39cfb37a4a73c0d63b1be580cd044400247f1464bcb6defa3cec913b90064736f6c63430008120033",
					"opcodes": "PUSH1 0x80 PUSH1 0x40 MSTORE CALLVALUE DUP1 ISZERO PUSH3 0x11 JUMPI PUSH1 0x0 DUP1 REVERT JUMPDEST POP PUSH1 0x40 MLOAD PUSH3 0x137E CODESIZE SUB DUP1 PUSH3 0x137E DUP4 CODECOPY DUP2 DUP2 ADD PUSH1 0x40 MSTORE DUP2 ADD SWAP1 PUSH3 0x37 SWAP2 SWAP1 PUSH3 0x422 JUMP JUMPDEST DUP1 DUP3 MLOAD LT ISZERO DUP1 ISZERO PUSH3 0x49 JUMPI POP PUSH1 0x0 DUP2 GT JUMPDEST PUSH3 0x8B JUMPI PUSH1 0x40 MLOAD PUSH32 0x8C379A000000000000000000000000000000000000000000000000000000000 DUP2 MSTORE PUSH1 0x4 ADD PUSH3 0x82 SWAP1 PUSH3 0x50F JUMP JUMPDEST PUSH1 0x40 MLOAD DUP1 SWAP2 SUB SWAP1 REVERT JUMPDEST PUSH1 0x0 JUMPDEST DUP3 MLOAD DUP2 LT ISZERO PUSH3 0x122 JUMPI PUSH1 0x1 PUSH1 0x0 DUP1 DUP6 DUP5 DUP2 MLOAD DUP2 LT PUSH3 0xB3 JUMPI PUSH3 0xB2 PUSH3 0x531 JUMP JUMPDEST JUMPDEST PUSH1 0x20 MUL PUSH1 0x20 ADD ADD MLOAD PUSH20 0xFFFFFFFFFFFFFFFFFFFFFFFFFFFFFFFFFFFFFFFF AND PUSH20 0xFFFFFFFFFFFFFFFFFFFFFFFFFFFFFFFFFFFFFFFF AND DUP2 MSTORE PUSH1 0x20 ADD SWAP1 DUP2 MSTORE PUSH1 0x20 ADD PUSH1 0x0 KECCAK256 PUSH1 0x0 PUSH2 0x100 EXP DUP2 SLOAD DUP2 PUSH1 0xFF MUL NOT AND SWAP1 DUP4 ISZERO ISZERO MUL OR SWAP1 SSTORE POP DUP1 DUP1 PUSH3 0x119 SWAP1 PUSH3 0x58F JUMP JUMPDEST SWAP2 POP POP PUSH3 0x8E JUMP JUMPDEST POP DUP2 PUSH1 0x3 SWAP1 DUP1 MLOAD SWAP1 PUSH1 0x20 ADD SWAP1 PUSH3 0x13B SWAP3 SWAP2 SWAP1 PUSH3 0x14B JUMP JUMPDEST POP DUP1 PUSH1 0x4 DUP2 SWAP1 SSTORE POP POP POP PUSH3 0x5DC JUMP JUMPDEST DUP3 DUP1 SLOAD DUP3 DUP3 SSTORE SWAP1 PUSH1 0x0 MSTORE PUSH1 0x20 PUSH1 0x0 KECCAK256 SWAP1 DUP2 ADD SWAP3 DUP3 ISZERO PUSH3 0x1C7 JUMPI SWAP2 PUSH1 0x20 MUL DUP3 ADD JUMPDEST DUP3 DUP2 GT ISZERO PUSH3 0x1C6 JUMPI DUP3 MLOAD DUP3 PUSH1 0x0 PUSH2 0x100 EXP DUP2 SLOAD DUP2 PUSH20 0xFFFFFFFFFFFFFFFFFFFFFFFFFFFFFFFFFFFFFFFF MUL NOT AND SWAP1 DUP4 PUSH20 0xFFFFFFFFFFFFFFFFFFFFFFFFFFFFFFFFFFFFFFFF AND MUL OR SWAP1 SSTORE POP SWAP2 PUSH1 0x20 ADD SWAP2 SWAP1 PUSH1 0x1 ADD SWAP1 PUSH3 0x16C JUMP JUMPDEST JUMPDEST POP SWAP1 POP PUSH3 0x1D6 SWAP2 SWAP1 PUSH3 0x1DA JUMP JUMPDEST POP SWAP1 JUMP JUMPDEST JUMPDEST DUP1 DUP3 GT ISZERO PUSH3 0x1F5 JUMPI PUSH1 0x0 DUP2 PUSH1 0x0 SWAP1 SSTORE POP PUSH1 0x1 ADD PUSH3 0x1DB JUMP JUMPDEST POP SWAP1 JUMP JUMPDEST PUSH1 0x0 PUSH1 0x40 MLOAD SWAP1 POP SWAP1 JUMP JUMPDEST PUSH1 0x0 DUP1 REVERT JUMPDEST PUSH1 0x0 DUP1 REVERT JUMPDEST PUSH1 0x0 DUP1 REVERT JUMPDEST PUSH1 0x0 PUSH1 0x1F NOT PUSH1 0x1F DUP4 ADD AND SWAP1 POP SWAP2 SWAP1 POP JUMP JUMPDEST PUSH32 0x4E487B7100000000000000000000000000000000000000000000000000000000 PUSH1 0x0 MSTORE PUSH1 0x41 PUSH1 0x4 MSTORE PUSH1 0x24 PUSH1 0x0 REVERT JUMPDEST PUSH3 0x25D DUP3 PUSH3 0x212 JUMP JUMPDEST DUP2 ADD DUP2 DUP2 LT PUSH8 0xFFFFFFFFFFFFFFFF DUP3 GT OR ISZERO PUSH3 0x27F JUMPI PUSH3 0x27E PUSH3 0x223 JUMP JUMPDEST JUMPDEST DUP1 PUSH1 0x40 MSTORE POP POP POP JUMP JUMPDEST PUSH1 0x0 PUSH3 0x294 PUSH3 0x1F9 JUMP JUMPDEST SWAP1 POP PUSH3 0x2A2 DUP3 DUP3 PUSH3 0x252 JUMP JUMPDEST SWAP2 SWAP1 POP JUMP JUMPDEST PUSH1 0x0 PUSH8 0xFFFFFFFFFFFFFFFF DUP3 GT ISZERO PUSH3 0x2C5 JUMPI PUSH3 0x2C4 PUSH3 0x223 JUMP JUMPDEST JUMPDEST PUSH1 0x20 DUP3 MUL SWAP1 POP PUSH1 0x20 DUP2 ADD SWAP1 POP SWAP2 SWAP1 POP JUMP JUMPDEST PUSH1 0x0 DUP1 REVERT JUMPDEST PUSH1 0x0 PUSH20 0xFFFFFFFFFFFFFFFFFFFFFFFFFFFFFFFFFFFFFFFF DUP3 AND SWAP1 POP SWAP2 SWAP1 POP JUMP JUMPDEST PUSH1 0x0 PUSH3 0x308 DUP3 PUSH3 0x2DB JUMP JUMPDEST SWAP1 POP SWAP2 SWAP1 POP JUMP JUMPDEST PUSH3 0x31A DUP2 PUSH3 0x2FB JUMP JUMPDEST DUP2 EQ PUSH3 0x326 JUMPI PUSH1 0x0 DUP1 REVERT JUMPDEST POP JUMP JUMPDEST PUSH1 0x0 DUP2 MLOAD SWAP1 POP PUSH3 0x33A DUP2 PUSH3 0x30F JUMP JUMPDEST SWAP3 SWAP2 POP POP JUMP JUMPDEST PUSH1 0x0 PUSH3 0x357 PUSH3 0x351 DUP5 PUSH3 0x2A7 JUMP JUMPDEST PUSH3 0x288 JUMP JUMPDEST SWAP1 POP DUP1 DUP4 DUP3 MSTORE PUSH1 0x20 DUP3 ADD SWAP1 POP PUSH1 0x20 DUP5 MUL DUP4 ADD DUP6 DUP2 GT ISZERO PUSH3 0x37D JUMPI PUSH3 0x37C PUSH3 0x2D6 JUMP JUMPDEST JUMPDEST DUP4 JUMPDEST DUP2 DUP2 LT ISZERO PUSH3 0x3AA JUMPI DUP1 PUSH3 0x395 DUP9 DUP3 PUSH3 0x329 JUMP JUMPDEST DUP5 MSTORE PUSH1 0x20 DUP5 ADD SWAP4 POP POP PUSH1 0x20 DUP2 ADD SWAP1 POP PUSH3 0x37F JUMP JUMPDEST POP POP POP SWAP4 SWAP3 POP POP POP JUMP JUMPDEST PUSH1 0x0 DUP3 PUSH1 0x1F DUP4 ADD SLT PUSH3 0x3CC JUMPI PUSH3 0x3CB PUSH3 0x20D JUMP JUMPDEST JUMPDEST DUP2 MLOAD PUSH3 0x3DE DUP5 DUP3 PUSH1 0x20 DUP7 ADD PUSH3 0x340 JUMP JUMPDEST SWAP2 POP POP SWAP3 SWAP2 POP POP JUMP JUMPDEST PUSH1 0x0 DUP2 SWAP1 POP SWAP2 SWAP1 POP JUMP JUMPDEST PUSH3 0x3FC DUP2 PUSH3 0x3E7 JUMP JUMPDEST DUP2 EQ PUSH3 0x408 JUMPI PUSH1 0x0 DUP1 REVERT JUMPDEST POP JUMP JUMPDEST PUSH1 0x0 DUP2 MLOAD SWAP1 POP PUSH3 0x41C DUP2 PUSH3 0x3F1 JUMP JUMPDEST SWAP3 SWAP2 POP POP JUMP JUMPDEST PUSH1 0x0 DUP1 PUSH1 0x40 DUP4 DUP6 SUB SLT ISZERO PUSH3 0x43C JUMPI PUSH3 0x43B PUSH3 0x203 JUMP JUMPDEST JUMPDEST PUSH1 0x0 DUP4 ADD MLOAD PUSH8 0xFFFFFFFFFFFFFFFF DUP2 GT ISZERO PUSH3 0x45D JUMPI PUSH3 0x45C PUSH3 0x208 JUMP JUMPDEST JUMPDEST PUSH3 0x46B DUP6 DUP3 DUP7 ADD PUSH3 0x3B4 JUMP JUMPDEST SWAP3 POP POP PUSH1 0x20 PUSH3 0x47E DUP6 DUP3 DUP7 ADD PUSH3 0x40B JUMP JUMPDEST SWAP2 POP POP SWAP3 POP SWAP3 SWAP1 POP JUMP JUMPDEST PUSH1 0x0 DUP3 DUP3 MSTORE PUSH1 0x20 DUP3 ADD SWAP1 POP SWAP3 SWAP2 POP POP JUMP JUMPDEST PUSH32 0x496E76616C6964206E756D626572206F66206F776E6572732F72657175697265 PUSH1 0x0 DUP3 ADD MSTORE PUSH32 0x6420636F6E6669726D6174696F6E730000000000000000000000000000000000 PUSH1 0x20 DUP3 ADD MSTORE POP JUMP JUMPDEST PUSH1 0x0 PUSH3 0x4F7 PUSH1 0x2F DUP4 PUSH3 0x488 JUMP JUMPDEST SWAP2 POP PUSH3 0x504 DUP3 PUSH3 0x499 JUMP JUMPDEST PUSH1 0x40 DUP3 ADD SWAP1 POP SWAP2 SWAP1 POP JUMP JUMPDEST PUSH1 0x0 PUSH1 0x20 DUP3 ADD SWAP1 POP DUP2 DUP2 SUB PUSH1 0x0 DUP4 ADD MSTORE PUSH3 0x52A DUP2 PUSH3 0x4E8 JUMP JUMPDEST SWAP1 POP SWAP2 SWAP1 POP JUMP JUMPDEST PUSH32 0x4E487B7100000000000000000000000000000000000000000000000000000000 PUSH1 0x0 MSTORE PUSH1 0x32 PUSH1 0x4 MSTORE PUSH1 0x24 PUSH1 0x0 REVERT JUMPDEST PUSH32 0x4E487B7100000000000000000000000000000000000000000000000000000000 PUSH1 0x0 MSTORE PUSH1 0x11 PUSH1 0x4 MSTORE PUSH1 0x24 PUSH1 0x0 REVERT JUMPDEST PUSH1 0x0 PUSH3 0x59C DUP3 PUSH3 0x3E7 JUMP JUMPDEST SWAP2 POP PUSH32 0xFFFFFFFFFFFFFFFFFFFFFFFFFFFFFFFFFFFFFFFFFFFFFFFFFFFFFFFFFFFFFFFF DUP3 SUB PUSH3 0x5D1 JUMPI PUSH3 0x5D0 PUSH3 0x560 JUMP JUMPDEST JUMPDEST PUSH1 0x1 DUP3 ADD SWAP1 POP SWAP2 SWAP1 POP JUMP JUMPDEST PUSH2 0xD92 DUP1 PUSH3 0x5EC PUSH1 0x0 CODECOPY PUSH1 0x0 RETURN INVALID PUSH1 0x80 PUSH1 0x40 MSTORE CALLVALUE DUP1 ISZERO PUSH2 0x10 JUMPI PUSH1 0x0 DUP1 REVERT JUMPDEST POP PUSH1 0x4 CALLDATASIZE LT PUSH2 0x93 JUMPI PUSH1 0x0 CALLDATALOAD PUSH1 0xE0 SHR DUP1 PUSH4 0x7E2F42E7 GT PUSH2 0x66 JUMPI DUP1 PUSH4 0x7E2F42E7 EQ PUSH2 0x144 JUMPI DUP1 PUSH4 0x9ACE38C2 EQ PUSH2 0x162 JUMPI DUP1 PUSH4 0xC01A8C84 EQ PUSH2 0x194 JUMPI DUP1 PUSH4 0xDC8452CD EQ PUSH2 0x1B0 JUMPI DUP1 PUSH4 0xEE22610B EQ PUSH2 0x1CE JUMPI PUSH2 0x93 JUMP JUMPDEST DUP1 PUSH4 0x25E7C27 EQ PUSH2 0x98 JUMPI DUP1 PUSH4 0x1D43B653 EQ PUSH2 0xC8 JUMPI DUP1 PUSH4 0x2F54BF6E EQ PUSH2 0xE4 JUMPI DUP1 PUSH4 0x3411C81C EQ PUSH2 0x114 JUMPI JUMPDEST PUSH1 0x0 DUP1 REVERT JUMPDEST PUSH2 0xB2 PUSH1 0x4 DUP1 CALLDATASIZE SUB DUP2 ADD SWAP1 PUSH2 0xAD SWAP2 SWAP1 PUSH2 0x8F5 JUMP JUMPDEST PUSH2 0x1EA JUMP JUMPDEST PUSH1 0x40 MLOAD PUSH2 0xBF SWAP2 SWAP1 PUSH2 0x963 JUMP JUMPDEST PUSH1 0x40 MLOAD DUP1 SWAP2 SUB SWAP1 RETURN JUMPDEST PUSH2 0xE2 PUSH1 0x4 DUP1 CALLDATASIZE SUB DUP2 ADD SWAP1 PUSH2 0xDD SWAP2 SWAP1 PUSH2 0x9BC JUMP JUMPDEST PUSH2 0x229 JUMP JUMPDEST STOP JUMPDEST PUSH2 0xFE PUSH1 0x4 DUP1 CALLDATASIZE SUB DUP2 ADD SWAP1 PUSH2 0xF9 SWAP2 SWAP1 PUSH2 0xA28 JUMP JUMPDEST PUSH2 0x3F8 JUMP JUMPDEST PUSH1 0x40 MLOAD PUSH2 0x10B SWAP2 SWAP1 PUSH2 0xA70 JUMP JUMPDEST PUSH1 0x40 MLOAD DUP1 SWAP2 SUB SWAP1 RETURN JUMPDEST PUSH2 0x12E PUSH1 0x4 DUP1 CALLDATASIZE SUB DUP2 ADD SWAP1 PUSH2 0x129 SWAP2 SWAP1 PUSH2 0xA8B JUMP JUMPDEST PUSH2 0x418 JUMP JUMPDEST PUSH1 0x40 MLOAD PUSH2 0x13B SWAP2 SWAP1 PUSH2 0xA70 JUMP JUMPDEST PUSH1 0x40 MLOAD DUP1 SWAP2 SUB SWAP1 RETURN JUMPDEST PUSH2 0x14C PUSH2 0x447 JUMP JUMPDEST PUSH1 0x40 MLOAD PUSH2 0x159 SWAP2 SWAP1 PUSH2 0xADA JUMP JUMPDEST PUSH1 0x40 MLOAD DUP1 SWAP2 SUB SWAP1 RETURN JUMPDEST PUSH2 0x17C PUSH1 0x4 DUP1 CALLDATASIZE SUB DUP2 ADD SWAP1 PUSH2 0x177 SWAP2 SWAP1 PUSH2 0x8F5 JUMP JUMPDEST PUSH2 0x44D JUMP JUMPDEST PUSH1 0x40 MLOAD PUSH2 0x18B SWAP4 SWAP3 SWAP2 SWAP1 PUSH2 0xB04 JUMP JUMPDEST PUSH1 0x40 MLOAD DUP1 SWAP2 SUB SWAP1 RETURN JUMPDEST PUSH2 0x1AE PUSH1 0x4 DUP1 CALLDATASIZE SUB DUP2 ADD SWAP1 PUSH2 0x1A9 SWAP2 SWAP1 PUSH2 0x8F5 JUMP JUMPDEST PUSH2 0x4A4 JUMP JUMPDEST STOP JUMPDEST PUSH2 0x1B8 PUSH2 0x5FF JUMP JUMPDEST PUSH1 0x40 MLOAD PUSH2 0x1C5 SWAP2 SWAP1 PUSH2 0xADA JUMP JUMPDEST PUSH1 0x40 MLOAD DUP1 SWAP2 SUB SWAP1 RETURN JUMPDEST PUSH2 0x1E8 PUSH1 0x4 DUP1 CALLDATASIZE SUB DUP2 ADD SWAP1 PUSH2 0x1E3 SWAP2 SWAP1 PUSH2 0x8F5 JUMP JUMPDEST PUSH2 0x605 JUMP JUMPDEST STOP JUMPDEST PUSH1 0x3 DUP2 DUP2 SLOAD DUP2 LT PUSH2 0x1FA JUMPI PUSH1 0x0 DUP1 REVERT JUMPDEST SWAP1 PUSH1 0x0 MSTORE PUSH1 0x20 PUSH1 0x0 KECCAK256 ADD PUSH1 0x0 SWAP2 POP SLOAD SWAP1 PUSH2 0x100 EXP SWAP1 DIV PUSH20 0xFFFFFFFFFFFFFFFFFFFFFFFFFFFFFFFFFFFFFFFF AND DUP2 JUMP JUMPDEST PUSH1 0x0 DUP1 CALLER PUSH20 0xFFFFFFFFFFFFFFFFFFFFFFFFFFFFFFFFFFFFFFFF AND PUSH20 0xFFFFFFFFFFFFFFFFFFFFFFFFFFFFFFFFFFFFFFFF AND DUP2 MSTORE PUSH1 0x20 ADD SWAP1 DUP2 MSTORE PUSH1 0x20 ADD PUSH1 0x0 KECCAK256 PUSH1 0x0 SWAP1 SLOAD SWAP1 PUSH2 0x100 EXP SWAP1 DIV PUSH1 0xFF AND PUSH2 0x2B4 JUMPI PUSH1 0x40 MLOAD PUSH32 0x8C379A000000000000000000000000000000000000000000000000000000000 DUP2 MSTORE PUSH1 0x4 ADD PUSH2 0x2AB SWAP1 PUSH2 0xBBE JUMP JUMPDEST PUSH1 0x40 MLOAD DUP1 SWAP2 SUB SWAP1 REVERT JUMPDEST PUSH1 0x5 PUSH1 0x0 DUP2 SLOAD DUP1 SWAP3 SWAP2 SWAP1 PUSH2 0x2C7 SWAP1 PUSH2 0xC0D JUMP JUMPDEST SWAP2 SWAP1 POP SSTORE POP PUSH1 0x40 MLOAD DUP1 PUSH1 0x60 ADD PUSH1 0x40 MSTORE DUP1 DUP4 PUSH20 0xFFFFFFFFFFFFFFFFFFFFFFFFFFFFFFFFFFFFFFFF AND DUP2 MSTORE PUSH1 0x20 ADD DUP3 DUP2 MSTORE PUSH1 0x20 ADD PUSH1 0x0 ISZERO ISZERO DUP2 MSTORE POP PUSH1 0x1 PUSH1 0x0 PUSH1 0x5 SLOAD DUP2 MSTORE PUSH1 0x20 ADD SWAP1 DUP2 MSTORE PUSH1 0x20 ADD PUSH1 0x0 KECCAK256 PUSH1 0x0 DUP3 ADD MLOAD DUP2 PUSH1 0x0 ADD PUSH1 0x0 PUSH2 0x100 EXP DUP2 SLOAD DUP2 PUSH20 0xFFFFFFFFFFFFFFFFFFFFFFFFFFFFFFFFFFFFFFFF MUL NOT AND SWAP1 DUP4 PUSH20 0xFFFFFFFFFFFFFFFFFFFFFFFFFFFFFFFFFFFFFFFF AND MUL OR SWAP1 SSTORE POP PUSH1 0x20 DUP3 ADD MLOAD DUP2 PUSH1 0x1 ADD SSTORE PUSH1 0x40 DUP3 ADD MLOAD DUP2 PUSH1 0x2 ADD PUSH1 0x0 PUSH2 0x100 EXP DUP2 SLOAD DUP2 PUSH1 0xFF MUL NOT AND SWAP1 DUP4 ISZERO ISZERO MUL OR SWAP1 SSTORE POP SWAP1 POP POP PUSH1 0x1 PUSH1 0x2 PUSH1 0x0 PUSH1 0x5 SLOAD DUP2 MSTORE PUSH1 0x20 ADD SWAP1 DUP2 MSTORE PUSH1 0x20 ADD PUSH1 0x0 KECCAK256 PUSH1 0x0 CALLER PUSH20 0xFFFFFFFFFFFFFFFFFFFFFFFFFFFFFFFFFFFFFFFF AND PUSH20 0xFFFFFFFFFFFFFFFFFFFFFFFFFFFFFFFFFFFFFFFF AND DUP2 MSTORE PUSH1 0x20 ADD SWAP1 DUP2 MSTORE PUSH1 0x20 ADD PUSH1 0x0 KECCAK256 PUSH1 0x0 PUSH2 0x100 EXP DUP2 SLOAD DUP2 PUSH1 0xFF MUL NOT AND SWAP1 DUP4 ISZERO ISZERO MUL OR SWAP1 SSTORE POP POP POP JUMP JUMPDEST PUSH1 0x0 PUSH1 0x20 MSTORE DUP1 PUSH1 0x0 MSTORE PUSH1 0x40 PUSH1 0x0 KECCAK256 PUSH1 0x0 SWAP2 POP SLOAD SWAP1 PUSH2 0x100 EXP SWAP1 DIV PUSH1 0xFF AND DUP2 JUMP JUMPDEST PUSH1 0x2 PUSH1 0x20 MSTORE DUP2 PUSH1 0x0 MSTORE PUSH1 0x40 PUSH1 0x0 KECCAK256 PUSH1 0x20 MSTORE DUP1 PUSH1 0x0 MSTORE PUSH1 0x40 PUSH1 0x0 KECCAK256 PUSH1 0x0 SWAP2 POP SWAP2 POP SWAP1 SLOAD SWAP1 PUSH2 0x100 EXP SWAP1 DIV PUSH1 0xFF AND DUP2 JUMP JUMPDEST PUSH1 0x5 SLOAD DUP2 JUMP JUMPDEST PUSH1 0x1 PUSH1 0x20 MSTORE DUP1 PUSH1 0x0 MSTORE PUSH1 0x40 PUSH1 0x0 KECCAK256 PUSH1 0x0 SWAP2 POP SWAP1 POP DUP1 PUSH1 0x0 ADD PUSH1 0x0 SWAP1 SLOAD SWAP1 PUSH2 0x100 EXP SWAP1 DIV PUSH20 0xFFFFFFFFFFFFFFFFFFFFFFFFFFFFFFFFFFFFFFFF AND SWAP1 DUP1 PUSH1 0x1 ADD SLOAD SWAP1 DUP1 PUSH1 0x2 ADD PUSH1 0x0 SWAP1 SLOAD SWAP1 PUSH2 0x100 EXP SWAP1 DIV PUSH1 0xFF AND SWAP1 POP DUP4 JUMP JUMPDEST PUSH1 0x0 DUP1 CALLER PUSH20 0xFFFFFFFFFFFFFFFFFFFFFFFFFFFFFFFFFFFFFFFF AND PUSH20 0xFFFFFFFFFFFFFFFFFFFFFFFFFFFFFFFFFFFFFFFF AND DUP2 MSTORE PUSH1 0x20 ADD SWAP1 DUP2 MSTORE PUSH1 0x20 ADD PUSH1 0x0 KECCAK256 PUSH1 0x0 SWAP1 SLOAD SWAP1 PUSH2 0x100 EXP SWAP1 DIV PUSH1 0xFF AND PUSH2 0x52F JUMPI PUSH1 0x40 MLOAD PUSH32 0x8C379A000000000000000000000000000000000000000000000000000000000 DUP2 MSTORE PUSH1 0x4 ADD PUSH2 0x526 SWAP1 PUSH2 0xBBE JUMP JUMPDEST PUSH1 0x40 MLOAD DUP1 SWAP2 SUB SWAP1 REVERT JUMPDEST PUSH1 0x1 PUSH1 0x0 DUP3 DUP2 MSTORE PUSH1 0x20 ADD SWAP1 DUP2 MSTORE PUSH1 0x20 ADD PUSH1 0x0 KECCAK256 PUSH1 0x2 ADD PUSH1 0x0 SWAP1 SLOAD SWAP1 PUSH2 0x100 EXP SWAP1 DIV PUSH1 0xFF AND ISZERO PUSH2 0x593 JUMPI PUSH1 0x40 MLOAD PUSH32 0x8C379A000000000000000000000000000000000000000000000000000000000 DUP2 MSTORE PUSH1 0x4 ADD PUSH2 0x58A SWAP1 PUSH2 0xCA1 JUMP JUMPDEST PUSH1 0x40 MLOAD DUP1 SWAP2 SUB SWAP1 REVERT JUMPDEST PUSH1 0x1 PUSH1 0x2 PUSH1 0x0 DUP4 DUP2 MSTORE PUSH1 0x20 ADD SWAP1 DUP2 MSTORE PUSH1 0x20 ADD PUSH1 0x0 KECCAK256 PUSH1 0x0 CALLER PUSH20 0xFFFFFFFFFFFFFFFFFFFFFFFFFFFFFFFFFFFFFFFF AND PUSH20 0xFFFFFFFFFFFFFFFFFFFFFFFFFFFFFFFFFFFFFFFF AND DUP2 MSTORE PUSH1 0x20 ADD SWAP1 DUP2 MSTORE PUSH1 0x20 ADD PUSH1 0x0 KECCAK256 PUSH1 0x0 PUSH2 0x100 EXP DUP2 SLOAD DUP2 PUSH1 0xFF MUL NOT AND SWAP1 DUP4 ISZERO ISZERO MUL OR SWAP1 SSTORE POP POP JUMP JUMPDEST PUSH1 0x4 SLOAD DUP2 JUMP JUMPDEST PUSH1 0x0 DUP1 CALLER PUSH20 0xFFFFFFFFFFFFFFFFFFFFFFFFFFFFFFFFFFFFFFFF AND PUSH20 0xFFFFFFFFFFFFFFFFFFFFFFFFFFFFFFFFFFFFFFFF AND DUP2 MSTORE PUSH1 0x20 ADD SWAP1 DUP2 MSTORE PUSH1 0x20 ADD PUSH1 0x0 KECCAK256 PUSH1 0x0 SWAP1 SLOAD SWAP1 PUSH2 0x100 EXP SWAP1 DIV PUSH1 0xFF AND PUSH2 0x690 JUMPI PUSH1 0x40 MLOAD PUSH32 0x8C379A000000000000000000000000000000000000000000000000000000000 DUP2 MSTORE PUSH1 0x4 ADD PUSH2 0x687 SWAP1 PUSH2 0xBBE JUMP JUMPDEST PUSH1 0x40 MLOAD DUP1 SWAP2 SUB SWAP1 REVERT JUMPDEST PUSH1 0x1 PUSH1 0x0 DUP3 DUP2 MSTORE PUSH1 0x20 ADD SWAP1 DUP2 MSTORE PUSH1 0x20 ADD PUSH1 0x0 KECCAK256 PUSH1 0x2 ADD PUSH1 0x0 SWAP1 SLOAD SWAP1 PUSH2 0x100 EXP SWAP1 DIV PUSH1 0xFF AND ISZERO PUSH2 0x6F4 JUMPI PUSH1 0x40 MLOAD PUSH32 0x8C379A000000000000000000000000000000000000000000000000000000000 DUP2 MSTORE PUSH1 0x4 ADD PUSH2 0x6EB SWAP1 PUSH2 0xCA1 JUMP JUMPDEST PUSH1 0x40 MLOAD DUP1 SWAP2 SUB SWAP1 REVERT JUMPDEST PUSH1 0x0 DUP1 PUSH1 0x0 SWAP1 POP JUMPDEST PUSH1 0x3 DUP1 SLOAD SWAP1 POP DUP2 LT ISZERO PUSH2 0x7CC JUMPI PUSH1 0x2 PUSH1 0x0 DUP5 DUP2 MSTORE PUSH1 0x20 ADD SWAP1 DUP2 MSTORE PUSH1 0x20 ADD PUSH1 0x0 KECCAK256 PUSH1 0x0 PUSH1 0x3 DUP4 DUP2 SLOAD DUP2 LT PUSH2 0x732 JUMPI PUSH2 0x731 PUSH2 0xCC1 JUMP JUMPDEST JUMPDEST SWAP1 PUSH1 0x0 MSTORE PUSH1 0x20 PUSH1 0x0 KECCAK256 ADD PUSH1 0x0 SWAP1 SLOAD SWAP1 PUSH2 0x100 EXP SWAP1 DIV PUSH20 0xFFFFFFFFFFFFFFFFFFFFFFFFFFFFFFFFFFFFFFFF AND PUSH20 0xFFFFFFFFFFFFFFFFFFFFFFFFFFFFFFFFFFFFFFFF AND PUSH20 0xFFFFFFFFFFFFFFFFFFFFFFFFFFFFFFFFFFFFFFFF AND DUP2 MSTORE PUSH1 0x20 ADD SWAP1 DUP2 MSTORE PUSH1 0x20 ADD PUSH1 0x0 KECCAK256 PUSH1 0x0 SWAP1 SLOAD SWAP1 PUSH2 0x100 EXP SWAP1 DIV PUSH1 0xFF AND ISZERO PUSH2 0x7B9 JUMPI DUP2 DUP1 PUSH2 0x7B5 SWAP1 PUSH2 0xC0D JUMP JUMPDEST SWAP3 POP POP JUMPDEST DUP1 DUP1 PUSH2 0x7C4 SWAP1 PUSH2 0xC0D JUMP JUMPDEST SWAP2 POP POP PUSH2 0x6FC JUMP JUMPDEST POP PUSH1 0x4 SLOAD DUP2 LT ISZERO PUSH2 0x812 JUMPI PUSH1 0x40 MLOAD PUSH32 0x8C379A000000000000000000000000000000000000000000000000000000000 DUP2 MSTORE PUSH1 0x4 ADD PUSH2 0x809 SWAP1 PUSH2 0xD3C JUMP JUMPDEST PUSH1 0x40 MLOAD DUP1 SWAP2 SUB SWAP1 REVERT JUMPDEST PUSH1 0x0 PUSH1 0x1 PUSH1 0x0 DUP5 DUP2 MSTORE PUSH1 0x20 ADD SWAP1 DUP2 MSTORE PUSH1 0x20 ADD PUSH1 0x0 KECCAK256 SWAP1 POP PUSH1 0x1 DUP2 PUSH1 0x2 ADD PUSH1 0x0 PUSH2 0x100 EXP DUP2 SLOAD DUP2 PUSH1 0xFF MUL NOT AND SWAP1 DUP4 ISZERO ISZERO MUL OR SWAP1 SSTORE POP DUP1 PUSH1 0x0 ADD PUSH1 0x0 SWAP1 SLOAD SWAP1 PUSH2 0x100 EXP SWAP1 DIV PUSH20 0xFFFFFFFFFFFFFFFFFFFFFFFFFFFFFFFFFFFFFFFF AND PUSH20 0xFFFFFFFFFFFFFFFFFFFFFFFFFFFFFFFFFFFFFFFF AND PUSH2 0x8FC DUP3 PUSH1 0x1 ADD SLOAD SWAP1 DUP2 ISZERO MUL SWAP1 PUSH1 0x40 MLOAD PUSH1 0x0 PUSH1 0x40 MLOAD DUP1 DUP4 SUB DUP2 DUP6 DUP9 DUP9 CALL SWAP4 POP POP POP POP ISZERO DUP1 ISZERO PUSH2 0x8B4 JUMPI RETURNDATASIZE PUSH1 0x0 DUP1 RETURNDATACOPY RETURNDATASIZE PUSH1 0x0 REVERT JUMPDEST POP POP POP POP JUMP JUMPDEST PUSH1 0x0 DUP1 REVERT JUMPDEST PUSH1 0x0 DUP2 SWAP1 POP SWAP2 SWAP1 POP JUMP JUMPDEST PUSH2 0x8D2 DUP2 PUSH2 0x8BF JUMP JUMPDEST DUP2 EQ PUSH2 0x8DD JUMPI PUSH1 0x0 DUP1 REVERT JUMPDEST POP JUMP JUMPDEST PUSH1 0x0 DUP2 CALLDATALOAD SWAP1 POP PUSH2 0x8EF DUP2 PUSH2 0x8C9 JUMP JUMPDEST SWAP3 SWAP2 POP POP JUMP JUMPDEST PUSH1 0x0 PUSH1 0x20 DUP3 DUP5 SUB SLT ISZERO PUSH2 0x90B JUMPI PUSH2 0x90A PUSH2 0x8BA JUMP JUMPDEST JUMPDEST PUSH1 0x0 PUSH2 0x919 DUP5 DUP3 DUP6 ADD PUSH2 0x8E0 JUMP JUMPDEST SWAP2 POP POP SWAP3 SWAP2 POP POP JUMP JUMPDEST PUSH1 0x0 PUSH20 0xFFFFFFFFFFFFFFFFFFFFFFFFFFFFFFFFFFFFFFFF DUP3 AND SWAP1 POP SWAP2 SWAP1 POP JUMP JUMPDEST PUSH1 0x0 PUSH2 0x94D DUP3 PUSH2 0x922 JUMP JUMPDEST SWAP1 POP SWAP2 SWAP1 POP JUMP JUMPDEST PUSH2 0x95D DUP2 PUSH2 0x942 JUMP JUMPDEST DUP3 MSTORE POP POP JUMP JUMPDEST PUSH1 0x0 PUSH1 0x20 DUP3 ADD SWAP1 POP PUSH2 0x978 PUSH1 0x0 DUP4 ADD DUP5 PUSH2 0x954 JUMP JUMPDEST SWAP3 SWAP2 POP POP JUMP JUMPDEST PUSH1 0x0 PUSH2 0x989 DUP3 PUSH2 0x922 JUMP JUMPDEST SWAP1 POP SWAP2 SWAP1 POP JUMP JUMPDEST PUSH2 0x999 DUP2 PUSH2 0x97E JUMP JUMPDEST DUP2 EQ PUSH2 0x9A4 JUMPI PUSH1 0x0 DUP1 REVERT JUMPDEST POP JUMP JUMPDEST PUSH1 0x0 DUP2 CALLDATALOAD SWAP1 POP PUSH2 0x9B6 DUP2 PUSH2 0x990 JUMP JUMPDEST SWAP3 SWAP2 POP POP JUMP JUMPDEST PUSH1 0x0 DUP1 PUSH1 0x40 DUP4 DUP6 SUB SLT ISZERO PUSH2 0x9D3 JUMPI PUSH2 0x9D2 PUSH2 0x8BA JUMP JUMPDEST JUMPDEST PUSH1 0x0 PUSH2 0x9E1 DUP6 DUP3 DUP7 ADD PUSH2 0x9A7 JUMP JUMPDEST SWAP3 POP POP PUSH1 0x20 PUSH2 0x9F2 DUP6 DUP3 DUP7 ADD PUSH2 0x8E0 JUMP JUMPDEST SWAP2 POP POP SWAP3 POP SWAP3 SWAP1 POP JUMP JUMPDEST PUSH2 0xA05 DUP2 PUSH2 0x942 JUMP JUMPDEST DUP2 EQ PUSH2 0xA10 JUMPI PUSH1 0x0 DUP1 REVERT JUMPDEST POP JUMP JUMPDEST PUSH1 0x0 DUP2 CALLDATALOAD SWAP1 POP PUSH2 0xA22 DUP2 PUSH2 0x9FC JUMP JUMPDEST SWAP3 SWAP2 POP POP JUMP JUMPDEST PUSH1 0x0 PUSH1 0x20 DUP3 DUP5 SUB SLT ISZERO PUSH2 0xA3E JUMPI PUSH2 0xA3D PUSH2 0x8BA JUMP JUMPDEST JUMPDEST PUSH1 0x0 PUSH2 0xA4C DUP5 DUP3 DUP6 ADD PUSH2 0xA13 JUMP JUMPDEST SWAP2 POP POP SWAP3 SWAP2 POP POP JUMP JUMPDEST PUSH1 0x0 DUP2 ISZERO ISZERO SWAP1 POP SWAP2 SWAP1 POP JUMP JUMPDEST PUSH2 0xA6A DUP2 PUSH2 0xA55 JUMP JUMPDEST DUP3 MSTORE POP POP JUMP JUMPDEST PUSH1 0x0 PUSH1 0x20 DUP3 ADD SWAP1 POP PUSH2 0xA85 PUSH1 0x0 DUP4 ADD DUP5 PUSH2 0xA61 JUMP JUMPDEST SWAP3 SWAP2 POP POP JUMP JUMPDEST PUSH1 0x0 DUP1 PUSH1 0x40 DUP4 DUP6 SUB SLT ISZERO PUSH2 0xAA2 JUMPI PUSH2 0xAA1 PUSH2 0x8BA JUMP JUMPDEST JUMPDEST PUSH1 0x0 PUSH2 0xAB0 DUP6 DUP3 DUP7 ADD PUSH2 0x8E0 JUMP JUMPDEST SWAP3 POP POP PUSH1 0x20 PUSH2 0xAC1 DUP6 DUP3 DUP7 ADD PUSH2 0xA13 JUMP JUMPDEST SWAP2 POP POP SWAP3 POP SWAP3 SWAP1 POP JUMP JUMPDEST PUSH2 0xAD4 DUP2 PUSH2 0x8BF JUMP JUMPDEST DUP3 MSTORE POP POP JUMP JUMPDEST PUSH1 0x0 PUSH1 0x20 DUP3 ADD SWAP1 POP PUSH2 0xAEF PUSH1 0x0 DUP4 ADD DUP5 PUSH2 0xACB JUMP JUMPDEST SWAP3 SWAP2 POP POP JUMP JUMPDEST PUSH2 0xAFE DUP2 PUSH2 0x97E JUMP JUMPDEST DUP3 MSTORE POP POP JUMP JUMPDEST PUSH1 0x0 PUSH1 0x60 DUP3 ADD SWAP1 POP PUSH2 0xB19 PUSH1 0x0 DUP4 ADD DUP7 PUSH2 0xAF5 JUMP JUMPDEST PUSH2 0xB26 PUSH1 0x20 DUP4 ADD DUP6 PUSH2 0xACB JUMP JUMPDEST PUSH2 0xB33 PUSH1 0x40 DUP4 ADD DUP5 PUSH2 0xA61 JUMP JUMPDEST SWAP5 SWAP4 POP POP POP POP JUMP JUMPDEST PUSH1 0x0 DUP3 DUP3 MSTORE PUSH1 0x20 DUP3 ADD SWAP1 POP SWAP3 SWAP2 POP POP JUMP JUMPDEST PUSH32 0x4F6E6C79206F776E6572732063616E20657865637574652074686973206F7065 PUSH1 0x0 DUP3 ADD MSTORE PUSH32 0x726174696F6E0000000000000000000000000000000000000000000000000000 PUSH1 0x20 DUP3 ADD MSTORE POP JUMP JUMPDEST PUSH1 0x0 PUSH2 0xBA8 PUSH1 0x26 DUP4 PUSH2 0xB3B JUMP JUMPDEST SWAP2 POP PUSH2 0xBB3 DUP3 PUSH2 0xB4C JUMP JUMPDEST PUSH1 0x40 DUP3 ADD SWAP1 POP SWAP2 SWAP1 POP JUMP JUMPDEST PUSH1 0x0 PUSH1 0x20 DUP3 ADD SWAP1 POP DUP2 DUP2 SUB PUSH1 0x0 DUP4 ADD MSTORE PUSH2 0xBD7 DUP2 PUSH2 0xB9B JUMP JUMPDEST SWAP1 POP SWAP2 SWAP1 POP JUMP JUMPDEST PUSH32 0x4E487B7100000000000000000000000000000000000000000000000000000000 PUSH1 0x0 MSTORE PUSH1 0x11 PUSH1 0x4 MSTORE PUSH1 0x24 PUSH1 0x0 REVERT JUMPDEST PUSH1 0x0 PUSH2 0xC18 DUP3 PUSH2 0x8BF JUMP JUMPDEST SWAP2 POP PUSH32 0xFFFFFFFFFFFFFFFFFFFFFFFFFFFFFFFFFFFFFFFFFFFFFFFFFFFFFFFFFFFFFFFF DUP3 SUB PUSH2 0xC4A JUMPI PUSH2 0xC49 PUSH2 0xBDE JUMP JUMPDEST JUMPDEST PUSH1 0x1 DUP3 ADD SWAP1 POP SWAP2 SWAP1 POP JUMP JUMPDEST PUSH32 0x5472616E73616374696F6E20616C726561647920657865637574656400000000 PUSH1 0x0 DUP3 ADD MSTORE POP JUMP JUMPDEST PUSH1 0x0 PUSH2 0xC8B PUSH1 0x1C DUP4 PUSH2 0xB3B JUMP JUMPDEST SWAP2 POP PUSH2 0xC96 DUP3 PUSH2 0xC55 JUMP JUMPDEST PUSH1 0x20 DUP3 ADD SWAP1 POP SWAP2 SWAP1 POP JUMP JUMPDEST PUSH1 0x0 PUSH1 0x20 DUP3 ADD SWAP1 POP DUP2 DUP2 SUB PUSH1 0x0 DUP4 ADD MSTORE PUSH2 0xCBA DUP2 PUSH2 0xC7E JUMP JUMPDEST SWAP1 POP SWAP2 SWAP1 POP JUMP JUMPDEST PUSH32 0x4E487B7100000000000000000000000000000000000000000000000000000000 PUSH1 0x0 MSTORE PUSH1 0x32 PUSH1 0x4 MSTORE PUSH1 0x24 PUSH1 0x0 REVERT JUMPDEST PUSH32 0x4E6F7420656E6F75676820636F6E6669726D6174696F6E730000000000000000 PUSH1 0x0 DUP3 ADD MSTORE POP JUMP JUMPDEST PUSH1 0x0 PUSH2 0xD26 PUSH1 0x18 DUP4 PUSH2 0xB3B JUMP JUMPDEST SWAP2 POP PUSH2 0xD31 DUP3 PUSH2 0xCF0 JUMP JUMPDEST PUSH1 0x20 DUP3 ADD SWAP1 POP SWAP2 SWAP1 POP JUMP JUMPDEST PUSH1 0x0 PUSH1 0x20 DUP3 ADD SWAP1 POP DUP2 DUP2 SUB PUSH1 0x0 DUP4 ADD MSTORE PUSH2 0xD55 DUP2 PUSH2 0xD19 JUMP JUMPDEST SWAP1 POP SWAP2 SWAP1 POP JUMP INVALID LOG2 PUSH5 0x6970667358 0x22 SLT KECCAK256 DIV 0xCA 0xC3 SWAP13 0xFB CALLDATACOPY LOG4 0xA7 EXTCODECOPY 0xD PUSH4 0xB1BE580C 0xD0 PREVRANDAO BLOCKHASH MUL SELFBALANCE CALL CHAINID 0x4B 0xCB PUSH14 0xEFA3CEC913B90064736F6C634300 ADDMOD SLT STOP CALLER "
				},
				"gasEstimates": {
					"creation": {
						"codeDepositCost": "694800",
						"executionCost": "infinite",
						"totalCost": "infinite"
					},
					"external": {
						"confirmTransaction(uint256)": "29366",
						"confirmations(uint256,address)": "3154",
						"executeTransaction(uint256)": "infinite",
						"isOwner(address)": "2890",
						"owners(uint256)": "4957",
						"required()": "2495",
						"submitTransaction(address,uint256)": "infinite",
						"transactionId()": "2429",
						"transactions(uint256)": "infinite"
					}
				},
				"methodIdentifiers": {
					"confirmTransaction(uint256)": "c01a8c84",
					"confirmations(uint256,address)": "3411c81c",
					"executeTransaction(uint256)": "ee22610b",
					"isOwner(address)": "2f54bf6e",
					"owners(uint256)": "025e7c27",
					"required()": "dc8452cd",
					"submitTransaction(address,uint256)": "1d43b653",
					"transactionId()": "7e2f42e7",
					"transactions(uint256)": "9ace38c2"
				}
			},
			"storageLayout": {
				"storage": [
					{
						"astId": 5,
						"contract": "contracts/MultiSigWallet.sol:MultiSigWallet",
						"label": "isOwner",
						"offset": 0,
						"slot": "0",
						"type": "t_mapping(t_address,t_bool)"
					},
					{
						"astId": 10,
						"contract": "contracts/MultiSigWallet.sol:MultiSigWallet",
						"label": "transactions",
						"offset": 0,
						"slot": "1",
						"type": "t_mapping(t_uint256,t_struct(Transaction)30_storage)"
					},
					{
						"astId": 16,
						"contract": "contracts/MultiSigWallet.sol:MultiSigWallet",
						"label": "confirmations",
						"offset": 0,
						"slot": "2",
						"type": "t_mapping(t_uint256,t_mapping(t_address,t_bool))"
					},
					{
						"astId": 19,
						"contract": "contracts/MultiSigWallet.sol:MultiSigWallet",
						"label": "owners",
						"offset": 0,
						"slot": "3",
						"type": "t_array(t_address)dyn_storage"
					},
					{
						"astId": 21,
						"contract": "contracts/MultiSigWallet.sol:MultiSigWallet",
						"label": "required",
						"offset": 0,
						"slot": "4",
						"type": "t_uint256"
					},
					{
						"astId": 23,
						"contract": "contracts/MultiSigWallet.sol:MultiSigWallet",
						"label": "transactionId",
						"offset": 0,
						"slot": "5",
						"type": "t_uint256"
					}
				],
				"types": {
					"t_address": {
						"encoding": "inplace",
						"label": "address",
						"numberOfBytes": "20"
					},
					"t_address_payable": {
						"encoding": "inplace",
						"label": "address payable",
						"numberOfBytes": "20"
					},
					"t_array(t_address)dyn_storage": {
						"base": "t_address",
						"encoding": "dynamic_array",
						"label": "address[]",
						"numberOfBytes": "32"
					},
					"t_bool": {
						"encoding": "inplace",
						"label": "bool",
						"numberOfBytes": "1"
					},
					"t_mapping(t_address,t_bool)": {
						"encoding": "mapping",
						"key": "t_address",
						"label": "mapping(address => bool)",
						"numberOfBytes": "32",
						"value": "t_bool"
					},
					"t_mapping(t_uint256,t_mapping(t_address,t_bool))": {
						"encoding": "mapping",
						"key": "t_uint256",
						"label": "mapping(uint256 => mapping(address => bool))",
						"numberOfBytes": "32",
						"value": "t_mapping(t_address,t_bool)"
					},
					"t_mapping(t_uint256,t_struct(Transaction)30_storage)": {
						"encoding": "mapping",
						"key": "t_uint256",
						"label": "mapping(uint256 => struct MultiSigWallet.Transaction)",
						"numberOfBytes": "32",
						"value": "t_struct(Transaction)30_storage"
					},
					"t_struct(Transaction)30_storage": {
						"encoding": "inplace",
						"label": "struct MultiSigWallet.Transaction",
						"members": [
							{
								"astId": 25,
								"contract": "contracts/MultiSigWallet.sol:MultiSigWallet",
								"label": "destination",
								"offset": 0,
								"slot": "0",
								"type": "t_address_payable"
							},
							{
								"astId": 27,
								"contract": "contracts/MultiSigWallet.sol:MultiSigWallet",
								"label": "value",
								"offset": 0,
								"slot": "1",
								"type": "t_uint256"
							},
							{
								"astId": 29,
								"contract": "contracts/MultiSigWallet.sol:MultiSigWallet",
								"label": "executed",
								"offset": 0,
								"slot": "2",
								"type": "t_bool"
							}
						],
						"numberOfBytes": "96"
					},
					"t_uint256": {
						"encoding": "inplace",
						"label": "uint256",
						"numberOfBytes": "32"
					}
				}
			},
			"userdoc": {
				"kind": "user",
				"methods": {},
				"version": 1
			}
		}
	}
}