{
  "contractName": "AssetNFT",
  "abi": [
    {
      "inputs": [
        {
          "internalType": "address",
          "name": "_vtcAddress",
          "type": "address"
        }
      ],
      "stateMutability": "nonpayable",
      "type": "constructor"
    },
    {
      "anonymous": false,
      "inputs": [
        {
          "indexed": true,
          "internalType": "address",
          "name": "owner",
          "type": "address"
        },
        {
          "indexed": true,
          "internalType": "address",
          "name": "approved",
          "type": "address"
        },
        {
          "indexed": true,
          "internalType": "uint256",
          "name": "tokenId",
          "type": "uint256"
        }
      ],
      "name": "Approval",
      "type": "event"
    },
    {
      "anonymous": false,
      "inputs": [
        {
          "indexed": true,
          "internalType": "address",
          "name": "owner",
          "type": "address"
        },
        {
          "indexed": true,
          "internalType": "address",
          "name": "operator",
          "type": "address"
        },
        {
          "indexed": false,
          "internalType": "bool",
          "name": "approved",
          "type": "bool"
        }
      ],
      "name": "ApprovalForAll",
      "type": "event"
    },
    {
      "anonymous": false,
      "inputs": [
        {
          "indexed": true,
          "internalType": "address",
          "name": "from",
          "type": "address"
        },
        {
          "indexed": true,
          "internalType": "address",
          "name": "to",
          "type": "address"
        },
        {
          "indexed": true,
          "internalType": "uint256",
          "name": "tokenId",
          "type": "uint256"
        }
      ],
      "name": "Transfer",
      "type": "event"
    },
    {
      "inputs": [
        {
          "internalType": "address",
          "name": "to",
          "type": "address"
        },
        {
          "internalType": "uint256",
          "name": "tokenId",
          "type": "uint256"
        }
      ],
      "name": "approve",
      "outputs": [],
      "stateMutability": "nonpayable",
      "type": "function"
    },
    {
      "inputs": [
        {
          "internalType": "uint256",
          "name": "",
          "type": "uint256"
        }
      ],
      "name": "assetToOwner",
      "outputs": [
        {
          "internalType": "address",
          "name": "",
          "type": "address"
        }
      ],
      "stateMutability": "view",
      "type": "function",
      "constant": true
    },
    {
      "inputs": [
        {
          "internalType": "uint256",
          "name": "",
          "type": "uint256"
        }
      ],
      "name": "assets",
      "outputs": [
        {
          "internalType": "string",
          "name": "name",
          "type": "string"
        },
        {
          "internalType": "string",
          "name": "description",
          "type": "string"
        },
        {
          "internalType": "uint256",
          "name": "price",
          "type": "uint256"
        },
        {
          "internalType": "uint256",
          "name": "securityDeposit",
          "type": "uint256"
        },
        {
          "internalType": "uint256",
          "name": "repairCost",
          "type": "uint256"
        },
        {
          "internalType": "uint256",
          "name": "totalLossCost",
          "type": "uint256"
        },
        {
          "internalType": "string",
          "name": "metadataHash",
          "type": "string"
        },
        {
          "internalType": "bool",
          "name": "isRented",
          "type": "bool"
        }
      ],
      "stateMutability": "view",
      "type": "function",
      "constant": true
    },
    {
      "inputs": [
        {
          "internalType": "address",
          "name": "owner",
          "type": "address"
        }
      ],
      "name": "balanceOf",
      "outputs": [
        {
          "internalType": "uint256",
          "name": "",
          "type": "uint256"
        }
      ],
      "stateMutability": "view",
      "type": "function",
      "constant": true
    },
    {
      "inputs": [
        {
          "internalType": "uint256",
          "name": "tokenId",
          "type": "uint256"
        }
      ],
      "name": "getApproved",
      "outputs": [
        {
          "internalType": "address",
          "name": "",
          "type": "address"
        }
      ],
      "stateMutability": "view",
      "type": "function",
      "constant": true
    },
    {
      "inputs": [
        {
          "internalType": "address",
          "name": "owner",
          "type": "address"
        },
        {
          "internalType": "address",
          "name": "operator",
          "type": "address"
        }
      ],
      "name": "isApprovedForAll",
      "outputs": [
        {
          "internalType": "bool",
          "name": "",
          "type": "bool"
        }
      ],
      "stateMutability": "view",
      "type": "function",
      "constant": true
    },
    {
      "inputs": [],
      "name": "name",
      "outputs": [
        {
          "internalType": "string",
          "name": "",
          "type": "string"
        }
      ],
      "stateMutability": "view",
      "type": "function",
      "constant": true
    },
    {
      "inputs": [
        {
          "internalType": "address",
          "name": "",
          "type": "address"
        }
      ],
      "name": "ownerAssetCount",
      "outputs": [
        {
          "internalType": "uint256",
          "name": "",
          "type": "uint256"
        }
      ],
      "stateMutability": "view",
      "type": "function",
      "constant": true
    },
    {
      "inputs": [
        {
          "internalType": "uint256",
          "name": "tokenId",
          "type": "uint256"
        }
      ],
      "name": "ownerOf",
      "outputs": [
        {
          "internalType": "address",
          "name": "",
          "type": "address"
        }
      ],
      "stateMutability": "view",
      "type": "function",
      "constant": true
    },
    {
      "inputs": [
        {
          "internalType": "address",
          "name": "from",
          "type": "address"
        },
        {
          "internalType": "address",
          "name": "to",
          "type": "address"
        },
        {
          "internalType": "uint256",
          "name": "tokenId",
          "type": "uint256"
        }
      ],
      "name": "safeTransferFrom",
      "outputs": [],
      "stateMutability": "nonpayable",
      "type": "function"
    },
    {
      "inputs": [
        {
          "internalType": "address",
          "name": "from",
          "type": "address"
        },
        {
          "internalType": "address",
          "name": "to",
          "type": "address"
        },
        {
          "internalType": "uint256",
          "name": "tokenId",
          "type": "uint256"
        },
        {
          "internalType": "bytes",
          "name": "data",
          "type": "bytes"
        }
      ],
      "name": "safeTransferFrom",
      "outputs": [],
      "stateMutability": "nonpayable",
      "type": "function"
    },
    {
      "inputs": [
        {
          "internalType": "address",
          "name": "operator",
          "type": "address"
        },
        {
          "internalType": "bool",
          "name": "approved",
          "type": "bool"
        }
      ],
      "name": "setApprovalForAll",
      "outputs": [],
      "stateMutability": "nonpayable",
      "type": "function"
    },
    {
      "inputs": [
        {
          "internalType": "bytes4",
          "name": "interfaceId",
          "type": "bytes4"
        }
      ],
      "name": "supportsInterface",
      "outputs": [
        {
          "internalType": "bool",
          "name": "",
          "type": "bool"
        }
      ],
      "stateMutability": "view",
      "type": "function",
      "constant": true
    },
    {
      "inputs": [],
      "name": "symbol",
      "outputs": [
        {
          "internalType": "string",
          "name": "",
          "type": "string"
        }
      ],
      "stateMutability": "view",
      "type": "function",
      "constant": true
    },
    {
      "inputs": [
        {
          "internalType": "uint256",
          "name": "tokenId",
          "type": "uint256"
        }
      ],
      "name": "tokenURI",
      "outputs": [
        {
          "internalType": "string",
          "name": "",
          "type": "string"
        }
      ],
      "stateMutability": "view",
      "type": "function",
      "constant": true
    },
    {
      "inputs": [
        {
          "internalType": "address",
          "name": "from",
          "type": "address"
        },
        {
          "internalType": "address",
          "name": "to",
          "type": "address"
        },
        {
          "internalType": "uint256",
          "name": "tokenId",
          "type": "uint256"
        }
      ],
      "name": "transferFrom",
      "outputs": [],
      "stateMutability": "nonpayable",
      "type": "function"
    },
    {
      "inputs": [],
      "name": "vtc",
      "outputs": [
        {
          "internalType": "contract VertCoin",
          "name": "",
          "type": "address"
        }
      ],
      "stateMutability": "view",
      "type": "function",
      "constant": true
    },
    {
      "inputs": [
        {
          "internalType": "string",
          "name": "_name",
          "type": "string"
        },
        {
          "internalType": "string",
          "name": "_description",
          "type": "string"
        },
        {
          "internalType": "uint256",
          "name": "_price",
          "type": "uint256"
        },
        {
          "internalType": "uint256",
          "name": "_securityDeposit",
          "type": "uint256"
        },
        {
          "internalType": "uint256",
          "name": "_repairCost",
          "type": "uint256"
        },
        {
          "internalType": "uint256",
          "name": "_totalLossCost",
          "type": "uint256"
        },
        {
          "internalType": "string",
          "name": "_metadataHash",
          "type": "string"
        }
      ],
      "name": "createAsset",
      "outputs": [],
      "stateMutability": "nonpayable",
      "type": "function"
    },
    {
      "inputs": [
        {
          "internalType": "uint256",
          "name": "_assetId",
          "type": "uint256"
        }
      ],
      "name": "rentAsset",
      "outputs": [],
      "stateMutability": "nonpayable",
      "type": "function"
    },
    {
      "inputs": [
        {
          "internalType": "uint256",
          "name": "_assetId",
          "type": "uint256"
        },
        {
          "internalType": "uint256",
          "name": "_repairCost",
          "type": "uint256"
        }
      ],
      "name": "returnAsset",
      "outputs": [],
      "stateMutability": "nonpayable",
      "type": "function"
    },
    {
      "inputs": [
        {
          "internalType": "uint256",
          "name": "_assetId",
          "type": "uint256"
        }
      ],
      "name": "purchaseAsset",
      "outputs": [],
      "stateMutability": "nonpayable",
      "type": "function"
    },
    {
      "inputs": [
        {
          "internalType": "uint256",
          "name": "_assetId",
          "type": "uint256"
        }
      ],
      "name": "getAssetMetadata",
      "outputs": [
        {
          "internalType": "string",
          "name": "",
          "type": "string"
        }
      ],
      "stateMutability": "view",
      "type": "function",
      "constant": true
    }
  ],
  "bytecode": "0x60806040523480156200001157600080fd5b50604051620040c5380380620040c583398181016040528101906200003791906200017b565b6040518060400160405280600881526020017f41737365744e46540000000000000000000000000000000000000000000000008152506040518060400160405280600581526020017f41534e46540000000000000000000000000000000000000000000000000000008152508160009081620000b4919062000427565b508060019081620000c6919062000427565b50505080600960006101000a81548173ffffffffffffffffffffffffffffffffffffffff021916908373ffffffffffffffffffffffffffffffffffffffff160217905550506200050e565b600080fd5b600073ffffffffffffffffffffffffffffffffffffffff82169050919050565b6000620001438262000116565b9050919050565b620001558162000136565b81146200016157600080fd5b50565b60008151905062000175816200014a565b92915050565b60006020828403121562000194576200019362000111565b5b6000620001a48482850162000164565b91505092915050565b600081519050919050565b7f4e487b7100000000000000000000000000000000000000000000000000000000600052604160045260246000fd5b7f4e487b7100000000000000000000000000000000000000000000000000000000600052602260045260246000fd5b600060028204905060018216806200022f57607f821691505b602082108103620002455762000244620001e7565b5b50919050565b60008190508160005260206000209050919050565b60006020601f8301049050919050565b600082821b905092915050565b600060088302620002af7fffffffffffffffffffffffffffffffffffffffffffffffffffffffffffffffff8262000270565b620002bb868362000270565b95508019841693508086168417925050509392505050565b6000819050919050565b6000819050919050565b60006200030862000302620002fc84620002d3565b620002dd565b620002d3565b9050919050565b6000819050919050565b6200032483620002e7565b6200033c62000333826200030f565b8484546200027d565b825550505050565b600090565b6200035362000344565b6200036081848462000319565b505050565b5b8181101562000388576200037c60008262000349565b60018101905062000366565b5050565b601f821115620003d757620003a1816200024b565b620003ac8462000260565b81016020851015620003bc578190505b620003d4620003cb8562000260565b83018262000365565b50505b505050565b600082821c905092915050565b6000620003fc60001984600802620003dc565b1980831691505092915050565b6000620004178383620003e9565b9150826002028217905092915050565b6200043282620001ad565b67ffffffffffffffff8111156200044e576200044d620001b8565b5b6200045a825462000216565b620004678282856200038c565b600060209050601f8311600181146200049f57600084156200048a578287015190505b62000496858262000409565b86555062000506565b601f198416620004af866200024b565b60005b82811015620004d957848901518255600182019150602085019450602081019050620004b2565b86831015620004f95784890151620004f5601f891682620003e9565b8355505b6001600288020188555050505b505050505050565b613ba7806200051e6000396000f3fe608060405234801561001057600080fd5b50600436106101425760003560e01c806395d89b41116100b8578063c87b56dd1161007c578063c87b56dd1461036f578063cf2acf841461039f578063cf35bdd0146103cf578063e985e9c514610406578063e9f8273c14610436578063f685f3ba1461045457610142565b806395d89b41146102e1578063a22cb465146102ff578063a457e1c01461031b578063b88d4fde14610337578063c872dbcd1461035357610142565b806342842e0e1161010a57806342842e0e146101fd5780636352211e146102195780636e3640411461024957806370a08231146102655780637c1d44c21461029557806385fd678c146102b157610142565b806301ffc9a71461014757806306fdde0314610177578063081812fc14610195578063095ea7b3146101c557806323b872dd146101e1575b600080fd5b610161600480360381019061015c9190612539565b610484565b60405161016e9190612581565b60405180910390f35b61017f610566565b60405161018c919061262c565b60405180910390f35b6101af60048036038101906101aa9190612684565b6105f8565b6040516101bc91906126f2565b60405180910390f35b6101df60048036038101906101da9190612739565b61063e565b005b6101fb60048036038101906101f69190612779565b610755565b005b61021760048036038101906102129190612779565b6107b5565b005b610233600480360381019061022e9190612684565b6107d5565b60405161024091906126f2565b60405180910390f35b610263600480360381019061025e91906127cc565b61085b565b005b61027f600480360381019061027a919061280c565b6109ed565b60405161028c9190612848565b60405180910390f35b6102af60048036038101906102aa9190612998565b610aa4565b005b6102cb60048036038101906102c69190612684565b610c9e565b6040516102d891906126f2565b60405180910390f35b6102e9610cd1565b6040516102f6919061262c565b60405180910390f35b61031960048036038101906103149190612aba565b610d63565b005b61033560048036038101906103309190612684565b610d79565b005b610351600480360381019061034c9190612b9b565b61107d565b005b61036d60048036038101906103689190612684565b6110df565b005b61038960048036038101906103849190612684565b61135e565b604051610396919061262c565b60405180910390f35b6103b960048036038101906103b49190612684565b6113c6565b6040516103c6919061262c565b60405180910390f35b6103e960048036038101906103e49190612684565b61147d565b6040516103fd989796959493929190612c1e565b60405180910390f35b610420600480360381019061041b9190612cb1565b61167a565b60405161042d9190612581565b60405180910390f35b61043e61170e565b60405161044b9190612d50565b60405180910390f35b61046e6004803603810190610469919061280c565b611734565b60405161047b9190612848565b60405180910390f35b60007f80ac58cd000000000000000000000000000000000000000000000000000000007bffffffffffffffffffffffffffffffffffffffffffffffffffffffff1916827bffffffffffffffffffffffffffffffffffffffffffffffffffffffff1916148061054f57507f5b5e139f000000000000000000000000000000000000000000000000000000007bffffffffffffffffffffffffffffffffffffffffffffffffffffffff1916827bffffffffffffffffffffffffffffffffffffffffffffffffffffffff1916145b8061055f575061055e8261174c565b5b9050919050565b60606000805461057590612d9a565b80601f01602080910402602001604051908101604052809291908181526020018280546105a190612d9a565b80156105ee5780601f106105c3576101008083540402835291602001916105ee565b820191906000526020600020905b8154815290600101906020018083116105d157829003601f168201915b5050505050905090565b6000610603826117b6565b6004600083815260200190815260200160002060009054906101000a900473ffffffffffffffffffffffffffffffffffffffff169050919050565b6000610649826107d5565b90508073ffffffffffffffffffffffffffffffffffffffff168373ffffffffffffffffffffffffffffffffffffffff16036106b9576040517f08c379a00000000000000000000000000000000000000000000000000000000081526004016106b090612e3d565b60405180910390fd5b8073ffffffffffffffffffffffffffffffffffffffff166106d8611801565b73ffffffffffffffffffffffffffffffffffffffff161480610707575061070681610701611801565b61167a565b5b610746576040517f08c379a000000000000000000000000000000000000000000000000000000000815260040161073d90612ecf565b60405180910390fd5b6107508383611809565b505050565b610766610760611801565b826118c2565b6107a5576040517f08c379a000000000000000000000000000000000000000000000000000000000815260040161079c90612f61565b60405180910390fd5b6107b0838383611957565b505050565b6107d08383836040518060200160405280600081525061107d565b505050565b6000806107e183611c50565b9050600073ffffffffffffffffffffffffffffffffffffffff168173ffffffffffffffffffffffffffffffffffffffff1603610852576040517f08c379a000000000000000000000000000000000000000000000000000000000815260040161084990612fcd565b60405180910390fd5b80915050919050565b6006828154811061086f5761086e612fed565b5b906000526020600020906008020160070160009054906101000a900460ff166108cd576040517f08c379a00000000000000000000000000000000000000000000000000000000081526004016108c490613068565b60405180910390fd5b600061090782600685815481106108e7576108e6612fed565b5b906000526020600020906008020160030154611c8d90919063ffffffff16565b9050600960009054906101000a900473ffffffffffffffffffffffffffffffffffffffff1673ffffffffffffffffffffffffffffffffffffffff1663a9059cbb33836040518363ffffffff1660e01b8152600401610966929190613088565b6020604051808303816000875af1158015610985573d6000803e3d6000fd5b505050506040513d601f19601f820116820180604052508101906109a991906130c6565b506000600684815481106109c0576109bf612fed565b5b906000526020600020906008020160070160006101000a81548160ff021916908315150217905550505050565b60008073ffffffffffffffffffffffffffffffffffffffff168273ffffffffffffffffffffffffffffffffffffffff1603610a5d576040517f08c379a0000000000000000000000000000000000000000000000000000000008152600401610a5490613165565b60405180910390fd5b600360008373ffffffffffffffffffffffffffffffffffffffff1673ffffffffffffffffffffffffffffffffffffffff168152602001908152602001600020549050919050565b6000600680549050905060066040518061010001604052808a81526020018981526020018881526020018781526020018681526020018581526020018481526020016000151581525090806001815401808255809150506001900390600052602060002090600802016000909190919091506000820151816000019081610b2b9190613327565b506020820151816001019081610b419190613327565b5060408201518160020155606082015181600301556080820151816004015560a0820151816005015560c0820151816006019081610b7f9190613327565b5060e08201518160070160006101000a81548160ff0219169083151502179055505050610bac3382611ca3565b336007600083815260200190815260200160002060006101000a81548173ffffffffffffffffffffffffffffffffffffffff021916908373ffffffffffffffffffffffffffffffffffffffff160217905550610c516001600860003373ffffffffffffffffffffffffffffffffffffffff1673ffffffffffffffffffffffffffffffffffffffff16815260200190815260200160002054611ec090919063ffffffff16565b600860003373ffffffffffffffffffffffffffffffffffffffff1673ffffffffffffffffffffffffffffffffffffffff168152602001908152602001600020819055505050505050505050565b60076020528060005260406000206000915054906101000a900473ffffffffffffffffffffffffffffffffffffffff1681565b606060018054610ce090612d9a565b80601f0160208091040260200160405190810160405280929190818152602001828054610d0c90612d9a565b8015610d595780601f10610d2e57610100808354040283529160200191610d59565b820191906000526020600020905b815481529060010190602001808311610d3c57829003601f168201915b5050505050905090565b610d75610d6e611801565b8383611ed6565b5050565b60068181548110610d8d57610d8c612fed565b5b906000526020600020906008020160070160009054906101000a900460ff1615610dec576040517f08c379a0000000000000000000000000000000000000000000000000000000008152600401610de390613445565b60405180910390fd5b60068181548110610e0057610dff612fed565b5b906000526020600020906008020160020154600960009054906101000a900473ffffffffffffffffffffffffffffffffffffffff1673ffffffffffffffffffffffffffffffffffffffff166370a08231336040518263ffffffff1660e01b8152600401610e6d91906126f2565b602060405180830381865afa158015610e8a573d6000803e3d6000fd5b505050506040513d601f19601f82011682018060405250810190610eae919061347a565b1015610eef576040517f08c379a0000000000000000000000000000000000000000000000000000000008152600401610ee690613519565b60405180910390fd5b600960009054906101000a900473ffffffffffffffffffffffffffffffffffffffff1673ffffffffffffffffffffffffffffffffffffffff166323b872dd336007600085815260200190815260200160002060009054906101000a900473ffffffffffffffffffffffffffffffffffffffff1660068581548110610f7657610f75612fed565b5b9060005260206000209060080201600201546040518463ffffffff1660e01b8152600401610fa693929190613539565b6020604051808303816000875af1158015610fc5573d6000803e3d6000fd5b505050506040513d601f19601f82011682018060405250810190610fe991906130c6565b506110286007600083815260200190815260200160002060009054906101000a900473ffffffffffffffffffffffffffffffffffffffff163383611957565b336007600083815260200190815260200160002060006101000a81548173ffffffffffffffffffffffffffffffffffffffff021916908373ffffffffffffffffffffffffffffffffffffffff16021790555050565b61108e611088611801565b836118c2565b6110cd576040517f08c379a00000000000000000000000000000000000000000000000000000000081526004016110c490612f61565b60405180910390fd5b6110d984848484612042565b50505050565b600681815481106110f3576110f2612fed565b5b906000526020600020906008020160070160009054906101000a900460ff1615611152576040517f08c379a0000000000000000000000000000000000000000000000000000000008152600401611149906135bc565b60405180910390fd5b6006818154811061116657611165612fed565b5b906000526020600020906008020160030154600960009054906101000a900473ffffffffffffffffffffffffffffffffffffffff1673ffffffffffffffffffffffffffffffffffffffff166370a08231336040518263ffffffff1660e01b81526004016111d391906126f2565b602060405180830381865afa1580156111f0573d6000803e3d6000fd5b505050506040513d601f19601f82011682018060405250810190611214919061347a565b1015611255576040517f08c379a000000000000000000000000000000000000000000000000000000000815260040161124c9061364e565b60405180910390fd5b600960009054906101000a900473ffffffffffffffffffffffffffffffffffffffff1673ffffffffffffffffffffffffffffffffffffffff166323b872dd3330600685815481106112a9576112a8612fed565b5b9060005260206000209060080201600301546040518463ffffffff1660e01b81526004016112d993929190613539565b6020604051808303816000875af11580156112f8573d6000803e3d6000fd5b505050506040513d601f19601f8201168201806040525081019061131c91906130c6565b5060016006828154811061133357611332612fed565b5b906000526020600020906008020160070160006101000a81548160ff02191690831515021790555050565b6060611369826117b6565b600061137361209e565b9050600081511161139357604051806020016040528060008152506113be565b8061139d846120b5565b6040516020016113ae9291906136aa565b6040516020818303038152906040525b915050919050565b6060600682815481106113dc576113db612fed565b5b906000526020600020906008020160060180546113f890612d9a565b80601f016020809104026020016040519081016040528092919081815260200182805461142490612d9a565b80156114715780601f1061144657610100808354040283529160200191611471565b820191906000526020600020905b81548152906001019060200180831161145457829003601f168201915b50505050509050919050565b6006818154811061148d57600080fd5b90600052602060002090600802016000915090508060000180546114b090612d9a565b80601f01602080910402602001604051908101604052809291908181526020018280546114dc90612d9a565b80156115295780601f106114fe57610100808354040283529160200191611529565b820191906000526020600020905b81548152906001019060200180831161150c57829003601f168201915b50505050509080600101805461153e90612d9a565b80601f016020809104026020016040519081016040528092919081815260200182805461156a90612d9a565b80156115b75780601f1061158c576101008083540402835291602001916115b7565b820191906000526020600020905b81548152906001019060200180831161159a57829003601f168201915b5050505050908060020154908060030154908060040154908060050154908060060180546115e490612d9a565b80601f016020809104026020016040519081016040528092919081815260200182805461161090612d9a565b801561165d5780601f106116325761010080835404028352916020019161165d565b820191906000526020600020905b81548152906001019060200180831161164057829003601f168201915b5050505050908060070160009054906101000a900460ff16905088565b6000600560008473ffffffffffffffffffffffffffffffffffffffff1673ffffffffffffffffffffffffffffffffffffffff16815260200190815260200160002060008373ffffffffffffffffffffffffffffffffffffffff1673ffffffffffffffffffffffffffffffffffffffff16815260200190815260200160002060009054906101000a900460ff16905092915050565b600960009054906101000a900473ffffffffffffffffffffffffffffffffffffffff1681565b60086020528060005260406000206000915090505481565b60007f01ffc9a7000000000000000000000000000000000000000000000000000000007bffffffffffffffffffffffffffffffffffffffffffffffffffffffff1916827bffffffffffffffffffffffffffffffffffffffffffffffffffffffff1916149050919050565b6117bf81612183565b6117fe576040517f08c379a00000000000000000000000000000000000000000000000000000000081526004016117f590612fcd565b60405180910390fd5b50565b600033905090565b816004600083815260200190815260200160002060006101000a81548173ffffffffffffffffffffffffffffffffffffffff021916908373ffffffffffffffffffffffffffffffffffffffff160217905550808273ffffffffffffffffffffffffffffffffffffffff1661187c836107d5565b73ffffffffffffffffffffffffffffffffffffffff167f8c5be1e5ebec7d5bd14f71427d1e84f3dd0314c0f7b2291e5b200ac8c7c3b92560405160405180910390a45050565b6000806118ce836107d5565b90508073ffffffffffffffffffffffffffffffffffffffff168473ffffffffffffffffffffffffffffffffffffffff161480611910575061190f818561167a565b5b8061194e57508373ffffffffffffffffffffffffffffffffffffffff16611936846105f8565b73ffffffffffffffffffffffffffffffffffffffff16145b91505092915050565b8273ffffffffffffffffffffffffffffffffffffffff16611977826107d5565b73ffffffffffffffffffffffffffffffffffffffff16146119cd576040517f08c379a00000000000000000000000000000000000000000000000000000000081526004016119c490613740565b60405180910390fd5b600073ffffffffffffffffffffffffffffffffffffffff168273ffffffffffffffffffffffffffffffffffffffff1603611a3c576040517f08c379a0000000000000000000000000000000000000000000000000000000008152600401611a33906137d2565b60405180910390fd5b611a4983838360016121c4565b8273ffffffffffffffffffffffffffffffffffffffff16611a69826107d5565b73ffffffffffffffffffffffffffffffffffffffff1614611abf576040517f08c379a0000000000000000000000000000000000000000000000000000000008152600401611ab690613740565b60405180910390fd5b6004600082815260200190815260200160002060006101000a81549073ffffffffffffffffffffffffffffffffffffffff02191690556001600360008573ffffffffffffffffffffffffffffffffffffffff1673ffffffffffffffffffffffffffffffffffffffff168152602001908152602001600020600082825403925050819055506001600360008473ffffffffffffffffffffffffffffffffffffffff1673ffffffffffffffffffffffffffffffffffffffff16815260200190815260200160002060008282540192505081905550816002600083815260200190815260200160002060006101000a81548173ffffffffffffffffffffffffffffffffffffffff021916908373ffffffffffffffffffffffffffffffffffffffff160217905550808273ffffffffffffffffffffffffffffffffffffffff168473ffffffffffffffffffffffffffffffffffffffff167fddf252ad1be2c89b69c2b068fc378daa952ba7f163c4a11628f55a4df523b3ef60405160405180910390a4611c4b83838360016121ca565b505050565b60006002600083815260200190815260200160002060009054906101000a900473ffffffffffffffffffffffffffffffffffffffff169050919050565b60008183611c9b9190613821565b905092915050565b600073ffffffffffffffffffffffffffffffffffffffff168273ffffffffffffffffffffffffffffffffffffffff1603611d12576040517f08c379a0000000000000000000000000000000000000000000000000000000008152600401611d09906138a1565b60405180910390fd5b611d1b81612183565b15611d5b576040517f08c379a0000000000000000000000000000000000000000000000000000000008152600401611d529061390d565b60405180910390fd5b611d696000838360016121c4565b611d7281612183565b15611db2576040517f08c379a0000000000000000000000000000000000000000000000000000000008152600401611da99061390d565b60405180910390fd5b6001600360008473ffffffffffffffffffffffffffffffffffffffff1673ffffffffffffffffffffffffffffffffffffffff16815260200190815260200160002060008282540192505081905550816002600083815260200190815260200160002060006101000a81548173ffffffffffffffffffffffffffffffffffffffff021916908373ffffffffffffffffffffffffffffffffffffffff160217905550808273ffffffffffffffffffffffffffffffffffffffff16600073ffffffffffffffffffffffffffffffffffffffff167fddf252ad1be2c89b69c2b068fc378daa952ba7f163c4a11628f55a4df523b3ef60405160405180910390a4611ebc6000838360016121ca565b5050565b60008183611ece919061392d565b905092915050565b8173ffffffffffffffffffffffffffffffffffffffff168373ffffffffffffffffffffffffffffffffffffffff1603611f44576040517f08c379a0000000000000000000000000000000000000000000000000000000008152600401611f3b906139ad565b60405180910390fd5b80600560008573ffffffffffffffffffffffffffffffffffffffff1673ffffffffffffffffffffffffffffffffffffffff16815260200190815260200160002060008473ffffffffffffffffffffffffffffffffffffffff1673ffffffffffffffffffffffffffffffffffffffff16815260200190815260200160002060006101000a81548160ff0219169083151502179055508173ffffffffffffffffffffffffffffffffffffffff168373ffffffffffffffffffffffffffffffffffffffff167f17307eab39ab6107e8899845ad3d59bd9653f200f220920489ca2b5937696c31836040516120359190612581565b60405180910390a3505050565b61204d848484611957565b612059848484846121d0565b612098576040517f08c379a000000000000000000000000000000000000000000000000000000000815260040161208f90613a3f565b60405180910390fd5b50505050565b606060405180602001604052806000815250905090565b6060600060016120c484612357565b01905060008167ffffffffffffffff8111156120e3576120e261286d565b5b6040519080825280601f01601f1916602001820160405280156121155781602001600182028036833780820191505090505b509050600082602001820190505b600115612178578080600190039150507f3031323334353637383961626364656600000000000000000000000000000000600a86061a8153600a858161216c5761216b613a5f565b5b04945060008503612123575b819350505050919050565b60008073ffffffffffffffffffffffffffffffffffffffff166121a583611c50565b73ffffffffffffffffffffffffffffffffffffffff1614159050919050565b50505050565b50505050565b60006121f18473ffffffffffffffffffffffffffffffffffffffff166124aa565b1561234a578373ffffffffffffffffffffffffffffffffffffffff1663150b7a0261221a611801565b8786866040518563ffffffff1660e01b815260040161223c9493929190613ae3565b6020604051808303816000875af192505050801561227857506040513d601f19601f820116820180604052508101906122759190613b44565b60015b6122fa573d80600081146122a8576040519150601f19603f3d011682016040523d82523d6000602084013e6122ad565b606091505b5060008151036122f2576040517f08c379a00000000000000000000000000000000000000000000000000000000081526004016122e990613a3f565b60405180910390fd5b805181602001fd5b63150b7a0260e01b7bffffffffffffffffffffffffffffffffffffffffffffffffffffffff1916817bffffffffffffffffffffffffffffffffffffffffffffffffffffffff19161491505061234f565b600190505b949350505050565b600080600090507a184f03e93ff9f4daa797ed6e38ed64bf6a1f01000000000000000083106123b5577a184f03e93ff9f4daa797ed6e38ed64bf6a1f01000000000000000083816123ab576123aa613a5f565b5b0492506040810190505b6d04ee2d6d415b85acef810000000083106123f2576d04ee2d6d415b85acef810000000083816123e8576123e7613a5f565b5b0492506020810190505b662386f26fc10000831061242157662386f26fc10000838161241757612416613a5f565b5b0492506010810190505b6305f5e100831061244a576305f5e10083816124405761243f613a5f565b5b0492506008810190505b612710831061246f57612710838161246557612464613a5f565b5b0492506004810190505b60648310612492576064838161248857612487613a5f565b5b0492506002810190505b600a83106124a1576001810190505b80915050919050565b6000808273ffffffffffffffffffffffffffffffffffffffff163b119050919050565b6000604051905090565b600080fd5b600080fd5b60007fffffffff0000000000000000000000000000000000000000000000000000000082169050919050565b612516816124e1565b811461252157600080fd5b50565b6000813590506125338161250d565b92915050565b60006020828403121561254f5761254e6124d7565b5b600061255d84828501612524565b91505092915050565b60008115159050919050565b61257b81612566565b82525050565b60006020820190506125966000830184612572565b92915050565b600081519050919050565b600082825260208201905092915050565b60005b838110156125d65780820151818401526020810190506125bb565b60008484015250505050565b6000601f19601f8301169050919050565b60006125fe8261259c565b61260881856125a7565b93506126188185602086016125b8565b612621816125e2565b840191505092915050565b6000602082019050818103600083015261264681846125f3565b905092915050565b6000819050919050565b6126618161264e565b811461266c57600080fd5b50565b60008135905061267e81612658565b92915050565b60006020828403121561269a576126996124d7565b5b60006126a88482850161266f565b91505092915050565b600073ffffffffffffffffffffffffffffffffffffffff82169050919050565b60006126dc826126b1565b9050919050565b6126ec816126d1565b82525050565b600060208201905061270760008301846126e3565b92915050565b612716816126d1565b811461272157600080fd5b50565b6000813590506127338161270d565b92915050565b600080604083850312156127505761274f6124d7565b5b600061275e85828601612724565b925050602061276f8582860161266f565b9150509250929050565b600080600060608486031215612792576127916124d7565b5b60006127a086828701612724565b93505060206127b186828701612724565b92505060406127c28682870161266f565b9150509250925092565b600080604083850312156127e3576127e26124d7565b5b60006127f18582860161266f565b92505060206128028582860161266f565b9150509250929050565b600060208284031215612822576128216124d7565b5b600061283084828501612724565b91505092915050565b6128428161264e565b82525050565b600060208201905061285d6000830184612839565b92915050565b600080fd5b600080fd5b7f4e487b7100000000000000000000000000000000000000000000000000000000600052604160045260246000fd5b6128a5826125e2565b810181811067ffffffffffffffff821117156128c4576128c361286d565b5b80604052505050565b60006128d76124cd565b90506128e3828261289c565b919050565b600067ffffffffffffffff8211156129035761290261286d565b5b61290c826125e2565b9050602081019050919050565b82818337600083830152505050565b600061293b612936846128e8565b6128cd565b90508281526020810184848401111561295757612956612868565b5b612962848285612919565b509392505050565b600082601f83011261297f5761297e612863565b5b813561298f848260208601612928565b91505092915050565b600080600080600080600060e0888a0312156129b7576129b66124d7565b5b600088013567ffffffffffffffff8111156129d5576129d46124dc565b5b6129e18a828b0161296a565b975050602088013567ffffffffffffffff811115612a0257612a016124dc565b5b612a0e8a828b0161296a565b9650506040612a1f8a828b0161266f565b9550506060612a308a828b0161266f565b9450506080612a418a828b0161266f565b93505060a0612a528a828b0161266f565b92505060c088013567ffffffffffffffff811115612a7357612a726124dc565b5b612a7f8a828b0161296a565b91505092959891949750929550565b612a9781612566565b8114612aa257600080fd5b50565b600081359050612ab481612a8e565b92915050565b60008060408385031215612ad157612ad06124d7565b5b6000612adf85828601612724565b9250506020612af085828601612aa5565b9150509250929050565b600067ffffffffffffffff821115612b1557612b1461286d565b5b612b1e826125e2565b9050602081019050919050565b6000612b3e612b3984612afa565b6128cd565b905082815260208101848484011115612b5a57612b59612868565b5b612b65848285612919565b509392505050565b600082601f830112612b8257612b81612863565b5b8135612b92848260208601612b2b565b91505092915050565b60008060008060808587031215612bb557612bb46124d7565b5b6000612bc387828801612724565b9450506020612bd487828801612724565b9350506040612be58782880161266f565b925050606085013567ffffffffffffffff811115612c0657612c056124dc565b5b612c1287828801612b6d565b91505092959194509250565b6000610100820190508181036000830152612c39818b6125f3565b90508181036020830152612c4d818a6125f3565b9050612c5c6040830189612839565b612c696060830188612839565b612c766080830187612839565b612c8360a0830186612839565b81810360c0830152612c9581856125f3565b9050612ca460e0830184612572565b9998505050505050505050565b60008060408385031215612cc857612cc76124d7565b5b6000612cd685828601612724565b9250506020612ce785828601612724565b9150509250929050565b6000819050919050565b6000612d16612d11612d0c846126b1565b612cf1565b6126b1565b9050919050565b6000612d2882612cfb565b9050919050565b6000612d3a82612d1d565b9050919050565b612d4a81612d2f565b82525050565b6000602082019050612d656000830184612d41565b92915050565b7f4e487b7100000000000000000000000000000000000000000000000000000000600052602260045260246000fd5b60006002820490506001821680612db257607f821691505b602082108103612dc557612dc4612d6b565b5b50919050565b7f4552433732313a20617070726f76616c20746f2063757272656e74206f776e6560008201527f7200000000000000000000000000000000000000000000000000000000000000602082015250565b6000612e276021836125a7565b9150612e3282612dcb565b604082019050919050565b60006020820190508181036000830152612e5681612e1a565b9050919050565b7f4552433732313a20617070726f76652063616c6c6572206973206e6f7420746f60008201527f6b656e206f776e6572206f7220617070726f76656420666f7220616c6c000000602082015250565b6000612eb9603d836125a7565b9150612ec482612e5d565b604082019050919050565b60006020820190508181036000830152612ee881612eac565b9050919050565b7f4552433732313a2063616c6c6572206973206e6f7420746f6b656e206f776e6560008201527f72206f7220617070726f76656400000000000000000000000000000000000000602082015250565b6000612f4b602d836125a7565b9150612f5682612eef565b604082019050919050565b60006020820190508181036000830152612f7a81612f3e565b9050919050565b7f4552433732313a20696e76616c696420746f6b656e2049440000000000000000600082015250565b6000612fb76018836125a7565b9150612fc282612f81565b602082019050919050565b60006020820190508181036000830152612fe681612faa565b9050919050565b7f4e487b7100000000000000000000000000000000000000000000000000000000600052603260045260246000fd5b7f4173736574206973206e6f742072656e74656400000000000000000000000000600082015250565b60006130526013836125a7565b915061305d8261301c565b602082019050919050565b6000602082019050818103600083015261308181613045565b9050919050565b600060408201905061309d60008301856126e3565b6130aa6020830184612839565b9392505050565b6000815190506130c081612a8e565b92915050565b6000602082840312156130dc576130db6124d7565b5b60006130ea848285016130b1565b91505092915050565b7f4552433732313a2061646472657373207a65726f206973206e6f74206120766160008201527f6c6964206f776e65720000000000000000000000000000000000000000000000602082015250565b600061314f6029836125a7565b915061315a826130f3565b604082019050919050565b6000602082019050818103600083015261317e81613142565b9050919050565b60008190508160005260206000209050919050565b60006020601f8301049050919050565b600082821b905092915050565b6000600883026131e77fffffffffffffffffffffffffffffffffffffffffffffffffffffffffffffffff826131aa565b6131f186836131aa565b95508019841693508086168417925050509392505050565b600061322461321f61321a8461264e565b612cf1565b61264e565b9050919050565b6000819050919050565b61323e83613209565b61325261324a8261322b565b8484546131b7565b825550505050565b600090565b61326761325a565b613272818484613235565b505050565b5b818110156132965761328b60008261325f565b600181019050613278565b5050565b601f8211156132db576132ac81613185565b6132b58461319a565b810160208510156132c4578190505b6132d86132d08561319a565b830182613277565b50505b505050565b600082821c905092915050565b60006132fe600019846008026132e0565b1980831691505092915050565b600061331783836132ed565b9150826002028217905092915050565b6133308261259c565b67ffffffffffffffff8111156133495761334861286d565b5b6133538254612d9a565b61335e82828561329a565b600060209050601f831160018114613391576000841561337f578287015190505b613389858261330b565b8655506133f1565b601f19841661339f86613185565b60005b828110156133c7578489015182556001820191506020850194506020810190506133a2565b868310156133e457848901516133e0601f8916826132ed565b8355505b6001600288020188555050505b505050505050565b7f41737365742069732072656e7465640000000000000000000000000000000000600082015250565b600061342f600f836125a7565b915061343a826133f9565b602082019050919050565b6000602082019050818103600083015261345e81613422565b9050919050565b60008151905061347481612658565b92915050565b6000602082840312156134905761348f6124d7565b5b600061349e84828501613465565b91505092915050565b7f496e73756666696369656e742062616c616e636520666f72207075726368617360008201527f6500000000000000000000000000000000000000000000000000000000000000602082015250565b60006135036021836125a7565b915061350e826134a7565b604082019050919050565b60006020820190508181036000830152613532816134f6565b9050919050565b600060608201905061354e60008301866126e3565b61355b60208301856126e3565b6135686040830184612839565b949350505050565b7f417373657420697320616c72656164792072656e746564000000000000000000600082015250565b60006135a66017836125a7565b91506135b182613570565b602082019050919050565b600060208201905081810360008301526135d581613599565b9050919050565b7f496e73756666696369656e742062616c616e636520666f72207365637572697460008201527f79206465706f7369740000000000000000000000000000000000000000000000602082015250565b60006136386029836125a7565b9150613643826135dc565b604082019050919050565b600060208201905081810360008301526136678161362b565b9050919050565b600081905092915050565b60006136848261259c565b61368e818561366e565b935061369e8185602086016125b8565b80840191505092915050565b60006136b68285613679565b91506136c28284613679565b91508190509392505050565b7f4552433732313a207472616e736665722066726f6d20696e636f72726563742060008201527f6f776e6572000000000000000000000000000000000000000000000000000000602082015250565b600061372a6025836125a7565b9150613735826136ce565b604082019050919050565b600060208201905081810360008301526137598161371d565b9050919050565b7f4552433732313a207472616e7366657220746f20746865207a65726f2061646460008201527f7265737300000000000000000000000000000000000000000000000000000000602082015250565b60006137bc6024836125a7565b91506137c782613760565b604082019050919050565b600060208201905081810360008301526137eb816137af565b9050919050565b7f4e487b7100000000000000000000000000000000000000000000000000000000600052601160045260246000fd5b600061382c8261264e565b91506138378361264e565b925082820390508181111561384f5761384e6137f2565b5b92915050565b7f4552433732313a206d696e7420746f20746865207a65726f2061646472657373600082015250565b600061388b6020836125a7565b915061389682613855565b602082019050919050565b600060208201905081810360008301526138ba8161387e565b9050919050565b7f4552433732313a20746f6b656e20616c7265616479206d696e74656400000000600082015250565b60006138f7601c836125a7565b9150613902826138c1565b602082019050919050565b60006020820190508181036000830152613926816138ea565b9050919050565b60006139388261264e565b91506139438361264e565b925082820190508082111561395b5761395a6137f2565b5b92915050565b7f4552433732313a20617070726f766520746f2063616c6c657200000000000000600082015250565b60006139976019836125a7565b91506139a282613961565b602082019050919050565b600060208201905081810360008301526139c68161398a565b9050919050565b7f4552433732313a207472616e7366657220746f206e6f6e20455243373231526560008201527f63656976657220696d706c656d656e7465720000000000000000000000000000602082015250565b6000613a296032836125a7565b9150613a34826139cd565b604082019050919050565b60006020820190508181036000830152613a5881613a1c565b9050919050565b7f4e487b7100000000000000000000000000000000000000000000000000000000600052601260045260246000fd5b600081519050919050565b600082825260208201905092915050565b6000613ab582613a8e565b613abf8185613a99565b9350613acf8185602086016125b8565b613ad8816125e2565b840191505092915050565b6000608082019050613af860008301876126e3565b613b0560208301866126e3565b613b126040830185612839565b8181036060830152613b248184613aaa565b905095945050505050565b600081519050613b3e8161250d565b92915050565b600060208284031215613b5a57613b596124d7565b5b6000613b6884828501613b2f565b9150509291505056fea264697066735822122073b2f83803f9f9ffbde18b6c3eac5c8348fff21313c9a0c3ae709f8106ecb4d464736f6c63430008130033",
  "immutableReferences": {},
  "source": "// SPDX-License-Identifier: MIT\npragma solidity ^0.8.0;\n\nimport \"@openzeppelin/contracts/token/ERC721/ERC721.sol\";\nimport \"@openzeppelin/contracts/utils/math/SafeMath.sol\";\nimport \"./VertCoin.sol\";\n\ncontract AssetNFT is ERC721 {\n    using SafeMath for uint256;\n\n    struct Asset {\n        string name;\n        string description;\n        uint256 price;\n        uint256 securityDeposit;\n        uint256 repairCost;\n        uint256 totalLossCost;\n        string metadataHash; // IPFS hash for asset metadata\n        bool isRented;\n    }\n\n    Asset[] public assets;\n    mapping(uint256 => address) public assetToOwner;\n    mapping(address => uint256) public ownerAssetCount;\n    VertCoin public vtc;\n\n    constructor(address _vtcAddress) ERC721(\"AssetNFT\", \"ASNFT\") {\n        vtc = VertCoin(_vtcAddress);\n    }\n\n    function createAsset(\n        string memory _name,\n        string memory _description,\n        uint256 _price,\n        uint256 _securityDeposit,\n        uint256 _repairCost,\n        uint256 _totalLossCost,\n        string memory _metadataHash // IPFS hash for asset metadata\n    ) public {\n        uint256 id = assets.length;\n        assets.push(\n            Asset(\n                _name,\n                _description,\n                _price,\n                _securityDeposit,\n                _repairCost,\n                _totalLossCost,\n                _metadataHash,\n                false\n            )\n        );\n        _mint(msg.sender, id);\n        assetToOwner[id] = msg.sender;\n        ownerAssetCount[msg.sender] = ownerAssetCount[msg.sender].add(1);\n    }\n\n    function rentAsset(uint256 _assetId) public {\n        require(!assets[_assetId].isRented, \"Asset is already rented\");\n        require(\n            vtc.balanceOf(msg.sender) >= assets[_assetId].securityDeposit,\n            \"Insufficient balance for security deposit\"\n        );\n\n        // Transfer security deposit to contract\n        vtc.transferFrom(msg.sender, address(this), assets[_assetId].securityDeposit);\n\n        assets[_assetId].isRented = true;\n    }\n\n    function returnAsset(uint256 _assetId, uint256 _repairCost) public {\n        require(assets[_assetId].isRented, \"Asset is not rented\");\n\n        // Calculate refund amount and transfer it to the renter\n        uint256 refundAmount = assets[_assetId].securityDeposit.sub(_repairCost);\n        vtc.transfer(msg.sender, refundAmount);\n\n        assets[_assetId].isRented = false;\n    }\n\n    function purchaseAsset(uint256 _assetId) public {\n        require(!assets[_assetId].isRented, \"Asset is rented\");\n        require(\n            vtc.balanceOf(msg.sender) >= assets[_assetId].price,\n            \"Insufficient balance for purchase\"\n        );\n\n        // Transfer payment to owner and transfer asset ownership to buyer\n        vtc.transferFrom(msg.sender, assetToOwner[_assetId], assets[_assetId].price);\n        _transfer(assetToOwner[_assetId], msg.sender, _assetId);\n        assetToOwner[_assetId] = msg.sender;\n    }\n\n    function getAssetMetadata(uint256 _assetId) public view returns (string memory) {\n        return assets[_assetId].metadataHash;\n    }\n}\n",
  "sourcePath": "/home/main/github/vert.io/truffle/contracts/AssetNFT.sol",
  "compiler": {
    "name": "solc",
    "version": "0.8.19+commit.7dd6d404.Emscripten.clang"
  },
  "schemaVersion": "3.4.13",
  "updatedAt": "2023-03-21T08:02:03.281Z",
  "networkType": "ethereum",
  "devdoc": {
    "events": {
      "Approval(address,address,uint256)": {
        "details": "Emitted when `owner` enables `approved` to manage the `tokenId` token."
      },
      "ApprovalForAll(address,address,bool)": {
        "details": "Emitted when `owner` enables or disables (`approved`) `operator` to manage all of its assets."
      },
      "Transfer(address,address,uint256)": {
        "details": "Emitted when `tokenId` token is transferred from `from` to `to`."
      }
    },
    "kind": "dev",
    "methods": {
      "approve(address,uint256)": {
        "details": "See {IERC721-approve}."
      },
      "balanceOf(address)": {
        "details": "See {IERC721-balanceOf}."
      },
      "getApproved(uint256)": {
        "details": "See {IERC721-getApproved}."
      },
      "isApprovedForAll(address,address)": {
        "details": "See {IERC721-isApprovedForAll}."
      },
      "name()": {
        "details": "See {IERC721Metadata-name}."
      },
      "ownerOf(uint256)": {
        "details": "See {IERC721-ownerOf}."
      },
      "safeTransferFrom(address,address,uint256)": {
        "details": "See {IERC721-safeTransferFrom}."
      },
      "safeTransferFrom(address,address,uint256,bytes)": {
        "details": "See {IERC721-safeTransferFrom}."
      },
      "setApprovalForAll(address,bool)": {
        "details": "See {IERC721-setApprovalForAll}."
      },
      "supportsInterface(bytes4)": {
        "details": "See {IERC165-supportsInterface}."
      },
      "symbol()": {
        "details": "See {IERC721Metadata-symbol}."
      },
      "tokenURI(uint256)": {
        "details": "See {IERC721Metadata-tokenURI}."
      },
      "transferFrom(address,address,uint256)": {
        "details": "See {IERC721-transferFrom}."
      }
    },
    "version": 1
  },
  "userdoc": {
    "kind": "user",
    "methods": {},
    "version": 1
  }
}