{
  "contractName": "VertCoin",
  "abi": [
    {
      "inputs": [],
      "stateMutability": "nonpayable",
      "type": "constructor"
    },
    {
      "anonymous": false,
      "inputs": [
        {
          "indexed": true,
          "internalType": "address",
          "name": "owner",
          "type": "address"
        },
        {
          "indexed": true,
          "internalType": "address",
          "name": "spender",
          "type": "address"
        },
        {
          "indexed": false,
          "internalType": "uint256",
          "name": "value",
          "type": "uint256"
        }
      ],
      "name": "Approval",
      "type": "event"
    },
    {
      "anonymous": false,
      "inputs": [
        {
          "indexed": true,
          "internalType": "address",
          "name": "previousOwner",
          "type": "address"
        },
        {
          "indexed": true,
          "internalType": "address",
          "name": "newOwner",
          "type": "address"
        }
      ],
      "name": "OwnershipTransferred",
      "type": "event"
    },
    {
      "anonymous": false,
      "inputs": [
        {
          "indexed": true,
          "internalType": "address",
          "name": "from",
          "type": "address"
        },
        {
          "indexed": true,
          "internalType": "address",
          "name": "to",
          "type": "address"
        },
        {
          "indexed": false,
          "internalType": "uint256",
          "name": "value",
          "type": "uint256"
        }
      ],
      "name": "Transfer",
      "type": "event"
    },
    {
      "inputs": [
        {
          "internalType": "address",
          "name": "owner",
          "type": "address"
        },
        {
          "internalType": "address",
          "name": "spender",
          "type": "address"
        }
      ],
      "name": "allowance",
      "outputs": [
        {
          "internalType": "uint256",
          "name": "",
          "type": "uint256"
        }
      ],
      "stateMutability": "view",
      "type": "function",
      "constant": true
    },
    {
      "inputs": [
        {
          "internalType": "address",
          "name": "spender",
          "type": "address"
        },
        {
          "internalType": "uint256",
          "name": "amount",
          "type": "uint256"
        }
      ],
      "name": "approve",
      "outputs": [
        {
          "internalType": "bool",
          "name": "",
          "type": "bool"
        }
      ],
      "stateMutability": "nonpayable",
      "type": "function"
    },
    {
      "inputs": [
        {
          "internalType": "address",
          "name": "account",
          "type": "address"
        }
      ],
      "name": "balanceOf",
      "outputs": [
        {
          "internalType": "uint256",
          "name": "",
          "type": "uint256"
        }
      ],
      "stateMutability": "view",
      "type": "function",
      "constant": true
    },
    {
      "inputs": [],
      "name": "decimals",
      "outputs": [
        {
          "internalType": "uint8",
          "name": "",
          "type": "uint8"
        }
      ],
      "stateMutability": "view",
      "type": "function",
      "constant": true
    },
    {
      "inputs": [
        {
          "internalType": "address",
          "name": "spender",
          "type": "address"
        },
        {
          "internalType": "uint256",
          "name": "subtractedValue",
          "type": "uint256"
        }
      ],
      "name": "decreaseAllowance",
      "outputs": [
        {
          "internalType": "bool",
          "name": "",
          "type": "bool"
        }
      ],
      "stateMutability": "nonpayable",
      "type": "function"
    },
    {
      "inputs": [
        {
          "internalType": "address",
          "name": "spender",
          "type": "address"
        },
        {
          "internalType": "uint256",
          "name": "addedValue",
          "type": "uint256"
        }
      ],
      "name": "increaseAllowance",
      "outputs": [
        {
          "internalType": "bool",
          "name": "",
          "type": "bool"
        }
      ],
      "stateMutability": "nonpayable",
      "type": "function"
    },
    {
      "inputs": [
        {
          "internalType": "address",
          "name": "",
          "type": "address"
        }
      ],
      "name": "lentAmount",
      "outputs": [
        {
          "internalType": "uint256",
          "name": "",
          "type": "uint256"
        }
      ],
      "stateMutability": "view",
      "type": "function",
      "constant": true
    },
    {
      "inputs": [
        {
          "internalType": "uint256",
          "name": "",
          "type": "uint256"
        }
      ],
      "name": "loans",
      "outputs": [
        {
          "internalType": "address",
          "name": "borrower",
          "type": "address"
        },
        {
          "internalType": "uint256",
          "name": "amount",
          "type": "uint256"
        },
        {
          "internalType": "uint256",
          "name": "timestamp",
          "type": "uint256"
        },
        {
          "internalType": "uint256",
          "name": "duration",
          "type": "uint256"
        },
        {
          "internalType": "uint256",
          "name": "interestRate",
          "type": "uint256"
        },
        {
          "internalType": "bool",
          "name": "isClosed",
          "type": "bool"
        }
      ],
      "stateMutability": "view",
      "type": "function",
      "constant": true
    },
    {
      "inputs": [],
      "name": "maxInterestRate",
      "outputs": [
        {
          "internalType": "uint256",
          "name": "",
          "type": "uint256"
        }
      ],
      "stateMutability": "view",
      "type": "function",
      "constant": true
    },
    {
      "inputs": [],
      "name": "maxLoanDuration",
      "outputs": [
        {
          "internalType": "uint256",
          "name": "",
          "type": "uint256"
        }
      ],
      "stateMutability": "view",
      "type": "function",
      "constant": true
    },
    {
      "inputs": [],
      "name": "minLendAmount",
      "outputs": [
        {
          "internalType": "uint256",
          "name": "",
          "type": "uint256"
        }
      ],
      "stateMutability": "view",
      "type": "function",
      "constant": true
    },
    {
      "inputs": [],
      "name": "minLoanAmount",
      "outputs": [
        {
          "internalType": "uint256",
          "name": "",
          "type": "uint256"
        }
      ],
      "stateMutability": "view",
      "type": "function",
      "constant": true
    },
    {
      "inputs": [],
      "name": "name",
      "outputs": [
        {
          "internalType": "string",
          "name": "",
          "type": "string"
        }
      ],
      "stateMutability": "view",
      "type": "function",
      "constant": true
    },
    {
      "inputs": [],
      "name": "owner",
      "outputs": [
        {
          "internalType": "address",
          "name": "",
          "type": "address"
        }
      ],
      "stateMutability": "view",
      "type": "function",
      "constant": true
    },
    {
      "inputs": [],
      "name": "renounceOwnership",
      "outputs": [],
      "stateMutability": "nonpayable",
      "type": "function"
    },
    {
      "inputs": [],
      "name": "symbol",
      "outputs": [
        {
          "internalType": "string",
          "name": "",
          "type": "string"
        }
      ],
      "stateMutability": "view",
      "type": "function",
      "constant": true
    },
    {
      "inputs": [],
      "name": "totalSupply",
      "outputs": [
        {
          "internalType": "uint256",
          "name": "",
          "type": "uint256"
        }
      ],
      "stateMutability": "view",
      "type": "function",
      "constant": true
    },
    {
      "inputs": [
        {
          "internalType": "address",
          "name": "to",
          "type": "address"
        },
        {
          "internalType": "uint256",
          "name": "amount",
          "type": "uint256"
        }
      ],
      "name": "transfer",
      "outputs": [
        {
          "internalType": "bool",
          "name": "",
          "type": "bool"
        }
      ],
      "stateMutability": "nonpayable",
      "type": "function"
    },
    {
      "inputs": [
        {
          "internalType": "address",
          "name": "from",
          "type": "address"
        },
        {
          "internalType": "address",
          "name": "to",
          "type": "address"
        },
        {
          "internalType": "uint256",
          "name": "amount",
          "type": "uint256"
        }
      ],
      "name": "transferFrom",
      "outputs": [
        {
          "internalType": "bool",
          "name": "",
          "type": "bool"
        }
      ],
      "stateMutability": "nonpayable",
      "type": "function"
    },
    {
      "inputs": [
        {
          "internalType": "address",
          "name": "newOwner",
          "type": "address"
        }
      ],
      "name": "transferOwnership",
      "outputs": [],
      "stateMutability": "nonpayable",
      "type": "function"
    },
    {
      "inputs": [
        {
          "internalType": "address",
          "name": "_borrower",
          "type": "address"
        },
        {
          "internalType": "uint256",
          "name": "_amount",
          "type": "uint256"
        }
      ],
      "name": "lend",
      "outputs": [],
      "stateMutability": "nonpayable",
      "type": "function"
    },
    {
      "inputs": [
        {
          "internalType": "uint256",
          "name": "_amount",
          "type": "uint256"
        },
        {
          "internalType": "uint256",
          "name": "_duration",
          "type": "uint256"
        },
        {
          "internalType": "uint256",
          "name": "_interestRate",
          "type": "uint256"
        }
      ],
      "name": "createLoan",
      "outputs": [],
      "stateMutability": "nonpayable",
      "type": "function"
    },
    {
      "inputs": [
        {
          "internalType": "uint256",
          "name": "_loanId",
          "type": "uint256"
        }
      ],
      "name": "repayLoan",
      "outputs": [],
      "stateMutability": "nonpayable",
      "type": "function"
    },
    {
      "inputs": [],
      "name": "withdraw",
      "outputs": [],
      "stateMutability": "nonpayable",
      "type": "function"
    }
  ],
  "bytecode": "0x608060405262278d006008556101f4600955620000216200017560201b60201c565b600a6200002f91906200055d565b600a6200003d9190620005ae565b600a55620000506200017560201b60201c565b600a6200005e91906200055d565b600a6200006c9190620005ae565b600b553480156200007c57600080fd5b506040518060400160405280600881526020017f56657274436f696e0000000000000000000000000000000000000000000000008152506040518060400160405280600381526020017f56544300000000000000000000000000000000000000000000000000000000008152508160039081620000fa919062000869565b5080600490816200010c919062000869565b5050506200012f620001236200017e60201b60201c565b6200018660201b60201c565b6200016f33620001446200017560201b60201c565b600a6200015291906200055d565b633b9aca00620001639190620005ae565b6200024c60201b60201c565b62000a3c565b60006012905090565b600033905090565b6000600560009054906101000a900473ffffffffffffffffffffffffffffffffffffffff16905081600560006101000a81548173ffffffffffffffffffffffffffffffffffffffff021916908373ffffffffffffffffffffffffffffffffffffffff1602179055508173ffffffffffffffffffffffffffffffffffffffff168173ffffffffffffffffffffffffffffffffffffffff167f8be0079c531659141344cd1fd0a4f28419497f9722a3daafe3b4186f6b6457e060405160405180910390a35050565b600073ffffffffffffffffffffffffffffffffffffffff168273ffffffffffffffffffffffffffffffffffffffff1603620002be576040517f08c379a0000000000000000000000000000000000000000000000000000000008152600401620002b590620009b1565b60405180910390fd5b620002d260008383620003b960201b60201c565b8060026000828254620002e69190620009d3565b92505081905550806000808473ffffffffffffffffffffffffffffffffffffffff1673ffffffffffffffffffffffffffffffffffffffff168152602001908152602001600020600082825401925050819055508173ffffffffffffffffffffffffffffffffffffffff16600073ffffffffffffffffffffffffffffffffffffffff167fddf252ad1be2c89b69c2b068fc378daa952ba7f163c4a11628f55a4df523b3ef8360405162000399919062000a1f565b60405180910390a3620003b560008383620003be60201b60201c565b5050565b505050565b505050565b7f4e487b7100000000000000000000000000000000000000000000000000000000600052601160045260246000fd5b60008160011c9050919050565b6000808291508390505b60018511156200045157808604811115620004295762000428620003c3565b5b6001851615620004395780820291505b80810290506200044985620003f2565b945062000409565b94509492505050565b6000826200046c57600190506200053f565b816200047c57600090506200053f565b8160018114620004955760028114620004a057620004d6565b60019150506200053f565b60ff841115620004b557620004b4620003c3565b5b8360020a915084821115620004cf57620004ce620003c3565b5b506200053f565b5060208310610133831016604e8410600b8410161715620005105782820a9050838111156200050a5762000509620003c3565b5b6200053f565b6200051f8484846001620003ff565b92509050818404811115620005395762000538620003c3565b5b81810290505b9392505050565b6000819050919050565b600060ff82169050919050565b60006200056a8262000546565b9150620005778362000550565b9250620005a67fffffffffffffffffffffffffffffffffffffffffffffffffffffffffffffffff84846200045a565b905092915050565b6000620005bb8262000546565b9150620005c88362000546565b9250828202620005d88162000546565b91508282048414831517620005f257620005f1620003c3565b5b5092915050565b600081519050919050565b7f4e487b7100000000000000000000000000000000000000000000000000000000600052604160045260246000fd5b7f4e487b7100000000000000000000000000000000000000000000000000000000600052602260045260246000fd5b600060028204905060018216806200067b57607f821691505b60208210810362000691576200069062000633565b5b50919050565b60008190508160005260206000209050919050565b60006020601f8301049050919050565b600082821b905092915050565b600060088302620006fb7fffffffffffffffffffffffffffffffffffffffffffffffffffffffffffffffff82620006bc565b620007078683620006bc565b95508019841693508086168417925050509392505050565b6000819050919050565b60006200074a620007446200073e8462000546565b6200071f565b62000546565b9050919050565b6000819050919050565b620007668362000729565b6200077e620007758262000751565b848454620006c9565b825550505050565b600090565b6200079562000786565b620007a28184846200075b565b505050565b5b81811015620007ca57620007be6000826200078b565b600181019050620007a8565b5050565b601f8211156200081957620007e38162000697565b620007ee84620006ac565b81016020851015620007fe578190505b620008166200080d85620006ac565b830182620007a7565b50505b505050565b600082821c905092915050565b60006200083e600019846008026200081e565b1980831691505092915050565b60006200085983836200082b565b9150826002028217905092915050565b6200087482620005f9565b67ffffffffffffffff81111562000890576200088f62000604565b5b6200089c825462000662565b620008a9828285620007ce565b600060209050601f831160018114620008e15760008415620008cc578287015190505b620008d885826200084b565b86555062000948565b601f198416620008f18662000697565b60005b828110156200091b57848901518255600182019150602085019450602081019050620008f4565b868310156200093b578489015162000937601f8916826200082b565b8355505b6001600288020188555050505b505050505050565b600082825260208201905092915050565b7f45524332303a206d696e7420746f20746865207a65726f206164647265737300600082015250565b600062000999601f8362000950565b9150620009a68262000961565b602082019050919050565b60006020820190508181036000830152620009cc816200098a565b9050919050565b6000620009e08262000546565b9150620009ed8362000546565b925082820190508082111562000a085762000a07620003c3565b5b92915050565b62000a198162000546565b82525050565b600060208201905062000a36600083018462000a0e565b92915050565b61245d8062000a4c6000396000f3fe608060405234801561001057600080fd5b50600436106101585760003560e01c8063904b513b116100c3578063a9583d5f1161007c578063a9583d5f146103cb578063ab7b1c89146103e9578063dd62ed3e14610405578063e06a913814610435578063e1ec3c6814610453578063f2fde38b1461048857610158565b8063904b513b146102f757806395d89b4114610313578063a2fb342d14610331578063a457c2d71461034d578063a4be77ee1461037d578063a9059cbb1461039b57610158565b8063395093511161011557806339509351146102475780633ccfd60b1461027757806370a0823114610281578063715018a6146102b15780637b567d6a146102bb5780638da5cb5b146102d957610158565b806306fdde031461015d5780630766d31f1461017b578063095ea7b3146101ab57806318160ddd146101db57806323b872dd146101f9578063313ce56714610229575b600080fd5b6101656104a4565b604051610172919061160e565b60405180910390f35b61019560048036038101906101909190611693565b610536565b6040516101a291906116d9565b60405180910390f35b6101c560048036038101906101c09190611720565b61054e565b6040516101d2919061177b565b60405180910390f35b6101e3610571565b6040516101f091906116d9565b60405180910390f35b610213600480360381019061020e9190611796565b61057b565b604051610220919061177b565b60405180910390f35b6102316105aa565b60405161023e9190611805565b60405180910390f35b610261600480360381019061025c9190611720565b6105b3565b60405161026e919061177b565b60405180910390f35b61027f6105ea565b005b61029b60048036038101906102969190611693565b610650565b6040516102a891906116d9565b60405180910390f35b6102b9610698565b005b6102c36106ac565b6040516102d091906116d9565b60405180910390f35b6102e16106b2565b6040516102ee919061182f565b60405180910390f35b610311600480360381019061030c919061184a565b6106dc565b005b61031b610908565b604051610328919061160e565b60405180910390f35b61034b60048036038101906103469190611720565b61099a565b005b61036760048036038101906103629190611720565b610a8f565b604051610374919061177b565b60405180910390f35b610385610b06565b60405161039291906116d9565b60405180910390f35b6103b560048036038101906103b09190611720565b610b0c565b6040516103c2919061177b565b60405180910390f35b6103d3610b2f565b6040516103e091906116d9565b60405180910390f35b61040360048036038101906103fe919061189d565b610b35565b005b61041f600480360381019061041a91906118ca565b610dbe565b60405161042c91906116d9565b60405180910390f35b61043d610e45565b60405161044a91906116d9565b60405180910390f35b61046d6004803603810190610468919061189d565b610e4b565b60405161047f9695949392919061190a565b60405180910390f35b6104a2600480360381019061049d9190611693565b610ec4565b005b6060600380546104b39061199a565b80601f01602080910402602001604051908101604052809291908181526020018280546104df9061199a565b801561052c5780601f106105015761010080835404028352916020019161052c565b820191906000526020600020905b81548152906001019060200180831161050f57829003601f168201915b5050505050905090565b60066020528060005260406000206000915090505481565b600080610559610f47565b9050610566818585610f4f565b600191505092915050565b6000600254905090565b600080610586610f47565b9050610593858285611118565b61059e8585856111a4565b60019150509392505050565b60006012905090565b6000806105be610f47565b90506105df8185856105d08589610dbe565b6105da91906119fa565b610f4f565b600191505092915050565b6105f261141a565b60006105fd30610650565b905060008111610642576040517f08c379a000000000000000000000000000000000000000000000000000000000815260040161063990611aa0565b60405180910390fd5b61064d3033836111a4565b50565b60008060008373ffffffffffffffffffffffffffffffffffffffff1673ffffffffffffffffffffffffffffffffffffffff168152602001908152602001600020549050919050565b6106a061141a565b6106aa6000611498565b565b600b5481565b6000600560009054906101000a900473ffffffffffffffffffffffffffffffffffffffff16905090565b600a54831015610721576040517f08c379a000000000000000000000000000000000000000000000000000000000815260040161071890611b32565b60405180910390fd5b600854821115610766576040517f08c379a000000000000000000000000000000000000000000000000000000000815260040161075d90611bc4565b60405180910390fd5b6009548111156107ab576040517f08c379a00000000000000000000000000000000000000000000000000000000081526004016107a290611c56565b60405180910390fd5b826107b533610650565b10156107f6576040517f08c379a00000000000000000000000000000000000000000000000000000000081526004016107ed90611cc2565b60405180910390fd5b6108013330856111a4565b60076040518060c001604052803373ffffffffffffffffffffffffffffffffffffffff16815260200185815260200142815260200184815260200183815260200160001515815250908060018154018082558091505060019003906000526020600020906006020160009091909190915060008201518160000160006101000a81548173ffffffffffffffffffffffffffffffffffffffff021916908373ffffffffffffffffffffffffffffffffffffffff1602179055506020820151816001015560408201518160020155606082015181600301556080820151816004015560a08201518160050160006101000a81548160ff0219169083151502179055505050505050565b6060600480546109179061199a565b80601f01602080910402602001604051908101604052809291908181526020018280546109439061199a565b80156109905780601f1061096557610100808354040283529160200191610990565b820191906000526020600020905b81548152906001019060200180831161097357829003601f168201915b5050505050905090565b600b548110156109df576040517f08c379a00000000000000000000000000000000000000000000000000000000081526004016109d690611d54565b60405180910390fd5b806109e933610650565b1015610a2a576040517f08c379a0000000000000000000000000000000000000000000000000000000008152600401610a2190611cc2565b60405180910390fd5b610a353383836111a4565b80600660008473ffffffffffffffffffffffffffffffffffffffff1673ffffffffffffffffffffffffffffffffffffffff1681526020019081526020016000206000828254610a8491906119fa565b925050819055505050565b600080610a9a610f47565b90506000610aa88286610dbe565b905083811015610aed576040517f08c379a0000000000000000000000000000000000000000000000000000000008152600401610ae490611de6565b60405180910390fd5b610afa8286868403610f4f565b60019250505092915050565b60085481565b600080610b17610f47565b9050610b248185856111a4565b600191505092915050565b60095481565b600060078281548110610b4b57610b4a611e06565b5b906000526020600020906006020190508060050160009054906101000a900460ff1615610bad576040517f08c379a0000000000000000000000000000000000000000000000000000000008152600401610ba490611e81565b60405180910390fd5b8060000160009054906101000a900473ffffffffffffffffffffffffffffffffffffffff1673ffffffffffffffffffffffffffffffffffffffff163373ffffffffffffffffffffffffffffffffffffffff1614610c3f576040517f08c379a0000000000000000000000000000000000000000000000000000000008152600401610c3690611eed565b60405180910390fd5b6000816002015442610c519190611f0d565b9050600060646301e133808460040154848660010154610c719190611f41565b610c7b9190611f41565b610c859190611fb2565b610c8f9190611fb2565b90506000818460010154610ca391906119fa565b905080610caf33610650565b1015610cf0576040517f08c379a0000000000000000000000000000000000000000000000000000000008152600401610ce790611cc2565b60405180910390fd5b610cfb3330836111a4565b610d0a303386600101546111a4565b60018460050160006101000a81548160ff021916908315150217905550610d74600660003373ffffffffffffffffffffffffffffffffffffffff1673ffffffffffffffffffffffffffffffffffffffff16815260200190815260200160002054856001015461155e565b600660003373ffffffffffffffffffffffffffffffffffffffff1673ffffffffffffffffffffffffffffffffffffffff168152602001908152602001600020819055505050505050565b6000600160008473ffffffffffffffffffffffffffffffffffffffff1673ffffffffffffffffffffffffffffffffffffffff16815260200190815260200160002060008373ffffffffffffffffffffffffffffffffffffffff1673ffffffffffffffffffffffffffffffffffffffff16815260200190815260200160002054905092915050565b600a5481565b60078181548110610e5b57600080fd5b90600052602060002090600602016000915090508060000160009054906101000a900473ffffffffffffffffffffffffffffffffffffffff16908060010154908060020154908060030154908060040154908060050160009054906101000a900460ff16905086565b610ecc61141a565b600073ffffffffffffffffffffffffffffffffffffffff168173ffffffffffffffffffffffffffffffffffffffff1603610f3b576040517f08c379a0000000000000000000000000000000000000000000000000000000008152600401610f3290612055565b60405180910390fd5b610f4481611498565b50565b600033905090565b600073ffffffffffffffffffffffffffffffffffffffff168373ffffffffffffffffffffffffffffffffffffffff1603610fbe576040517f08c379a0000000000000000000000000000000000000000000000000000000008152600401610fb5906120e7565b60405180910390fd5b600073ffffffffffffffffffffffffffffffffffffffff168273ffffffffffffffffffffffffffffffffffffffff160361102d576040517f08c379a000000000000000000000000000000000000000000000000000000000815260040161102490612179565b60405180910390fd5b80600160008573ffffffffffffffffffffffffffffffffffffffff1673ffffffffffffffffffffffffffffffffffffffff16815260200190815260200160002060008473ffffffffffffffffffffffffffffffffffffffff1673ffffffffffffffffffffffffffffffffffffffff168152602001908152602001600020819055508173ffffffffffffffffffffffffffffffffffffffff168373ffffffffffffffffffffffffffffffffffffffff167f8c5be1e5ebec7d5bd14f71427d1e84f3dd0314c0f7b2291e5b200ac8c7c3b9258360405161110b91906116d9565b60405180910390a3505050565b60006111248484610dbe565b90507fffffffffffffffffffffffffffffffffffffffffffffffffffffffffffffffff811461119e5781811015611190576040517f08c379a0000000000000000000000000000000000000000000000000000000008152600401611187906121e5565b60405180910390fd5b61119d8484848403610f4f565b5b50505050565b600073ffffffffffffffffffffffffffffffffffffffff168373ffffffffffffffffffffffffffffffffffffffff1603611213576040517f08c379a000000000000000000000000000000000000000000000000000000000815260040161120a90612277565b60405180910390fd5b600073ffffffffffffffffffffffffffffffffffffffff168273ffffffffffffffffffffffffffffffffffffffff1603611282576040517f08c379a000000000000000000000000000000000000000000000000000000000815260040161127990612309565b60405180910390fd5b61128d838383611574565b60008060008573ffffffffffffffffffffffffffffffffffffffff1673ffffffffffffffffffffffffffffffffffffffff16815260200190815260200160002054905081811015611313576040517f08c379a000000000000000000000000000000000000000000000000000000000815260040161130a9061239b565b60405180910390fd5b8181036000808673ffffffffffffffffffffffffffffffffffffffff1673ffffffffffffffffffffffffffffffffffffffff16815260200190815260200160002081905550816000808573ffffffffffffffffffffffffffffffffffffffff1673ffffffffffffffffffffffffffffffffffffffff168152602001908152602001600020600082825401925050819055508273ffffffffffffffffffffffffffffffffffffffff168473ffffffffffffffffffffffffffffffffffffffff167fddf252ad1be2c89b69c2b068fc378daa952ba7f163c4a11628f55a4df523b3ef8460405161140191906116d9565b60405180910390a3611414848484611579565b50505050565b611422610f47565b73ffffffffffffffffffffffffffffffffffffffff166114406106b2565b73ffffffffffffffffffffffffffffffffffffffff1614611496576040517f08c379a000000000000000000000000000000000000000000000000000000000815260040161148d90612407565b60405180910390fd5b565b6000600560009054906101000a900473ffffffffffffffffffffffffffffffffffffffff16905081600560006101000a81548173ffffffffffffffffffffffffffffffffffffffff021916908373ffffffffffffffffffffffffffffffffffffffff1602179055508173ffffffffffffffffffffffffffffffffffffffff168173ffffffffffffffffffffffffffffffffffffffff167f8be0079c531659141344cd1fd0a4f28419497f9722a3daafe3b4186f6b6457e060405160405180910390a35050565b6000818361156c9190611f0d565b905092915050565b505050565b505050565b600081519050919050565b600082825260208201905092915050565b60005b838110156115b857808201518184015260208101905061159d565b60008484015250505050565b6000601f19601f8301169050919050565b60006115e08261157e565b6115ea8185611589565b93506115fa81856020860161159a565b611603816115c4565b840191505092915050565b6000602082019050818103600083015261162881846115d5565b905092915050565b600080fd5b600073ffffffffffffffffffffffffffffffffffffffff82169050919050565b600061166082611635565b9050919050565b61167081611655565b811461167b57600080fd5b50565b60008135905061168d81611667565b92915050565b6000602082840312156116a9576116a8611630565b5b60006116b78482850161167e565b91505092915050565b6000819050919050565b6116d3816116c0565b82525050565b60006020820190506116ee60008301846116ca565b92915050565b6116fd816116c0565b811461170857600080fd5b50565b60008135905061171a816116f4565b92915050565b6000806040838503121561173757611736611630565b5b60006117458582860161167e565b92505060206117568582860161170b565b9150509250929050565b60008115159050919050565b61177581611760565b82525050565b6000602082019050611790600083018461176c565b92915050565b6000806000606084860312156117af576117ae611630565b5b60006117bd8682870161167e565b93505060206117ce8682870161167e565b92505060406117df8682870161170b565b9150509250925092565b600060ff82169050919050565b6117ff816117e9565b82525050565b600060208201905061181a60008301846117f6565b92915050565b61182981611655565b82525050565b60006020820190506118446000830184611820565b92915050565b60008060006060848603121561186357611862611630565b5b60006118718682870161170b565b93505060206118828682870161170b565b92505060406118938682870161170b565b9150509250925092565b6000602082840312156118b3576118b2611630565b5b60006118c18482850161170b565b91505092915050565b600080604083850312156118e1576118e0611630565b5b60006118ef8582860161167e565b92505060206119008582860161167e565b9150509250929050565b600060c08201905061191f6000830189611820565b61192c60208301886116ca565b61193960408301876116ca565b61194660608301866116ca565b61195360808301856116ca565b61196060a083018461176c565b979650505050505050565b7f4e487b7100000000000000000000000000000000000000000000000000000000600052602260045260246000fd5b600060028204905060018216806119b257607f821691505b6020821081036119c5576119c461196b565b5b50919050565b7f4e487b7100000000000000000000000000000000000000000000000000000000600052601160045260246000fd5b6000611a05826116c0565b9150611a10836116c0565b9250828201905080821115611a2857611a276119cb565b5b92915050565b7f436f6e747261637420686173206e6f20746f6b656e7320746f2077697468647260008201527f6177000000000000000000000000000000000000000000000000000000000000602082015250565b6000611a8a602283611589565b9150611a9582611a2e565b604082019050919050565b60006020820190508181036000830152611ab981611a7d565b9050919050565b7f416d6f756e742069732062656c6f77206d696e696d756d206c6f616e20616d6f60008201527f756e740000000000000000000000000000000000000000000000000000000000602082015250565b6000611b1c602383611589565b9150611b2782611ac0565b604082019050919050565b60006020820190508181036000830152611b4b81611b0f565b9050919050565b7f4475726174696f6e2069732061626f7665206d6178696d756d206c6f616e206460008201527f75726174696f6e00000000000000000000000000000000000000000000000000602082015250565b6000611bae602783611589565b9150611bb982611b52565b604082019050919050565b60006020820190508181036000830152611bdd81611ba1565b9050919050565b7f496e74657265737420726174652069732061626f7665206d6178696d756d206960008201527f6e74657265737420726174650000000000000000000000000000000000000000602082015250565b6000611c40602c83611589565b9150611c4b82611be4565b604082019050919050565b60006020820190508181036000830152611c6f81611c33565b9050919050565b7f496e73756666696369656e742062616c616e6365000000000000000000000000600082015250565b6000611cac601483611589565b9150611cb782611c76565b602082019050919050565b60006020820190508181036000830152611cdb81611c9f565b9050919050565b7f416d6f756e742069732062656c6f77206d696e696d756d206c656e6420616d6f60008201527f756e740000000000000000000000000000000000000000000000000000000000602082015250565b6000611d3e602383611589565b9150611d4982611ce2565b604082019050919050565b60006020820190508181036000830152611d6d81611d31565b9050919050565b7f45524332303a2064656372656173656420616c6c6f77616e63652062656c6f7760008201527f207a65726f000000000000000000000000000000000000000000000000000000602082015250565b6000611dd0602583611589565b9150611ddb82611d74565b604082019050919050565b60006020820190508181036000830152611dff81611dc3565b9050919050565b7f4e487b7100000000000000000000000000000000000000000000000000000000600052603260045260246000fd5b7f4c6f616e20697320616c726561647920636c6f73656400000000000000000000600082015250565b6000611e6b601683611589565b9150611e7682611e35565b602082019050919050565b60006020820190508181036000830152611e9a81611e5e565b9050919050565b7f4f6e6c7920626f72726f7765722063616e207265706179206c6f616e00000000600082015250565b6000611ed7601c83611589565b9150611ee282611ea1565b602082019050919050565b60006020820190508181036000830152611f0681611eca565b9050919050565b6000611f18826116c0565b9150611f23836116c0565b9250828203905081811115611f3b57611f3a6119cb565b5b92915050565b6000611f4c826116c0565b9150611f57836116c0565b9250828202611f65816116c0565b91508282048414831517611f7c57611f7b6119cb565b5b5092915050565b7f4e487b7100000000000000000000000000000000000000000000000000000000600052601260045260246000fd5b6000611fbd826116c0565b9150611fc8836116c0565b925082611fd857611fd7611f83565b5b828204905092915050565b7f4f776e61626c653a206e6577206f776e657220697320746865207a65726f206160008201527f6464726573730000000000000000000000000000000000000000000000000000602082015250565b600061203f602683611589565b915061204a82611fe3565b604082019050919050565b6000602082019050818103600083015261206e81612032565b9050919050565b7f45524332303a20617070726f76652066726f6d20746865207a65726f2061646460008201527f7265737300000000000000000000000000000000000000000000000000000000602082015250565b60006120d1602483611589565b91506120dc82612075565b604082019050919050565b60006020820190508181036000830152612100816120c4565b9050919050565b7f45524332303a20617070726f766520746f20746865207a65726f20616464726560008201527f7373000000000000000000000000000000000000000000000000000000000000602082015250565b6000612163602283611589565b915061216e82612107565b604082019050919050565b6000602082019050818103600083015261219281612156565b9050919050565b7f45524332303a20696e73756666696369656e7420616c6c6f77616e6365000000600082015250565b60006121cf601d83611589565b91506121da82612199565b602082019050919050565b600060208201905081810360008301526121fe816121c2565b9050919050565b7f45524332303a207472616e736665722066726f6d20746865207a65726f20616460008201527f6472657373000000000000000000000000000000000000000000000000000000602082015250565b6000612261602583611589565b915061226c82612205565b604082019050919050565b6000602082019050818103600083015261229081612254565b9050919050565b7f45524332303a207472616e7366657220746f20746865207a65726f206164647260008201527f6573730000000000000000000000000000000000000000000000000000000000602082015250565b60006122f3602383611589565b91506122fe82612297565b604082019050919050565b60006020820190508181036000830152612322816122e6565b9050919050565b7f45524332303a207472616e7366657220616d6f756e742065786365656473206260008201527f616c616e63650000000000000000000000000000000000000000000000000000602082015250565b6000612385602683611589565b915061239082612329565b604082019050919050565b600060208201905081810360008301526123b481612378565b9050919050565b7f4f776e61626c653a2063616c6c6572206973206e6f7420746865206f776e6572600082015250565b60006123f1602083611589565b91506123fc826123bb565b602082019050919050565b60006020820190508181036000830152612420816123e4565b905091905056fea2646970667358221220c5091f961a68cef5d0a70f8507210da7175cfa52cd852f08dceda0729ce5bfdf64736f6c63430008130033",
  "immutableReferences": {},
  "source": "// SPDX-License-Identifier: MIT\npragma solidity ^0.8.0;\n\nimport \"@openzeppelin/contracts/token/ERC20/IERC20.sol\";\nimport \"@openzeppelin/contracts/token/ERC20/ERC20.sol\";\nimport \"@openzeppelin/contracts/access/Ownable.sol\";\nimport \"@openzeppelin/contracts/utils/math/SafeMath.sol\";\n\ncontract VertCoin is ERC20, Ownable {\n    struct Loan {\n        address borrower;\n        uint256 amount;\n        uint256 timestamp;\n        uint256 duration;\n        uint256 interestRate;\n        bool isClosed;\n    }\n\n    mapping(address => uint256) public lentAmount;\n    Loan[] public loans;\n    uint256 public maxLoanDuration = 30 days;\n    uint256 public maxInterestRate = 500; // 5%\n    uint256 public minLoanAmount = 10 * 10 ** decimals(); // 10 VTC\n    uint256 public minLendAmount = 10 * 10 ** decimals(); // 10 VTC\n\n    constructor() ERC20(\"VertCoin\", \"VTC\") {\n        _mint(msg.sender, 1000000000 * 10 ** decimals());\n    }\n\n    function lend(address _borrower, uint256 _amount) external {\n        require(\n            _amount >= minLendAmount,\n            \"Amount is below minimum lend amount\"\n        );\n        require(balanceOf(msg.sender) >= _amount, \"Insufficient balance\");\n\n        // Transfer VTC to borrower\n        _transfer(msg.sender, _borrower, _amount);\n\n        // Update lentAmount\n        lentAmount[_borrower] += _amount;\n    }\n\n    function createLoan(\n        uint256 _amount,\n        uint256 _duration,\n        uint256 _interestRate\n    ) external {\n        require(\n            _amount >= minLoanAmount,\n            \"Amount is below minimum loan amount\"\n        );\n        require(\n            _duration <= maxLoanDuration,\n            \"Duration is above maximum loan duration\"\n        );\n        require(\n            _interestRate <= maxInterestRate,\n            \"Interest rate is above maximum interest rate\"\n        );\n        require(balanceOf(msg.sender) >= _amount, \"Insufficient balance\");\n\n        // Transfer VTC to loan contract\n        _transfer(msg.sender, address(this), _amount);\n\n        // Create loan\n        loans.push(\n            Loan({\n                borrower: msg.sender,\n                amount: _amount,\n                timestamp: block.timestamp,\n                duration: _duration,\n                interestRate: _interestRate,\n                isClosed: false\n            })\n        );\n    }\n\n    function repayLoan(uint256 _loanId) external {\n        Loan storage loan = loans[_loanId];\n        require(!loan.isClosed, \"Loan is already closed\");\n        require(msg.sender == loan.borrower, \"Only borrower can repay loan\");\n\n        // Calculate amount to be repaid\n        uint256 duration = block.timestamp - loan.timestamp;\n        uint256 interest = (loan.amount * duration * loan.interestRate) /\n            (365 days) /\n            100;\n        uint256 amountToRepay = loan.amount + interest;\n\n        // Transfer VTC from borrower to loan contract\n        require(balanceOf(msg.sender) >= amountToRepay, \"Insufficient balance\");\n        _transfer(msg.sender, address(this), amountToRepay);\n\n        // Transfer VTC from loan contract to lender\n        _transfer(address(this), msg.sender, loan.amount);\n\n        // Close loan\n        loan.isClosed = true;\n\n        // Update lentAmount\n        lentAmount[msg.sender] = SafeMath.sub(\n            lentAmount[msg.sender],\n            loan.amount\n        );\n    }\n\n    function withdraw() external onlyOwner {\n        uint256 balance = balanceOf(address(this));\n        require(balance > 0, \"Contract has no tokens to withdraw\");\n        _transfer(address(this), msg.sender, balance);\n    }\n}\n",
  "sourcePath": "/home/main/github/vert.io/truffle/contracts/VertCoin.sol",
  "compiler": {
    "name": "solc",
    "version": "0.8.19+commit.7dd6d404.Emscripten.clang"
  },
  "schemaVersion": "3.4.13",
  "updatedAt": "2023-03-21T08:02:02.280Z",
  "networkType": "ethereum",
  "devdoc": {
    "events": {
      "Approval(address,address,uint256)": {
        "details": "Emitted when the allowance of a `spender` for an `owner` is set by a call to {approve}. `value` is the new allowance."
      },
      "Transfer(address,address,uint256)": {
        "details": "Emitted when `value` tokens are moved from one account (`from`) to another (`to`). Note that `value` may be zero."
      }
    },
    "kind": "dev",
    "methods": {
      "allowance(address,address)": {
        "details": "See {IERC20-allowance}."
      },
      "approve(address,uint256)": {
        "details": "See {IERC20-approve}. NOTE: If `amount` is the maximum `uint256`, the allowance is not updated on `transferFrom`. This is semantically equivalent to an infinite approval. Requirements: - `spender` cannot be the zero address."
      },
      "balanceOf(address)": {
        "details": "See {IERC20-balanceOf}."
      },
      "decimals()": {
        "details": "Returns the number of decimals used to get its user representation. For example, if `decimals` equals `2`, a balance of `505` tokens should be displayed to a user as `5.05` (`505 / 10 ** 2`). Tokens usually opt for a value of 18, imitating the relationship between Ether and Wei. This is the value {ERC20} uses, unless this function is overridden; NOTE: This information is only used for _display_ purposes: it in no way affects any of the arithmetic of the contract, including {IERC20-balanceOf} and {IERC20-transfer}."
      },
      "decreaseAllowance(address,uint256)": {
        "details": "Atomically decreases the allowance granted to `spender` by the caller. This is an alternative to {approve} that can be used as a mitigation for problems described in {IERC20-approve}. Emits an {Approval} event indicating the updated allowance. Requirements: - `spender` cannot be the zero address. - `spender` must have allowance for the caller of at least `subtractedValue`."
      },
      "increaseAllowance(address,uint256)": {
        "details": "Atomically increases the allowance granted to `spender` by the caller. This is an alternative to {approve} that can be used as a mitigation for problems described in {IERC20-approve}. Emits an {Approval} event indicating the updated allowance. Requirements: - `spender` cannot be the zero address."
      },
      "name()": {
        "details": "Returns the name of the token."
      },
      "owner()": {
        "details": "Returns the address of the current owner."
      },
      "renounceOwnership()": {
        "details": "Leaves the contract without owner. It will not be possible to call `onlyOwner` functions anymore. Can only be called by the current owner. NOTE: Renouncing ownership will leave the contract without an owner, thereby removing any functionality that is only available to the owner."
      },
      "symbol()": {
        "details": "Returns the symbol of the token, usually a shorter version of the name."
      },
      "totalSupply()": {
        "details": "See {IERC20-totalSupply}."
      },
      "transfer(address,uint256)": {
        "details": "See {IERC20-transfer}. Requirements: - `to` cannot be the zero address. - the caller must have a balance of at least `amount`."
      },
      "transferFrom(address,address,uint256)": {
        "details": "See {IERC20-transferFrom}. Emits an {Approval} event indicating the updated allowance. This is not required by the EIP. See the note at the beginning of {ERC20}. NOTE: Does not update the allowance if the current allowance is the maximum `uint256`. Requirements: - `from` and `to` cannot be the zero address. - `from` must have a balance of at least `amount`. - the caller must have allowance for ``from``'s tokens of at least `amount`."
      },
      "transferOwnership(address)": {
        "details": "Transfers ownership of the contract to a new account (`newOwner`). Can only be called by the current owner."
      }
    },
    "version": 1
  },
  "userdoc": {
    "kind": "user",
    "methods": {},
    "version": 1
  }
}