{
  "contractName": "Exam",
  "abi": [
    {
      "inputs": [
        {
          "internalType": "address",
          "name": "_taskContractAddress",
          "type": "address"
        },
        {
          "internalType": "address",
          "name": "_testContractAddress",
          "type": "address"
        },
        {
          "internalType": "address",
          "name": "_vertCoinContractAddress",
          "type": "address"
        }
      ],
      "stateMutability": "nonpayable",
      "type": "constructor"
    },
    {
      "anonymous": false,
      "inputs": [
        {
          "indexed": true,
          "internalType": "uint256",
          "name": "examId",
          "type": "uint256"
        },
        {
          "indexed": false,
          "internalType": "string",
          "name": "ipfsHash",
          "type": "string"
        },
        {
          "indexed": false,
          "internalType": "uint256[]",
          "name": "testIds",
          "type": "uint256[]"
        },
        {
          "indexed": false,
          "internalType": "uint256[]",
          "name": "taskIds",
          "type": "uint256[]"
        },
        {
          "indexed": false,
          "internalType": "uint256",
          "name": "passingGPA",
          "type": "uint256"
        },
        {
          "indexed": false,
          "internalType": "uint256",
          "name": "maxGPA",
          "type": "uint256"
        },
        {
          "indexed": false,
          "internalType": "uint256",
          "name": "cost",
          "type": "uint256"
        }
      ],
      "name": "ExamCreated",
      "type": "event"
    },
    {
      "anonymous": false,
      "inputs": [
        {
          "indexed": true,
          "internalType": "uint256",
          "name": "examId",
          "type": "uint256"
        },
        {
          "indexed": false,
          "internalType": "uint256[]",
          "name": "testScores",
          "type": "uint256[]"
        },
        {
          "indexed": false,
          "internalType": "uint256[]",
          "name": "taskScores",
          "type": "uint256[]"
        },
        {
          "indexed": false,
          "internalType": "uint256",
          "name": "gpa",
          "type": "uint256"
        },
        {
          "indexed": false,
          "internalType": "bool",
          "name": "isPassed",
          "type": "bool"
        }
      ],
      "name": "ExamVerified",
      "type": "event"
    },
    {
      "anonymous": false,
      "inputs": [
        {
          "indexed": true,
          "internalType": "uint256",
          "name": "examId",
          "type": "uint256"
        },
        {
          "indexed": true,
          "internalType": "uint256",
          "name": "taskId",
          "type": "uint256"
        }
      ],
      "name": "TaskAddedToExam",
      "type": "event"
    },
    {
      "anonymous": false,
      "inputs": [
        {
          "indexed": true,
          "internalType": "uint256",
          "name": "taskId",
          "type": "uint256"
        },
        {
          "indexed": false,
          "internalType": "string",
          "name": "ipfsHash",
          "type": "string"
        },
        {
          "indexed": false,
          "internalType": "address",
          "name": "verifier",
          "type": "address"
        },
        {
          "indexed": false,
          "internalType": "uint256",
          "name": "weight",
          "type": "uint256"
        }
      ],
      "name": "TaskCreated",
      "type": "event"
    },
    {
      "anonymous": false,
      "inputs": [
        {
          "indexed": true,
          "internalType": "uint256",
          "name": "taskId",
          "type": "uint256"
        },
        {
          "indexed": false,
          "internalType": "address",
          "name": "verifier",
          "type": "address"
        }
      ],
      "name": "TaskVerified",
      "type": "event"
    },
    {
      "anonymous": false,
      "inputs": [
        {
          "indexed": true,
          "internalType": "uint256",
          "name": "examId",
          "type": "uint256"
        },
        {
          "indexed": true,
          "internalType": "uint256",
          "name": "testId",
          "type": "uint256"
        }
      ],
      "name": "TestAddedToExam",
      "type": "event"
    },
    {
      "anonymous": false,
      "inputs": [
        {
          "indexed": true,
          "internalType": "uint256",
          "name": "testId",
          "type": "uint256"
        },
        {
          "indexed": false,
          "internalType": "uint8",
          "name": "questionType",
          "type": "uint8"
        },
        {
          "indexed": false,
          "internalType": "string",
          "name": "ipfsHash",
          "type": "string"
        },
        {
          "indexed": false,
          "internalType": "string",
          "name": "answerHash",
          "type": "string"
        },
        {
          "indexed": false,
          "internalType": "uint256",
          "name": "weight",
          "type": "uint256"
        }
      ],
      "name": "TestCreated",
      "type": "event"
    },
    {
      "anonymous": false,
      "inputs": [
        {
          "indexed": true,
          "internalType": "uint256",
          "name": "testId",
          "type": "uint256"
        },
        {
          "indexed": false,
          "internalType": "uint256[]",
          "name": "scores",
          "type": "uint256[]"
        },
        {
          "indexed": false,
          "internalType": "uint256",
          "name": "gpa",
          "type": "uint256"
        },
        {
          "indexed": false,
          "internalType": "bool",
          "name": "isPassed",
          "type": "bool"
        }
      ],
      "name": "TestVerified",
      "type": "event"
    },
    {
      "inputs": [
        {
          "internalType": "uint256",
          "name": "",
          "type": "uint256"
        }
      ],
      "name": "exams",
      "outputs": [
        {
          "internalType": "string",
          "name": "ipfsHash",
          "type": "string"
        },
        {
          "internalType": "uint256",
          "name": "passingGPA",
          "type": "uint256"
        },
        {
          "internalType": "uint256",
          "name": "maxGPA",
          "type": "uint256"
        },
        {
          "internalType": "uint256",
          "name": "cost",
          "type": "uint256"
        },
        {
          "internalType": "bool",
          "name": "isPassed",
          "type": "bool"
        }
      ],
      "stateMutability": "view",
      "type": "function",
      "constant": true
    },
    {
      "inputs": [
        {
          "internalType": "uint256",
          "name": "",
          "type": "uint256"
        }
      ],
      "name": "sealedExams",
      "outputs": [
        {
          "internalType": "bool",
          "name": "",
          "type": "bool"
        }
      ],
      "stateMutability": "view",
      "type": "function",
      "constant": true
    },
    {
      "inputs": [],
      "name": "taskContract",
      "outputs": [
        {
          "internalType": "contract Task",
          "name": "",
          "type": "address"
        }
      ],
      "stateMutability": "view",
      "type": "function",
      "constant": true
    },
    {
      "inputs": [],
      "name": "testContract",
      "outputs": [
        {
          "internalType": "contract Test",
          "name": "",
          "type": "address"
        }
      ],
      "stateMutability": "view",
      "type": "function",
      "constant": true
    },
    {
      "inputs": [],
      "name": "vertCoinContract",
      "outputs": [
        {
          "internalType": "contract VertCoin",
          "name": "",
          "type": "address"
        }
      ],
      "stateMutability": "view",
      "type": "function",
      "constant": true
    },
    {
      "inputs": [
        {
          "internalType": "string",
          "name": "_ipfsHash",
          "type": "string"
        },
        {
          "internalType": "uint256[]",
          "name": "_testIds",
          "type": "uint256[]"
        },
        {
          "internalType": "uint256[]",
          "name": "_taskIds",
          "type": "uint256[]"
        },
        {
          "internalType": "uint256",
          "name": "_passingGPA",
          "type": "uint256"
        },
        {
          "internalType": "uint256",
          "name": "_maxGPA",
          "type": "uint256"
        },
        {
          "internalType": "uint256",
          "name": "_cost",
          "type": "uint256"
        }
      ],
      "name": "createExam",
      "outputs": [],
      "stateMutability": "nonpayable",
      "type": "function"
    },
    {
      "inputs": [
        {
          "internalType": "uint256",
          "name": "_examId",
          "type": "uint256"
        },
        {
          "internalType": "uint256[]",
          "name": "_testScores",
          "type": "uint256[]"
        },
        {
          "internalType": "uint256[]",
          "name": "_taskScores",
          "type": "uint256[]"
        },
        {
          "internalType": "address",
          "name": "_delegate",
          "type": "address"
        }
      ],
      "name": "verifyExam",
      "outputs": [],
      "stateMutability": "nonpayable",
      "type": "function"
    },
    {
      "inputs": [
        {
          "internalType": "uint256",
          "name": "_examId",
          "type": "uint256"
        }
      ],
      "name": "sealExam",
      "outputs": [],
      "stateMutability": "nonpayable",
      "type": "function"
    },
    {
      "inputs": [
        {
          "internalType": "uint256",
          "name": "_examId",
          "type": "uint256"
        },
        {
          "internalType": "address",
          "name": "_testAddress",
          "type": "address"
        }
      ],
      "name": "addTestToExam",
      "outputs": [],
      "stateMutability": "nonpayable",
      "type": "function"
    },
    {
      "inputs": [
        {
          "internalType": "uint256",
          "name": "_examId",
          "type": "uint256"
        },
        {
          "internalType": "address",
          "name": "_taskAddress",
          "type": "address"
        }
      ],
      "name": "addTaskToExam",
      "outputs": [],
      "stateMutability": "nonpayable",
      "type": "function"
    }
  ],
  "bytecode": "0x60806040523480156200001157600080fd5b50604051620024a6380380620024a683398181016040528101906200003791906200016d565b82600160006101000a81548173ffffffffffffffffffffffffffffffffffffffff021916908373ffffffffffffffffffffffffffffffffffffffff16021790555081600260006101000a81548173ffffffffffffffffffffffffffffffffffffffff021916908373ffffffffffffffffffffffffffffffffffffffff16021790555080600360006101000a81548173ffffffffffffffffffffffffffffffffffffffff021916908373ffffffffffffffffffffffffffffffffffffffff160217905550505050620001c9565b600080fd5b600073ffffffffffffffffffffffffffffffffffffffff82169050919050565b6000620001358262000108565b9050919050565b620001478162000128565b81146200015357600080fd5b50565b60008151905062000167816200013c565b92915050565b60008060006060848603121562000189576200018862000103565b5b6000620001998682870162000156565b9350506020620001ac8682870162000156565b9250506040620001bf8682870162000156565b9150509250925092565b6122cd80620001d96000396000f3fe608060405234801561001057600080fd5b506004361061009e5760003560e01c80634a959cb1116100665780634a959cb11461014b5780635e8189761461017b578063a0bbf54214610197578063c36631b4146101b3578063f18ba245146101d15761009e565b806310f92e80146100a3578063253d3028146100bf57806328b8536a146100db5780633b70aebc146100f95780634198cb3f14610117575b600080fd5b6100bd60048036038101906100b891906114a7565b6101ed565b005b6100d960048036038101906100d491906115fb565b61077a565b005b6100e36108c6565b6040516100f0919061173b565b60405180910390f35b6101016108ec565b60405161010e9190611777565b60405180910390f35b610131600480360381019061012c9190611792565b610912565b604051610142959493929190611868565b60405180910390f35b61016560048036038101906101609190611792565b6109ed565b60405161017291906118c2565b60405180910390f35b610195600480360381019061019091906118dd565b610a0d565b005b6101b160048036038101906101ac9190611792565b610c71565b005b6101bb610fb2565b6040516101c8919061193e565b60405180910390f35b6101eb60048036038101906101e691906118dd565b610fd8565b005b836004600082815260200190815260200160002060009054906101000a900460ff161561024f576040517f08c379a0000000000000000000000000000000000000000000000000000000008152600401610246906119a5565b60405180910390fd5b6000805490508510610296576040517f08c379a000000000000000000000000000000000000000000000000000000000815260040161028d90611a11565b60405180910390fd5b60008086815481106102ab576102aa611a31565b5b9060005260206000209060070201905060008060005b83600101805490508110156103e05760008460010182815481106102e8576102e7611a31565b5b90600052602060002001549050600089838151811061030a57610309611a31565b5b6020026020010151905080856103209190611a8f565b9450600260009054906101000a900473ffffffffffffffffffffffffffffffffffffffff1673ffffffffffffffffffffffffffffffffffffffff16632e70cbfd836040518263ffffffff1660e01b815260040161037d9190611ac3565b602060405180830381865afa15801561039a573d6000803e3d6000fd5b505050506040513d601f19601f820116820180604052508101906103be9190611af3565b846103c99190611a8f565b9350505080806103d890611b20565b9150506102c1565b5060005b836002018054905081101561050357600084600201828154811061040b5761040a611a31565b5b90600052602060002001549050600088838151811061042d5761042c611a31565b5b6020026020010151905080856104439190611a8f565b9450600160009054906101000a900473ffffffffffffffffffffffffffffffffffffffff1673ffffffffffffffffffffffffffffffffffffffff16632e70cbfd836040518263ffffffff1660e01b81526004016104a09190611ac3565b602060405180830381865afa1580156104bd573d6000803e3d6000fd5b505050506040513d601f19601f820116820180604052508101906104e19190611af3565b846104ec9190611a8f565b9350505080806104fb90611b20565b9150506103e4565b50600080821461052d578184600401548461051e9190611b68565b6105289190611bd9565b610530565b60005b90508360030154811061072f5760018460060160006101000a81548160ff021916908315150217905550600033905060008560050154905080600360009054906101000a900473ffffffffffffffffffffffffffffffffffffffff1673ffffffffffffffffffffffffffffffffffffffff166370a08231846040518263ffffffff1660e01b81526004016105c49190611c19565b602060405180830381865afa1580156105e1573d6000803e3d6000fd5b505050506040513d601f19601f820116820180604052508101906106059190611af3565b1015610646576040517f08c379a000000000000000000000000000000000000000000000000000000000815260040161063d90611c80565b60405180910390fd5b600360009054906101000a900473ffffffffffffffffffffffffffffffffffffffff1673ffffffffffffffffffffffffffffffffffffffff166323b872dd838a846040518463ffffffff1660e01b81526004016106a593929190611ca0565b6020604051808303816000875af11580156106c4573d6000803e3d6000fd5b505050506040513d601f19601f820116820180604052508101906106e89190611d03565b508a7f39c3d1469ee55722b4fa7ff4661c08c32157b128db56b75971f767daeb2cc0668b8b8660016040516107209493929190611dee565b60405180910390a2505061076f565b887f39c3d1469ee55722b4fa7ff4661c08c32157b128db56b75971f767daeb2cc06689898460006040516107669493929190611dee565b60405180910390a25b505050505050505050565b60006040518060e0016040528088815260200187815260200186815260200185815260200184815260200183815260200160001515815250908060018154018082558091505060019003906000526020600020906007020160009091909190915060008201518160000190816107f09190612043565b50602082015181600101908051906020019061080d92919061123c565b50604082015181600201908051906020019061082a92919061123c565b50606082015181600301556080820151816004015560a0820151816005015560c08201518160060160006101000a81548160ff0219169083151502179055505050600160008054905061087d9190612115565b7f7d86b3a426d40309d153f141f032f4276702b3a232844409ffb34cab0e6190468787878787876040516108b696959493929190612149565b60405180910390a2505050505050565b600360009054906101000a900473ffffffffffffffffffffffffffffffffffffffff1681565b600160009054906101000a900473ffffffffffffffffffffffffffffffffffffffff1681565b6000818154811061092257600080fd5b906000526020600020906007020160009150905080600001805461094590611e70565b80601f016020809104026020016040519081016040528092919081815260200182805461097190611e70565b80156109be5780601f10610993576101008083540402835291602001916109be565b820191906000526020600020905b8154815290600101906020018083116109a157829003601f168201915b5050505050908060030154908060040154908060050154908060060160009054906101000a900460ff16905085565b60046020528060005260406000206000915054906101000a900460ff1681565b816004600082815260200190815260200160002060009054906101000a900460ff1615610a6f576040517f08c379a0000000000000000000000000000000000000000000000000000000008152600401610a66906119a5565b60405180910390fd5b6000805490508310610ab6576040517f08c379a0000000000000000000000000000000000000000000000000000000008152600401610aad90611a11565b60405180910390fd5b600082905060008481548110610acf57610ace611a31565b5b9060005260206000209060070201600201600160009054906101000a900473ffffffffffffffffffffffffffffffffffffffff1673ffffffffffffffffffffffffffffffffffffffff166358a36705836040518263ffffffff1660e01b8152600401610b3b9190611777565b602060405180830381865afa158015610b58573d6000803e3d6000fd5b505050506040513d601f19601f82011682018060405250810190610b7c9190611af3565b9080600181540180825580915050600190039060005260206000200160009091909190915055600160009054906101000a900473ffffffffffffffffffffffffffffffffffffffff1673ffffffffffffffffffffffffffffffffffffffff166358a36705826040518263ffffffff1660e01b8152600401610bfd9190611777565b602060405180830381865afa158015610c1a573d6000803e3d6000fd5b505050506040513d601f19601f82011682018060405250810190610c3e9190611af3565b847f424feab3c36a84adece3c296a53f0cd27d265eaaa345c17cc1f9cfb8e9bd1a9b60405160405180910390a350505050565b806004600082815260200190815260200160002060009054906101000a900460ff1615610cd3576040517f08c379a0000000000000000000000000000000000000000000000000000000008152600401610cca906119a5565b60405180910390fd5b6000805490508210610d1a576040517f08c379a0000000000000000000000000000000000000000000000000000000008152600401610d1190611a11565b60405180910390fd5b6000808381548110610d2f57610d2e611a31565b5b9060005260206000209060070201905060005b8160010180549050811015610e5f57600260009054906101000a900473ffffffffffffffffffffffffffffffffffffffff1673ffffffffffffffffffffffffffffffffffffffff1663e787418a836001018381548110610da557610da4611a31565b5b90600052602060002001546040518263ffffffff1660e01b8152600401610dcc9190611ac3565b602060405180830381865afa158015610de9573d6000803e3d6000fd5b505050506040513d601f19601f82011682018060405250810190610e0d9190611d03565b610e4c576040517f08c379a0000000000000000000000000000000000000000000000000000000008152600401610e439061220b565b60405180910390fd5b8080610e5790611b20565b915050610d42565b5060005b8160020180549050811015610f8057600160009054906101000a900473ffffffffffffffffffffffffffffffffffffffff1673ffffffffffffffffffffffffffffffffffffffff1663e787418a836002018381548110610ec657610ec5611a31565b5b90600052602060002001546040518263ffffffff1660e01b8152600401610eed9190611ac3565b602060405180830381865afa158015610f0a573d6000803e3d6000fd5b505050506040513d601f19601f82011682018060405250810190610f2e9190611d03565b610f6d576040517f08c379a0000000000000000000000000000000000000000000000000000000008152600401610f6490612277565b60405180910390fd5b8080610f7890611b20565b915050610e63565b5060016004600085815260200190815260200160002060006101000a81548160ff021916908315150217905550505050565b600260009054906101000a900473ffffffffffffffffffffffffffffffffffffffff1681565b816004600082815260200190815260200160002060009054906101000a900460ff161561103a576040517f08c379a0000000000000000000000000000000000000000000000000000000008152600401611031906119a5565b60405180910390fd5b6000805490508310611081576040517f08c379a000000000000000000000000000000000000000000000000000000000815260040161107890611a11565b60405180910390fd5b60008290506000848154811061109a57611099611a31565b5b9060005260206000209060070201600101600260009054906101000a900473ffffffffffffffffffffffffffffffffffffffff1673ffffffffffffffffffffffffffffffffffffffff1663fd4c632a836040518263ffffffff1660e01b8152600401611106919061193e565b602060405180830381865afa158015611123573d6000803e3d6000fd5b505050506040513d601f19601f820116820180604052508101906111479190611af3565b9080600181540180825580915050600190039060005260206000200160009091909190915055600260009054906101000a900473ffffffffffffffffffffffffffffffffffffffff1673ffffffffffffffffffffffffffffffffffffffff1663fd4c632a826040518263ffffffff1660e01b81526004016111c8919061193e565b602060405180830381865afa1580156111e5573d6000803e3d6000fd5b505050506040513d601f19601f820116820180604052508101906112099190611af3565b847fcfa708233505f0c4b88be88fcd6b5922a3af218357c3f2805688c63420da1df060405160405180910390a350505050565b828054828255906000526020600020908101928215611278579160200282015b8281111561127757825182559160200191906001019061125c565b5b5090506112859190611289565b5090565b5b808211156112a257600081600090555060010161128a565b5090565b6000604051905090565b600080fd5b600080fd5b6000819050919050565b6112cd816112ba565b81146112d857600080fd5b50565b6000813590506112ea816112c4565b92915050565b600080fd5b6000601f19601f8301169050919050565b7f4e487b7100000000000000000000000000000000000000000000000000000000600052604160045260246000fd5b61133e826112f5565b810181811067ffffffffffffffff8211171561135d5761135c611306565b5b80604052505050565b60006113706112a6565b905061137c8282611335565b919050565b600067ffffffffffffffff82111561139c5761139b611306565b5b602082029050602081019050919050565b600080fd5b60006113c56113c084611381565b611366565b905080838252602082019050602084028301858111156113e8576113e76113ad565b5b835b8181101561141157806113fd88826112db565b8452602084019350506020810190506113ea565b5050509392505050565b600082601f8301126114305761142f6112f0565b5b81356114408482602086016113b2565b91505092915050565b600073ffffffffffffffffffffffffffffffffffffffff82169050919050565b600061147482611449565b9050919050565b61148481611469565b811461148f57600080fd5b50565b6000813590506114a18161147b565b92915050565b600080600080608085870312156114c1576114c06112b0565b5b60006114cf878288016112db565b945050602085013567ffffffffffffffff8111156114f0576114ef6112b5565b5b6114fc8782880161141b565b935050604085013567ffffffffffffffff81111561151d5761151c6112b5565b5b6115298782880161141b565b925050606061153a87828801611492565b91505092959194509250565b600080fd5b600067ffffffffffffffff82111561156657611565611306565b5b61156f826112f5565b9050602081019050919050565b82818337600083830152505050565b600061159e6115998461154b565b611366565b9050828152602081018484840111156115ba576115b9611546565b5b6115c584828561157c565b509392505050565b600082601f8301126115e2576115e16112f0565b5b81356115f284826020860161158b565b91505092915050565b60008060008060008060c08789031215611618576116176112b0565b5b600087013567ffffffffffffffff811115611636576116356112b5565b5b61164289828a016115cd565b965050602087013567ffffffffffffffff811115611663576116626112b5565b5b61166f89828a0161141b565b955050604087013567ffffffffffffffff8111156116905761168f6112b5565b5b61169c89828a0161141b565b94505060606116ad89828a016112db565b93505060806116be89828a016112db565b92505060a06116cf89828a016112db565b9150509295509295509295565b6000819050919050565b60006117016116fc6116f784611449565b6116dc565b611449565b9050919050565b6000611713826116e6565b9050919050565b600061172582611708565b9050919050565b6117358161171a565b82525050565b6000602082019050611750600083018461172c565b92915050565b600061176182611708565b9050919050565b61177181611756565b82525050565b600060208201905061178c6000830184611768565b92915050565b6000602082840312156117a8576117a76112b0565b5b60006117b6848285016112db565b91505092915050565b600081519050919050565b600082825260208201905092915050565b60005b838110156117f95780820151818401526020810190506117de565b60008484015250505050565b6000611810826117bf565b61181a81856117ca565b935061182a8185602086016117db565b611833816112f5565b840191505092915050565b611847816112ba565b82525050565b60008115159050919050565b6118628161184d565b82525050565b600060a08201905081810360008301526118828188611805565b9050611891602083018761183e565b61189e604083018661183e565b6118ab606083018561183e565b6118b86080830184611859565b9695505050505050565b60006020820190506118d76000830184611859565b92915050565b600080604083850312156118f4576118f36112b0565b5b6000611902858286016112db565b925050602061191385828601611492565b9150509250929050565b600061192882611708565b9050919050565b6119388161191d565b82525050565b6000602082019050611953600083018461192f565b92915050565b7f4578616d206973207365616c6564000000000000000000000000000000000000600082015250565b600061198f600e836117ca565b915061199a82611959565b602082019050919050565b600060208201905081810360008301526119be81611982565b9050919050565b7f496e76616c6964206578616d2049440000000000000000000000000000000000600082015250565b60006119fb600f836117ca565b9150611a06826119c5565b602082019050919050565b60006020820190508181036000830152611a2a816119ee565b9050919050565b7f4e487b7100000000000000000000000000000000000000000000000000000000600052603260045260246000fd5b7f4e487b7100000000000000000000000000000000000000000000000000000000600052601160045260246000fd5b6000611a9a826112ba565b9150611aa5836112ba565b9250828201905080821115611abd57611abc611a60565b5b92915050565b6000602082019050611ad8600083018461183e565b92915050565b600081519050611aed816112c4565b92915050565b600060208284031215611b0957611b086112b0565b5b6000611b1784828501611ade565b91505092915050565b6000611b2b826112ba565b91507fffffffffffffffffffffffffffffffffffffffffffffffffffffffffffffffff8203611b5d57611b5c611a60565b5b600182019050919050565b6000611b73826112ba565b9150611b7e836112ba565b9250828202611b8c816112ba565b91508282048414831517611ba357611ba2611a60565b5b5092915050565b7f4e487b7100000000000000000000000000000000000000000000000000000000600052601260045260246000fd5b6000611be4826112ba565b9150611bef836112ba565b925082611bff57611bfe611baa565b5b828204905092915050565b611c1381611469565b82525050565b6000602082019050611c2e6000830184611c0a565b92915050565b7f496e73756666696369656e742062616c616e6365000000000000000000000000600082015250565b6000611c6a6014836117ca565b9150611c7582611c34565b602082019050919050565b60006020820190508181036000830152611c9981611c5d565b9050919050565b6000606082019050611cb56000830186611c0a565b611cc26020830185611c0a565b611ccf604083018461183e565b949350505050565b611ce08161184d565b8114611ceb57600080fd5b50565b600081519050611cfd81611cd7565b92915050565b600060208284031215611d1957611d186112b0565b5b6000611d2784828501611cee565b91505092915050565b600081519050919050565b600082825260208201905092915050565b6000819050602082019050919050565b611d65816112ba565b82525050565b6000611d778383611d5c565b60208301905092915050565b6000602082019050919050565b6000611d9b82611d30565b611da58185611d3b565b9350611db083611d4c565b8060005b83811015611de1578151611dc88882611d6b565b9750611dd383611d83565b925050600181019050611db4565b5085935050505092915050565b60006080820190508181036000830152611e088187611d90565b90508181036020830152611e1c8186611d90565b9050611e2b604083018561183e565b611e386060830184611859565b95945050505050565b7f4e487b7100000000000000000000000000000000000000000000000000000000600052602260045260246000fd5b60006002820490506001821680611e8857607f821691505b602082108103611e9b57611e9a611e41565b5b50919050565b60008190508160005260206000209050919050565b60006020601f8301049050919050565b600082821b905092915050565b600060088302611f037fffffffffffffffffffffffffffffffffffffffffffffffffffffffffffffffff82611ec6565b611f0d8683611ec6565b95508019841693508086168417925050509392505050565b6000611f40611f3b611f36846112ba565b6116dc565b6112ba565b9050919050565b6000819050919050565b611f5a83611f25565b611f6e611f6682611f47565b848454611ed3565b825550505050565b600090565b611f83611f76565b611f8e818484611f51565b505050565b5b81811015611fb257611fa7600082611f7b565b600181019050611f94565b5050565b601f821115611ff757611fc881611ea1565b611fd184611eb6565b81016020851015611fe0578190505b611ff4611fec85611eb6565b830182611f93565b50505b505050565b600082821c905092915050565b600061201a60001984600802611ffc565b1980831691505092915050565b60006120338383612009565b9150826002028217905092915050565b61204c826117bf565b67ffffffffffffffff81111561206557612064611306565b5b61206f8254611e70565b61207a828285611fb6565b600060209050601f8311600181146120ad576000841561209b578287015190505b6120a58582612027565b86555061210d565b601f1984166120bb86611ea1565b60005b828110156120e3578489015182556001820191506020850194506020810190506120be565b8683101561210057848901516120fc601f891682612009565b8355505b6001600288020188555050505b505050505050565b6000612120826112ba565b915061212b836112ba565b925082820390508181111561214357612142611a60565b5b92915050565b600060c08201905081810360008301526121638189611805565b905081810360208301526121778188611d90565b9050818103604083015261218b8187611d90565b905061219a606083018661183e565b6121a7608083018561183e565b6121b460a083018461183e565b979650505050505050565b7f4e6f7420616c6c20746573747320617265207375626d69747465640000000000600082015250565b60006121f5601b836117ca565b9150612200826121bf565b602082019050919050565b60006020820190508181036000830152612224816121e8565b9050919050565b7f4e6f7420616c6c207461736b7320617265207375626d69747465640000000000600082015250565b6000612261601b836117ca565b915061226c8261222b565b602082019050919050565b6000602082019050818103600083015261229081612254565b905091905056fea2646970667358221220bbe13358b5afffb7f635274f5252f09507e922c4e49ef89c25eb9ece0e19ceb364736f6c63430008130033",
  "immutableReferences": {},
  "source": "// SPDX-License-Identifier: MIT\npragma solidity ^0.8.9;\nimport \"./TaskNFT.sol\";\nimport \"./TestNFT.sol\";\nimport \"./VertCoin.sol\";\n\ncontract Exam {\n    struct ExamData {\n        string ipfsHash;\n        uint256[] testIds;\n        uint256[] taskIds;\n        uint256 passingGPA;\n        uint256 maxGPA;\n        uint256 cost;\n        bool isPassed;\n    }\n\n    ExamData[] public exams;\n    Task public taskContract;\n    Test public testContract;\n    VertCoin public vertCoinContract;\n    // Add a mapping to track sealed exams\n    mapping(uint256 => bool) public sealedExams;\n\n    event ExamCreated(\n        uint256 indexed examId,\n        string ipfsHash,\n        uint256[] testIds,\n        uint256[] taskIds,\n        uint256 passingGPA,\n        uint256 maxGPA,\n        uint256 cost\n    );\n    event ExamVerified(\n        uint256 indexed examId,\n        uint256[] testScores,\n        uint256[] taskScores,\n        uint256 gpa,\n        bool isPassed\n    );\n    event TaskCreated(\n        uint256 indexed taskId,\n        string ipfsHash,\n        address verifier,\n        uint256 weight\n    );\n    event TaskVerified(uint256 indexed taskId, address verifier);\n    event TestCreated(\n        uint256 indexed testId,\n        uint8 questionType,\n        string ipfsHash,\n        string answerHash,\n        uint256 weight\n    );\n    event TestVerified(\n        uint256 indexed testId,\n        uint256[] scores,\n        uint256 gpa,\n        bool isPassed\n    );\n\n    event TestAddedToExam(uint256 indexed examId, uint256 indexed testId);\n    event TaskAddedToExam(uint256 indexed examId, uint256 indexed taskId);\n    // Add a modifier to prevent changes to sealed exams\n    modifier onlyNotSealed(uint256 _examId) {\n        require(!sealedExams[_examId], \"Exam is sealed\");\n        _;\n    }\n\n    constructor(\n        address _taskContractAddress,\n        address _testContractAddress,\n        address _vertCoinContractAddress\n    ) {\n        taskContract = Task(_taskContractAddress);\n        testContract = Test(_testContractAddress);\n        vertCoinContract = VertCoin(_vertCoinContractAddress);\n    }\n\n    function createExam(\n        string memory _ipfsHash,\n        uint256[] memory _testIds,\n        uint256[] memory _taskIds,\n        uint256 _passingGPA,\n        uint256 _maxGPA,\n        uint256 _cost\n    ) public {\n        exams.push(\n            ExamData(\n                _ipfsHash,\n                _testIds,\n                _taskIds,\n                _passingGPA,\n                _maxGPA,\n                _cost,\n                false\n            )\n        );\n        emit ExamCreated(\n            exams.length - 1,\n            _ipfsHash,\n            _testIds,\n            _taskIds,\n            _passingGPA,\n            _maxGPA,\n            _cost\n        );\n    }\n\n    function verifyExam(\n        uint256 _examId,\n        uint256[] memory _testScores,\n        uint256[] memory _taskScores,\n        address _delegate\n    ) public onlyNotSealed(_examId) {\n        require(_examId < exams.length, \"Invalid exam ID\");\n        ExamData storage exam = exams[_examId];\n\n        // Verify the test scores and calculate GPA\n        uint256 totalScore = 0;\n        uint256 maxScore = 0;\n\n        for (uint256 i = 0; i < exam.testIds.length; i++) {\n            uint256 testId = exam.testIds[i];\n            uint256 testScore = _testScores[i];\n\n            totalScore += testScore;\n            maxScore += testContract.getMaxScore(testId);\n        }\n\n        // Verify the task scores\n        for (uint256 i = 0; i < exam.taskIds.length; i++) {\n            uint256 taskId = exam.taskIds[i];\n            uint256 taskScore = _taskScores[i];\n\n            totalScore += taskScore;\n            maxScore += taskContract.getMaxScore(taskId);\n        }\n\n        // Calculate the exam GPA\n        uint256 gpa = (maxScore == 0)\n            ? 0\n            : ((totalScore * exam.maxGPA) / maxScore);\n\n        // Check if the exam is passed or not\n        if (gpa >= exam.passingGPA) {\n            exam.isPassed = true;\n            address testTaker = msg.sender;\n            uint256 cost = exam.cost;\n            require(\n                vertCoinContract.balanceOf(testTaker) >= cost,\n                \"Insufficient balance\"\n            );\n            vertCoinContract.transferFrom(testTaker, _delegate, cost);\n            emit ExamVerified(_examId, _testScores, _taskScores, gpa, true);\n        } else {\n            emit ExamVerified(_examId, _testScores, _taskScores, gpa, false);\n        }\n    }\n\n    // Add a new function to seal an exam\n    function sealExam(uint256 _examId) public onlyNotSealed(_examId) {\n        require(_examId < exams.length, \"Invalid exam ID\");\n        ExamData storage exam = exams[_examId];\n\n        // Check if all tests and tasks have been submitted\n        for (uint256 i = 0; i < exam.testIds.length; i++) {\n            require(\n                testContract.isSubmitted(exam.testIds[i]),\n                \"Not all tests are submitted\"\n            );\n        }\n\n        for (uint256 i = 0; i < exam.taskIds.length; i++) {\n            require(\n                taskContract.isSubmitted(exam.taskIds[i]),\n                \"Not all tasks are submitted\"\n            );\n        }\n\n        // Seal the exam\n        sealedExams[_examId] = true;\n    }\n\n    function addTestToExam(\n        uint256 _examId,\n        address _testAddress\n    ) public onlyNotSealed(_examId) {\n        require(_examId < exams.length, \"Invalid exam ID\");\n        Test test = Test(_testAddress);\n        exams[_examId].testIds.push(testContract.getTestId(test));\n        emit TestAddedToExam(_examId, testContract.getTestId(test));\n    }\n\n    function addTaskToExam(\n        uint256 _examId,\n        address _taskAddress\n    ) public onlyNotSealed(_examId) {\n        require(_examId < exams.length, \"Invalid exam ID\");\n        Task task = Task(_taskAddress);\n        exams[_examId].taskIds.push(taskContract.getTaskId(task));\n        emit TaskAddedToExam(_examId, taskContract.getTaskId(task));\n    }\n}\n",
  "sourcePath": "/home/main/github/vert.io/truffle/contracts/ExamNFT.sol",
  "compiler": {
    "name": "solc",
    "version": "0.8.19+commit.7dd6d404.Emscripten.clang"
  },
  "schemaVersion": "3.4.13",
  "updatedAt": "2023-03-21T08:02:02.349Z",
  "networkType": "ethereum",
  "devdoc": {
    "kind": "dev",
    "methods": {},
    "version": 1
  },
  "userdoc": {
    "kind": "user",
    "methods": {},
    "version": 1
  }
}