{
  "contractName": "ServiceNFT",
  "abi": [
    {
      "inputs": [
        {
          "internalType": "address",
          "name": "_vtcAddress",
          "type": "address"
        }
      ],
      "stateMutability": "nonpayable",
      "type": "constructor"
    },
    {
      "anonymous": false,
      "inputs": [
        {
          "indexed": true,
          "internalType": "address",
          "name": "owner",
          "type": "address"
        },
        {
          "indexed": true,
          "internalType": "address",
          "name": "approved",
          "type": "address"
        },
        {
          "indexed": true,
          "internalType": "uint256",
          "name": "tokenId",
          "type": "uint256"
        }
      ],
      "name": "Approval",
      "type": "event"
    },
    {
      "anonymous": false,
      "inputs": [
        {
          "indexed": true,
          "internalType": "address",
          "name": "owner",
          "type": "address"
        },
        {
          "indexed": true,
          "internalType": "address",
          "name": "operator",
          "type": "address"
        },
        {
          "indexed": false,
          "internalType": "bool",
          "name": "approved",
          "type": "bool"
        }
      ],
      "name": "ApprovalForAll",
      "type": "event"
    },
    {
      "anonymous": false,
      "inputs": [
        {
          "indexed": true,
          "internalType": "address",
          "name": "from",
          "type": "address"
        },
        {
          "indexed": true,
          "internalType": "address",
          "name": "to",
          "type": "address"
        },
        {
          "indexed": true,
          "internalType": "uint256",
          "name": "tokenId",
          "type": "uint256"
        }
      ],
      "name": "Transfer",
      "type": "event"
    },
    {
      "inputs": [
        {
          "internalType": "address",
          "name": "to",
          "type": "address"
        },
        {
          "internalType": "uint256",
          "name": "tokenId",
          "type": "uint256"
        }
      ],
      "name": "approve",
      "outputs": [],
      "stateMutability": "nonpayable",
      "type": "function"
    },
    {
      "inputs": [
        {
          "internalType": "address",
          "name": "owner",
          "type": "address"
        }
      ],
      "name": "balanceOf",
      "outputs": [
        {
          "internalType": "uint256",
          "name": "",
          "type": "uint256"
        }
      ],
      "stateMutability": "view",
      "type": "function",
      "constant": true
    },
    {
      "inputs": [
        {
          "internalType": "uint256",
          "name": "tokenId",
          "type": "uint256"
        }
      ],
      "name": "getApproved",
      "outputs": [
        {
          "internalType": "address",
          "name": "",
          "type": "address"
        }
      ],
      "stateMutability": "view",
      "type": "function",
      "constant": true
    },
    {
      "inputs": [
        {
          "internalType": "address",
          "name": "owner",
          "type": "address"
        },
        {
          "internalType": "address",
          "name": "operator",
          "type": "address"
        }
      ],
      "name": "isApprovedForAll",
      "outputs": [
        {
          "internalType": "bool",
          "name": "",
          "type": "bool"
        }
      ],
      "stateMutability": "view",
      "type": "function",
      "constant": true
    },
    {
      "inputs": [],
      "name": "name",
      "outputs": [
        {
          "internalType": "string",
          "name": "",
          "type": "string"
        }
      ],
      "stateMutability": "view",
      "type": "function",
      "constant": true
    },
    {
      "inputs": [
        {
          "internalType": "uint256",
          "name": "tokenId",
          "type": "uint256"
        }
      ],
      "name": "ownerOf",
      "outputs": [
        {
          "internalType": "address",
          "name": "",
          "type": "address"
        }
      ],
      "stateMutability": "view",
      "type": "function",
      "constant": true
    },
    {
      "inputs": [
        {
          "internalType": "address",
          "name": "",
          "type": "address"
        }
      ],
      "name": "ownerServiceCount",
      "outputs": [
        {
          "internalType": "uint256",
          "name": "",
          "type": "uint256"
        }
      ],
      "stateMutability": "view",
      "type": "function",
      "constant": true
    },
    {
      "inputs": [
        {
          "internalType": "address",
          "name": "from",
          "type": "address"
        },
        {
          "internalType": "address",
          "name": "to",
          "type": "address"
        },
        {
          "internalType": "uint256",
          "name": "tokenId",
          "type": "uint256"
        }
      ],
      "name": "safeTransferFrom",
      "outputs": [],
      "stateMutability": "nonpayable",
      "type": "function"
    },
    {
      "inputs": [
        {
          "internalType": "address",
          "name": "from",
          "type": "address"
        },
        {
          "internalType": "address",
          "name": "to",
          "type": "address"
        },
        {
          "internalType": "uint256",
          "name": "tokenId",
          "type": "uint256"
        },
        {
          "internalType": "bytes",
          "name": "data",
          "type": "bytes"
        }
      ],
      "name": "safeTransferFrom",
      "outputs": [],
      "stateMutability": "nonpayable",
      "type": "function"
    },
    {
      "inputs": [
        {
          "internalType": "uint256",
          "name": "",
          "type": "uint256"
        }
      ],
      "name": "serviceToOwner",
      "outputs": [
        {
          "internalType": "address",
          "name": "",
          "type": "address"
        }
      ],
      "stateMutability": "view",
      "type": "function",
      "constant": true
    },
    {
      "inputs": [
        {
          "internalType": "uint256",
          "name": "",
          "type": "uint256"
        }
      ],
      "name": "services",
      "outputs": [
        {
          "internalType": "string",
          "name": "name",
          "type": "string"
        },
        {
          "internalType": "uint256",
          "name": "price",
          "type": "uint256"
        },
        {
          "internalType": "string",
          "name": "description",
          "type": "string"
        },
        {
          "internalType": "string",
          "name": "metadata",
          "type": "string"
        }
      ],
      "stateMutability": "view",
      "type": "function",
      "constant": true
    },
    {
      "inputs": [
        {
          "internalType": "address",
          "name": "operator",
          "type": "address"
        },
        {
          "internalType": "bool",
          "name": "approved",
          "type": "bool"
        }
      ],
      "name": "setApprovalForAll",
      "outputs": [],
      "stateMutability": "nonpayable",
      "type": "function"
    },
    {
      "inputs": [
        {
          "internalType": "bytes4",
          "name": "interfaceId",
          "type": "bytes4"
        }
      ],
      "name": "supportsInterface",
      "outputs": [
        {
          "internalType": "bool",
          "name": "",
          "type": "bool"
        }
      ],
      "stateMutability": "view",
      "type": "function",
      "constant": true
    },
    {
      "inputs": [],
      "name": "symbol",
      "outputs": [
        {
          "internalType": "string",
          "name": "",
          "type": "string"
        }
      ],
      "stateMutability": "view",
      "type": "function",
      "constant": true
    },
    {
      "inputs": [
        {
          "internalType": "uint256",
          "name": "tokenId",
          "type": "uint256"
        }
      ],
      "name": "tokenURI",
      "outputs": [
        {
          "internalType": "string",
          "name": "",
          "type": "string"
        }
      ],
      "stateMutability": "view",
      "type": "function",
      "constant": true
    },
    {
      "inputs": [
        {
          "internalType": "address",
          "name": "from",
          "type": "address"
        },
        {
          "internalType": "address",
          "name": "to",
          "type": "address"
        },
        {
          "internalType": "uint256",
          "name": "tokenId",
          "type": "uint256"
        }
      ],
      "name": "transferFrom",
      "outputs": [],
      "stateMutability": "nonpayable",
      "type": "function"
    },
    {
      "inputs": [],
      "name": "vtc",
      "outputs": [
        {
          "internalType": "contract VertCoin",
          "name": "",
          "type": "address"
        }
      ],
      "stateMutability": "view",
      "type": "function",
      "constant": true
    },
    {
      "inputs": [
        {
          "internalType": "string",
          "name": "_name",
          "type": "string"
        },
        {
          "internalType": "uint256",
          "name": "_price",
          "type": "uint256"
        },
        {
          "internalType": "string",
          "name": "_description",
          "type": "string"
        },
        {
          "internalType": "string",
          "name": "_metadata",
          "type": "string"
        }
      ],
      "name": "createService",
      "outputs": [],
      "stateMutability": "nonpayable",
      "type": "function"
    },
    {
      "inputs": [
        {
          "internalType": "uint256",
          "name": "_serviceId",
          "type": "uint256"
        }
      ],
      "name": "buyService",
      "outputs": [],
      "stateMutability": "nonpayable",
      "type": "function"
    },
    {
      "inputs": [
        {
          "internalType": "uint256",
          "name": "_serviceId",
          "type": "uint256"
        },
        {
          "internalType": "uint256",
          "name": "_price",
          "type": "uint256"
        }
      ],
      "name": "sellService",
      "outputs": [],
      "stateMutability": "nonpayable",
      "type": "function"
    },
    {
      "inputs": [
        {
          "internalType": "uint256",
          "name": "_serviceId",
          "type": "uint256"
        },
        {
          "internalType": "uint256",
          "name": "_bid",
          "type": "uint256"
        }
      ],
      "name": "bidService",
      "outputs": [],
      "stateMutability": "nonpayable",
      "type": "function"
    },
    {
      "inputs": [
        {
          "internalType": "uint256",
          "name": "_serviceId",
          "type": "uint256"
        },
        {
          "internalType": "uint256",
          "name": "_bid",
          "type": "uint256"
        }
      ],
      "name": "acceptBid",
      "outputs": [],
      "stateMutability": "nonpayable",
      "type": "function"
    },
    {
      "inputs": [
        {
          "internalType": "uint256",
          "name": "_serviceId",
          "type": "uint256"
        }
      ],
      "name": "cancelService",
      "outputs": [],
      "stateMutability": "nonpayable",
      "type": "function"
    },
    {
      "inputs": [
        {
          "internalType": "uint256",
          "name": "_serviceId",
          "type": "uint256"
        }
      ],
      "name": "getServiceMetadata",
      "outputs": [
        {
          "internalType": "string",
          "name": "",
          "type": "string"
        }
      ],
      "stateMutability": "view",
      "type": "function",
      "constant": true
    }
  ],
  "bytecode": "0x60806040523480156200001157600080fd5b50604051620045073803806200450783398181016040528101906200003791906200017b565b6040518060400160405280600a81526020017f536572766963654e4654000000000000000000000000000000000000000000008152506040518060400160405280600581526020017f53564e46540000000000000000000000000000000000000000000000000000008152508160009081620000b4919062000427565b508060019081620000c6919062000427565b50505080600960006101000a81548173ffffffffffffffffffffffffffffffffffffffff021916908373ffffffffffffffffffffffffffffffffffffffff160217905550506200050e565b600080fd5b600073ffffffffffffffffffffffffffffffffffffffff82169050919050565b6000620001438262000116565b9050919050565b620001558162000136565b81146200016157600080fd5b50565b60008151905062000175816200014a565b92915050565b60006020828403121562000194576200019362000111565b5b6000620001a48482850162000164565b91505092915050565b600081519050919050565b7f4e487b7100000000000000000000000000000000000000000000000000000000600052604160045260246000fd5b7f4e487b7100000000000000000000000000000000000000000000000000000000600052602260045260246000fd5b600060028204905060018216806200022f57607f821691505b602082108103620002455762000244620001e7565b5b50919050565b60008190508160005260206000209050919050565b60006020601f8301049050919050565b600082821b905092915050565b600060088302620002af7fffffffffffffffffffffffffffffffffffffffffffffffffffffffffffffffff8262000270565b620002bb868362000270565b95508019841693508086168417925050509392505050565b6000819050919050565b6000819050919050565b60006200030862000302620002fc84620002d3565b620002dd565b620002d3565b9050919050565b6000819050919050565b6200032483620002e7565b6200033c62000333826200030f565b8484546200027d565b825550505050565b600090565b6200035362000344565b6200036081848462000319565b505050565b5b8181101562000388576200037c60008262000349565b60018101905062000366565b5050565b601f821115620003d757620003a1816200024b565b620003ac8462000260565b81016020851015620003bc578190505b620003d4620003cb8562000260565b83018262000365565b50505b505050565b600082821c905092915050565b6000620003fc60001984600802620003dc565b1980831691505092915050565b6000620004178383620003e9565b9150826002028217905092915050565b6200043282620001ad565b67ffffffffffffffff8111156200044e576200044d620001b8565b5b6200045a825462000216565b620004678282856200038c565b600060209050601f8311600181146200049f57600084156200048a578287015190505b62000496858262000409565b86555062000506565b601f198416620004af866200024b565b60005b82811015620004d957848901518255600182019150602085019450602081019050620004b2565b86831015620004f95784890151620004f5601f891682620003e9565b8355505b6001600288020188555050505b505050505050565b613fe9806200051e6000396000f3fe608060405234801561001057600080fd5b50600436106101585760003560e01c806395d89b41116100c3578063c594e5ec1161007c578063c594e5ec146103e8578063c87b56dd14610404578063e59ce36914610434578063e985e9c514610450578063e9f8273c14610480578063fa355e881461049e57610158565b806395d89b4114610313578063a22cb46514610331578063aa8e01bd1461034d578063b88d4fde1461037d578063be0961a214610399578063c22c4f43146103b557610158565b806323b872dd1161011557806323b872dd1461022f57806342842e0e1461024b5780635e9258bd146102675780636352211e1461029757806370a08231146102c7578063912172fb146102f757610158565b806301ffc9a71461015d57806302e9d5e41461018d57806306fdde03146101a9578063081812fc146101c7578063095ea7b3146101f7578063148031a114610213575b600080fd5b610177600480360381019061017291906129f2565b6104ce565b6040516101849190612a3a565b60405180910390f35b6101a760048036038101906101a29190612a8b565b6105b0565b005b6101b161090a565b6040516101be9190612b5b565b60405180910390f35b6101e160048036038101906101dc9190612b7d565b61099c565b6040516101ee9190612beb565b60405180910390f35b610211600480360381019061020c9190612c32565b6109e2565b005b61022d60048036038101906102289190612b7d565b610af9565b005b61024960048036038101906102449190612c72565b610ce2565b005b61026560048036038101906102609190612c72565b610d42565b005b610281600480360381019061027c9190612b7d565b610d62565b60405161028e9190612b5b565b60405180910390f35b6102b160048036038101906102ac9190612b7d565b610e19565b6040516102be9190612beb565b60405180910390f35b6102e160048036038101906102dc9190612cc5565b610e9f565b6040516102ee9190612d01565b60405180910390f35b610311600480360381019061030c9190612e51565b610f56565b005b61031b6110f3565b6040516103289190612b5b565b60405180910390f35b61034b60048036038101906103469190612f38565b611185565b005b61036760048036038101906103629190612b7d565b61119b565b6040516103749190612beb565b60405180910390f35b61039760048036038101906103929190613019565b6111ce565b005b6103b360048036038101906103ae9190612a8b565b611230565b005b6103cf60048036038101906103ca9190612b7d565b611444565b6040516103df949392919061309c565b60405180910390f35b61040260048036038101906103fd9190612b7d565b61161c565b005b61041e60048036038101906104199190612b7d565b6119fc565b60405161042b9190612b5b565b60405180910390f35b61044e60048036038101906104499190612a8b565b611a64565b005b61046a600480360381019061046591906130f6565b611b33565b6040516104779190612a3a565b60405180910390f35b610488611bc7565b6040516104959190613195565b60405180910390f35b6104b860048036038101906104b39190612cc5565b611bed565b6040516104c59190612d01565b60405180910390f35b60007f80ac58cd000000000000000000000000000000000000000000000000000000007bffffffffffffffffffffffffffffffffffffffffffffffffffffffff1916827bffffffffffffffffffffffffffffffffffffffffffffffffffffffff1916148061059957507f5b5e139f000000000000000000000000000000000000000000000000000000007bffffffffffffffffffffffffffffffffffffffffffffffffffffffff1916827bffffffffffffffffffffffffffffffffffffffffffffffffffffffff1916145b806105a957506105a882611c05565b5b9050919050565b3373ffffffffffffffffffffffffffffffffffffffff166007600084815260200190815260200160002060009054906101000a900473ffffffffffffffffffffffffffffffffffffffff1673ffffffffffffffffffffffffffffffffffffffff1614610651576040517f08c379a000000000000000000000000000000000000000000000000000000000815260040161064890613222565b60405180910390fd5b60006007600084815260200190815260200160002060009054906101000a900473ffffffffffffffffffffffffffffffffffffffff169050600960009054906101000a900473ffffffffffffffffffffffffffffffffffffffff1673ffffffffffffffffffffffffffffffffffffffff166323b872dd8233856040518463ffffffff1660e01b81526004016106e893929190613242565b6020604051808303816000875af1158015610707573d6000803e3d6000fd5b505050506040513d601f19601f8201168201806040525081019061072b919061328e565b50336007600085815260200190815260200160002060006101000a81548173ffffffffffffffffffffffffffffffffffffffff021916908373ffffffffffffffffffffffffffffffffffffffff1602179055506107d16001600860008473ffffffffffffffffffffffffffffffffffffffff1673ffffffffffffffffffffffffffffffffffffffff16815260200190815260200160002054611c6f90919063ffffffff16565b600860008373ffffffffffffffffffffffffffffffffffffffff1673ffffffffffffffffffffffffffffffffffffffff168152602001908152602001600020819055506108676001600860003373ffffffffffffffffffffffffffffffffffffffff1673ffffffffffffffffffffffffffffffffffffffff16815260200190815260200160002054611c8590919063ffffffff16565b600860003373ffffffffffffffffffffffffffffffffffffffff1673ffffffffffffffffffffffffffffffffffffffff16815260200190815260200160002081905550823373ffffffffffffffffffffffffffffffffffffffff168273ffffffffffffffffffffffffffffffffffffffff167fddf252ad1be2c89b69c2b068fc378daa952ba7f163c4a11628f55a4df523b3ef60405160405180910390a4505050565b606060008054610919906132ea565b80601f0160208091040260200160405190810160405280929190818152602001828054610945906132ea565b80156109925780601f1061096757610100808354040283529160200191610992565b820191906000526020600020905b81548152906001019060200180831161097557829003601f168201915b5050505050905090565b60006109a782611c9b565b6004600083815260200190815260200160002060009054906101000a900473ffffffffffffffffffffffffffffffffffffffff169050919050565b60006109ed82610e19565b90508073ffffffffffffffffffffffffffffffffffffffff168373ffffffffffffffffffffffffffffffffffffffff1603610a5d576040517f08c379a0000000000000000000000000000000000000000000000000000000008152600401610a549061338d565b60405180910390fd5b8073ffffffffffffffffffffffffffffffffffffffff16610a7c611ce6565b73ffffffffffffffffffffffffffffffffffffffff161480610aab5750610aaa81610aa5611ce6565b611b33565b5b610aea576040517f08c379a0000000000000000000000000000000000000000000000000000000008152600401610ae19061341f565b60405180910390fd5b610af48383611cee565b505050565b3373ffffffffffffffffffffffffffffffffffffffff166007600083815260200190815260200160002060009054906101000a900473ffffffffffffffffffffffffffffffffffffffff1673ffffffffffffffffffffffffffffffffffffffff1614610b9a576040517f08c379a0000000000000000000000000000000000000000000000000000000008152600401610b9190613222565b60405180910390fd5b60006007600083815260200190815260200160002060006101000a81548173ffffffffffffffffffffffffffffffffffffffff021916908373ffffffffffffffffffffffffffffffffffffffff160217905550610c406001600860003373ffffffffffffffffffffffffffffffffffffffff1673ffffffffffffffffffffffffffffffffffffffff16815260200190815260200160002054611c6f90919063ffffffff16565b600860003373ffffffffffffffffffffffffffffffffffffffff1673ffffffffffffffffffffffffffffffffffffffff1681526020019081526020016000208190555080600073ffffffffffffffffffffffffffffffffffffffff163373ffffffffffffffffffffffffffffffffffffffff167fddf252ad1be2c89b69c2b068fc378daa952ba7f163c4a11628f55a4df523b3ef60405160405180910390a450565b610cf3610ced611ce6565b82611da7565b610d32576040517f08c379a0000000000000000000000000000000000000000000000000000000008152600401610d29906134b1565b60405180910390fd5b610d3d838383611e3c565b505050565b610d5d838383604051806020016040528060008152506111ce565b505050565b606060068281548110610d7857610d776134d1565b5b90600052602060002090600402016003018054610d94906132ea565b80601f0160208091040260200160405190810160405280929190818152602001828054610dc0906132ea565b8015610e0d5780601f10610de257610100808354040283529160200191610e0d565b820191906000526020600020905b815481529060010190602001808311610df057829003601f168201915b50505050509050919050565b600080610e2583612135565b9050600073ffffffffffffffffffffffffffffffffffffffff168173ffffffffffffffffffffffffffffffffffffffff1603610e96576040517f08c379a0000000000000000000000000000000000000000000000000000000008152600401610e8d9061354c565b60405180910390fd5b80915050919050565b60008073ffffffffffffffffffffffffffffffffffffffff168273ffffffffffffffffffffffffffffffffffffffff1603610f0f576040517f08c379a0000000000000000000000000000000000000000000000000000000008152600401610f06906135de565b60405180910390fd5b600360008373ffffffffffffffffffffffffffffffffffffffff1673ffffffffffffffffffffffffffffffffffffffff168152602001908152602001600020549050919050565b60006006805490509050600660405180608001604052808781526020018681526020018581526020018481525090806001815401808255809150506001900390600052602060002090600402016000909190919091506000820151816000019081610fc191906137a0565b50602082015181600101556040820151816002019081610fe191906137a0565b506060820151816003019081610ff791906137a0565b5050506110043382612172565b336007600083815260200190815260200160002060006101000a81548173ffffffffffffffffffffffffffffffffffffffff021916908373ffffffffffffffffffffffffffffffffffffffff1602179055506110a96001600860003373ffffffffffffffffffffffffffffffffffffffff1673ffffffffffffffffffffffffffffffffffffffff16815260200190815260200160002054611c8590919063ffffffff16565b600860003373ffffffffffffffffffffffffffffffffffffffff1673ffffffffffffffffffffffffffffffffffffffff168152602001908152602001600020819055505050505050565b606060018054611102906132ea565b80601f016020809104026020016040519081016040528092919081815260200182805461112e906132ea565b801561117b5780601f106111505761010080835404028352916020019161117b565b820191906000526020600020905b81548152906001019060200180831161115e57829003601f168201915b5050505050905090565b611197611190611ce6565b838361238f565b5050565b60076020528060005260406000206000915054906101000a900473ffffffffffffffffffffffffffffffffffffffff1681565b6111df6111d9611ce6565b83611da7565b61121e576040517f08c379a0000000000000000000000000000000000000000000000000000000008152600401611215906134b1565b60405180910390fd5b61122a848484846124fb565b50505050565b3373ffffffffffffffffffffffffffffffffffffffff166007600084815260200190815260200160002060009054906101000a900473ffffffffffffffffffffffffffffffffffffffff1673ffffffffffffffffffffffffffffffffffffffff16036112d1576040517f08c379a00000000000000000000000000000000000000000000000000000000081526004016112c8906138e4565b60405180910390fd5b600682815481106112e5576112e46134d1565b5b9060005260206000209060040201600101548111611338576040517f08c379a000000000000000000000000000000000000000000000000000000000815260040161132f90613976565b60405180910390fd5b80600960009054906101000a900473ffffffffffffffffffffffffffffffffffffffff1673ffffffffffffffffffffffffffffffffffffffff166370a08231336040518263ffffffff1660e01b81526004016113949190612beb565b602060405180830381865afa1580156113b1573d6000803e3d6000fd5b505050506040513d601f19601f820116820180604052508101906113d591906139ab565b1015611416576040517f08c379a000000000000000000000000000000000000000000000000000000000815260040161140d90613a24565b60405180910390fd5b806006838154811061142b5761142a6134d1565b5b9060005260206000209060040201600101819055505050565b6006818154811061145457600080fd5b9060005260206000209060040201600091509050806000018054611477906132ea565b80601f01602080910402602001604051908101604052809291908181526020018280546114a3906132ea565b80156114f05780601f106114c5576101008083540402835291602001916114f0565b820191906000526020600020905b8154815290600101906020018083116114d357829003601f168201915b50505050509080600101549080600201805461150b906132ea565b80601f0160208091040260200160405190810160405280929190818152602001828054611537906132ea565b80156115845780601f1061155957610100808354040283529160200191611584565b820191906000526020600020905b81548152906001019060200180831161156757829003601f168201915b505050505090806003018054611599906132ea565b80601f01602080910402602001604051908101604052809291908181526020018280546115c5906132ea565b80156116125780601f106115e757610100808354040283529160200191611612565b820191906000526020600020905b8154815290600101906020018083116115f557829003601f168201915b5050505050905084565b600681815481106116305761162f6134d1565b5b906000526020600020906004020160010154600960009054906101000a900473ffffffffffffffffffffffffffffffffffffffff1673ffffffffffffffffffffffffffffffffffffffff166370a08231336040518263ffffffff1660e01b815260040161169d9190612beb565b602060405180830381865afa1580156116ba573d6000803e3d6000fd5b505050506040513d601f19601f820116820180604052508101906116de91906139ab565b101561171f576040517f08c379a000000000000000000000000000000000000000000000000000000000815260040161171690613a90565b60405180910390fd5b60006007600083815260200190815260200160002060009054906101000a900473ffffffffffffffffffffffffffffffffffffffff169050336007600084815260200190815260200160002060006101000a81548173ffffffffffffffffffffffffffffffffffffffff021916908373ffffffffffffffffffffffffffffffffffffffff1602179055506117fc6001600860008473ffffffffffffffffffffffffffffffffffffffff1673ffffffffffffffffffffffffffffffffffffffff16815260200190815260200160002054611c6f90919063ffffffff16565b600860008373ffffffffffffffffffffffffffffffffffffffff1673ffffffffffffffffffffffffffffffffffffffff168152602001908152602001600020819055506118926001600860003373ffffffffffffffffffffffffffffffffffffffff1673ffffffffffffffffffffffffffffffffffffffff16815260200190815260200160002054611c8590919063ffffffff16565b600860003373ffffffffffffffffffffffffffffffffffffffff1673ffffffffffffffffffffffffffffffffffffffff16815260200190815260200160002081905550600960009054906101000a900473ffffffffffffffffffffffffffffffffffffffff1673ffffffffffffffffffffffffffffffffffffffff166323b872dd338360068681548110611929576119286134d1565b5b9060005260206000209060040201600101546040518463ffffffff1660e01b815260040161195993929190613242565b6020604051808303816000875af1158015611978573d6000803e3d6000fd5b505050506040513d601f19601f8201168201806040525081019061199c919061328e565b50813373ffffffffffffffffffffffffffffffffffffffff168273ffffffffffffffffffffffffffffffffffffffff167fddf252ad1be2c89b69c2b068fc378daa952ba7f163c4a11628f55a4df523b3ef60405160405180910390a45050565b6060611a0782611c9b565b6000611a11612557565b90506000815111611a315760405180602001604052806000815250611a5c565b80611a3b8461256e565b604051602001611a4c929190613aec565b6040516020818303038152906040525b915050919050565b3373ffffffffffffffffffffffffffffffffffffffff166007600084815260200190815260200160002060009054906101000a900473ffffffffffffffffffffffffffffffffffffffff1673ffffffffffffffffffffffffffffffffffffffff1614611b05576040517f08c379a0000000000000000000000000000000000000000000000000000000008152600401611afc90613222565b60405180910390fd5b8060068381548110611b1a57611b196134d1565b5b9060005260206000209060040201600101819055505050565b6000600560008473ffffffffffffffffffffffffffffffffffffffff1673ffffffffffffffffffffffffffffffffffffffff16815260200190815260200160002060008373ffffffffffffffffffffffffffffffffffffffff1673ffffffffffffffffffffffffffffffffffffffff16815260200190815260200160002060009054906101000a900460ff16905092915050565b600960009054906101000a900473ffffffffffffffffffffffffffffffffffffffff1681565b60086020528060005260406000206000915090505481565b60007f01ffc9a7000000000000000000000000000000000000000000000000000000007bffffffffffffffffffffffffffffffffffffffffffffffffffffffff1916827bffffffffffffffffffffffffffffffffffffffffffffffffffffffff1916149050919050565b60008183611c7d9190613b3f565b905092915050565b60008183611c939190613b73565b905092915050565b611ca48161263c565b611ce3576040517f08c379a0000000000000000000000000000000000000000000000000000000008152600401611cda9061354c565b60405180910390fd5b50565b600033905090565b816004600083815260200190815260200160002060006101000a81548173ffffffffffffffffffffffffffffffffffffffff021916908373ffffffffffffffffffffffffffffffffffffffff160217905550808273ffffffffffffffffffffffffffffffffffffffff16611d6183610e19565b73ffffffffffffffffffffffffffffffffffffffff167f8c5be1e5ebec7d5bd14f71427d1e84f3dd0314c0f7b2291e5b200ac8c7c3b92560405160405180910390a45050565b600080611db383610e19565b90508073ffffffffffffffffffffffffffffffffffffffff168473ffffffffffffffffffffffffffffffffffffffff161480611df55750611df48185611b33565b5b80611e3357508373ffffffffffffffffffffffffffffffffffffffff16611e1b8461099c565b73ffffffffffffffffffffffffffffffffffffffff16145b91505092915050565b8273ffffffffffffffffffffffffffffffffffffffff16611e5c82610e19565b73ffffffffffffffffffffffffffffffffffffffff1614611eb2576040517f08c379a0000000000000000000000000000000000000000000000000000000008152600401611ea990613c19565b60405180910390fd5b600073ffffffffffffffffffffffffffffffffffffffff168273ffffffffffffffffffffffffffffffffffffffff1603611f21576040517f08c379a0000000000000000000000000000000000000000000000000000000008152600401611f1890613cab565b60405180910390fd5b611f2e838383600161267d565b8273ffffffffffffffffffffffffffffffffffffffff16611f4e82610e19565b73ffffffffffffffffffffffffffffffffffffffff1614611fa4576040517f08c379a0000000000000000000000000000000000000000000000000000000008152600401611f9b90613c19565b60405180910390fd5b6004600082815260200190815260200160002060006101000a81549073ffffffffffffffffffffffffffffffffffffffff02191690556001600360008573ffffffffffffffffffffffffffffffffffffffff1673ffffffffffffffffffffffffffffffffffffffff168152602001908152602001600020600082825403925050819055506001600360008473ffffffffffffffffffffffffffffffffffffffff1673ffffffffffffffffffffffffffffffffffffffff16815260200190815260200160002060008282540192505081905550816002600083815260200190815260200160002060006101000a81548173ffffffffffffffffffffffffffffffffffffffff021916908373ffffffffffffffffffffffffffffffffffffffff160217905550808273ffffffffffffffffffffffffffffffffffffffff168473ffffffffffffffffffffffffffffffffffffffff167fddf252ad1be2c89b69c2b068fc378daa952ba7f163c4a11628f55a4df523b3ef60405160405180910390a46121308383836001612683565b505050565b60006002600083815260200190815260200160002060009054906101000a900473ffffffffffffffffffffffffffffffffffffffff169050919050565b600073ffffffffffffffffffffffffffffffffffffffff168273ffffffffffffffffffffffffffffffffffffffff16036121e1576040517f08c379a00000000000000000000000000000000000000000000000000000000081526004016121d890613d17565b60405180910390fd5b6121ea8161263c565b1561222a576040517f08c379a000000000000000000000000000000000000000000000000000000000815260040161222190613d83565b60405180910390fd5b61223860008383600161267d565b6122418161263c565b15612281576040517f08c379a000000000000000000000000000000000000000000000000000000000815260040161227890613d83565b60405180910390fd5b6001600360008473ffffffffffffffffffffffffffffffffffffffff1673ffffffffffffffffffffffffffffffffffffffff16815260200190815260200160002060008282540192505081905550816002600083815260200190815260200160002060006101000a81548173ffffffffffffffffffffffffffffffffffffffff021916908373ffffffffffffffffffffffffffffffffffffffff160217905550808273ffffffffffffffffffffffffffffffffffffffff16600073ffffffffffffffffffffffffffffffffffffffff167fddf252ad1be2c89b69c2b068fc378daa952ba7f163c4a11628f55a4df523b3ef60405160405180910390a461238b600083836001612683565b5050565b8173ffffffffffffffffffffffffffffffffffffffff168373ffffffffffffffffffffffffffffffffffffffff16036123fd576040517f08c379a00000000000000000000000000000000000000000000000000000000081526004016123f490613def565b60405180910390fd5b80600560008573ffffffffffffffffffffffffffffffffffffffff1673ffffffffffffffffffffffffffffffffffffffff16815260200190815260200160002060008473ffffffffffffffffffffffffffffffffffffffff1673ffffffffffffffffffffffffffffffffffffffff16815260200190815260200160002060006101000a81548160ff0219169083151502179055508173ffffffffffffffffffffffffffffffffffffffff168373ffffffffffffffffffffffffffffffffffffffff167f17307eab39ab6107e8899845ad3d59bd9653f200f220920489ca2b5937696c31836040516124ee9190612a3a565b60405180910390a3505050565b612506848484611e3c565b61251284848484612689565b612551576040517f08c379a000000000000000000000000000000000000000000000000000000000815260040161254890613e81565b60405180910390fd5b50505050565b606060405180602001604052806000815250905090565b60606000600161257d84612810565b01905060008167ffffffffffffffff81111561259c5761259b612d26565b5b6040519080825280601f01601f1916602001820160405280156125ce5781602001600182028036833780820191505090505b509050600082602001820190505b600115612631578080600190039150507f3031323334353637383961626364656600000000000000000000000000000000600a86061a8153600a858161262557612624613ea1565b5b049450600085036125dc575b819350505050919050565b60008073ffffffffffffffffffffffffffffffffffffffff1661265e83612135565b73ffffffffffffffffffffffffffffffffffffffff1614159050919050565b50505050565b50505050565b60006126aa8473ffffffffffffffffffffffffffffffffffffffff16612963565b15612803578373ffffffffffffffffffffffffffffffffffffffff1663150b7a026126d3611ce6565b8786866040518563ffffffff1660e01b81526004016126f59493929190613f25565b6020604051808303816000875af192505050801561273157506040513d601f19601f8201168201806040525081019061272e9190613f86565b60015b6127b3573d8060008114612761576040519150601f19603f3d011682016040523d82523d6000602084013e612766565b606091505b5060008151036127ab576040517f08c379a00000000000000000000000000000000000000000000000000000000081526004016127a290613e81565b60405180910390fd5b805181602001fd5b63150b7a0260e01b7bffffffffffffffffffffffffffffffffffffffffffffffffffffffff1916817bffffffffffffffffffffffffffffffffffffffffffffffffffffffff191614915050612808565b600190505b949350505050565b600080600090507a184f03e93ff9f4daa797ed6e38ed64bf6a1f010000000000000000831061286e577a184f03e93ff9f4daa797ed6e38ed64bf6a1f010000000000000000838161286457612863613ea1565b5b0492506040810190505b6d04ee2d6d415b85acef810000000083106128ab576d04ee2d6d415b85acef810000000083816128a1576128a0613ea1565b5b0492506020810190505b662386f26fc1000083106128da57662386f26fc1000083816128d0576128cf613ea1565b5b0492506010810190505b6305f5e1008310612903576305f5e10083816128f9576128f8613ea1565b5b0492506008810190505b612710831061292857612710838161291e5761291d613ea1565b5b0492506004810190505b6064831061294b576064838161294157612940613ea1565b5b0492506002810190505b600a831061295a576001810190505b80915050919050565b6000808273ffffffffffffffffffffffffffffffffffffffff163b119050919050565b6000604051905090565b600080fd5b600080fd5b60007fffffffff0000000000000000000000000000000000000000000000000000000082169050919050565b6129cf8161299a565b81146129da57600080fd5b50565b6000813590506129ec816129c6565b92915050565b600060208284031215612a0857612a07612990565b5b6000612a16848285016129dd565b91505092915050565b60008115159050919050565b612a3481612a1f565b82525050565b6000602082019050612a4f6000830184612a2b565b92915050565b6000819050919050565b612a6881612a55565b8114612a7357600080fd5b50565b600081359050612a8581612a5f565b92915050565b60008060408385031215612aa257612aa1612990565b5b6000612ab085828601612a76565b9250506020612ac185828601612a76565b9150509250929050565b600081519050919050565b600082825260208201905092915050565b60005b83811015612b05578082015181840152602081019050612aea565b60008484015250505050565b6000601f19601f8301169050919050565b6000612b2d82612acb565b612b378185612ad6565b9350612b47818560208601612ae7565b612b5081612b11565b840191505092915050565b60006020820190508181036000830152612b758184612b22565b905092915050565b600060208284031215612b9357612b92612990565b5b6000612ba184828501612a76565b91505092915050565b600073ffffffffffffffffffffffffffffffffffffffff82169050919050565b6000612bd582612baa565b9050919050565b612be581612bca565b82525050565b6000602082019050612c006000830184612bdc565b92915050565b612c0f81612bca565b8114612c1a57600080fd5b50565b600081359050612c2c81612c06565b92915050565b60008060408385031215612c4957612c48612990565b5b6000612c5785828601612c1d565b9250506020612c6885828601612a76565b9150509250929050565b600080600060608486031215612c8b57612c8a612990565b5b6000612c9986828701612c1d565b9350506020612caa86828701612c1d565b9250506040612cbb86828701612a76565b9150509250925092565b600060208284031215612cdb57612cda612990565b5b6000612ce984828501612c1d565b91505092915050565b612cfb81612a55565b82525050565b6000602082019050612d166000830184612cf2565b92915050565b600080fd5b600080fd5b7f4e487b7100000000000000000000000000000000000000000000000000000000600052604160045260246000fd5b612d5e82612b11565b810181811067ffffffffffffffff82111715612d7d57612d7c612d26565b5b80604052505050565b6000612d90612986565b9050612d9c8282612d55565b919050565b600067ffffffffffffffff821115612dbc57612dbb612d26565b5b612dc582612b11565b9050602081019050919050565b82818337600083830152505050565b6000612df4612def84612da1565b612d86565b905082815260208101848484011115612e1057612e0f612d21565b5b612e1b848285612dd2565b509392505050565b600082601f830112612e3857612e37612d1c565b5b8135612e48848260208601612de1565b91505092915050565b60008060008060808587031215612e6b57612e6a612990565b5b600085013567ffffffffffffffff811115612e8957612e88612995565b5b612e9587828801612e23565b9450506020612ea687828801612a76565b935050604085013567ffffffffffffffff811115612ec757612ec6612995565b5b612ed387828801612e23565b925050606085013567ffffffffffffffff811115612ef457612ef3612995565b5b612f0087828801612e23565b91505092959194509250565b612f1581612a1f565b8114612f2057600080fd5b50565b600081359050612f3281612f0c565b92915050565b60008060408385031215612f4f57612f4e612990565b5b6000612f5d85828601612c1d565b9250506020612f6e85828601612f23565b9150509250929050565b600067ffffffffffffffff821115612f9357612f92612d26565b5b612f9c82612b11565b9050602081019050919050565b6000612fbc612fb784612f78565b612d86565b905082815260208101848484011115612fd857612fd7612d21565b5b612fe3848285612dd2565b509392505050565b600082601f83011261300057612fff612d1c565b5b8135613010848260208601612fa9565b91505092915050565b6000806000806080858703121561303357613032612990565b5b600061304187828801612c1d565b945050602061305287828801612c1d565b935050604061306387828801612a76565b925050606085013567ffffffffffffffff81111561308457613083612995565b5b61309087828801612feb565b91505092959194509250565b600060808201905081810360008301526130b68187612b22565b90506130c56020830186612cf2565b81810360408301526130d78185612b22565b905081810360608301526130eb8184612b22565b905095945050505050565b6000806040838503121561310d5761310c612990565b5b600061311b85828601612c1d565b925050602061312c85828601612c1d565b9150509250929050565b6000819050919050565b600061315b61315661315184612baa565b613136565b612baa565b9050919050565b600061316d82613140565b9050919050565b600061317f82613162565b9050919050565b61318f81613174565b82525050565b60006020820190506131aa6000830184613186565b92915050565b7f596f7520617265206e6f7420746865206f776e6572206f66207468697320736560008201527f7276696365000000000000000000000000000000000000000000000000000000602082015250565b600061320c602583612ad6565b9150613217826131b0565b604082019050919050565b6000602082019050818103600083015261323b816131ff565b9050919050565b60006060820190506132576000830186612bdc565b6132646020830185612bdc565b6132716040830184612cf2565b949350505050565b60008151905061328881612f0c565b92915050565b6000602082840312156132a4576132a3612990565b5b60006132b284828501613279565b91505092915050565b7f4e487b7100000000000000000000000000000000000000000000000000000000600052602260045260246000fd5b6000600282049050600182168061330257607f821691505b602082108103613315576133146132bb565b5b50919050565b7f4552433732313a20617070726f76616c20746f2063757272656e74206f776e6560008201527f7200000000000000000000000000000000000000000000000000000000000000602082015250565b6000613377602183612ad6565b91506133828261331b565b604082019050919050565b600060208201905081810360008301526133a68161336a565b9050919050565b7f4552433732313a20617070726f76652063616c6c6572206973206e6f7420746f60008201527f6b656e206f776e6572206f7220617070726f76656420666f7220616c6c000000602082015250565b6000613409603d83612ad6565b9150613414826133ad565b604082019050919050565b60006020820190508181036000830152613438816133fc565b9050919050565b7f4552433732313a2063616c6c6572206973206e6f7420746f6b656e206f776e6560008201527f72206f7220617070726f76656400000000000000000000000000000000000000602082015250565b600061349b602d83612ad6565b91506134a68261343f565b604082019050919050565b600060208201905081810360008301526134ca8161348e565b9050919050565b7f4e487b7100000000000000000000000000000000000000000000000000000000600052603260045260246000fd5b7f4552433732313a20696e76616c696420746f6b656e2049440000000000000000600082015250565b6000613536601883612ad6565b915061354182613500565b602082019050919050565b6000602082019050818103600083015261356581613529565b9050919050565b7f4552433732313a2061646472657373207a65726f206973206e6f74206120766160008201527f6c6964206f776e65720000000000000000000000000000000000000000000000602082015250565b60006135c8602983612ad6565b91506135d38261356c565b604082019050919050565b600060208201905081810360008301526135f7816135bb565b9050919050565b60008190508160005260206000209050919050565b60006020601f8301049050919050565b600082821b905092915050565b6000600883026136607fffffffffffffffffffffffffffffffffffffffffffffffffffffffffffffffff82613623565b61366a8683613623565b95508019841693508086168417925050509392505050565b600061369d61369861369384612a55565b613136565b612a55565b9050919050565b6000819050919050565b6136b783613682565b6136cb6136c3826136a4565b848454613630565b825550505050565b600090565b6136e06136d3565b6136eb8184846136ae565b505050565b5b8181101561370f576137046000826136d8565b6001810190506136f1565b5050565b601f82111561375457613725816135fe565b61372e84613613565b8101602085101561373d578190505b61375161374985613613565b8301826136f0565b50505b505050565b600082821c905092915050565b600061377760001984600802613759565b1980831691505092915050565b60006137908383613766565b9150826002028217905092915050565b6137a982612acb565b67ffffffffffffffff8111156137c2576137c1612d26565b5b6137cc82546132ea565b6137d7828285613713565b600060209050601f83116001811461380a57600084156137f8578287015190505b6138028582613784565b86555061386a565b601f198416613818866135fe565b60005b828110156138405784890151825560018201915060208501945060208101905061381b565b8683101561385d5784890151613859601f891682613766565b8355505b6001600288020188555050505b505050505050565b7f596f752063616e6e6f7420626964206f6e20796f7572206f776e20736572766960008201527f6365000000000000000000000000000000000000000000000000000000000000602082015250565b60006138ce602283612ad6565b91506138d982613872565b604082019050919050565b600060208201905081810360008301526138fd816138c1565b9050919050565b7f426964206973206e6f7420686967686572207468616e2074686520637572726560008201527f6e74207072696365000000000000000000000000000000000000000000000000602082015250565b6000613960602883612ad6565b915061396b82613904565b604082019050919050565b6000602082019050818103600083015261398f81613953565b9050919050565b6000815190506139a581612a5f565b92915050565b6000602082840312156139c1576139c0612990565b5b60006139cf84828501613996565b91505092915050565b7f496e73756666696369656e742066756e647320666f7220626964000000000000600082015250565b6000613a0e601a83612ad6565b9150613a19826139d8565b602082019050919050565b60006020820190508181036000830152613a3d81613a01565b9050919050565b7f496e73756666696369656e742066756e647320666f7220707572636861736500600082015250565b6000613a7a601f83612ad6565b9150613a8582613a44565b602082019050919050565b60006020820190508181036000830152613aa981613a6d565b9050919050565b600081905092915050565b6000613ac682612acb565b613ad08185613ab0565b9350613ae0818560208601612ae7565b80840191505092915050565b6000613af88285613abb565b9150613b048284613abb565b91508190509392505050565b7f4e487b7100000000000000000000000000000000000000000000000000000000600052601160045260246000fd5b6000613b4a82612a55565b9150613b5583612a55565b9250828203905081811115613b6d57613b6c613b10565b5b92915050565b6000613b7e82612a55565b9150613b8983612a55565b9250828201905080821115613ba157613ba0613b10565b5b92915050565b7f4552433732313a207472616e736665722066726f6d20696e636f72726563742060008201527f6f776e6572000000000000000000000000000000000000000000000000000000602082015250565b6000613c03602583612ad6565b9150613c0e82613ba7565b604082019050919050565b60006020820190508181036000830152613c3281613bf6565b9050919050565b7f4552433732313a207472616e7366657220746f20746865207a65726f2061646460008201527f7265737300000000000000000000000000000000000000000000000000000000602082015250565b6000613c95602483612ad6565b9150613ca082613c39565b604082019050919050565b60006020820190508181036000830152613cc481613c88565b9050919050565b7f4552433732313a206d696e7420746f20746865207a65726f2061646472657373600082015250565b6000613d01602083612ad6565b9150613d0c82613ccb565b602082019050919050565b60006020820190508181036000830152613d3081613cf4565b9050919050565b7f4552433732313a20746f6b656e20616c7265616479206d696e74656400000000600082015250565b6000613d6d601c83612ad6565b9150613d7882613d37565b602082019050919050565b60006020820190508181036000830152613d9c81613d60565b9050919050565b7f4552433732313a20617070726f766520746f2063616c6c657200000000000000600082015250565b6000613dd9601983612ad6565b9150613de482613da3565b602082019050919050565b60006020820190508181036000830152613e0881613dcc565b9050919050565b7f4552433732313a207472616e7366657220746f206e6f6e20455243373231526560008201527f63656976657220696d706c656d656e7465720000000000000000000000000000602082015250565b6000613e6b603283612ad6565b9150613e7682613e0f565b604082019050919050565b60006020820190508181036000830152613e9a81613e5e565b9050919050565b7f4e487b7100000000000000000000000000000000000000000000000000000000600052601260045260246000fd5b600081519050919050565b600082825260208201905092915050565b6000613ef782613ed0565b613f018185613edb565b9350613f11818560208601612ae7565b613f1a81612b11565b840191505092915050565b6000608082019050613f3a6000830187612bdc565b613f476020830186612bdc565b613f546040830185612cf2565b8181036060830152613f668184613eec565b905095945050505050565b600081519050613f80816129c6565b92915050565b600060208284031215613f9c57613f9b612990565b5b6000613faa84828501613f71565b9150509291505056fea2646970667358221220bcd08a87ce787dd488fed16be1a3abf5976cc03e02d48f7311a6ece64cbbccc164736f6c63430008130033",
  "immutableReferences": {},
  "source": "// SPDX-License-Identifier: MIT\npragma solidity ^0.8.0;\n\nimport '@openzeppelin/contracts/token/ERC721/ERC721.sol';\nimport '@openzeppelin/contracts/utils/math/SafeMath.sol';\nimport './VertCoin.sol';\n\ncontract ServiceNFT is ERC721 {\n    using SafeMath for uint256;\n\n    struct Service {\n        string name;\n        uint256 price;\n        string description;\n        string metadata;\n    }\n\n    Service[] public services;\n    mapping(uint256 => address) public serviceToOwner;\n    mapping(address => uint256) public ownerServiceCount;\n    VertCoin public vtc;\n\n    constructor(address _vtcAddress) ERC721('ServiceNFT', 'SVNFT') {\n        vtc = VertCoin(_vtcAddress);\n    }\n\n    function createService(string memory _name, uint256 _price, string memory _description, string memory _metadata) public {\n        uint256 id = services.length;\n        services.push(Service(_name, _price, _description, _metadata));\n        _mint(msg.sender, id);\n        serviceToOwner[id] = msg.sender;\n        ownerServiceCount[msg.sender] = ownerServiceCount[msg.sender].add(1);\n    }\n\n    function buyService(uint256 _serviceId) public {\n        require(vtc.balanceOf(msg.sender) >= services[_serviceId].price, \"Insufficient funds for purchase\");\n        address serviceOwner = serviceToOwner[_serviceId];\n        serviceToOwner[_serviceId] = msg.sender;\n        ownerServiceCount[serviceOwner] = ownerServiceCount[serviceOwner].sub(1);\n        ownerServiceCount[msg.sender] = ownerServiceCount[msg.sender].add(1);\n        vtc.transferFrom(msg.sender, serviceOwner, services[_serviceId].price);\n        emit Transfer(serviceOwner, msg.sender, _serviceId);\n    }\n\n    function sellService(uint256 _serviceId, uint256 _price) public {\n        require(serviceToOwner[_serviceId] == msg.sender, \"You are not the owner of this service\");\n        services[_serviceId].price = _price;\n    }\n\n    function bidService(uint256 _serviceId, uint256 _bid) public {\n        require(serviceToOwner[_serviceId] != msg.sender, \"You cannot bid on your own service\");\n        require(_bid > services[_serviceId].price, \"Bid is not higher than the current price\");\n        require(vtc.balanceOf(msg.sender) >= _bid, \"Insufficient funds for bid\");\n        services[_serviceId].price = _bid;\n    }\n\n    function acceptBid(uint256 _serviceId, uint256 _bid) public {\n        require(serviceToOwner[_serviceId] == msg.sender, \"You are not the owner of this service\");\n        address bidder = serviceToOwner[_serviceId];\n        vtc.transferFrom(bidder, msg.sender, _bid);\n        serviceToOwner[_serviceId] = msg.sender;\n        ownerServiceCount[bidder] = ownerServiceCount[bidder].sub(1);\n        ownerServiceCount[msg.sender] = ownerServiceCount[msg.sender].add(1);\n        emit Transfer(bidder, msg.sender, _serviceId);\n    }\n\n    function cancelService(uint256 _serviceId) public {\n        require(serviceToOwner[_serviceId] == msg.sender, \"You are not the owner of this service\");\n        serviceToOwner[_serviceId] = address(0);\n        ownerServiceCount[msg.sender] = ownerServiceCount[msg.sender].sub(1);\n        emit Transfer(msg.sender, address(0), _serviceId);\n}\n\n    function getServiceMetadata(uint256 _serviceId) public view returns (string memory) {\n        return services[_serviceId].metadata;\n    }\n}\n",
  "sourcePath": "/home/main/github/vert.io/truffle/contracts/ServiceNFT.sol",
  "compiler": {
    "name": "solc",
    "version": "0.8.19+commit.7dd6d404.Emscripten.clang"
  },
  "schemaVersion": "3.4.13",
  "updatedAt": "2023-03-21T08:02:04.380Z",
  "networkType": "ethereum",
  "devdoc": {
    "events": {
      "Approval(address,address,uint256)": {
        "details": "Emitted when `owner` enables `approved` to manage the `tokenId` token."
      },
      "ApprovalForAll(address,address,bool)": {
        "details": "Emitted when `owner` enables or disables (`approved`) `operator` to manage all of its assets."
      },
      "Transfer(address,address,uint256)": {
        "details": "Emitted when `tokenId` token is transferred from `from` to `to`."
      }
    },
    "kind": "dev",
    "methods": {
      "approve(address,uint256)": {
        "details": "See {IERC721-approve}."
      },
      "balanceOf(address)": {
        "details": "See {IERC721-balanceOf}."
      },
      "getApproved(uint256)": {
        "details": "See {IERC721-getApproved}."
      },
      "isApprovedForAll(address,address)": {
        "details": "See {IERC721-isApprovedForAll}."
      },
      "name()": {
        "details": "See {IERC721Metadata-name}."
      },
      "ownerOf(uint256)": {
        "details": "See {IERC721-ownerOf}."
      },
      "safeTransferFrom(address,address,uint256)": {
        "details": "See {IERC721-safeTransferFrom}."
      },
      "safeTransferFrom(address,address,uint256,bytes)": {
        "details": "See {IERC721-safeTransferFrom}."
      },
      "setApprovalForAll(address,bool)": {
        "details": "See {IERC721-setApprovalForAll}."
      },
      "supportsInterface(bytes4)": {
        "details": "See {IERC165-supportsInterface}."
      },
      "symbol()": {
        "details": "See {IERC721Metadata-symbol}."
      },
      "tokenURI(uint256)": {
        "details": "See {IERC721Metadata-tokenURI}."
      },
      "transferFrom(address,address,uint256)": {
        "details": "See {IERC721-transferFrom}."
      }
    },
    "version": 1
  },
  "userdoc": {
    "kind": "user",
    "methods": {},
    "version": 1
  }
}