{
  "contractName": "Test",
  "abi": [
    {
      "inputs": [],
      "stateMutability": "nonpayable",
      "type": "constructor"
    },
    {
      "anonymous": false,
      "inputs": [
        {
          "indexed": true,
          "internalType": "address",
          "name": "owner",
          "type": "address"
        },
        {
          "indexed": true,
          "internalType": "address",
          "name": "approved",
          "type": "address"
        },
        {
          "indexed": true,
          "internalType": "uint256",
          "name": "tokenId",
          "type": "uint256"
        }
      ],
      "name": "Approval",
      "type": "event"
    },
    {
      "anonymous": false,
      "inputs": [
        {
          "indexed": true,
          "internalType": "address",
          "name": "owner",
          "type": "address"
        },
        {
          "indexed": true,
          "internalType": "address",
          "name": "operator",
          "type": "address"
        },
        {
          "indexed": false,
          "internalType": "bool",
          "name": "approved",
          "type": "bool"
        }
      ],
      "name": "ApprovalForAll",
      "type": "event"
    },
    {
      "anonymous": false,
      "inputs": [
        {
          "indexed": true,
          "internalType": "address",
          "name": "from",
          "type": "address"
        },
        {
          "indexed": true,
          "internalType": "address",
          "name": "to",
          "type": "address"
        },
        {
          "indexed": true,
          "internalType": "uint256",
          "name": "tokenId",
          "type": "uint256"
        }
      ],
      "name": "Transfer",
      "type": "event"
    },
    {
      "inputs": [
        {
          "internalType": "address",
          "name": "to",
          "type": "address"
        },
        {
          "internalType": "uint256",
          "name": "tokenId",
          "type": "uint256"
        }
      ],
      "name": "approve",
      "outputs": [],
      "stateMutability": "nonpayable",
      "type": "function"
    },
    {
      "inputs": [
        {
          "internalType": "address",
          "name": "owner",
          "type": "address"
        }
      ],
      "name": "balanceOf",
      "outputs": [
        {
          "internalType": "uint256",
          "name": "",
          "type": "uint256"
        }
      ],
      "stateMutability": "view",
      "type": "function",
      "constant": true
    },
    {
      "inputs": [
        {
          "internalType": "uint256",
          "name": "tokenId",
          "type": "uint256"
        }
      ],
      "name": "getApproved",
      "outputs": [
        {
          "internalType": "address",
          "name": "",
          "type": "address"
        }
      ],
      "stateMutability": "view",
      "type": "function",
      "constant": true
    },
    {
      "inputs": [
        {
          "internalType": "address",
          "name": "owner",
          "type": "address"
        },
        {
          "internalType": "address",
          "name": "operator",
          "type": "address"
        }
      ],
      "name": "isApprovedForAll",
      "outputs": [
        {
          "internalType": "bool",
          "name": "",
          "type": "bool"
        }
      ],
      "stateMutability": "view",
      "type": "function",
      "constant": true
    },
    {
      "inputs": [],
      "name": "name",
      "outputs": [
        {
          "internalType": "string",
          "name": "",
          "type": "string"
        }
      ],
      "stateMutability": "view",
      "type": "function",
      "constant": true
    },
    {
      "inputs": [
        {
          "internalType": "uint256",
          "name": "tokenId",
          "type": "uint256"
        }
      ],
      "name": "ownerOf",
      "outputs": [
        {
          "internalType": "address",
          "name": "",
          "type": "address"
        }
      ],
      "stateMutability": "view",
      "type": "function",
      "constant": true
    },
    {
      "inputs": [
        {
          "internalType": "uint256",
          "name": "",
          "type": "uint256"
        }
      ],
      "name": "questions",
      "outputs": [
        {
          "internalType": "uint8",
          "name": "questionType",
          "type": "uint8"
        },
        {
          "internalType": "string",
          "name": "ipfsHash",
          "type": "string"
        },
        {
          "internalType": "string",
          "name": "answerHash",
          "type": "string"
        },
        {
          "internalType": "uint256",
          "name": "weight",
          "type": "uint256"
        },
        {
          "internalType": "uint256",
          "name": "maxScore",
          "type": "uint256"
        }
      ],
      "stateMutability": "view",
      "type": "function",
      "constant": true
    },
    {
      "inputs": [
        {
          "internalType": "address",
          "name": "from",
          "type": "address"
        },
        {
          "internalType": "address",
          "name": "to",
          "type": "address"
        },
        {
          "internalType": "uint256",
          "name": "tokenId",
          "type": "uint256"
        }
      ],
      "name": "safeTransferFrom",
      "outputs": [],
      "stateMutability": "nonpayable",
      "type": "function"
    },
    {
      "inputs": [
        {
          "internalType": "address",
          "name": "from",
          "type": "address"
        },
        {
          "internalType": "address",
          "name": "to",
          "type": "address"
        },
        {
          "internalType": "uint256",
          "name": "tokenId",
          "type": "uint256"
        },
        {
          "internalType": "bytes",
          "name": "data",
          "type": "bytes"
        }
      ],
      "name": "safeTransferFrom",
      "outputs": [],
      "stateMutability": "nonpayable",
      "type": "function"
    },
    {
      "inputs": [
        {
          "internalType": "address",
          "name": "operator",
          "type": "address"
        },
        {
          "internalType": "bool",
          "name": "approved",
          "type": "bool"
        }
      ],
      "name": "setApprovalForAll",
      "outputs": [],
      "stateMutability": "nonpayable",
      "type": "function"
    },
    {
      "inputs": [
        {
          "internalType": "uint256",
          "name": "",
          "type": "uint256"
        }
      ],
      "name": "submitted",
      "outputs": [
        {
          "internalType": "bool",
          "name": "",
          "type": "bool"
        }
      ],
      "stateMutability": "view",
      "type": "function",
      "constant": true
    },
    {
      "inputs": [
        {
          "internalType": "bytes4",
          "name": "interfaceId",
          "type": "bytes4"
        }
      ],
      "name": "supportsInterface",
      "outputs": [
        {
          "internalType": "bool",
          "name": "",
          "type": "bool"
        }
      ],
      "stateMutability": "view",
      "type": "function",
      "constant": true
    },
    {
      "inputs": [],
      "name": "symbol",
      "outputs": [
        {
          "internalType": "string",
          "name": "",
          "type": "string"
        }
      ],
      "stateMutability": "view",
      "type": "function",
      "constant": true
    },
    {
      "inputs": [
        {
          "internalType": "uint256",
          "name": "tokenId",
          "type": "uint256"
        }
      ],
      "name": "tokenURI",
      "outputs": [
        {
          "internalType": "string",
          "name": "",
          "type": "string"
        }
      ],
      "stateMutability": "view",
      "type": "function",
      "constant": true
    },
    {
      "inputs": [
        {
          "internalType": "address",
          "name": "from",
          "type": "address"
        },
        {
          "internalType": "address",
          "name": "to",
          "type": "address"
        },
        {
          "internalType": "uint256",
          "name": "tokenId",
          "type": "uint256"
        }
      ],
      "name": "transferFrom",
      "outputs": [],
      "stateMutability": "nonpayable",
      "type": "function"
    },
    {
      "inputs": [
        {
          "internalType": "uint8",
          "name": "_questionType",
          "type": "uint8"
        },
        {
          "internalType": "string",
          "name": "_ipfsHash",
          "type": "string"
        },
        {
          "internalType": "string",
          "name": "_answerHash",
          "type": "string"
        },
        {
          "internalType": "uint256",
          "name": "_weight",
          "type": "uint256"
        },
        {
          "internalType": "uint256",
          "name": "_maxScore",
          "type": "uint256"
        }
      ],
      "name": "addQuestion",
      "outputs": [],
      "stateMutability": "nonpayable",
      "type": "function"
    },
    {
      "inputs": [
        {
          "internalType": "uint256",
          "name": "_testId",
          "type": "uint256"
        }
      ],
      "name": "isSubmitted",
      "outputs": [
        {
          "internalType": "bool",
          "name": "",
          "type": "bool"
        }
      ],
      "stateMutability": "view",
      "type": "function",
      "constant": true
    },
    {
      "inputs": [
        {
          "internalType": "uint256",
          "name": "_questionId",
          "type": "uint256"
        }
      ],
      "name": "getMaxScore",
      "outputs": [
        {
          "internalType": "uint256",
          "name": "",
          "type": "uint256"
        }
      ],
      "stateMutability": "view",
      "type": "function",
      "constant": true
    },
    {
      "inputs": [],
      "name": "getTestCount",
      "outputs": [
        {
          "internalType": "uint256",
          "name": "",
          "type": "uint256"
        }
      ],
      "stateMutability": "view",
      "type": "function",
      "constant": true
    },
    {
      "inputs": [
        {
          "internalType": "contract Test",
          "name": "_test",
          "type": "address"
        }
      ],
      "name": "getTestId",
      "outputs": [
        {
          "internalType": "uint256",
          "name": "",
          "type": "uint256"
        }
      ],
      "stateMutability": "view",
      "type": "function",
      "constant": true
    }
  ],
  "bytecode": "0x60806040523480156200001157600080fd5b506040518060400160405280600781526020017f546573744e4654000000000000000000000000000000000000000000000000008152506040518060400160405280600481526020017f544e46540000000000000000000000000000000000000000000000000000000081525081600090816200008f919062000324565b508060019081620000a1919062000324565b5050506200040b565b600081519050919050565b7f4e487b7100000000000000000000000000000000000000000000000000000000600052604160045260246000fd5b7f4e487b7100000000000000000000000000000000000000000000000000000000600052602260045260246000fd5b600060028204905060018216806200012c57607f821691505b602082108103620001425762000141620000e4565b5b50919050565b60008190508160005260206000209050919050565b60006020601f8301049050919050565b600082821b905092915050565b600060088302620001ac7fffffffffffffffffffffffffffffffffffffffffffffffffffffffffffffffff826200016d565b620001b886836200016d565b95508019841693508086168417925050509392505050565b6000819050919050565b6000819050919050565b600062000205620001ff620001f984620001d0565b620001da565b620001d0565b9050919050565b6000819050919050565b6200022183620001e4565b6200023962000230826200020c565b8484546200017a565b825550505050565b600090565b6200025062000241565b6200025d81848462000216565b505050565b5b8181101562000285576200027960008262000246565b60018101905062000263565b5050565b601f821115620002d4576200029e8162000148565b620002a9846200015d565b81016020851015620002b9578190505b620002d1620002c8856200015d565b83018262000262565b50505b505050565b600082821c905092915050565b6000620002f960001984600802620002d9565b1980831691505092915050565b6000620003148383620002e6565b9150826002028217905092915050565b6200032f82620000aa565b67ffffffffffffffff8111156200034b576200034a620000b5565b5b62000357825462000113565b6200036482828562000289565b600060209050601f8311600181146200039c576000841562000387578287015190505b62000393858262000306565b86555062000403565b601f198416620003ac8662000148565b60005b82811015620003d657848901518255600182019150602085019450602081019050620003af565b86831015620003f65784890151620003f2601f891682620002e6565b8355505b6001600288020188555050505b505050505050565b612c01806200041b6000396000f3fe608060405234801561001057600080fd5b506004361061012c5760003560e01c80636352211e116100ad578063b88d4fde11610071578063b88d4fde1461036b578063c87b56dd14610387578063e787418a146103b7578063e985e9c5146103e7578063fd4c632a146104175761012c565b80636352211e146102b557806370a08231146102e557806395d89b4114610315578063998f26e014610333578063a22cb4651461034f5761012c565b806323b872dd116100f457806323b872dd146101e95780632e70cbfd1461020557806331b1b9781461023557806335233dab1461026957806342842e0e146102995761012c565b806301ffc9a71461013157806306fdde0314610161578063081812fc1461017f5780630853ad8a146101af578063095ea7b3146101cd575b600080fd5b61014b600480360381019061014691906119dd565b610447565b6040516101589190611a25565b60405180910390f35b610169610529565b6040516101769190611ad0565b60405180910390f35b61019960048036038101906101949190611b28565b6105bb565b6040516101a69190611b96565b60405180910390f35b6101b7610601565b6040516101c49190611bc0565b60405180910390f35b6101e760048036038101906101e29190611c07565b61060e565b005b61020360048036038101906101fe9190611c47565b610725565b005b61021f600480360381019061021a9190611b28565b610785565b60405161022c9190611bc0565b60405180910390f35b61024f600480360381019061024a9190611b28565b6107fb565b604051610260959493929190611cb6565b60405180910390f35b610283600480360381019061027e9190611b28565b61095e565b6040516102909190611a25565b60405180910390f35b6102b360048036038101906102ae9190611c47565b61097e565b005b6102cf60048036038101906102ca9190611b28565b61099e565b6040516102dc9190611b96565b60405180910390f35b6102ff60048036038101906102fa9190611d17565b610a24565b60405161030c9190611bc0565b60405180910390f35b61031d610adb565b60405161032a9190611ad0565b60405180910390f35b61034d60048036038101906103489190611ea5565b610b6d565b005b61036960048036038101906103649190611f84565b610c2c565b005b61038560048036038101906103809190612065565b610c42565b005b6103a1600480360381019061039c9190611b28565b610ca4565b6040516103ae9190611ad0565b60405180910390f35b6103d160048036038101906103cc9190611b28565b610d0c565b6040516103de9190611a25565b60405180910390f35b61040160048036038101906103fc91906120e8565b610d36565b60405161040e9190611a25565b60405180910390f35b610431600480360381019061042c9190612166565b610dca565b60405161043e9190611bc0565b60405180910390f35b60007f80ac58cd000000000000000000000000000000000000000000000000000000007bffffffffffffffffffffffffffffffffffffffffffffffffffffffff1916827bffffffffffffffffffffffffffffffffffffffffffffffffffffffff1916148061051257507f5b5e139f000000000000000000000000000000000000000000000000000000007bffffffffffffffffffffffffffffffffffffffffffffffffffffffff1916827bffffffffffffffffffffffffffffffffffffffffffffffffffffffff1916145b80610522575061052182610e39565b5b9050919050565b606060008054610538906121c2565b80601f0160208091040260200160405190810160405280929190818152602001828054610564906121c2565b80156105b15780601f10610586576101008083540402835291602001916105b1565b820191906000526020600020905b81548152906001019060200180831161059457829003601f168201915b5050505050905090565b60006105c682610ea3565b6004600083815260200190815260200160002060009054906101000a900473ffffffffffffffffffffffffffffffffffffffff169050919050565b6000600780549050905090565b60006106198261099e565b90508073ffffffffffffffffffffffffffffffffffffffff168373ffffffffffffffffffffffffffffffffffffffff1603610689576040517f08c379a000000000000000000000000000000000000000000000000000000000815260040161068090612265565b60405180910390fd5b8073ffffffffffffffffffffffffffffffffffffffff166106a8610eee565b73ffffffffffffffffffffffffffffffffffffffff1614806106d757506106d6816106d1610eee565b610d36565b5b610716576040517f08c379a000000000000000000000000000000000000000000000000000000000815260040161070d906122f7565b60405180910390fd5b6107208383610ef6565b505050565b610736610730610eee565b82610faf565b610775576040517f08c379a000000000000000000000000000000000000000000000000000000000815260040161076c90612389565b60405180910390fd5b610780838383611044565b505050565b600060078054905082106107ce576040517f08c379a00000000000000000000000000000000000000000000000000000000081526004016107c5906123f5565b60405180910390fd5b600782815481106107e2576107e1612415565b5b9060005260206000209060050201600401549050919050565b6007818154811061080b57600080fd5b90600052602060002090600502016000915090508060000160009054906101000a900460ff1690806001018054610841906121c2565b80601f016020809104026020016040519081016040528092919081815260200182805461086d906121c2565b80156108ba5780601f1061088f576101008083540402835291602001916108ba565b820191906000526020600020905b81548152906001019060200180831161089d57829003601f168201915b5050505050908060020180546108cf906121c2565b80601f01602080910402602001604051908101604052809291908181526020018280546108fb906121c2565b80156109485780601f1061091d57610100808354040283529160200191610948565b820191906000526020600020905b81548152906001019060200180831161092b57829003601f168201915b5050505050908060030154908060040154905085565b60066020528060005260406000206000915054906101000a900460ff1681565b61099983838360405180602001604052806000815250610c42565b505050565b6000806109aa8361133d565b9050600073ffffffffffffffffffffffffffffffffffffffff168173ffffffffffffffffffffffffffffffffffffffff1603610a1b576040517f08c379a0000000000000000000000000000000000000000000000000000000008152600401610a1290612490565b60405180910390fd5b80915050919050565b60008073ffffffffffffffffffffffffffffffffffffffff168273ffffffffffffffffffffffffffffffffffffffff1603610a94576040517f08c379a0000000000000000000000000000000000000000000000000000000008152600401610a8b90612522565b60405180910390fd5b600360008373ffffffffffffffffffffffffffffffffffffffff1673ffffffffffffffffffffffffffffffffffffffff168152602001908152602001600020549050919050565b606060018054610aea906121c2565b80601f0160208091040260200160405190810160405280929190818152602001828054610b16906121c2565b8015610b635780601f10610b3857610100808354040283529160200191610b63565b820191906000526020600020905b815481529060010190602001808311610b4657829003601f168201915b5050505050905090565b60076040518060a001604052808760ff16815260200186815260200185815260200184815260200183815250908060018154018082558091505060019003906000526020600020906005020160009091909190915060008201518160000160006101000a81548160ff021916908360ff1602179055506020820151816001019081610bf891906126ee565b506040820151816002019081610c0e91906126ee565b50606082015181600301556080820151816004015550505050505050565b610c3e610c37610eee565b838361137a565b5050565b610c53610c4d610eee565b83610faf565b610c92576040517f08c379a0000000000000000000000000000000000000000000000000000000008152600401610c8990612389565b60405180910390fd5b610c9e848484846114e6565b50505050565b6060610caf82610ea3565b6000610cb9611542565b90506000815111610cd95760405180602001604052806000815250610d04565b80610ce384611559565b604051602001610cf49291906127fc565b6040516020818303038152906040525b915050919050565b60006006600083815260200190815260200160002060009054906101000a900460ff169050919050565b6000600560008473ffffffffffffffffffffffffffffffffffffffff1673ffffffffffffffffffffffffffffffffffffffff16815260200190815260200160002060008373ffffffffffffffffffffffffffffffffffffffff1673ffffffffffffffffffffffffffffffffffffffff16815260200190815260200160002060009054906101000a900460ff16905092915050565b600080600090505b600780549050811015610e2e573073ffffffffffffffffffffffffffffffffffffffff168373ffffffffffffffffffffffffffffffffffffffff1603610e1b5780915050610e34565b8080610e269061284f565b915050610dd2565b50600090505b919050565b60007f01ffc9a7000000000000000000000000000000000000000000000000000000007bffffffffffffffffffffffffffffffffffffffffffffffffffffffff1916827bffffffffffffffffffffffffffffffffffffffffffffffffffffffff1916149050919050565b610eac81611627565b610eeb576040517f08c379a0000000000000000000000000000000000000000000000000000000008152600401610ee290612490565b60405180910390fd5b50565b600033905090565b816004600083815260200190815260200160002060006101000a81548173ffffffffffffffffffffffffffffffffffffffff021916908373ffffffffffffffffffffffffffffffffffffffff160217905550808273ffffffffffffffffffffffffffffffffffffffff16610f698361099e565b73ffffffffffffffffffffffffffffffffffffffff167f8c5be1e5ebec7d5bd14f71427d1e84f3dd0314c0f7b2291e5b200ac8c7c3b92560405160405180910390a45050565b600080610fbb8361099e565b90508073ffffffffffffffffffffffffffffffffffffffff168473ffffffffffffffffffffffffffffffffffffffff161480610ffd5750610ffc8185610d36565b5b8061103b57508373ffffffffffffffffffffffffffffffffffffffff16611023846105bb565b73ffffffffffffffffffffffffffffffffffffffff16145b91505092915050565b8273ffffffffffffffffffffffffffffffffffffffff166110648261099e565b73ffffffffffffffffffffffffffffffffffffffff16146110ba576040517f08c379a00000000000000000000000000000000000000000000000000000000081526004016110b190612909565b60405180910390fd5b600073ffffffffffffffffffffffffffffffffffffffff168273ffffffffffffffffffffffffffffffffffffffff1603611129576040517f08c379a00000000000000000000000000000000000000000000000000000000081526004016111209061299b565b60405180910390fd5b6111368383836001611668565b8273ffffffffffffffffffffffffffffffffffffffff166111568261099e565b73ffffffffffffffffffffffffffffffffffffffff16146111ac576040517f08c379a00000000000000000000000000000000000000000000000000000000081526004016111a390612909565b60405180910390fd5b6004600082815260200190815260200160002060006101000a81549073ffffffffffffffffffffffffffffffffffffffff02191690556001600360008573ffffffffffffffffffffffffffffffffffffffff1673ffffffffffffffffffffffffffffffffffffffff168152602001908152602001600020600082825403925050819055506001600360008473ffffffffffffffffffffffffffffffffffffffff1673ffffffffffffffffffffffffffffffffffffffff16815260200190815260200160002060008282540192505081905550816002600083815260200190815260200160002060006101000a81548173ffffffffffffffffffffffffffffffffffffffff021916908373ffffffffffffffffffffffffffffffffffffffff160217905550808273ffffffffffffffffffffffffffffffffffffffff168473ffffffffffffffffffffffffffffffffffffffff167fddf252ad1be2c89b69c2b068fc378daa952ba7f163c4a11628f55a4df523b3ef60405160405180910390a4611338838383600161166e565b505050565b60006002600083815260200190815260200160002060009054906101000a900473ffffffffffffffffffffffffffffffffffffffff169050919050565b8173ffffffffffffffffffffffffffffffffffffffff168373ffffffffffffffffffffffffffffffffffffffff16036113e8576040517f08c379a00000000000000000000000000000000000000000000000000000000081526004016113df90612a07565b60405180910390fd5b80600560008573ffffffffffffffffffffffffffffffffffffffff1673ffffffffffffffffffffffffffffffffffffffff16815260200190815260200160002060008473ffffffffffffffffffffffffffffffffffffffff1673ffffffffffffffffffffffffffffffffffffffff16815260200190815260200160002060006101000a81548160ff0219169083151502179055508173ffffffffffffffffffffffffffffffffffffffff168373ffffffffffffffffffffffffffffffffffffffff167f17307eab39ab6107e8899845ad3d59bd9653f200f220920489ca2b5937696c31836040516114d99190611a25565b60405180910390a3505050565b6114f1848484611044565b6114fd84848484611674565b61153c576040517f08c379a000000000000000000000000000000000000000000000000000000000815260040161153390612a99565b60405180910390fd5b50505050565b606060405180602001604052806000815250905090565b606060006001611568846117fb565b01905060008167ffffffffffffffff81111561158757611586611d7a565b5b6040519080825280601f01601f1916602001820160405280156115b95781602001600182028036833780820191505090505b509050600082602001820190505b60011561161c578080600190039150507f3031323334353637383961626364656600000000000000000000000000000000600a86061a8153600a85816116105761160f612ab9565b5b049450600085036115c7575b819350505050919050565b60008073ffffffffffffffffffffffffffffffffffffffff166116498361133d565b73ffffffffffffffffffffffffffffffffffffffff1614159050919050565b50505050565b50505050565b60006116958473ffffffffffffffffffffffffffffffffffffffff1661194e565b156117ee578373ffffffffffffffffffffffffffffffffffffffff1663150b7a026116be610eee565b8786866040518563ffffffff1660e01b81526004016116e09493929190612b3d565b6020604051808303816000875af192505050801561171c57506040513d601f19601f820116820180604052508101906117199190612b9e565b60015b61179e573d806000811461174c576040519150601f19603f3d011682016040523d82523d6000602084013e611751565b606091505b506000815103611796576040517f08c379a000000000000000000000000000000000000000000000000000000000815260040161178d90612a99565b60405180910390fd5b805181602001fd5b63150b7a0260e01b7bffffffffffffffffffffffffffffffffffffffffffffffffffffffff1916817bffffffffffffffffffffffffffffffffffffffffffffffffffffffff1916149150506117f3565b600190505b949350505050565b600080600090507a184f03e93ff9f4daa797ed6e38ed64bf6a1f0100000000000000008310611859577a184f03e93ff9f4daa797ed6e38ed64bf6a1f010000000000000000838161184f5761184e612ab9565b5b0492506040810190505b6d04ee2d6d415b85acef81000000008310611896576d04ee2d6d415b85acef8100000000838161188c5761188b612ab9565b5b0492506020810190505b662386f26fc1000083106118c557662386f26fc1000083816118bb576118ba612ab9565b5b0492506010810190505b6305f5e10083106118ee576305f5e10083816118e4576118e3612ab9565b5b0492506008810190505b612710831061191357612710838161190957611908612ab9565b5b0492506004810190505b60648310611936576064838161192c5761192b612ab9565b5b0492506002810190505b600a8310611945576001810190505b80915050919050565b6000808273ffffffffffffffffffffffffffffffffffffffff163b119050919050565b6000604051905090565b600080fd5b600080fd5b60007fffffffff0000000000000000000000000000000000000000000000000000000082169050919050565b6119ba81611985565b81146119c557600080fd5b50565b6000813590506119d7816119b1565b92915050565b6000602082840312156119f3576119f261197b565b5b6000611a01848285016119c8565b91505092915050565b60008115159050919050565b611a1f81611a0a565b82525050565b6000602082019050611a3a6000830184611a16565b92915050565b600081519050919050565b600082825260208201905092915050565b60005b83811015611a7a578082015181840152602081019050611a5f565b60008484015250505050565b6000601f19601f8301169050919050565b6000611aa282611a40565b611aac8185611a4b565b9350611abc818560208601611a5c565b611ac581611a86565b840191505092915050565b60006020820190508181036000830152611aea8184611a97565b905092915050565b6000819050919050565b611b0581611af2565b8114611b1057600080fd5b50565b600081359050611b2281611afc565b92915050565b600060208284031215611b3e57611b3d61197b565b5b6000611b4c84828501611b13565b91505092915050565b600073ffffffffffffffffffffffffffffffffffffffff82169050919050565b6000611b8082611b55565b9050919050565b611b9081611b75565b82525050565b6000602082019050611bab6000830184611b87565b92915050565b611bba81611af2565b82525050565b6000602082019050611bd56000830184611bb1565b92915050565b611be481611b75565b8114611bef57600080fd5b50565b600081359050611c0181611bdb565b92915050565b60008060408385031215611c1e57611c1d61197b565b5b6000611c2c85828601611bf2565b9250506020611c3d85828601611b13565b9150509250929050565b600080600060608486031215611c6057611c5f61197b565b5b6000611c6e86828701611bf2565b9350506020611c7f86828701611bf2565b9250506040611c9086828701611b13565b9150509250925092565b600060ff82169050919050565b611cb081611c9a565b82525050565b600060a082019050611ccb6000830188611ca7565b8181036020830152611cdd8187611a97565b90508181036040830152611cf18186611a97565b9050611d006060830185611bb1565b611d0d6080830184611bb1565b9695505050505050565b600060208284031215611d2d57611d2c61197b565b5b6000611d3b84828501611bf2565b91505092915050565b611d4d81611c9a565b8114611d5857600080fd5b50565b600081359050611d6a81611d44565b92915050565b600080fd5b600080fd5b7f4e487b7100000000000000000000000000000000000000000000000000000000600052604160045260246000fd5b611db282611a86565b810181811067ffffffffffffffff82111715611dd157611dd0611d7a565b5b80604052505050565b6000611de4611971565b9050611df08282611da9565b919050565b600067ffffffffffffffff821115611e1057611e0f611d7a565b5b611e1982611a86565b9050602081019050919050565b82818337600083830152505050565b6000611e48611e4384611df5565b611dda565b905082815260208101848484011115611e6457611e63611d75565b5b611e6f848285611e26565b509392505050565b600082601f830112611e8c57611e8b611d70565b5b8135611e9c848260208601611e35565b91505092915050565b600080600080600060a08688031215611ec157611ec061197b565b5b6000611ecf88828901611d5b565b955050602086013567ffffffffffffffff811115611ef057611eef611980565b5b611efc88828901611e77565b945050604086013567ffffffffffffffff811115611f1d57611f1c611980565b5b611f2988828901611e77565b9350506060611f3a88828901611b13565b9250506080611f4b88828901611b13565b9150509295509295909350565b611f6181611a0a565b8114611f6c57600080fd5b50565b600081359050611f7e81611f58565b92915050565b60008060408385031215611f9b57611f9a61197b565b5b6000611fa985828601611bf2565b9250506020611fba85828601611f6f565b9150509250929050565b600067ffffffffffffffff821115611fdf57611fde611d7a565b5b611fe882611a86565b9050602081019050919050565b600061200861200384611fc4565b611dda565b90508281526020810184848401111561202457612023611d75565b5b61202f848285611e26565b509392505050565b600082601f83011261204c5761204b611d70565b5b813561205c848260208601611ff5565b91505092915050565b6000806000806080858703121561207f5761207e61197b565b5b600061208d87828801611bf2565b945050602061209e87828801611bf2565b93505060406120af87828801611b13565b925050606085013567ffffffffffffffff8111156120d0576120cf611980565b5b6120dc87828801612037565b91505092959194509250565b600080604083850312156120ff576120fe61197b565b5b600061210d85828601611bf2565b925050602061211e85828601611bf2565b9150509250929050565b600061213382611b75565b9050919050565b61214381612128565b811461214e57600080fd5b50565b6000813590506121608161213a565b92915050565b60006020828403121561217c5761217b61197b565b5b600061218a84828501612151565b91505092915050565b7f4e487b7100000000000000000000000000000000000000000000000000000000600052602260045260246000fd5b600060028204905060018216806121da57607f821691505b6020821081036121ed576121ec612193565b5b50919050565b7f4552433732313a20617070726f76616c20746f2063757272656e74206f776e6560008201527f7200000000000000000000000000000000000000000000000000000000000000602082015250565b600061224f602183611a4b565b915061225a826121f3565b604082019050919050565b6000602082019050818103600083015261227e81612242565b9050919050565b7f4552433732313a20617070726f76652063616c6c6572206973206e6f7420746f60008201527f6b656e206f776e6572206f7220617070726f76656420666f7220616c6c000000602082015250565b60006122e1603d83611a4b565b91506122ec82612285565b604082019050919050565b60006020820190508181036000830152612310816122d4565b9050919050565b7f4552433732313a2063616c6c6572206973206e6f7420746f6b656e206f776e6560008201527f72206f7220617070726f76656400000000000000000000000000000000000000602082015250565b6000612373602d83611a4b565b915061237e82612317565b604082019050919050565b600060208201905081810360008301526123a281612366565b9050919050565b7f496e76616c6964207175657374696f6e20494400000000000000000000000000600082015250565b60006123df601383611a4b565b91506123ea826123a9565b602082019050919050565b6000602082019050818103600083015261240e816123d2565b9050919050565b7f4e487b7100000000000000000000000000000000000000000000000000000000600052603260045260246000fd5b7f4552433732313a20696e76616c696420746f6b656e2049440000000000000000600082015250565b600061247a601883611a4b565b915061248582612444565b602082019050919050565b600060208201905081810360008301526124a98161246d565b9050919050565b7f4552433732313a2061646472657373207a65726f206973206e6f74206120766160008201527f6c6964206f776e65720000000000000000000000000000000000000000000000602082015250565b600061250c602983611a4b565b9150612517826124b0565b604082019050919050565b6000602082019050818103600083015261253b816124ff565b9050919050565b60008190508160005260206000209050919050565b60006020601f8301049050919050565b600082821b905092915050565b6000600883026125a47fffffffffffffffffffffffffffffffffffffffffffffffffffffffffffffffff82612567565b6125ae8683612567565b95508019841693508086168417925050509392505050565b6000819050919050565b60006125eb6125e66125e184611af2565b6125c6565b611af2565b9050919050565b6000819050919050565b612605836125d0565b612619612611826125f2565b848454612574565b825550505050565b600090565b61262e612621565b6126398184846125fc565b505050565b5b8181101561265d57612652600082612626565b60018101905061263f565b5050565b601f8211156126a25761267381612542565b61267c84612557565b8101602085101561268b578190505b61269f61269785612557565b83018261263e565b50505b505050565b600082821c905092915050565b60006126c5600019846008026126a7565b1980831691505092915050565b60006126de83836126b4565b9150826002028217905092915050565b6126f782611a40565b67ffffffffffffffff8111156127105761270f611d7a565b5b61271a82546121c2565b612725828285612661565b600060209050601f8311600181146127585760008415612746578287015190505b61275085826126d2565b8655506127b8565b601f19841661276686612542565b60005b8281101561278e57848901518255600182019150602085019450602081019050612769565b868310156127ab57848901516127a7601f8916826126b4565b8355505b6001600288020188555050505b505050505050565b600081905092915050565b60006127d682611a40565b6127e081856127c0565b93506127f0818560208601611a5c565b80840191505092915050565b600061280882856127cb565b915061281482846127cb565b91508190509392505050565b7f4e487b7100000000000000000000000000000000000000000000000000000000600052601160045260246000fd5b600061285a82611af2565b91507fffffffffffffffffffffffffffffffffffffffffffffffffffffffffffffffff820361288c5761288b612820565b5b600182019050919050565b7f4552433732313a207472616e736665722066726f6d20696e636f72726563742060008201527f6f776e6572000000000000000000000000000000000000000000000000000000602082015250565b60006128f3602583611a4b565b91506128fe82612897565b604082019050919050565b60006020820190508181036000830152612922816128e6565b9050919050565b7f4552433732313a207472616e7366657220746f20746865207a65726f2061646460008201527f7265737300000000000000000000000000000000000000000000000000000000602082015250565b6000612985602483611a4b565b915061299082612929565b604082019050919050565b600060208201905081810360008301526129b481612978565b9050919050565b7f4552433732313a20617070726f766520746f2063616c6c657200000000000000600082015250565b60006129f1601983611a4b565b91506129fc826129bb565b602082019050919050565b60006020820190508181036000830152612a20816129e4565b9050919050565b7f4552433732313a207472616e7366657220746f206e6f6e20455243373231526560008201527f63656976657220696d706c656d656e7465720000000000000000000000000000602082015250565b6000612a83603283611a4b565b9150612a8e82612a27565b604082019050919050565b60006020820190508181036000830152612ab281612a76565b9050919050565b7f4e487b7100000000000000000000000000000000000000000000000000000000600052601260045260246000fd5b600081519050919050565b600082825260208201905092915050565b6000612b0f82612ae8565b612b198185612af3565b9350612b29818560208601611a5c565b612b3281611a86565b840191505092915050565b6000608082019050612b526000830187611b87565b612b5f6020830186611b87565b612b6c6040830185611bb1565b8181036060830152612b7e8184612b04565b905095945050505050565b600081519050612b98816119b1565b92915050565b600060208284031215612bb457612bb361197b565b5b6000612bc284828501612b89565b9150509291505056fea264697066735822122087e251ea2ea9ad173668ec936187576d5ce03d4eb954edc56442e4584bec379464736f6c63430008130033",
  "immutableReferences": {},
  "source": "// SPDX-License-Identifier: MIT\npragma solidity ^0.8.0;\n\nimport \"@openzeppelin/contracts/utils/math/SafeMath.sol\";\nimport \"@openzeppelin/contracts/token/ERC721/ERC721.sol\";\n\ncontract Test is ERC721 {\n    using SafeMath for uint256;\n\n    struct Question {\n        uint8 questionType; // 1 = multiple choice, 2 = true/false, 3 = matching, 4 = short answer, 5 = essay, 6 = oral, 7 = computational\n        string ipfsHash; // IPFS hash for question data\n        string answerHash; // Hashed answer for on-chain verification\n        uint256 weight; // weight of the question for calculating test GPA\n        uint256 maxScore; // maximum possible score for the question\n    }\n    mapping(uint256 => bool) public submitted;\n\n    constructor() ERC721(\"TestNFT\", \"TNFT\") {}\n\n    Question[] public questions;\n\n    function addQuestion(\n        uint8 _questionType,\n        string memory _ipfsHash,\n        string memory _answerHash,\n        uint256 _weight,\n        uint256 _maxScore\n    ) public {\n        questions.push(\n            Question(_questionType, _ipfsHash, _answerHash, _weight, _maxScore)\n        );\n    }\n\n    function isSubmitted(uint256 _testId) public view returns (bool) {\n        return submitted[_testId];\n    }\n\n    function getMaxScore(uint256 _questionId) public view returns (uint256) {\n        require(_questionId < questions.length, \"Invalid question ID\");\n        return questions[_questionId].maxScore;\n    }\n\n    function getTestCount() public view returns (uint256) {\n        return questions.length;\n    }\n\n    function getTestId(Test _test) public view returns (uint256) {\n        for (uint256 i = 0; i < questions.length; i++) {\n            if (address(_test) == address(this)) {\n                return i;\n            }\n        }\n        return 0;\n    }\n}\n",
  "sourcePath": "/home/main/github/vert.io/truffle/contracts/TestNFT.sol",
  "compiler": {
    "name": "solc",
    "version": "0.8.19+commit.7dd6d404.Emscripten.clang"
  },
  "schemaVersion": "3.4.13",
  "updatedAt": "2023-03-21T08:02:02.301Z",
  "networkType": "ethereum",
  "devdoc": {
    "events": {
      "Approval(address,address,uint256)": {
        "details": "Emitted when `owner` enables `approved` to manage the `tokenId` token."
      },
      "ApprovalForAll(address,address,bool)": {
        "details": "Emitted when `owner` enables or disables (`approved`) `operator` to manage all of its assets."
      },
      "Transfer(address,address,uint256)": {
        "details": "Emitted when `tokenId` token is transferred from `from` to `to`."
      }
    },
    "kind": "dev",
    "methods": {
      "approve(address,uint256)": {
        "details": "See {IERC721-approve}."
      },
      "balanceOf(address)": {
        "details": "See {IERC721-balanceOf}."
      },
      "getApproved(uint256)": {
        "details": "See {IERC721-getApproved}."
      },
      "isApprovedForAll(address,address)": {
        "details": "See {IERC721-isApprovedForAll}."
      },
      "name()": {
        "details": "See {IERC721Metadata-name}."
      },
      "ownerOf(uint256)": {
        "details": "See {IERC721-ownerOf}."
      },
      "safeTransferFrom(address,address,uint256)": {
        "details": "See {IERC721-safeTransferFrom}."
      },
      "safeTransferFrom(address,address,uint256,bytes)": {
        "details": "See {IERC721-safeTransferFrom}."
      },
      "setApprovalForAll(address,bool)": {
        "details": "See {IERC721-setApprovalForAll}."
      },
      "supportsInterface(bytes4)": {
        "details": "See {IERC165-supportsInterface}."
      },
      "symbol()": {
        "details": "See {IERC721Metadata-symbol}."
      },
      "tokenURI(uint256)": {
        "details": "See {IERC721Metadata-tokenURI}."
      },
      "transferFrom(address,address,uint256)": {
        "details": "See {IERC721-transferFrom}."
      }
    },
    "version": 1
  },
  "userdoc": {
    "kind": "user",
    "methods": {},
    "version": 1
  }
}