{
  "contractName": "Task",
  "abi": [
    {
      "inputs": [],
      "stateMutability": "nonpayable",
      "type": "constructor"
    },
    {
      "anonymous": false,
      "inputs": [
        {
          "indexed": true,
          "internalType": "address",
          "name": "owner",
          "type": "address"
        },
        {
          "indexed": true,
          "internalType": "address",
          "name": "approved",
          "type": "address"
        },
        {
          "indexed": true,
          "internalType": "uint256",
          "name": "tokenId",
          "type": "uint256"
        }
      ],
      "name": "Approval",
      "type": "event"
    },
    {
      "anonymous": false,
      "inputs": [
        {
          "indexed": true,
          "internalType": "address",
          "name": "owner",
          "type": "address"
        },
        {
          "indexed": true,
          "internalType": "address",
          "name": "operator",
          "type": "address"
        },
        {
          "indexed": false,
          "internalType": "bool",
          "name": "approved",
          "type": "bool"
        }
      ],
      "name": "ApprovalForAll",
      "type": "event"
    },
    {
      "anonymous": false,
      "inputs": [
        {
          "indexed": true,
          "internalType": "address",
          "name": "from",
          "type": "address"
        },
        {
          "indexed": true,
          "internalType": "address",
          "name": "to",
          "type": "address"
        },
        {
          "indexed": true,
          "internalType": "uint256",
          "name": "tokenId",
          "type": "uint256"
        }
      ],
      "name": "Transfer",
      "type": "event"
    },
    {
      "inputs": [
        {
          "internalType": "address",
          "name": "to",
          "type": "address"
        },
        {
          "internalType": "uint256",
          "name": "tokenId",
          "type": "uint256"
        }
      ],
      "name": "approve",
      "outputs": [],
      "stateMutability": "nonpayable",
      "type": "function"
    },
    {
      "inputs": [
        {
          "internalType": "address",
          "name": "owner",
          "type": "address"
        }
      ],
      "name": "balanceOf",
      "outputs": [
        {
          "internalType": "uint256",
          "name": "",
          "type": "uint256"
        }
      ],
      "stateMutability": "view",
      "type": "function",
      "constant": true
    },
    {
      "inputs": [
        {
          "internalType": "uint256",
          "name": "tokenId",
          "type": "uint256"
        }
      ],
      "name": "getApproved",
      "outputs": [
        {
          "internalType": "address",
          "name": "",
          "type": "address"
        }
      ],
      "stateMutability": "view",
      "type": "function",
      "constant": true
    },
    {
      "inputs": [
        {
          "internalType": "address",
          "name": "owner",
          "type": "address"
        },
        {
          "internalType": "address",
          "name": "operator",
          "type": "address"
        }
      ],
      "name": "isApprovedForAll",
      "outputs": [
        {
          "internalType": "bool",
          "name": "",
          "type": "bool"
        }
      ],
      "stateMutability": "view",
      "type": "function",
      "constant": true
    },
    {
      "inputs": [],
      "name": "name",
      "outputs": [
        {
          "internalType": "string",
          "name": "",
          "type": "string"
        }
      ],
      "stateMutability": "view",
      "type": "function",
      "constant": true
    },
    {
      "inputs": [
        {
          "internalType": "uint256",
          "name": "tokenId",
          "type": "uint256"
        }
      ],
      "name": "ownerOf",
      "outputs": [
        {
          "internalType": "address",
          "name": "",
          "type": "address"
        }
      ],
      "stateMutability": "view",
      "type": "function",
      "constant": true
    },
    {
      "inputs": [
        {
          "internalType": "address",
          "name": "from",
          "type": "address"
        },
        {
          "internalType": "address",
          "name": "to",
          "type": "address"
        },
        {
          "internalType": "uint256",
          "name": "tokenId",
          "type": "uint256"
        }
      ],
      "name": "safeTransferFrom",
      "outputs": [],
      "stateMutability": "nonpayable",
      "type": "function"
    },
    {
      "inputs": [
        {
          "internalType": "address",
          "name": "from",
          "type": "address"
        },
        {
          "internalType": "address",
          "name": "to",
          "type": "address"
        },
        {
          "internalType": "uint256",
          "name": "tokenId",
          "type": "uint256"
        },
        {
          "internalType": "bytes",
          "name": "data",
          "type": "bytes"
        }
      ],
      "name": "safeTransferFrom",
      "outputs": [],
      "stateMutability": "nonpayable",
      "type": "function"
    },
    {
      "inputs": [
        {
          "internalType": "address",
          "name": "operator",
          "type": "address"
        },
        {
          "internalType": "bool",
          "name": "approved",
          "type": "bool"
        }
      ],
      "name": "setApprovalForAll",
      "outputs": [],
      "stateMutability": "nonpayable",
      "type": "function"
    },
    {
      "inputs": [
        {
          "internalType": "uint256",
          "name": "",
          "type": "uint256"
        }
      ],
      "name": "submitted",
      "outputs": [
        {
          "internalType": "bool",
          "name": "",
          "type": "bool"
        }
      ],
      "stateMutability": "view",
      "type": "function",
      "constant": true
    },
    {
      "inputs": [
        {
          "internalType": "bytes4",
          "name": "interfaceId",
          "type": "bytes4"
        }
      ],
      "name": "supportsInterface",
      "outputs": [
        {
          "internalType": "bool",
          "name": "",
          "type": "bool"
        }
      ],
      "stateMutability": "view",
      "type": "function",
      "constant": true
    },
    {
      "inputs": [],
      "name": "symbol",
      "outputs": [
        {
          "internalType": "string",
          "name": "",
          "type": "string"
        }
      ],
      "stateMutability": "view",
      "type": "function",
      "constant": true
    },
    {
      "inputs": [
        {
          "internalType": "uint256",
          "name": "",
          "type": "uint256"
        }
      ],
      "name": "tasks",
      "outputs": [
        {
          "internalType": "string",
          "name": "ipfsHash",
          "type": "string"
        },
        {
          "internalType": "address",
          "name": "verifier",
          "type": "address"
        },
        {
          "internalType": "bool",
          "name": "isCompleted",
          "type": "bool"
        },
        {
          "internalType": "uint256",
          "name": "weight",
          "type": "uint256"
        }
      ],
      "stateMutability": "view",
      "type": "function",
      "constant": true
    },
    {
      "inputs": [
        {
          "internalType": "uint256",
          "name": "tokenId",
          "type": "uint256"
        }
      ],
      "name": "tokenURI",
      "outputs": [
        {
          "internalType": "string",
          "name": "",
          "type": "string"
        }
      ],
      "stateMutability": "view",
      "type": "function",
      "constant": true
    },
    {
      "inputs": [
        {
          "internalType": "address",
          "name": "from",
          "type": "address"
        },
        {
          "internalType": "address",
          "name": "to",
          "type": "address"
        },
        {
          "internalType": "uint256",
          "name": "tokenId",
          "type": "uint256"
        }
      ],
      "name": "transferFrom",
      "outputs": [],
      "stateMutability": "nonpayable",
      "type": "function"
    },
    {
      "inputs": [
        {
          "internalType": "string",
          "name": "_ipfsHash",
          "type": "string"
        },
        {
          "internalType": "address",
          "name": "_verifier",
          "type": "address"
        },
        {
          "internalType": "uint256",
          "name": "_weight",
          "type": "uint256"
        }
      ],
      "name": "addTask",
      "outputs": [],
      "stateMutability": "nonpayable",
      "type": "function"
    },
    {
      "inputs": [
        {
          "internalType": "uint256",
          "name": "_taskId",
          "type": "uint256"
        }
      ],
      "name": "verifyTask",
      "outputs": [],
      "stateMutability": "nonpayable",
      "type": "function"
    },
    {
      "inputs": [
        {
          "internalType": "uint256",
          "name": "_taskId",
          "type": "uint256"
        }
      ],
      "name": "isSubmitted",
      "outputs": [
        {
          "internalType": "bool",
          "name": "",
          "type": "bool"
        }
      ],
      "stateMutability": "view",
      "type": "function",
      "constant": true
    },
    {
      "inputs": [
        {
          "internalType": "uint256",
          "name": "_taskId",
          "type": "uint256"
        }
      ],
      "name": "getMaxScore",
      "outputs": [
        {
          "internalType": "uint256",
          "name": "",
          "type": "uint256"
        }
      ],
      "stateMutability": "view",
      "type": "function",
      "constant": true
    },
    {
      "inputs": [],
      "name": "getTaskCount",
      "outputs": [
        {
          "internalType": "uint256",
          "name": "",
          "type": "uint256"
        }
      ],
      "stateMutability": "view",
      "type": "function",
      "constant": true
    },
    {
      "inputs": [
        {
          "internalType": "contract Task",
          "name": "_task",
          "type": "address"
        }
      ],
      "name": "getTaskId",
      "outputs": [
        {
          "internalType": "uint256",
          "name": "",
          "type": "uint256"
        }
      ],
      "stateMutability": "view",
      "type": "function",
      "constant": true
    }
  ],
  "bytecode": "0x60806040523480156200001157600080fd5b506040518060400160405280600781526020017f5461736b4e4654000000000000000000000000000000000000000000000000008152506040518060400160405280600481526020017f544e46540000000000000000000000000000000000000000000000000000000081525081600090816200008f919062000324565b508060019081620000a1919062000324565b5050506200040b565b600081519050919050565b7f4e487b7100000000000000000000000000000000000000000000000000000000600052604160045260246000fd5b7f4e487b7100000000000000000000000000000000000000000000000000000000600052602260045260246000fd5b600060028204905060018216806200012c57607f821691505b602082108103620001425762000141620000e4565b5b50919050565b60008190508160005260206000209050919050565b60006020601f8301049050919050565b600082821b905092915050565b600060088302620001ac7fffffffffffffffffffffffffffffffffffffffffffffffffffffffffffffffff826200016d565b620001b886836200016d565b95508019841693508086168417925050509392505050565b6000819050919050565b6000819050919050565b600062000205620001ff620001f984620001d0565b620001da565b620001d0565b9050919050565b6000819050919050565b6200022183620001e4565b6200023962000230826200020c565b8484546200017a565b825550505050565b600090565b6200025062000241565b6200025d81848462000216565b505050565b5b8181101562000285576200027960008262000246565b60018101905062000263565b5050565b601f821115620002d4576200029e8162000148565b620002a9846200015d565b81016020851015620002b9578190505b620002d1620002c8856200015d565b83018262000262565b50505b505050565b600082821c905092915050565b6000620002f960001984600802620002d9565b1980831691505092915050565b6000620003148383620002e6565b9150826002028217905092915050565b6200032f82620000aa565b67ffffffffffffffff8111156200034b576200034a620000b5565b5b62000357825462000113565b6200036482828562000289565b600060209050601f8311600181146200039c576000841562000387578287015190505b62000393858262000306565b86555062000403565b601f198416620003ac8662000148565b60005b82811015620003d657848901518255600182019150602085019450602081019050620003af565b86831015620003f65784890151620003f2601f891682620002e6565b8355505b6001600288020188555050505b505050505050565b612cd2806200041b6000396000f3fe608060405234801561001057600080fd5b50600436106101375760003560e01c80636352211e116100b8578063b88d4fde1161007c578063b88d4fde14610387578063c17a340e146103a3578063c87b56dd146103c1578063e787418a146103f1578063e985e9c514610421578063f3c0af0a1461045157610137565b80636352211e146102ba57806370a08231146102ea5780638d9776721461031a57806395d89b411461034d578063a22cb4651461036b57610137565b80632e70cbfd116100ff5780632e70cbfd146101f257806335233dab1461022257806342842e0e146102525780635573e3ef1461026e57806358a367051461028a57610137565b806301ffc9a71461013c57806306fdde031461016c578063081812fc1461018a578063095ea7b3146101ba57806323b872dd146101d6575b600080fd5b61015660048036038101906101519190611abd565b61046d565b6040516101639190611b05565b60405180910390f35b61017461054f565b6040516101819190611bb0565b60405180910390f35b6101a4600480360381019061019f9190611c08565b6105e1565b6040516101b19190611c76565b60405180910390f35b6101d460048036038101906101cf9190611cbd565b610627565b005b6101f060048036038101906101eb9190611cfd565b61073e565b005b61020c60048036038101906102079190611c08565b61079e565b6040516102199190611d5f565b60405180910390f35b61023c60048036038101906102379190611c08565b610814565b6040516102499190611b05565b60405180910390f35b61026c60048036038101906102679190611cfd565b610834565b005b61028860048036038101906102839190611c08565b610854565b005b6102a4600480360381019061029f9190611db8565b610948565b6040516102b19190611d5f565b60405180910390f35b6102d460048036038101906102cf9190611c08565b6109b7565b6040516102e19190611c76565b60405180910390f35b61030460048036038101906102ff9190611de5565b610a3d565b6040516103119190611d5f565b60405180910390f35b610334600480360381019061032f9190611c08565b610af4565b6040516103449493929190611e12565b60405180910390f35b610355610be9565b6040516103629190611bb0565b60405180910390f35b61038560048036038101906103809190611e8a565b610c7b565b005b6103a1600480360381019061039c9190611fff565b610c91565b005b6103ab610cf3565b6040516103b89190611d5f565b60405180910390f35b6103db60048036038101906103d69190611c08565b610d00565b6040516103e89190611bb0565b60405180910390f35b61040b60048036038101906104069190611c08565b610d68565b6040516104189190611b05565b60405180910390f35b61043b60048036038101906104369190612082565b610d92565b6040516104489190611b05565b60405180910390f35b61046b60048036038101906104669190612163565b610e26565b005b60007f80ac58cd000000000000000000000000000000000000000000000000000000007bffffffffffffffffffffffffffffffffffffffffffffffffffffffff1916827bffffffffffffffffffffffffffffffffffffffffffffffffffffffff1916148061053857507f5b5e139f000000000000000000000000000000000000000000000000000000007bffffffffffffffffffffffffffffffffffffffffffffffffffffffff1916827bffffffffffffffffffffffffffffffffffffffffffffffffffffffff1916145b80610548575061054782610f19565b5b9050919050565b60606000805461055e90612201565b80601f016020809104026020016040519081016040528092919081815260200182805461058a90612201565b80156105d75780601f106105ac576101008083540402835291602001916105d7565b820191906000526020600020905b8154815290600101906020018083116105ba57829003601f168201915b5050505050905090565b60006105ec82610f83565b6004600083815260200190815260200160002060009054906101000a900473ffffffffffffffffffffffffffffffffffffffff169050919050565b6000610632826109b7565b90508073ffffffffffffffffffffffffffffffffffffffff168373ffffffffffffffffffffffffffffffffffffffff16036106a2576040517f08c379a0000000000000000000000000000000000000000000000000000000008152600401610699906122a4565b60405180910390fd5b8073ffffffffffffffffffffffffffffffffffffffff166106c1610fce565b73ffffffffffffffffffffffffffffffffffffffff1614806106f057506106ef816106ea610fce565b610d92565b5b61072f576040517f08c379a000000000000000000000000000000000000000000000000000000000815260040161072690612336565b60405180910390fd5b6107398383610fd6565b505050565b61074f610749610fce565b8261108f565b61078e576040517f08c379a0000000000000000000000000000000000000000000000000000000008152600401610785906123c8565b60405180910390fd5b610799838383611124565b505050565b600060078054905082106107e7576040517f08c379a00000000000000000000000000000000000000000000000000000000081526004016107de90612434565b60405180910390fd5b600782815481106107fb576107fa612454565b5b9060005260206000209060030201600201549050919050565b60066020528060005260406000206000915054906101000a900460ff1681565b61084f83838360405180602001604052806000815250610c91565b505050565b6007818154811061086857610867612454565b5b906000526020600020906003020160010160009054906101000a900473ffffffffffffffffffffffffffffffffffffffff1673ffffffffffffffffffffffffffffffffffffffff163373ffffffffffffffffffffffffffffffffffffffff1614610907576040517f08c379a00000000000000000000000000000000000000000000000000000000081526004016108fe906124f5565b60405180910390fd5b60016007828154811061091d5761091c612454565b5b906000526020600020906003020160010160146101000a81548160ff02191690831515021790555050565b600080600090505b6007805490508110156109ac573073ffffffffffffffffffffffffffffffffffffffff168373ffffffffffffffffffffffffffffffffffffffff160361099957809150506109b2565b80806109a490612544565b915050610950565b50600090505b919050565b6000806109c38361141d565b9050600073ffffffffffffffffffffffffffffffffffffffff168173ffffffffffffffffffffffffffffffffffffffff1603610a34576040517f08c379a0000000000000000000000000000000000000000000000000000000008152600401610a2b906125d8565b60405180910390fd5b80915050919050565b60008073ffffffffffffffffffffffffffffffffffffffff168273ffffffffffffffffffffffffffffffffffffffff1603610aad576040517f08c379a0000000000000000000000000000000000000000000000000000000008152600401610aa49061266a565b60405180910390fd5b600360008373ffffffffffffffffffffffffffffffffffffffff1673ffffffffffffffffffffffffffffffffffffffff168152602001908152602001600020549050919050565b60078181548110610b0457600080fd5b9060005260206000209060030201600091509050806000018054610b2790612201565b80601f0160208091040260200160405190810160405280929190818152602001828054610b5390612201565b8015610ba05780601f10610b7557610100808354040283529160200191610ba0565b820191906000526020600020905b815481529060010190602001808311610b8357829003601f168201915b5050505050908060010160009054906101000a900473ffffffffffffffffffffffffffffffffffffffff16908060010160149054906101000a900460ff16908060020154905084565b606060018054610bf890612201565b80601f0160208091040260200160405190810160405280929190818152602001828054610c2490612201565b8015610c715780601f10610c4657610100808354040283529160200191610c71565b820191906000526020600020905b815481529060010190602001808311610c5457829003601f168201915b5050505050905090565b610c8d610c86610fce565b838361145a565b5050565b610ca2610c9c610fce565b8361108f565b610ce1576040517f08c379a0000000000000000000000000000000000000000000000000000000008152600401610cd8906123c8565b60405180910390fd5b610ced848484846115c6565b50505050565b6000600780549050905090565b6060610d0b82610f83565b6000610d15611622565b90506000815111610d355760405180602001604052806000815250610d60565b80610d3f84611639565b604051602001610d509291906126c6565b6040516020818303038152906040525b915050919050565b60006006600083815260200190815260200160002060009054906101000a900460ff169050919050565b6000600560008473ffffffffffffffffffffffffffffffffffffffff1673ffffffffffffffffffffffffffffffffffffffff16815260200190815260200160002060008373ffffffffffffffffffffffffffffffffffffffff1673ffffffffffffffffffffffffffffffffffffffff16815260200190815260200160002060009054906101000a900460ff16905092915050565b600760405180608001604052808581526020018473ffffffffffffffffffffffffffffffffffffffff1681526020016000151581526020018381525090806001815401808255809150506001900390600052602060002090600302016000909190919091506000820151816000019081610ea09190612896565b5060208201518160010160006101000a81548173ffffffffffffffffffffffffffffffffffffffff021916908373ffffffffffffffffffffffffffffffffffffffff16021790555060408201518160010160146101000a81548160ff021916908315150217905550606082015181600201555050505050565b60007f01ffc9a7000000000000000000000000000000000000000000000000000000007bffffffffffffffffffffffffffffffffffffffffffffffffffffffff1916827bffffffffffffffffffffffffffffffffffffffffffffffffffffffff1916149050919050565b610f8c81611707565b610fcb576040517f08c379a0000000000000000000000000000000000000000000000000000000008152600401610fc2906125d8565b60405180910390fd5b50565b600033905090565b816004600083815260200190815260200160002060006101000a81548173ffffffffffffffffffffffffffffffffffffffff021916908373ffffffffffffffffffffffffffffffffffffffff160217905550808273ffffffffffffffffffffffffffffffffffffffff16611049836109b7565b73ffffffffffffffffffffffffffffffffffffffff167f8c5be1e5ebec7d5bd14f71427d1e84f3dd0314c0f7b2291e5b200ac8c7c3b92560405160405180910390a45050565b60008061109b836109b7565b90508073ffffffffffffffffffffffffffffffffffffffff168473ffffffffffffffffffffffffffffffffffffffff1614806110dd57506110dc8185610d92565b5b8061111b57508373ffffffffffffffffffffffffffffffffffffffff16611103846105e1565b73ffffffffffffffffffffffffffffffffffffffff16145b91505092915050565b8273ffffffffffffffffffffffffffffffffffffffff16611144826109b7565b73ffffffffffffffffffffffffffffffffffffffff161461119a576040517f08c379a0000000000000000000000000000000000000000000000000000000008152600401611191906129da565b60405180910390fd5b600073ffffffffffffffffffffffffffffffffffffffff168273ffffffffffffffffffffffffffffffffffffffff1603611209576040517f08c379a000000000000000000000000000000000000000000000000000000000815260040161120090612a6c565b60405180910390fd5b6112168383836001611748565b8273ffffffffffffffffffffffffffffffffffffffff16611236826109b7565b73ffffffffffffffffffffffffffffffffffffffff161461128c576040517f08c379a0000000000000000000000000000000000000000000000000000000008152600401611283906129da565b60405180910390fd5b6004600082815260200190815260200160002060006101000a81549073ffffffffffffffffffffffffffffffffffffffff02191690556001600360008573ffffffffffffffffffffffffffffffffffffffff1673ffffffffffffffffffffffffffffffffffffffff168152602001908152602001600020600082825403925050819055506001600360008473ffffffffffffffffffffffffffffffffffffffff1673ffffffffffffffffffffffffffffffffffffffff16815260200190815260200160002060008282540192505081905550816002600083815260200190815260200160002060006101000a81548173ffffffffffffffffffffffffffffffffffffffff021916908373ffffffffffffffffffffffffffffffffffffffff160217905550808273ffffffffffffffffffffffffffffffffffffffff168473ffffffffffffffffffffffffffffffffffffffff167fddf252ad1be2c89b69c2b068fc378daa952ba7f163c4a11628f55a4df523b3ef60405160405180910390a4611418838383600161174e565b505050565b60006002600083815260200190815260200160002060009054906101000a900473ffffffffffffffffffffffffffffffffffffffff169050919050565b8173ffffffffffffffffffffffffffffffffffffffff168373ffffffffffffffffffffffffffffffffffffffff16036114c8576040517f08c379a00000000000000000000000000000000000000000000000000000000081526004016114bf90612ad8565b60405180910390fd5b80600560008573ffffffffffffffffffffffffffffffffffffffff1673ffffffffffffffffffffffffffffffffffffffff16815260200190815260200160002060008473ffffffffffffffffffffffffffffffffffffffff1673ffffffffffffffffffffffffffffffffffffffff16815260200190815260200160002060006101000a81548160ff0219169083151502179055508173ffffffffffffffffffffffffffffffffffffffff168373ffffffffffffffffffffffffffffffffffffffff167f17307eab39ab6107e8899845ad3d59bd9653f200f220920489ca2b5937696c31836040516115b99190611b05565b60405180910390a3505050565b6115d1848484611124565b6115dd84848484611754565b61161c576040517f08c379a000000000000000000000000000000000000000000000000000000000815260040161161390612b6a565b60405180910390fd5b50505050565b606060405180602001604052806000815250905090565b606060006001611648846118db565b01905060008167ffffffffffffffff81111561166757611666611ed4565b5b6040519080825280601f01601f1916602001820160405280156116995781602001600182028036833780820191505090505b509050600082602001820190505b6001156116fc578080600190039150507f3031323334353637383961626364656600000000000000000000000000000000600a86061a8153600a85816116f0576116ef612b8a565b5b049450600085036116a7575b819350505050919050565b60008073ffffffffffffffffffffffffffffffffffffffff166117298361141d565b73ffffffffffffffffffffffffffffffffffffffff1614159050919050565b50505050565b50505050565b60006117758473ffffffffffffffffffffffffffffffffffffffff16611a2e565b156118ce578373ffffffffffffffffffffffffffffffffffffffff1663150b7a0261179e610fce565b8786866040518563ffffffff1660e01b81526004016117c09493929190612c0e565b6020604051808303816000875af19250505080156117fc57506040513d601f19601f820116820180604052508101906117f99190612c6f565b60015b61187e573d806000811461182c576040519150601f19603f3d011682016040523d82523d6000602084013e611831565b606091505b506000815103611876576040517f08c379a000000000000000000000000000000000000000000000000000000000815260040161186d90612b6a565b60405180910390fd5b805181602001fd5b63150b7a0260e01b7bffffffffffffffffffffffffffffffffffffffffffffffffffffffff1916817bffffffffffffffffffffffffffffffffffffffffffffffffffffffff1916149150506118d3565b600190505b949350505050565b600080600090507a184f03e93ff9f4daa797ed6e38ed64bf6a1f0100000000000000008310611939577a184f03e93ff9f4daa797ed6e38ed64bf6a1f010000000000000000838161192f5761192e612b8a565b5b0492506040810190505b6d04ee2d6d415b85acef81000000008310611976576d04ee2d6d415b85acef8100000000838161196c5761196b612b8a565b5b0492506020810190505b662386f26fc1000083106119a557662386f26fc10000838161199b5761199a612b8a565b5b0492506010810190505b6305f5e10083106119ce576305f5e10083816119c4576119c3612b8a565b5b0492506008810190505b61271083106119f35761271083816119e9576119e8612b8a565b5b0492506004810190505b60648310611a165760648381611a0c57611a0b612b8a565b5b0492506002810190505b600a8310611a25576001810190505b80915050919050565b6000808273ffffffffffffffffffffffffffffffffffffffff163b119050919050565b6000604051905090565b600080fd5b600080fd5b60007fffffffff0000000000000000000000000000000000000000000000000000000082169050919050565b611a9a81611a65565b8114611aa557600080fd5b50565b600081359050611ab781611a91565b92915050565b600060208284031215611ad357611ad2611a5b565b5b6000611ae184828501611aa8565b91505092915050565b60008115159050919050565b611aff81611aea565b82525050565b6000602082019050611b1a6000830184611af6565b92915050565b600081519050919050565b600082825260208201905092915050565b60005b83811015611b5a578082015181840152602081019050611b3f565b60008484015250505050565b6000601f19601f8301169050919050565b6000611b8282611b20565b611b8c8185611b2b565b9350611b9c818560208601611b3c565b611ba581611b66565b840191505092915050565b60006020820190508181036000830152611bca8184611b77565b905092915050565b6000819050919050565b611be581611bd2565b8114611bf057600080fd5b50565b600081359050611c0281611bdc565b92915050565b600060208284031215611c1e57611c1d611a5b565b5b6000611c2c84828501611bf3565b91505092915050565b600073ffffffffffffffffffffffffffffffffffffffff82169050919050565b6000611c6082611c35565b9050919050565b611c7081611c55565b82525050565b6000602082019050611c8b6000830184611c67565b92915050565b611c9a81611c55565b8114611ca557600080fd5b50565b600081359050611cb781611c91565b92915050565b60008060408385031215611cd457611cd3611a5b565b5b6000611ce285828601611ca8565b9250506020611cf385828601611bf3565b9150509250929050565b600080600060608486031215611d1657611d15611a5b565b5b6000611d2486828701611ca8565b9350506020611d3586828701611ca8565b9250506040611d4686828701611bf3565b9150509250925092565b611d5981611bd2565b82525050565b6000602082019050611d746000830184611d50565b92915050565b6000611d8582611c55565b9050919050565b611d9581611d7a565b8114611da057600080fd5b50565b600081359050611db281611d8c565b92915050565b600060208284031215611dce57611dcd611a5b565b5b6000611ddc84828501611da3565b91505092915050565b600060208284031215611dfb57611dfa611a5b565b5b6000611e0984828501611ca8565b91505092915050565b60006080820190508181036000830152611e2c8187611b77565b9050611e3b6020830186611c67565b611e486040830185611af6565b611e556060830184611d50565b95945050505050565b611e6781611aea565b8114611e7257600080fd5b50565b600081359050611e8481611e5e565b92915050565b60008060408385031215611ea157611ea0611a5b565b5b6000611eaf85828601611ca8565b9250506020611ec085828601611e75565b9150509250929050565b600080fd5b600080fd5b7f4e487b7100000000000000000000000000000000000000000000000000000000600052604160045260246000fd5b611f0c82611b66565b810181811067ffffffffffffffff82111715611f2b57611f2a611ed4565b5b80604052505050565b6000611f3e611a51565b9050611f4a8282611f03565b919050565b600067ffffffffffffffff821115611f6a57611f69611ed4565b5b611f7382611b66565b9050602081019050919050565b82818337600083830152505050565b6000611fa2611f9d84611f4f565b611f34565b905082815260208101848484011115611fbe57611fbd611ecf565b5b611fc9848285611f80565b509392505050565b600082601f830112611fe657611fe5611eca565b5b8135611ff6848260208601611f8f565b91505092915050565b6000806000806080858703121561201957612018611a5b565b5b600061202787828801611ca8565b945050602061203887828801611ca8565b935050604061204987828801611bf3565b925050606085013567ffffffffffffffff81111561206a57612069611a60565b5b61207687828801611fd1565b91505092959194509250565b6000806040838503121561209957612098611a5b565b5b60006120a785828601611ca8565b92505060206120b885828601611ca8565b9150509250929050565b600067ffffffffffffffff8211156120dd576120dc611ed4565b5b6120e682611b66565b9050602081019050919050565b6000612106612101846120c2565b611f34565b90508281526020810184848401111561212257612121611ecf565b5b61212d848285611f80565b509392505050565b600082601f83011261214a57612149611eca565b5b813561215a8482602086016120f3565b91505092915050565b60008060006060848603121561217c5761217b611a5b565b5b600084013567ffffffffffffffff81111561219a57612199611a60565b5b6121a686828701612135565b93505060206121b786828701611ca8565b92505060406121c886828701611bf3565b9150509250925092565b7f4e487b7100000000000000000000000000000000000000000000000000000000600052602260045260246000fd5b6000600282049050600182168061221957607f821691505b60208210810361222c5761222b6121d2565b5b50919050565b7f4552433732313a20617070726f76616c20746f2063757272656e74206f776e6560008201527f7200000000000000000000000000000000000000000000000000000000000000602082015250565b600061228e602183611b2b565b915061229982612232565b604082019050919050565b600060208201905081810360008301526122bd81612281565b9050919050565b7f4552433732313a20617070726f76652063616c6c6572206973206e6f7420746f60008201527f6b656e206f776e6572206f7220617070726f76656420666f7220616c6c000000602082015250565b6000612320603d83611b2b565b915061232b826122c4565b604082019050919050565b6000602082019050818103600083015261234f81612313565b9050919050565b7f4552433732313a2063616c6c6572206973206e6f7420746f6b656e206f776e6560008201527f72206f7220617070726f76656400000000000000000000000000000000000000602082015250565b60006123b2602d83611b2b565b91506123bd82612356565b604082019050919050565b600060208201905081810360008301526123e1816123a5565b9050919050565b7f496e76616c6964207461736b2049440000000000000000000000000000000000600082015250565b600061241e600f83611b2b565b9150612429826123e8565b602082019050919050565b6000602082019050818103600083015261244d81612411565b9050919050565b7f4e487b7100000000000000000000000000000000000000000000000000000000600052603260045260246000fd5b7f4f6e6c79207468652064657369676e617465642076657269666965722063616e60008201527f20766572696679207461736b7300000000000000000000000000000000000000602082015250565b60006124df602d83611b2b565b91506124ea82612483565b604082019050919050565b6000602082019050818103600083015261250e816124d2565b9050919050565b7f4e487b7100000000000000000000000000000000000000000000000000000000600052601160045260246000fd5b600061254f82611bd2565b91507fffffffffffffffffffffffffffffffffffffffffffffffffffffffffffffffff820361258157612580612515565b5b600182019050919050565b7f4552433732313a20696e76616c696420746f6b656e2049440000000000000000600082015250565b60006125c2601883611b2b565b91506125cd8261258c565b602082019050919050565b600060208201905081810360008301526125f1816125b5565b9050919050565b7f4552433732313a2061646472657373207a65726f206973206e6f74206120766160008201527f6c6964206f776e65720000000000000000000000000000000000000000000000602082015250565b6000612654602983611b2b565b915061265f826125f8565b604082019050919050565b6000602082019050818103600083015261268381612647565b9050919050565b600081905092915050565b60006126a082611b20565b6126aa818561268a565b93506126ba818560208601611b3c565b80840191505092915050565b60006126d28285612695565b91506126de8284612695565b91508190509392505050565b60008190508160005260206000209050919050565b60006020601f8301049050919050565b600082821b905092915050565b60006008830261274c7fffffffffffffffffffffffffffffffffffffffffffffffffffffffffffffffff8261270f565b612756868361270f565b95508019841693508086168417925050509392505050565b6000819050919050565b600061279361278e61278984611bd2565b61276e565b611bd2565b9050919050565b6000819050919050565b6127ad83612778565b6127c16127b98261279a565b84845461271c565b825550505050565b600090565b6127d66127c9565b6127e18184846127a4565b505050565b5b81811015612805576127fa6000826127ce565b6001810190506127e7565b5050565b601f82111561284a5761281b816126ea565b612824846126ff565b81016020851015612833578190505b61284761283f856126ff565b8301826127e6565b50505b505050565b600082821c905092915050565b600061286d6000198460080261284f565b1980831691505092915050565b6000612886838361285c565b9150826002028217905092915050565b61289f82611b20565b67ffffffffffffffff8111156128b8576128b7611ed4565b5b6128c28254612201565b6128cd828285612809565b600060209050601f83116001811461290057600084156128ee578287015190505b6128f8858261287a565b865550612960565b601f19841661290e866126ea565b60005b8281101561293657848901518255600182019150602085019450602081019050612911565b86831015612953578489015161294f601f89168261285c565b8355505b6001600288020188555050505b505050505050565b7f4552433732313a207472616e736665722066726f6d20696e636f72726563742060008201527f6f776e6572000000000000000000000000000000000000000000000000000000602082015250565b60006129c4602583611b2b565b91506129cf82612968565b604082019050919050565b600060208201905081810360008301526129f3816129b7565b9050919050565b7f4552433732313a207472616e7366657220746f20746865207a65726f2061646460008201527f7265737300000000000000000000000000000000000000000000000000000000602082015250565b6000612a56602483611b2b565b9150612a61826129fa565b604082019050919050565b60006020820190508181036000830152612a8581612a49565b9050919050565b7f4552433732313a20617070726f766520746f2063616c6c657200000000000000600082015250565b6000612ac2601983611b2b565b9150612acd82612a8c565b602082019050919050565b60006020820190508181036000830152612af181612ab5565b9050919050565b7f4552433732313a207472616e7366657220746f206e6f6e20455243373231526560008201527f63656976657220696d706c656d656e7465720000000000000000000000000000602082015250565b6000612b54603283611b2b565b9150612b5f82612af8565b604082019050919050565b60006020820190508181036000830152612b8381612b47565b9050919050565b7f4e487b7100000000000000000000000000000000000000000000000000000000600052601260045260246000fd5b600081519050919050565b600082825260208201905092915050565b6000612be082612bb9565b612bea8185612bc4565b9350612bfa818560208601611b3c565b612c0381611b66565b840191505092915050565b6000608082019050612c236000830187611c67565b612c306020830186611c67565b612c3d6040830185611d50565b8181036060830152612c4f8184612bd5565b905095945050505050565b600081519050612c6981611a91565b92915050565b600060208284031215612c8557612c84611a5b565b5b6000612c9384828501612c5a565b9150509291505056fea264697066735822122094ea05ae74dcbaec7ef77285700b09915128d501bc3c58b731c8c5d2fdc7652c64736f6c63430008130033",
  "immutableReferences": {},
  "source": "// SPDX-License-Identifier: MIT\npragma solidity ^0.8.0;\n\nimport \"@openzeppelin/contracts/utils/math/SafeMath.sol\";\nimport \"@openzeppelin/contracts/token/ERC721/ERC721.sol\";\n\ncontract Task is ERC721 {\n    using SafeMath for uint256;\n\n    struct TaskData {\n        string ipfsHash; // IPFS hash for task metadata\n        address verifier;\n        bool isCompleted;\n        uint256 weight; // weight of the task for calculating exam GPA\n    }\n    mapping(uint256 => bool) public submitted;\n    TaskData[] public tasks;\n\n    function addTask(\n        string memory _ipfsHash,\n        address _verifier,\n        uint256 _weight\n    ) public {\n        tasks.push(TaskData(_ipfsHash, _verifier, false, _weight));\n    }\n\n    function verifyTask(uint256 _taskId) public {\n        require(\n            msg.sender == tasks[_taskId].verifier,\n            \"Only the designated verifier can verify tasks\"\n        );\n        tasks[_taskId].isCompleted = true;\n    }\n\n    function isSubmitted(uint256 _taskId) public view returns (bool) {\n        return submitted[_taskId];\n    }\n\n    function getMaxScore(uint256 _taskId) public view returns (uint256) {\n        require(_taskId < tasks.length, \"Invalid task ID\");\n        return tasks[_taskId].weight;\n    }\n\n    function getTaskCount() public view returns (uint256) {\n        return tasks.length;\n    }\n\n    function getTaskId(Task _task) public view returns (uint256) {\n        for (uint256 i = 0; i < tasks.length; i++) {\n            if (address(_task) == address(this)) {\n                return i;\n            }\n        }\n        return 0;\n    }\n\n    constructor() ERC721(\"TaskNFT\", \"TNFT\") {}\n}\n",
  "sourcePath": "/home/main/github/vert.io/truffle/contracts/TaskNFT.sol",
  "compiler": {
    "name": "solc",
    "version": "0.8.19+commit.7dd6d404.Emscripten.clang"
  },
  "schemaVersion": "3.4.13",
  "updatedAt": "2023-03-21T08:02:02.324Z",
  "networkType": "ethereum",
  "devdoc": {
    "events": {
      "Approval(address,address,uint256)": {
        "details": "Emitted when `owner` enables `approved` to manage the `tokenId` token."
      },
      "ApprovalForAll(address,address,bool)": {
        "details": "Emitted when `owner` enables or disables (`approved`) `operator` to manage all of its assets."
      },
      "Transfer(address,address,uint256)": {
        "details": "Emitted when `tokenId` token is transferred from `from` to `to`."
      }
    },
    "kind": "dev",
    "methods": {
      "approve(address,uint256)": {
        "details": "See {IERC721-approve}."
      },
      "balanceOf(address)": {
        "details": "See {IERC721-balanceOf}."
      },
      "getApproved(uint256)": {
        "details": "See {IERC721-getApproved}."
      },
      "isApprovedForAll(address,address)": {
        "details": "See {IERC721-isApprovedForAll}."
      },
      "name()": {
        "details": "See {IERC721Metadata-name}."
      },
      "ownerOf(uint256)": {
        "details": "See {IERC721-ownerOf}."
      },
      "safeTransferFrom(address,address,uint256)": {
        "details": "See {IERC721-safeTransferFrom}."
      },
      "safeTransferFrom(address,address,uint256,bytes)": {
        "details": "See {IERC721-safeTransferFrom}."
      },
      "setApprovalForAll(address,bool)": {
        "details": "See {IERC721-setApprovalForAll}."
      },
      "supportsInterface(bytes4)": {
        "details": "See {IERC165-supportsInterface}."
      },
      "symbol()": {
        "details": "See {IERC721Metadata-symbol}."
      },
      "tokenURI(uint256)": {
        "details": "See {IERC721Metadata-tokenURI}."
      },
      "transferFrom(address,address,uint256)": {
        "details": "See {IERC721-transferFrom}."
      }
    },
    "version": 1
  },
  "userdoc": {
    "kind": "user",
    "methods": {},
    "version": 1
  }
}